:100000000C9471000C948E000C948E000C948E0055
:100010000C948E000C948E000C948E000C948E0028
:100020000C948E000C948E000C948E000C948E0018
:100030000C948E000C948E000C948E000C948E0008
:100040000C94AE1D0C948E000C94041C0C94391C62
:100050000C948E000C94EC1C0C948E000C948E006E
:100060000C94B41E0C948E000C948E000C948E0094
:100070000C948E000C948E000C948E000C948E00C8
:100080000C948E000C948E000C948E000C948E00B8
:100090000C948E000C948E000C948E000C948E00A8
:1000A0000C94C7220C948E000C948E000C948E003D
:1000B0000C948E00CD07D607DF07E807EB07EE07A5
:1000C000F1071814201450149014EF140F1539155B
:1000D00067153A16B815E015FA152A1652505569E3
:1000E000640011241FBECFEFD8E0DEBFCDBF11E00A
:1000F000A0E0B1E0E8E1F1E502C005900D92A43A7C
:10010000B107D9F724E0A4EAB1E001C01D92A035FF
:10011000B207E1F70E94B0010C948A280C94000009
:100120008FB7F89429988FBF8FB7F894219A8FBF13
:100130008FB7F894259A8FBF8FB7F8942D9A8FBFF9
:100140008FB7F89453988FBF8FB7F8945B9A8FBF8F
:100150008FB7F894529A8FBF8FB7F8945A9A8FBF7F
:100160008FB7F8943B9A8FBF8FB7F894439A8FBF9D
:100170008FB7F894549A8FBF8FB7F8945C988FBF5D
:100180008FB7F894559A8FBF8FB7F8945D9A8FBF49
:100190008FB7F8943A9A8FBF8FB7F89442988FBF71
:1001A0008FB7F894579A8FBF8FB7F8945F988FBF27
:1001B0008FB7F894569A8FBF8FB7F8945E988FBF19
:1001C0008FB7F894229A8FBF8FB7F8942A9A8FBF6F
:1001D0008FB7F894239A8FBF8FB7F8942B988FBF5F
:1001E00080E3809310031092120310920103109287
:1001F0000303109208031092060310920503109255
:10020000130310920F031092000310921503109223
:1002100007031092790310927803109216030E943C
:10022000D31D80E40E946D1D80E00E94881D0E9405
:10023000111E6093AB037093AC038093AD03909356
:10024000AE0342E060E970ED83E090E00E94961C0E
:1002500090934B0480934A0490934D0480934C04F4
:1002600089E20E946A2288E29DE00E94A82280EF33
:100270009CE00E949F2240E050E060EA76E881E046
:1002800090E00E9410208AE20E948F248CE19EE080
:100290000E94CD2482EA9DE00E94C42440E050E008
:1002A00060EA76E881E090E00E94332478942FEBB6
:1002B00084ED91E0215080409040E1F700C00000C3
:1002C0008FB7F8945F9A8FBF1092AF0380E090E0F1
:1002D0000E94A70F81E090E00E94A70F0E94500E9D
:1002E000882329F082E390E00E940B2801C081E37B
:1002F000809311030E94541A0E94B0160E94D410D9
:100300000E94111E6093DA037093DB038093DC0379
:100310009093DD031092230480E090E00E942B1B59
:1003200081E090E00E942B1B82E090E00E942B1B5A
:1003300083E090E00E942B1B8FB7F89420988FBF2A
:100340008FB7F894289A8FBF89E090E09093EC03E0
:100350008093EB03809103038860809303030895E7
:100360000E9490000E94111E60930B0370930C0377
:1003700080930D0390930E0380911503811108C0A3
:100380000E9416020E94B5020E94E7020E94CE025D
:100390000E94250E0E94EB030E946B0E0E94F80F34
:1003A0000E94A21B0E94B01A0E94BE170E948511D3
:1003B0000E94DD110E947A170E94EE130E94AC0D7C
:1003C000DBCF80910A038823C1F08FB7F89443985C
:1003D0008FBF8FB7F8945C988FBF809109038823F3
:1003E00021F08FB7F8945D9A03C08FB7F8945D98A9
:1003F0008FBF8FB7F894429A17C08FB7F894439A7B
:100400008FBF8FB7F8945C988FBF809109038823C2
:1004100021F08FB7F8945D9A03C08FB7F8945D9878
:100420008FBF8FB7F89442988FBF08958091EB03E8
:100430009091EC030197089728F48FB7F8942D9AC0
:100440008FBF08958BE093E00E948A1E20910303E2
:10045000277F09F067C020910A03222321F0969597
:10046000879577956795209102032223D9F06C3404
:10047000710581059105B0F093B18FB7F89495FDA2
:1004800002C02D9A01C02D988FBF80910B039091CF
:100490000C03A0910D03B0910E03855B9F4FAF4FEE
:1004A000BF4F5AC0209101032223E1F0613D27E0B4
:1004B000720781059105B0F093B18FB7F89495FD5F
:1004C00002C02D9A01C02D988FBF80910B0390918F
:1004D0000C03A0910D03B0910E038053984FAF4FC2
:1004E000BF4F3AC020911203222309F43DC0653F5B
:1004F000714081059105C0F193B18FB7F89495FDD6
:1005000002C02D9A01C02D988FBF80910B0390914E
:100510000C03A0910D03B0910E038C509E4FAF4F72
:10052000BF4F1AC0693C710581059105E8F093B190
:100530008FB7F89495FD02C02D9A01C02D988FBFFA
:1005400080910B0390910C03A0910D03B0910E03C9
:1005500088539F4FAF4FBF4F80930B0390930C0373
:10056000A0930D03B0930E03089580910203882396
:10057000A1F088EF92E00E948A1E20910F032111C2
:100580000CC06933714C8140910538F00E94E10143
:1005900081E0809312031092020308958CEF92E0A1
:1005A0000E948A1E20910F03211110C02091010387
:1005B000222361F0613C744D8140910538F00E9426
:1005C000E10181E08093120310920103089580916C
:1005D0000A038111B5C04B9956C08091030383FD76
:1005E000AFC04A9B05C08FB7F8945A988FBF089543
:1005F000809102038111A4C0809101038111A0C0E8
:100600008091120381119CC080911403811198C0C4
:100610000E94111E6093190370931A0380931B03A9
:1006200090931C038091100380931603209116036E
:10063000909116034091160330E0209530952A7072
:10064000332764E0220F331F6A95E1F7892F90E08A
:10065000809590958075992774E0959587957A9502
:10066000E1F7822B932B9F938F931F924F9386E1F9
:1006700091E09F938F930E94642581E080931403FF
:100680008093040357C080911203882309F458C053
:1006900080910403882309F453C0809114038111CD
:1006A0004FC08091020381114BC0809101038111E1
:1006B00047C00E94111E6093190370931A03809320
:1006C0001B0390931C038FEC809316032091160359
:1006D000909116034091160330E0209530952A70D2
:1006E000332784E0220F331F8A95E1F7892F90E0AA
:1006F000809590958075992754E0959587955A95A2
:10070000E1F7822B932B9F938F931F924F9386E158
:1007100091E09F938F930E94642581E0809314035E
:100720008FB7F8942D9A8FBF109204038FB7F89467
:100730005A9A8FBF0F900F900F900F900F900F90BD
:10074000089580910A03882381F08FB7F894439825
:100750008FBF8FB7F8945C988FBF8FB7F8945D9A6E
:100760008FBF8FB7F894429A0FC08FB7F894439A0F
:100770008FBF8FB7F8945C988FBF8FB7F8945D9A4E
:100780008FBF8FB7F89442988FBF089580910A0366
:10079000882381F08FB7F89443988FBF8FB7F89470
:1007A0005C9A8FBF8FB7F8945D988FBF8FB7F8941E
:1007B000429A0FC08FB7F894439A8FBF8FB7F894BF
:1007C0005C9A8FBF8FB7F8945D988FBF8FB7F894FE
:1007D00042988FBF08958F929F92AF92BF92CF920F
:1007E000DF92EF92FF920F931F93CF93DF9389E1F4
:1007F00093E00E948A1E20911403222369F0653F32
:1008000071408105910540F08091030381708093D0
:10081000030310921403E9C10E94651C892B09F49B
:10082000E4C180914A0490914B040E942625609176
:100830001703262F30E020953095A9014A705527DF
:1008400074E0440F551F7A95E1F720753327E4E0F3
:1008500035952795EA95E1F7242B352BAC015527E3
:100860002417350739F4109217038091140381116E
:1008700004C00FC080931703B8C180911603681796
:1008800029F0809103038470809303031092140372
:1008900004C080910403882319F010920A0303C056
:1008A00081E080930A03611127C00E94111EDC01C0
:1008B000CB01805C944DA140B1098093FC029093E0
:1008C000FD02A093FE02B093FF020E94111EDC0104
:1008D000CB018853914CA140B1098093F8029093C9
:1008E000F902A093FA02B093FB028FB7F8942D9807
:1008F0008FBF10920F0352C16F3F31F41092130358
:1009000081E080930F0371C1613009F06DC0E9B1DE
:1009100079B156B189B149B199B129B136B1E3FB89
:10092000AA24A0F8B12CB694BA2CAA24B794A79400
:1009300072FBCC24C0F8D12CF6E0CC0CDD1CFA956F
:10094000E1F7CA2833FBAA24A0F8CA2852FBEE24F8
:10095000E0F8F12CA5E0EE0CFF1CAA95E1F7EC28DD
:1009600085FB002700F910E0B4E0000F111FBA95D5
:10097000E1F70E2946FB442740F9C42F80E0D82F29
:1009800013E0CC0FDD1F1A95E1F7C02B892F990FCB
:10099000990B8827990F881F9927880F991F880F0F
:1009A000991F8C2B24FB882480F8912C880C991C8F
:1009B0008829809307038FB7F894429A8FBF8FB727
:1009C000F8945D988FBF8FB7F8945F988FBF8FB7FB
:1009D000F8945C9A8FBF8FB7F89443988FBF1092AA
:1009E00000036093150301C16E3F09F076C080914A
:1009F0000703881F8827881F9FB7F894882311F062
:100A00005B9A01C05B989FBF8091070386FB882794
:100A100080F99FB7F894882311F05A9A01C05A9828
:100A20009FBF8091070385FB882780F99FB7F894C3
:100A3000882311F0429A01C042989FBF809107031A
:100A4000829581709FB7F894882311F05D9A01C058
:100A50005D989FBF8091070383FB882780F99FB72C
:100A6000F894882311F05E9A01C05E989FBF8FB7FB
:100A7000F894599A8FBF8FB7F89451988FBF80918F
:100A8000C10088618093C1008091070382FB8827A1
:100A900080F99FB7F894882311F05F9A01C05F989E
:100AA0009FBF80910703869581709FB7F894882334
:100AB00011F05C9A01C05C989FBF80910703817020
:100AC0009FB7F894882311F0439A01C043989FBFC1
:100AD000109200031092150388C0809111036813CF
:100AE00048C08091180381111AC00E94A1038FB7DA
:100AF000F8942A988FBF10921B041092F103109261
:100B0000E2030E94111E60931D0370931E038093E5
:100B10001F039093200381E08093180366C08DE14A
:100B200093E00E948A1E643171058105910508F4E5
:100B30005CC08FB7F8942A9A8FBF1092180381E097
:100B400080930203109209030E94111E60930B030D
:100B500070930C0380930D0390930E030E94111E5B
:100B60006093F8027093F9028093FA029093FB026B
:100B70003CC067FD1EC081E0809301031092020318
:100B8000109212030E94C6030E94111E6093FC0281
:100B90007093FD028093FE029093FF020E94111E4B
:100BA00060930B0370930C0380930D0390930E03DB
:100BB0001CC010920A0310920103109212031092AB
:100BC00002038FB7F8942D9A8FBF8FB7F89443988C
:100BD0008FBF8FB7F8945C9A8FBF8FB7F8945D98EA
:100BE0008FBF8FB7F894429A8FBFDF91CF911F913B
:100BF0000F91FF90EF90DF90CF90BF90AF909F90BC
:100C00008F900895FC018181909103039F709183DF
:100C100087FD909303030895FC01218130ED320F8D
:100C20003B3410F42093100320911003FC01218326
:100C30000895FC01218120930E04828180931B047E
:100C40000895FC01809117049091180420911904D3
:100C500030911A0431832283938384830895FC01A5
:100C600081818093E20382818093CC03838180938E
:100C7000C70384818093E30308950F931F93FC01BE
:100C8000018110E020E030E0302F222711270027DB
:100C90009281492F50E060E070E0BA015527442767
:100CA000400F511F621F731F84818A019B01080F2F
:100CB000111D211D311D438150E060E070E0762F51
:100CC000652F542F4427400F511F621F731F41157A
:100CD00051056105710549F480919B0390919C0336
:100CE00020919D0330919E0312C042305105610551
:100CF000710549F480919F039091A0032091A10375
:100D00003091A20304C080E090E020E030E0318325
:100D10002283938384831F910F9108951F93CF9310
:100D2000DF93FC019181292F2F77223008F044C0F6
:100D30009093B00384E0289FE0011124CF54DC4F4E
:100D4000588169813A814B81828142834381338317
:100D5000348164831581558397FF35C090E0A0E00E
:100D6000B0E0B82FAA279927882750E060E070E00C
:100D7000BA0155274427840F951FA61FB71F810F5F
:100D8000911DA11DB11D432F50E060E070E0762F52
:100D9000652F542F4427840F951FA61FB71F8883E4
:100DA0009983AA83BB8380E190E001C0880F2A95D4
:100DB000EAF78093AF0307C08FE781838FEF8283C9
:100DC000838384838583DF91CF911F910895089554
:100DD0001F93CF93DF93EC011981113009F044C0C8
:100DE00080911303811140C00E94111E609319036A
:100DF00070931A0380931B0390931C038FEF8093CF
:100E0000160320911603909116034091160330E0CB
:100E1000209530952A70332784E0220F331F8A955E
:100E2000E1F7892F90E0809590958075992754E09F
:100E3000959587955A95E1F7822B932B9F938F93E6
:100E40001F924F9386E191E09F938F930E946425B8
:100E5000109314031093130310920F030F900F902D
:100E60000F900F900F900F9080910F038983DF9167
:100E7000CF911F910895CF93DF9300D0CDB7DEB708
:100E8000FC019181492F40789F77228130E0322FF9
:100E900022278381280F311D3A832983992329F042
:100EA000913041F080E020E007C08091040420915F
:100EB000050402C08FEF23E0228383834423A1F043
:100EC000911112C0CE0101960E943F16882361F055
:100ED00089819A81909305048093040482E090E0D4
:100EE00090930B0480930A040F900F90DF91CF91A1
:100EF0000895CF93DF93EC018AED93E00E948A1E60
:100F000099838A837B836C83DF91CF910895EF92DD
:100F1000FF920F931F93CF93DF9300D000D0CDB7F4
:100F2000DEB78C01FC018181F82FF078EF2E8F77EE
:100F3000F82EF801828190E0A0E0B0E0782F6627DB
:100F4000552744279381892F90E0A0E0B0E0DC0191
:100F500099278827840F951FA61FB71F2581820F09
:100F6000911DA11DB11D448150E060E070E0762F1D
:100F7000652F542F4427840F951FA61FB71F898301
:100F80009A83AB83BC838F2D90E08730910570F5F9
:100F9000FC01E65AFF4F0C940C256091FC03709104
:100FA000FD038091FE039091FF0324C06091000433
:100FB0007091010480910204909103041BC0609120
:100FC000060470910704809108049091090412C0EE
:100FD00088EF93E008C08DEE93E005C084EF93E0C6
:100FE00002C087EE93E00E948A1E04C060E070E0B9
:100FF00080E090E0F8019283838374836583EE2020
:1010000009F44BC0F1E0FF16D9F0FF1620F082E0A2
:10101000F81659F142C0CE0101960E947A16882333
:10102000E1F189819A81AB81BC818093FC0390932B
:10103000FD03A093FE03B093FF0383E090E029C07B
:10104000CE0101960E948C16882339F189819A81FC
:10105000AB81BC818093000490930104A0930204AF
:10106000B093030484E090E014C0CE0101960E9486
:101070009E16882391F089819A81AB81BC818093EF
:10108000060490930704A0930804B093090485E034
:1010900090E090930B0480930A040F900F900F90B0
:1010A0000F90DF91CF911F910F91FF90EF900895D6
:1010B000CF93DF9300D0CDB7DEB7FC01218130E0C4
:1010C000322F22278281280F311D3A832983809174
:1010D00021048183809120048283CE0101960E94A5
:1010E000071A882369F089819A819093210480935B
:1010F000200483E090E090931F0480931E0406C0B8
:10110000CE0101960E941D1A8111EDCF0F900F9014
:10111000DF91CF910895CF93DF9300D0CDB7DEB7A5
:10112000FC01218130E0322F22278281280F311DDE
:101130003A83298380911D04818380911C048283DA
:10114000CE0101960E94FC19882369F089819A8159
:1011500090931D0480931C0482E090E090931F0400
:1011600080931E0406C0CE0101960E94121A8111BE
:10117000EDCF0F900F90DF91CF910895CF93DF9334
:1011800000D0CDB7DEB7FC01218130E0322F22271D
:101190008281280F311D3A8329838091BE03818388
:1011A0008091BD038283CE0101960E942D10882379
:1011B00069F089819A819093BE038093BD0382E098
:1011C00090E09093C0038093BF0306C0CE010196C8
:1011D0000E9443108111EDCF0F900F90DF91CF91BE
:1011E0000895CF93DF9300D0CDB7DEB7FC01218106
:1011F00030E0322F22278281280F311D3A83298344
:101200008091C20381838091C1038283CE010196C4
:101210000E943810882369F089819A819093C203D3
:101220008093C10383E090E09093C0038093BF0359
:1012300006C0CE0101960E944E108111EDCF0F9095
:101240000F90DF91CF910895CF93DF93EC018981C7
:1012500090E0982F88272A81820F911D8430910574
:1012600050F4880F991FFC01E55AFE4F808191814F
:101270000E949D1D02C080E090E099838A83DF91E7
:10128000CF9108950F931F93CF93DF9300D000D099
:10129000CDB7DEB7FC01418150E060E070E0342F53
:1012A0002227112700278281482F50E060E070E05C
:1012B000BA0155274427400F511F621F731F8481B5
:1012C000480F511D611D711D838190E0A0E0B0E0C9
:1012D000BA2FA92F982F8827480F591F6A1F7B1FE5
:1012E00049835A836B837C838091C6038183809179
:1012F000C50382838091C40383838091C303848365
:10130000CE0101960E946A10882391F089819A810A
:10131000AB81BC818093C3039093C403A093C503A6
:10132000B093C60384E090E09093C0038093BF0322
:101330000F900F900F900F90DF91CF911F910F9111
:1013400008950F931F93CF93DF9300D000D0CDB7B4
:10135000DEB7FC01418150E060E070E0342F2227CD
:10136000112700278281482F50E060E070E0BA0129
:1013700055274427400F511F621F731F8481480F58
:10138000511D611D711D838190E0A0E0B0E0BA2F76
:10139000A92F982F8827480F591F6A1F7B1F498341
:1013A0005A836B837C838091BC0381838091BB03D0
:1013B00082838091BA0383838091B9038483CE01B1
:1013C00001960E945910882391F089819A81AB81FE
:1013D000BC818093B9039093BA03A093BB03B093ED
:1013E000BC0385E090E09093C0038093BF030F900F
:1013F0000F900F900F90DF91CF911F910F91089553
:10140000FC0181818093E60382818093F103238133
:101410008091EB039091EC03222389F00997B9F4B2
:101420008AE090E09093EC038093EB038FB7F894FD
:1014300020988FBF8FB7F894289A8FBF0895892B73
:1014400031F481E090E09093EC038093EB030895F6
:101450001F93CF93DF93FC019181292F2F772430A5
:1014600008F044C09093220484E0289FE0011124F6
:10147000CC5DDB4F588169813A814B818281428307
:1014800043813383348164831581558397FF35C04D
:1014900090E0A0E0B0E0B82FAA279927882750E075
:1014A00060E070E0BA0155274427840F951FA61FFE
:1014B000B71F810F911DA11DB11D432F50E060E0AA
:1014C00070E0762F652F542F4427840F951FA61F99
:1014D000B71F88839983AA83BB8380E190E001C012
:1014E000880F2A95EAF78093230407C08FE781834A
:1014F0008FEF8283838384838583DF91CF911F91D4
:101500000895AF92BF92CF92DF92EF92FF920F9326
:101510001F93CF93DF93FC0180911503882309F477
:1015200054C0A9B0B9B0C6B0D9B039B199B189B178
:1015300026B1A3FAEE24E0F8F12CF694FE2CEE246A
:10154000F794E794B2FA002700F910E056E0000F94
:10155000111F5A95E1F70E2923FB222720F9022BB0
:10156000C2FACC24C0F8CC2D20E0D22F65E0CC0FFD
:10157000DD1F6A95E1F7C02BD5FAAA27A0F9B0E0E4
:1015800074E0AA0FBB1F7A95E1F7AC2B36FB6627F8
:1015900060F970E0B3E0660F771FBA95E1F76A2B48
:1015A000292F990F330B2227330F221F3327220FA6
:1015B000331F220F331F262B84FB442740F950E0B2
:1015C000440F551F242B218301C01182DF91CF913D
:1015D0001F910F91FF90EF90DF90CF90BF90AF9051
:1015E0000895CF93FC01918180911103818380ED57
:1015F000890F8B3430F49093110381E080930803BA
:101600009DC0C1E0C0930903809104038823B1F118
:101610000E94111E6093190370931A0380931B0399
:1016200090931C03109216032091160390911603B9
:101630004091160330E0209530952A70332764E0FE
:10164000220F331F6A95E1F7892F90E080959095DE
:101650008075992774E0959587957A95E1F7822BA7
:10166000932B9F938F931F924F9386E191E09F93CB
:101670008F930E946425C093140339C080910203A4
:101680008823E1F10E94111E6093190370931A03DD
:1016900080931B0390931C03109216032091160352
:1016A000909116034091160330E0209530952A70F2
:1016B000332784E0220F331F8A95E1F7892F90E0CA
:1016C000809590958075992754E0959587955A95C2
:1016D000E1F7822B932B9F938F931F924F9386E179
:1016E00091E09F938F930E946425109214030F90B2
:1016F0000F900F900F900F900F9020C00E94111E1E
:10170000DC01CB01805C944DA140B1098093FC02C7
:101710009093FD02A093FE02B093FF020E94111E5F
:10172000DC01CB018853914CA140B1098093F802B0
:101730009093F902A093FA02B093FB02CF9108951F
:10174000CF93FC01C181C13009F048C080910003F2
:10175000811142C08091150381113EC00E94111E6B
:101760006093190370931A0380931B0390931C03D7
:10177000C09316032091160390911603409116030F
:1017800030E0209530952A70332784E0220F331FF4
:101790008A95E1F7892F90E080959095807599273B
:1017A00054E0959587955A95E1F7822B932B9F935B
:1017B0008F931F924F9386E191E09F938F930E94A6
:1017C0006425C0931403C09300030F900F900F90F3
:1017D0000F900F900F9004C082E001C083E08183DE
:1017E000CF9108951F93CF93DF93EC0119811130AE
:1017F00009F06BC080910003811167C080911503CF
:10180000882309F462C08FB7F894599A8FBF8FB7B5
:10181000F89451988FBF42E060E970ED83E090E06A
:101820000E94961C90934B0480934A0490934D041D
:1018300080934C048FB7F8945F9A8FBF8FB7F8945A
:101840005E988FBF0E94111E6093190370931A0354
:1018500080931B0390931C038EEF809316032091BB
:101860001603809116039091160330E02095309571
:101870002A703327A90124E0440F551F2A95E1F768
:10188000282F30E0209530952075332764E035957A
:1018900027956A95E1F7242B352B3F932F931F92C1
:1018A0009F9386E191E09F938F930E94642510930C
:1018B0001403109300038091070389830F900F9006
:1018C0000F900F900F900F9001C01982DF91CF9170
:1018D0001F9108950F931F93CF93DF93FC01809185
:1018E0001503882309F476C08181881F8827881F03
:1018F0009FB7F894882311F05B9A01C05B989FBF53
:10190000818186FBAA27A0F9B0E08FB7F894AB2BB2
:1019100011F05A9A01C05A988FBF818185FB6627C2
:1019200060F970E08FB7F894672B11F0429A01C00C
:1019300042988FBF818184FB442740F950E08FB7E4
:10194000F894452B11F05D9A01C05D988FBF81819D
:1019500083FB222720F930E08FB7F894232B11F076
:101960005E9A01C05E98EF018FBF818182FF1AC02D
:1019700040E060E070E0CB010E94961C90934B0425
:1019800080934A0490934D0480934C048FB7F8944D
:10199000519A8FBF8FB7F89459988FBF8FB7F8942B
:1019A0005F9A8FBF898181FB002700F910E08FB714
:1019B000F894012B11F05C9A01C05C988FBF89816B
:1019C00081709FB7F894882311F0439A01C043981F
:1019D0009FBF01C01182DF91CF911F910F91089598
:1019E000282FA1E2B3E0FC018E2F821B861718F48A
:1019F00081918D93F9CF603228F4E62FF0E0EF5D0E
:101A0000FC4F11826093A401623010F48FEF0DC07F
:101A100080912103E82FE295EF70E43010F08EEF13
:101A200004C08F70883020F08DEF809321030895DB
:101A300098E0E99FF0011124E80FF11DEE0FFF1F60
:101A4000E55EFE4F0190F081E02D81E293E0099484
:101A50006091A40181E293E00E948322882329F00F
:101A6000809103038270809303030895FC019181A8
:101A700080911103818380ED890F8B3428F490933A
:101A8000110381E0809308030895D901ED91FC9141
:101A90003297F9F491E090934B0380934C0382E0EA
:101AA0008093490360934E0340934F031092500379
:101AB00080934D031092410310924203109243030E
:101AC0008FB7F8942D988FBF83E090E0F901918350
:101AD00080830895EF92FF920F93CF93DF93EC01F1
:101AE00088819981039718F17E0100914D0321E4CB
:101AF00033E0409149036EE473E080914C030E940F
:101B000025222881398121303105A9F4982F907E32
:101B100029F082958695877080934A038FB7F89451
:101B20002D9A8FBF1982188210924B0302C019821E
:101B3000188280E001C081E0DF91CF910F91FF908A
:101B4000EF900895909377038093760370E07093FD
:101B50007903609378030895209178033091790395
:101B60002115310509F467C01092790310927803AA
:101B7000E0917603F09177032130310511F040E0D8
:101B80001FC0908180915603981355C08091A70182
:101B9000A6E5B3E0EAE7F3E090E0981721F02D9195
:101BA00021939F5FFACF803228F4E82FF0E0E658C7
:101BB000FC4F11828093A60181E08093A5010895D6
:101BC000842F90E08217930754F4DF01A80FB91F08
:101BD0005C91DC01AA5ABC4F5C934F5FF1CF40325D
:101BE00020F4FC01EA5AFC4F11822093A701211135
:101BF00002C08FEF0DC080915603E82FE295EF7081
:101C0000E43010F08EEF04C08F70883020F08DEF3C
:101C100080935603089598E0E99FF0011124E80F9E
:101C2000F11DEE0FFF1FED59FE4F0190F081E02DE9
:101C300086E593E0099408956091A6018AE793E010
:101C40000E94A8241092A5010895CF9380910803C3
:101C5000882321F1F99922C09FEF980F9A3090F4D0
:101C600090E0FC01E552FF4FC4916C2F87960E94D3
:101C70001F28C11102C08BE003C0809108038F5F51
:101C800080930803809108038B3041F46091110325
:101C900082E390E00E941F2810920803CF910895DC
:101CA0001F93CF93DF93C8E2D0E0FE01EC54FF4FC7
:101CB0001491CE010E940B28181306C0112331F095
:101CC0002196C233D10589F780E001C081E0DF9120
:101CD000CF911F9108958F929F92AF92BF92CF9212
:101CE000DF92EF92FF920F931F938BEA93E00E9493
:101CF0008A1E6B3071058105910508F4E4C080915E
:101D00009A03882349F18091A3039091A403A091A1
:101D1000A503B091A6030196A11DB11D8093A30355
:101D20009093A403A093A503B093A6038091A70367
:101D30009091A803A091A903B091AA030196A11DB7
:101D4000B11D8093A7039093A803A093A903B09318
:101D5000AA0310929A0303C081E080939A03EFB71D
:101D6000F8948091A3039091A403A091A503B0914E
:101D7000A603C0909B03D0909C03E0909D03F0903D
:101D80009E034091A7035091A8036091A90370910D
:101D9000AA0380909F039090A003A090A103B0900D
:101DA000A2030091380410913904012E000C220B7B
:101DB000330B800F911FA21FB31F813422E49207BF
:101DC0002FE0A207B10548F080549244AF40B1091A
:101DD000FFEFCF1ADF0AEF0AFF0A009144041091C7
:101DE0004504012E000C220B330B400F511F621FC4
:101DF000731F950184010F5F1F4F2F4F3F4F4134D9
:101E0000F2E45F07FFE06F077105C0F58093A3035D
:101E10009093A403A093A503B093A603C0929B0341
:101E2000D0929C03E0929D03F0929E0380929F03C8
:101E30009092A003A092A103B092A2034093A703A3
:101E40005093A8036093A9037093AA03EFBF80E0A7
:101E50000E94881D8091AB039091AC03A091AD03CB
:101E6000B091AE030A96A11DB11D8093AB03909370
:101E7000AC03A093AD03B093AE0325C040545244CD
:101E80006F4071098093A3039093A403A093A503CB
:101E9000B093A603C0929B03D0929C03E0929D0353
:101EA000F0929E034093A7035093A8036093A90365
:101EB0007093AA0300939F031093A0032093A103A0
:101EC0003093A203C3CF1F910F91FF90EF90DF904B
:101ED000CF90BF90AF909F908F90089583309105E1
:101EE000A8F4880F991F880F991FFC01EF54FC4F2D
:101EF00040815181628173814150510961097109A9
:101F000081E04E3F5F4F6F4F7F4F08F080E00895B4
:101F1000CF938091B00387FF17C0C091B003F999A8
:101F200013C0CF7724E0C29FC0011124FC01EF54FD
:101F3000FC4F40815181628173814E960E9431280D
:101F4000C093B00381E001C080E0CF9108950F936A
:101F50001F93CF93DF938230910508F044C0EC01CA
:101F60008C01000F111F000F111FC8014E960E9417
:101F70001328F801EF54FC4F6083718382839383AD
:101F8000CE010E946E0F811112C0CD2BD9F480E0DA
:101F900090E0A0EAB0E48093B1039093B203A093E1
:101FA000B303B093B4038091AF038F5F1AC0209145
:101FB000AF0381E090E001C0880FCA95EAF78095F1
:101FC00082230FC081E79DE3AAE8BFE38093B503B6
:101FD0009093B603A093B703B093B8038091AF0377
:101FE0008E5F8093AF03DF91CF911F910F91089582
:101FF0000F931F93CF938091AF03807351F1809122
:10200000B00387FF26C0C091B003CF770C2F10E03C
:10201000C8010E946E0F8823B1F00E94880F8823A8
:10202000C1F08091AF038F708093AF032091AF0315
:1020300081E090E001C0880FCA95EAF7809582237D
:102040008093AF0306C0C801CF911F910F910C94EC
:10205000A70FCF911F910F910895FC01208131812D
:102060002B53310981E02539310508F080E00895CE
:10207000FC01208131812951310981E02035310570
:1020800008F080E00895FC01208131812657310954
:1020900081E02932314008F080E00895FC01208180
:1020A00031812253310981E02E39310508F080E079
:1020B0000895FC01408151816281738140545F41E8
:1020C0006109710981E041345F4C6643710508F094
:1020D00080E008950C94591086E490E00E9419283D
:1020E000F9990CC06091BD037091BE0386179707E4
:1020F00039F086E490E00E943D2802C080E0089517
:1021000081E0089588E490E00E941928F9990CC0B4
:102110006091C1037091C2038617970739F088E474
:1021200090E00E943D2802C080E0089581E008957B
:102130008AE490E00E941328DC01CB01F99912C0D7
:102140004091C3035091C4036091C5037091C603CD
:1021500084179507A607B70739F08AE490E00E9434
:10216000312802C080E0089581E008958EE490E077
:102170000E941328DC01CB01F99912C04091B903E8
:102180005091BA036091BB037091BC03841795070B
:10219000A607B70739F08EE490E00E94312802C00C
:1021A00080E0089581E00895CF92DF92EF92FF9250
:1021B0001F93CF93DF93CDB7DEB72C970FB6F8946C
:1021C000DEBF0FBECDBF86E490E00E9419287C01DF
:1021D0009C878B87CE010B960E942D10811106C023
:1021E000CE010B960E944310882331F0F092BE037B
:1021F000E092BD0310E001C011E088E490E00E948D
:1022000019287C019A878987CE0109960E94381087
:10221000811106C0CE0109960E944E10882329F034
:10222000F092C203E092C10301C011E08AE490E0A1
:102230000E9413286B017C016D837E838F839887B6
:10224000CE0105960E945910882349F0C092C3031D
:10225000D092C403E092C503F092C60301C011E01E
:102260008EE490E00E9413286B017C0169837A83DD
:102270008B839C83CE0101960E945910811128C046
:1022800080E590E09093BE038093BD0388E290E0E8
:102290009093C2038093C10380E89FE4A2E1B0E081
:1022A0008093C3039093C403A093C503B093C60364
:1022B0008093B9039093BA03A093BB03B093BC037C
:1022C00081E090E09093C0038093BF0380E00FC053
:1022D000C092B903D092BA03E092BB03F092BC0360
:1022E0001111CECF1092C0031092BF0381E02C9643
:1022F0000FB6F894DEBF0FBECDBFDF91CF911F9117
:10230000FF90EF90DF90CF9008958091BF03909160
:10231000C0038230910508F44FC00297A9F48DEBF9
:1023200093E00E942D10811106C08DEB93E00E9476
:102330004310882349F00E946C10882329F01092E2
:10234000C0031092BF0308958091BF039091C00312
:10235000039781F481EC93E00E943810811106C04C
:1023600081EC93E00E944E10882321F00E9482109D
:102370008111E5CF8091BF039091C003049751F480
:1023800083EC93E00E945910882321F00E9498105A
:102390008111D5CF8091BF039091C003059751F46F
:1023A00089EB93E00E945910882321F00E94B61017
:1023B0008111C5CF0C94D4100895CF92DF92EF9283
:1023C000FF92CF93DF9388ED93E00E946A0D811115
:1023D000FEC180914B038111FAC18091BF0390919E
:1023E000C003029708F0F3C181E090E00E949D1DB8
:1023F000EC018AED93E00E948A1E6B017C018091C2
:10240000D1039091D2030097F9F489EFC8168AE2BC
:10241000D806E104F10408F4DAC12091C103309137
:10242000C2038091E2032C173D073CF421E030E029
:102430003093D2032093D10314C124E030E03093D1
:10244000D2032093D1032BC18130910531F58091C6
:10245000C1039091C203C817D9070CF0B7C022E09E
:1024600030E03093D2032093D1038091E20388239C
:1024700009F4A2C06091CC03662309F49DC0409189
:10248000D8035091D903452B21F43093D9032093DD
:10249000D80328ED33E042E08DC082309105D9F4B5
:1024A0008091C1039091C203C817D9078CF4809121
:1024B000B9039091BA03A091BB03B091BC038C15F2
:1024C0009D05AE05BF0508F082C183E090E0E1C044
:1024D00081E090E0C0C08330910509F043C080E8FE
:1024E0008093D30384E090E09093D2038093D10350
:1024F0008091E2038823A9F06091E303662389F0C9
:102500002091D8033091D903232B31F422E030E01D
:102510003093D9032093D80328ED33E043E00E94A1
:10252000450D80919B0390919C03A0919D03B091D8
:102530009E038093CD039093CE03A093CF03B093DB
:10254000D00380919F039091A003A091A103B0912B
:10255000A2038093D4039093D503A093D603B093A2
:10256000D70335C18430910509F05AC08091BD036D
:102570009091BE038C179D074CF585E090E09093F9
:10258000D2038093D1038091E2038823A9F0609164
:10259000CC03662389F02091D8033091D903232BF3
:1025A00031F422E030E03093D9032093D80328EDB2
:1025B00033E045E00E94450D0E94111E6093DA034E
:1025C0007093DB038093DC039093DD0381E0C816F6
:1025D00082EAD8068AE4E80684E0F80608F4F7C040
:1025E00087E090E09093D2038093D1038091E2033F
:1025F000882309F46BC06091CC03662309F466C09C
:102600002091D8033091D903232B31F422E030E01C
:102610003093D9032093D80328ED33E047E054C02A
:102620008530910509F05DC08091BD039091BE0396
:102630008C179D0764F58091C3039091C403A0910A
:10264000C503B091C6038C159D05AE05BF0508F006
:10265000BEC086E090E09093D2038093D103809136
:10266000E203882399F16091CC03662379F12091EC
:10267000D8033091D903232B31F422E030E030939A
:10268000D9032093D80328ED33E041E01DC084E056
:1026900090E09093D2038093D1038091E20388234A
:1026A000A9F06091CC03662389F02091D803309182
:1026B000D903232B31F422E030E03093D903209367
:1026C000D80328ED33E044E00E94450D0E94111E1E
:1026D0006093DA037093DB038093DC039093DD0354
:1026E00076C08630910509F04BC080E48093D30317
:1026F00081E090E09093D2038093D1038091E20334
:102700008823A9F06091C703662389F02091D8033C
:102710003091D903232B31F422E030E03093D903F8
:102720002093D80328ED33E046E00E94450D109237
:102730001704109218041092190410921A04809130
:102740009B0390919C03A0919D03B0919E03809365
:10275000DE039093DF03A093E003B093E103809145
:102760009F039091A003A091A103B091A203809335
:10277000C8039093C903A093CA03B093CB0327C0A7
:10278000079729F187E090E09093D2038093D103DB
:102790008091E2038823D9F06091CC036623B9F0DD
:1027A0002091D8033091D903232B31F422E030E07B
:1027B0003093D9032093D80328ED33E047E0DF912D
:1027C000CF91FF90EF90DF90CF900C94450DDF916B
:1027D000CF91FF90EF90DF90CF9008950F931F93CC
:1027E000CF93DF9388ED93E00E946A0D811142C27E
:1027F00080914B0381113EC280910A0490910B0499
:10280000029708F037C286E090E00E949D1DEC011F
:1028100088EF93E00E948A1EE091EB03F091EC03B5
:10282000ED30F10508F026C2EF59FF4F0C940C254E
:10283000189993C1613D77408105910508F41AC24A
:102840008FB7F894209A8FBF8FB7F89428988FBFCE
:102850000E94111E6093F8037093F9038093FA03AA
:102860009093FB0322E030E03093EC032093EB03E2
:102870008091E603882309F4FDC16091F10366238A
:1028800009F4F8C14091D8035091D903452B21F4A4
:102890003093D9032093D80328ED33E042E0D4C12C
:1028A000693C71058105910508F4E4C180910E042D
:1028B0008093E50310920E040E94111E6093ED03B5
:1028C0007093EE038093EF039093F0030E94111E28
:1028D0006093F8037093F9038093FA039093FB03DA
:1028E00083E090E09093EC038093EB038091E60308
:1028F000882309F4BFC16091F103662309F4BAC1CA
:102900002091D8033091D903232B31F422E030E019
:102910003093D9032093D80328ED33E043E094C1EA
:102920002091040430910504C217D30754F50E9486
:10293000111E6093F4037093F5038093F603909354
:10294000F70385E090E09093EC038093EB03809194
:10295000E603882309F48EC16091F103662309F42C
:1029600089C12091D8033091D903232B31F422E07F
:1029700030E03093D9032093D80328ED33E045E0CD
:1029800063C10091FC031091FD032091FE0330917F
:10299000FF03061717072807390708F06BC184E003
:1029A00090E09093EC038093EB038091E6038823FF
:1029B00009F460C16091F103662309F45BC12091C1
:1029C000D8033091D903232B31F422E030E0309347
:1029D000D9032093D80328ED33E044E035C18CE0DF
:1029E00090E09093EC038093EB038091E6038823BF
:1029F00009F440C16091F103662309F43BC12091C1
:102A0000D8033091D903232B31F422E030E0309306
:102A1000D9032093D80328ED33E04CE015C10E9480
:102A2000111E6093F8037093F9038093FA03909357
:102A3000FB0386E090E09093EC038093EB0380919E
:102A4000E603882309F416C16091F103662309F4B3
:102A500011C12091D8033091D903232B31F422E006
:102A600030E03093D9032093D80328ED33E046E0DB
:102A7000EBC00091000410910104209102043091F8
:102A80000304061717072807390708F0F3C087E083
:102A900090E09093EC038093EB038091E60388230E
:102AA00009F4E8C06091F103662309F4E3C02091C2
:102AB000D8033091D903232B31F422E030E0309356
:102AC000D9032093D80328ED33E047E0BDC020911F
:102AD000F2033091F303A90141505109C417D507FE
:102AE000C4F12F5F3F4F2C173D079CF10091060466
:102AF0001091070420910804309109040617170764
:102B00002807390708F0B6C089E090E09093EC03FD
:102B10008093EB038FB7F89429988FBF8FB7F89401
:102B2000219A8FBF8FB7F89420988FBF8FB7F894F2
:102B3000289A8FBF0E94111E6093E7037093E803E9
:102B40008093E9039093EA038091E50380930E0458
:102B500063C0D093F303C093F2030E94111E6093ED
:102B6000F8037093F9038093FA039093FB0382C0F8
:102B70001899F3CF613D77408105910508F47AC03B
:102B80008AE090E09093EC038093EB038091E6035E
:102B9000882309F46FC06091F103662309F46AC0C9
:102BA0002091D8033091D903232B31F422E030E077
:102BB0003093D9032093D80328ED33E04AE044C092
:102BC000189BCBCF613D77408105910508F452C039
:102BD0008BE090E09093EC038093EB038FB7F89435
:102BE00021988FBF8FB7F894299A8FBF8FB7F89429
:102BF000209A0DC061367A4E8105910508F43AC0DD
:102C00001092EC031092EB038FB7F89420988FBFCB
:102C10008FB7F894289A8FBF8091E603882351F1EB
:102C20006091F103662331F12091D8033091D903EB
:102C3000232B31F422E030E03093D9032093D803E2
:102C400028ED33E04091EB03DF91CF911F910F917D
:102C50000C94450D8FB7F89429988FBF8FB7F894CF
:102C6000219A8FBF8FB7F894209A8FBF8FB7F894AF
:102C700028988FBFDF91CF911F910F910895FC018C
:102C8000208131812753310981E02C34314008F013
:102C900080E00895FC0140815181628173814B5035
:102CA00051096109710981E0453352446F40710552
:102CB00008F080E00895FC014081518162817381B8
:102CC0004B5051096109710981E045375E4E6643F9
:102CD000710508F080E00895F9990AC06091040434
:102CE0007091050482E890E00E943D2881E00895FB
:102CF00080E00895F9990EC04091FC035091FD03C6
:102D00006091FE037091FF0384E890E00E943128F7
:102D100081E0089580E00895F9990EC04091000483
:102D200050910104609102047091030488E890E0DE
:102D30000E94312881E0089580E00895F9990EC03D
:102D400040910604509107046091080470910904B1
:102D50008CE890E00E94312881E0089580E0089599
:102D60002F923F924F925F926F927F928F929F929B
:102D7000AF92BF92CF92DF92EF92FF920F931F9389
:102D8000CF93DF93CDB7DEB72E970FB6F894DEBFA3
:102D90000FBECDBF82E890E00E9419288C019E876B
:102DA0008D8784E890E00E9413282B013C016987FD
:102DB0007A878B879C8788E890E00E9413284B01D4
:102DC0005C016D837E838F8398878CE890E00E94FE
:102DD00013286B017C0169837A838B839C83CE01EA
:102DE0000D960E943F16282ECE0109960E944A1683
:102DF00033243394882311F02110312CCE01059611
:102E00000E945B16811102C033243394CE010196D7
:102E10000E945B16882321F1311022C01093050413
:102E2000009304044092FC035092FD036092FE0361
:102E30007092FF038092000490920104A092020419
:102E4000B0920304C0920604D0920704E0920804F2
:102E5000F092090410920B0410920A0481E031C030
:102E60008FE390E0909305048093040480E69AEE4B
:102E7000A0E0B0E08093FC039093FD03A093FE03D9
:102E8000B093FF0380E197E2A0E0B0E080930004FC
:102E900090930104A0930204B093030484E690E0AD
:102EA000A0E0B0E08093060490930704A093080488
:102EB000B093090481E090E090930B0480930A049E
:102EC00080E02E960FB6F894DEBF0FBECDBFDF9127
:102ED000CF911F910F91FF90EF90DF90CF90BF9017
:102EE000AF909F908F907F906F905F904F903F90AA
:102EF0002F90089580910A0490910B0483309105DE
:102F0000C9F018F4029739F030C084309105D9F037
:102F1000059711F12AC084E094E00E943F168823AF
:102F200051F10E946C16882301F110920B0410924B
:102F30000A041BC08CEF93E00E944A168823D9F044
:102F40000E947A16F0CF80E094E00E945B168823FE
:102F500091F00E948C16E7CF86E094E00E945B1609
:102F6000882349F00E949E16DECF80910A0490913A
:102F70000B04029710F00C94B01608958F929F9254
:102F8000AF92BF92CF92DF92EF92FF920F931F9377
:102F9000CF93DF9388ED93E00E946A0D81111FC2E9
:102FA00080914B0381111BC280911E0490911F04DC
:102FB000029708F014C280910E04882309F4DAC144
:102FC000C090D103D090D20321E0C216D10409F001
:102FD000D1C187E090E00E949D1D7C01C0911C043E
:102FE000D0911D048091200490912104C81BD90B1D
:102FF000D595C7958FE094E00E948A1E00910C043D
:1030000010910D0402301105C9F140F401151105AC
:1030100009F451C10130110561F0E1C1043011051D
:1030200009F43FC108F483C00530110509F474C1E7
:10303000D6C16B3F71058105910508F4D0C18FB7EA
:10304000F8942B9A8FBF82E090E090930D048093C8
:103050000C0460911B04662309F4C1C12091D803BC
:103060003091D903232B21F49093D9038093D80373
:1030700028ED33E042E080910E04A3C120912004AA
:1030800030912104C20FD31FCE15DF056CF58FB729
:10309000F8942B9A8FBF0E94111E60930F047093B7
:1030A0001004809311049093120410921304109250
:1030B0001404109215041092160483E090E090938B
:1030C0000D0480930C0460911B04662309F487C1EE
:1030D0008091D8039091D903892B09F019C11093DD
:1030E000D9030093D80314C161317742810591055A
:1030F00008F475C18FB7F8942B988FBFD0920D0448
:10310000C0920C0480910F0490911004A0911104BE
:10311000B0911204805F984DAF4FBF4F80930F0462
:1031200090931004A0931104B093120485C02091D1
:103130001C0430911D04E216F306FCF08FB7F894DE
:103140002B988FBF84E090E090930D0480930C0443
:1031500060911B04662309F442C18091D8039091C9
:10316000D903892B31F482E090E09093D9038093C6
:10317000D80328ED33E044E07ECF80901304909094
:103180001404A0901504B090160481149104A104B5
:10319000B10409F466C01B9B1DC086169706A806DD
:1031A000B906C0F42FB7F8942B982FBF00911704DD
:1031B000109118042091190430911A04060F171F5A
:1031C000281F391F00931704109318042093190423
:1031D00030931A04613D77408105910508F4FFC0E2
:1031E0008091200490912104C80FD91FCE15DF05CE
:1031F000ECF480910F0490911004A0911104B0910F
:1032000012048053984FAF4FBF4F80930F04909399
:103210001004A0931104B09312041092130410929E
:1032200014041092150410921604D9C081E090E0A5
:1032300090930D0480930C0460911B04662309F4A1
:10324000CEC08091D8039091D903892B31F482E0CC
:1032500090E09093D9038093D80328ED33E041E0C8
:103260000ACFC9018E199F09BE010E94D62420ED04
:1032700037E0629FC001639F900D729F900D1124F3
:10328000092E000CAA0BBB0B80931304909314041B
:10329000A0931504B09316048FB7F8942B9A8FBFA0
:1032A0009EC08091200490912104C80FD91FCE1593
:1032B000DF050CF494C08FB7F8942B988FBF0E9451
:1032C000111E60930F047093100480931104909367
:1032D0001204109213041092140410921504109208
:1032E000160483E090E090930D0480930C046091A9
:1032F0001B04662309F473C08091D8039091D9030D
:10330000892B31F482E090E09093D9038093D80325
:1033100028ED33E043E0AFCE8091E403882351F001
:10332000813009F05CC010921B0410920E041092C0
:10333000E40355C08FB7F8942B988FBF60911B049E
:103340006623A1F08091D8039091D903892B31F4A1
:1033500082E090E09093D9038093D80328ED33E086
:1033600040910C0480910E040E94450D81E08093F1
:10337000E40335C080910C0490910D04049778F516
:103380008FB7F8942B988FBF84E090E090930D0452
:1033900080930C0480910E04882309F160911B0432
:1033A0006623E9F02091D8033091D903232B31F41F
:1033B00022E030E03093D9032093D80328ED33E0A6
:1033C00044E0DF91CF911F910F91FF90EF90DF903C
:1033D000CF90BF90AF909F908F900C94450DDF9150
:1033E000CF911F910F91FF90EF90DF90CF90BF9002
:1033F000AF909F908F900895FC01208131812B54D4
:10340000314081E02738310508F080E00895FC0163
:10341000208131812E53314081E02636310508F07C
:1034200080E00895FC01208131812559324081E0FE
:103430002F30314008F080E00895FC012081318177
:103440002C57324081E02B3C310508F080E0089594
:103450008CE390E00E941928F9990CC060911C043B
:1034600070911D048617970739F08CE390E00E9455
:103470003D2802C080E0089581E008958EE390E049
:103480000E941928F9990CC06091200470912104C0
:103490008617970739F08EE390E00E943D2802C01E
:1034A00080E0089581E00895EF92FF920F931F93BB
:1034B000CF93DF9300D000D0CDB7DEB78CE390E0A0
:1034C0000E9419287C019C838B838EE390E00E94EC
:1034D00019288C019A838983CE0103960E94FC19D6
:1034E000811106C0CE0103960E94121A8823D1F0E2
:1034F000CE0101960E94071A811106C0CE010196E5
:103500000E941D1A882371F0F0921D04E0921C04A1
:10351000109321040093200410921F0410921E04A3
:1035200081E013C08DE891E090931D0480931C040A
:1035300086E791E0909321048093200481E090E05D
:1035400090931F0480931E0480E00F900F900F90C3
:103550000F90DF91CF911F910F91FF90EF90089501
:1035600080911E0490911F048230910578F102979A
:10357000A9F48CE194E00E94FC19811106C08CE151
:1035800094E00E94121A882349F00E94281A882386
:1035900029F010921F0410921E04089580911E04B9
:1035A00090911F04039781F480E294E00E94071A2F
:1035B000811106C080E294E00E941D1A882321F048
:1035C0000E943E1A8111E5CF0C94541A089585305B
:1035D0009105A8F4880F991F880F991FFC01EC5DD5
:1035E000FB4F4081518162817381415051096109D2
:1035F000710981E04E3F5F4F6F4F7F4F08F080E0D1
:103600000895809122048F77843018F490E00C9410
:10361000E71A80E00895CF938091220487FF18C0B5
:10362000C0912204F99914C0CF7724E0C29FC00151
:103630001124FC01EC5DFB4F40815181628173815B
:103640008E5A9F4F0E943128C093220481E001C00E
:1036500080E0CF9108950F931F93CF93DF93843031
:10366000910508F06AC0EC018C01000F111F000FDA
:10367000111FC8018E5A9F4F0E941328F801EC5D5C
:10368000FB4F6083718382839383CE010E94E71A8C
:10369000811147C0209781F484EE98E3AEE8BAE345
:1036A0008093240490932504A0932604B0932704C8
:1036B000809123048F5F3FC0C130D10581F480E049
:1036C00090E0A0E3BCE38093280490932904A093A6
:1036D0002A04B0932B04809123048E5F2CC0229780
:1036E00081F486E996E9A6E9B9E380932C049093E6
:1036F0002D04A0932E04B0932F04809123048C5F9B
:103700001AC08AE198E8AAEEBBE380933004909354
:103710003104A0933204B093330480912304885F72
:103720000AC02091230481E090E001C0880FCA956F
:10373000EAF78095822380932304DF91CF911F9134
:103740000F9108950F931F93CF93DF9380912304DC
:10375000807F99F18091220487FF2FC080912204FD
:103760008F77082F10E0C1E0D0E002C0CC0FDD1F42
:103770008A95E2F78091230482958F7090E0C817B4
:10378000D907D9F40E94011B882381F00E940B1BEA
:10379000882399F0809123048F7080932304809173
:1037A0002304C095C823C093230407C0C801DF9138
:1037B000CF911F910F910C942B1BDF91CF911F91F3
:1037C0000F9108952091AC0130E02F5F3F4F2F7192
:1037D00033274091AB0150E024173507D1F3909186
:1037E000A801F901E353FE4F90FF03C08A3009F4AA
:1037F0008DE080832093AC018091C1008062809332
:10380000C10080E090E008951F920F920FB60F92D2
:1038100011242F933F934F935F938F939F93EF9335
:10382000FF932091C00028713091C6008091AA01B9
:1038300090E001968F7199274091A90150E084177B
:10384000950711F42E5F06C08093AA01FC01E35591
:10385000FE4F308320933404FF91EF919F918F911D
:103860005F914F913F912F910F900FBE0F901F903E
:1038700018951F920F920FB60F9211248F939F935A
:10388000EF93FF939091AC018091AB01981779F081
:103890008091AB0190E001968F7199278093AB01E5
:1038A000FC01E353FE4F80818093C60005C08091E8
:1038B000C1008F7D8093C100FF91EF919F918F9107
:1038C0000F900FBE0F901F9018958091AA01209124
:1038D000A90190E08096821B91098F719927089524
:1038E0000E94651C892BE1F39091AA018091A901A6
:1038F000981307C0809134048F5F8093340480E074
:103900000CC08091A90190E001968F719927809356
:10391000A901FC01E355FE4F80819091A80191FF20
:1039200003C08D3009F48AE090E00895CF92DF92D1
:10393000EF92FF920F931F93CF938B019C01C42FA3
:103940006B017C0180E6C80E83EED81E86E1E81E7E
:10395000F11CC701B60143E0660F771F881F991F4E
:103960004A95D1F7A9019801E4E0220F331F441FC3
:10397000551FEA95D1F70E94EA242150310910928F
:10398000AC011092AB011092AA011092A90121156D
:10399000310531F48091C100877F8093C10010C050
:1039A00037FF04C082E08093C0003F7788E98093AE
:1039B000C10086E08093C2003093C5002093C4000C
:1039C000C093A80180E091E0CF911F910F91FF90EB
:1039D000EF90DF90CF9008951F920F920FB60F9245
:1039E00011242F933F938F939F93EF93FF93809195
:1039F000350490913604019711F41B990EC0E091A3
:103A00003504F09136048091780090917900EE0FA2
:103A1000FF1FE85CFB4F9183808380913504909178
:103A200036040196909336048093350480913504D2
:103A3000909136048630910540F48230910550F41F
:103A40000097B1F0019721F00CC0089750F410C016
:103A50001B9B0EC086E090E0909336048093350463
:103A600007C010923604109235048FE78093490402
:103A700080917C00807F80937C0030917C0020913D
:103A800037048091350490913604932F9F71922BC7
:103A9000890F80937C008091350490913604892BA6
:103AA00031F080917A00806480937A000BC080911D
:103AB000ED01882339F080917A00806480937A0048
:103AC00010924904FF91EF919F918F913F912F9117
:103AD0000F900FBE0F901F9018958093370410928F
:103AE000ED01ECE7F0E090819073892B8083EAE7A9
:103AF000F0E0808184608083808182608083808127
:103B0000816080838081806880831092480408955A
:103B10001092360410923504109249048093ED01FE
:103B2000EAE7F0E08081877588688083808180641F
:103B3000808381E08093480408958830910558F48B
:103B40002FB7F894880F991FFC01E85CFB4F808128
:103B500091812FBF089580E090E008951F920F9209
:103B60000FB60F9211248F939F93AF93BF938091C1
:103B7000F8019091F901A091FA01B091FB01019631
:103B8000A11DB11D8093F8019093F901A093FA0152
:103B9000B093FB01BF91AF919F918F910F900FBE9A
:103BA0000F901F90189584B5847F836084BD85B580
:103BB000887F836085BDEEE6F0E080818160808350
:103BC000E0E8F0E01082808181608083E1E8F0E04D
:103BD0001082808183608083E0EBF0E0108280813E
:103BE00081608083E1EBF0E01082808184608083DB
:103BF000E0E9F0E01082808181608083E1E9F0E01B
:103C00001082808183608083E0EAF0E0108280810E
:103C100081608083E1EAF0E01082808183608083AC
:103C200008958F929F92AF92BF92CF92DF92EF92C0
:103C3000FF928FB7F8948090F8019090F901A090CE
:103C4000FA01B090FB018FBF8091F4019091F501D2
:103C5000A091F601B091F701A5019401281B390B41
:103C60004A0B5B0BDA01C9012B3F310541055105B8
:103C700018F42223F1F101C08AEFC090EE01D09038
:103C8000EF01E090F001F090F101E091F201F0918C
:103C9000F301B701A6014F5F5F4F6F4F7F4F815018
:103CA0009F0123593E4F293E93E0390740F0285E9B
:103CB0003340B701A6014E5F5F4F6F4F7F4F8823A0
:103CC00021F0F9016A017B01E4CF4093EE015093AA
:103CD000EF016093F0017093F1013093F3012093B1
:103CE000F2018092F4019092F501A092F601B09257
:103CF000F7016091EE017091EF018091F0019091D8
:103D0000F101FF90EF90DF90CF90BF90AF909F9028
:103D10008F9008950F931F93CF93DF93EC010E9430
:103D2000111E088119812A813B81601B710B820B56
:103D3000930BDF91CF911F910F91089508950895EE
:103D400085ED8093BC008091BC0084FDFCCF109277
:103D5000680210926702089585EC8093BC0010926F
:103D600068021092670208951F920F920FB60F9289
:103D700011242F933F934F935F936F937F938F9370
:103D80009F93AF93BF93EF93FF938091B900887F88
:103D9000803609F4C5C0B8F5883209F46AC0A0F4C9
:103DA000803109F463C038F4882309F45AC088309C
:103DB00009F45CC024C1883109F45BC0803209F089
:103DC0001EC180E290E06BC0803409F47BC078F4BF
:103DD000803309F462C0883309F011C188E390E0B0
:103DE00090936402809363020E94AC1E08C18035E8
:103DF00009F45CC0883509F46AC0883409F0FFC052
:103E000088E490E04CC0883909F4EEC0A8F4883703
:103E100009F486C038F4883609F482C0803709F482
:103E20007FC0EDC0883809F4DFC0803909F481C053
:103E3000803809F0E4C07DC0803B09F4A9C038F4A3
:103E4000803A09F48BC0883A09F4A2C0D8C0803CFB
:103E500009F4CEC0883C09F4CBC0883B09F4B0C05B
:103E6000CEC010926402109263021DC0809169025C
:103E700011C09091420280914102981708F03FC012
:103E8000E091420281E08E0F80934202F0E0ED5B10
:103E9000FD4F80818093BB00A5C080E390E09093AC
:103EA0006402809363020E94A01EA9C0E0914202B6
:103EB00081E08E0F809342028091BB00F0E0ED5BC9
:103EC000FD4F8083909142028091410289C0E09130
:103ED000420281E08E0F809342028091BB00F0E0AD
:103EE000ED5BFD4F808390914202809141029817D3
:103EF00030F488E590E090936402809363028091AF
:103F000065029091660280FDCECF8091650290910E
:103F100066028260909366028093650284EA69C0BB
:103F200083E090E090936802809367021092FC0116
:103F300059C08091FC01803208F056C0E091FD012B
:103F4000F091FE018091FC0191E0980F9093FC01AB
:103F50009091BB00E80FF11D908344C00E94AC1EFD
:103F60002091FC018091FD019091FE01203230F4FE
:103F70002091FC01FC01E20FF11D10826091FC0117
:103F8000E0910E01F0910F0109951092FC0137C0EC
:103F900084E090E090936802809367021092200280
:103FA00010921F02E0911001F0911101099580918A
:103FB0001F02811105C081E080931F02109221022F
:103FC000E091200281E08E0F80932002F0E0EF5D0F
:103FD000FD4F80818093BB009091200280911F0251
:103FE000981710F485EC01C085E88093BC0007C0E9
:103FF00085EC8093BC001092680210926702FF91DA
:10400000EF91BF91AF919F918F917F916F915F9150
:104010004F913F912F910F900FBE0F901F901895C9
:104020000F931F938B019C01672B682B692B71F4F5
:104030008091BC008A7B8093BC008FB7F894459830
:104040008FBF8FB7F89444988FBF43C08FEF91E034
:104050009093FE018093FD01109268021092670216
:1040600081E090E090936602809365028FB7F894A8
:104070003D988FBF8FB7F8943C988FBF4130510562
:1040800041F48FB7F894459A8FBF8FB7F894449A4C
:104090008FBF8091B9008E7F8093B9008091B90065
:1040A0008D7F8093B90060E07BE187EB90E0A90110
:1040B00098010E94EA24DA01C9014097A109B109D7
:1040C000B695A795979587958093B80085E48093DA
:1040D000BC001F910F910895413208F05BC0E09140
:1040E0006702F0916802EF2B09F057C0E2E0F0E0C0
:1040F000F0936802E09367022130310531F420919A
:10410000650230916602216005C020916502309100
:1041100066022E7F30936602209365022FEF30E017
:104120003093640220936302109242024093410252
:10413000262FA3E4B2E0FB019E2F921B941718F4E4
:1041400091919D93F9CF880F8093690280916902C4
:1041500080936902809165029091660281FF14C08C
:1041600080916502909166028D7F90E09093660247
:1041700080936502809169028093BB008091BC00AE
:1041800083FDF8CF85EC01C085EE8093BC0080E014
:1041900090E0089581E090E0089582E090E0089535
:1041A00080916702909168020297E1F0809163022A
:1041B000909164028F3F9105C1F0809163029091CC
:1041C00064028097A9F08091630290916402C09785
:1041D00091F08091630290916402892B79F085E0DF
:1041E00090E0089581E090E0089580E090E00895E7
:1041F00082E090E0089583E090E0089584E090E00C
:1042000008950F931F93CF93DF93E801E881F9811D
:10421000E430F105C9F030F4E230F105F9F03397FC
:1042200021F020C03797F0F419C00E946C20813033
:10423000910529F49983888381E090E015C0029765
:1042400089F084E090E00CC00E94D020813091057C
:1042500059F021E030E03983288306C081E090E006
:104260009983888380E090E0DF91CF911F910F9137
:104270000895613208F04EC02091670230916802C3
:10428000232B09F04AC021E030E0309368022093EC
:10429000670220916502309166024130510511F4A8
:1042A000216001C02E7F30936602209365022FEFBC
:1042B00030E0309364022093630210924202615016
:1042C00060934102880F80936902809169028F5F39
:1042D00080936902809165029091660281FF14C00B
:1042E00080916502909166028D7F90E090936602C6
:1042F00080936502809169028093BB008091BC002D
:1043000083FDF8CF85EC01C085EE8093BC0080E092
:1043100090E0089581E090E0089582E090E00895B3
:1043200080916702909168020197F1F08091630299
:10433000909164028F3F9105D1F08091630290913A
:10434000640288349105B1F0809163029091640217
:104350008835910591F08091630290916402892BD8
:1043600079F085E090E0089581E090E0089580E0A4
:1043700090E0089582E090E0089583E090E0089551
:1043800084E090E008952091670230916802213026
:10439000310539F420916302309164022F3F3105D9
:1043A000B1F4209141022F5F30914202321710F494
:1043B00020914202A3E4B2E0382FFC018E2F831B30
:1043C000821718F48D918193F9CF822F089580E0A0
:1043D0000895EF92FF920F931F93CF93DF937B018A
:1043E000642FE801E881F981E530F10539F018F42E
:1043F0003297F8F422C0369761F01FC0A9010E94DD
:10440000392181309105A9F00297B9F086E090E05A
:1044100012C00E9490218130910579F00297039794
:1044200040F0C7010E94C32121E030E03983288396
:1044300005C081E090E09983888380E0DF91CF918F
:104440001F910F91FF90EF900895AF92BF92CF927E
:10445000DF92EF92FF920F931F93CF93DF93B82ECB
:104460006901A02EE701888199810397029788F45A
:10447000870122E030E08B2D0E94012128813981C3
:1044800021303105B9F4811115C085E090E09983A0
:1044900088838E0121E030E04A2DB6018B2D0E94E9
:1044A000E921288139812130310541F4811107C08A
:1044B0000E9490218295880F807E01C080E0DF916C
:1044C000CF911F910F91FF90EF90DF90CF90BF9011
:1044D000AF90089598EF980F903728F4982F990F80
:1044E0009093BA0008951092BA008EE99EE19093DD
:1044F0001101809310018FE99EE190930F01809349
:104500000E0180E008956132B0F42091670230918D
:1045100068022430310589F460931F02282FA1E23C
:10452000B2E0FC018E2F821B861718F481918D93C7
:10453000F9CF80E0089581E0089582E00895009722
:1045400011F48FE99EE190930F0180930E0108957D
:10455000009711F48EE99EE1909311018093100170
:1045600008950895089585ED8093DC008091DC0026
:1045700084FDFCCF1092F6021092F502089585ECAE
:104580008093DC001092F6021092F50208951F92BB
:104590000F920FB60F9211242F933F934F935F9377
:1045A0006F937F938F939F93AF93BF93EF93FF93FB
:1045B0008091D900887F803609F4C5C0B8F588326B
:1045C00009F46AC0A0F4803109F463C038F4882388
:1045D00009F45AC0883009F45CC034C1883109F448
:1045E0005BC0803209F02EC180E290E06BC0803465
:1045F00009F47BC078F4803309F462C0883309F091
:1046000021C188E390E09093F2028093F1020E942E
:10461000BF2218C1803509F45CC0883509F46AC02E
:10462000883409F00FC188E490E04CC0883909F45F
:10463000FEC0A8F4883709F486C038F4883609F437
:1046400082C0803709F47FC0FDC0883809F4EFC00C
:10465000803909F481C0803809F0F4C07DC0803B06
:1046600009F4B9C038F4803A09F48BC0883A09F4E7
:10467000B2C0E8C0803C09F4DEC0883C09F4DBC06D
:10468000883B09F4C0C0DEC01092F2021092F10221
:104690001DC08091F70211C09091D0028091CF028D
:1046A000981708F03FC0E091D00281E08E0F809310
:1046B000D002F0E0EF52FD4F80818093DB00B5C067
:1046C00080E390E09093F2028093F1020E94B32283
:1046D000B9C0E091D00281E08E0F8093D00280912A
:1046E000DB00F0E0EF52FD4F80839091D00280918B
:1046F000CF0299C0E091D00281E08E0F8093D0026A
:104700008091DB00F0E0EF52FD4F80839091D0026A
:104710008091CF02981730F488E590E09093F202F0
:104720008093F1028091F3029091F40280FDCECF4C
:104730008091F3029091F40282609093F40280934E
:10474000F30284EA79C083E090E09093F6028093CC
:10475000F50210926A0269C080916A02803208F004
:1047600066C0E0916B02F0916C0280916A0291E068
:10477000980F90936A029091DB00E80FF11D9083EF
:1047800054C00E94BF2220916A0280916B029091D6
:104790006C02203230F420916A02FC01E20FF11D1C
:1047A000108260916A02E0911201F0911301099563
:1047B00080916B0290916C028D58924019F48DE6B5
:1047C00092E002C08DE892E090936C0280936B02BD
:1047D00010926A0237C084E090E09093F6028093D2
:1047E000F5021092AE021092AD02E0911401F09128
:1047F000150109958091AD02811105C081E080937A
:10480000AD021092AF02E091AE0281E08E0F809374
:10481000AE02F0E0E155FD4F80818093DB00909186
:10482000AE028091AD02981710F485EC01C085E8C6
:104830008093DC0007C085EC8093DC001092F602C8
:104840001092F502FF91EF91BF91AF919F918F91DF
:104850007F916F915F914F913F912F910F900FBE7C
:104860000F901F9018950F931F938B019C01672B3E
:10487000682B692B71F48091DC008A7B8093DC00CB
:104880008FB7F89471988FBF8FB7F89470988FBFD7
:1048900043C08DE892E090936C0280936B0210927B
:1048A000F6021092F50281E090E09093F40280937A
:1048B000F3028FB7F89469988FBF8FB7F894689810
:1048C0008FBF4130510541F48FB7F894719A8FBF73
:1048D0008FB7F894709A8FBF8091D9008E7F8093A4
:1048E000D9008091D9008D7F8093D90060E07BE171
:1048F00087EB90E0A90198010E94EA24DA01C9013E
:104900004097A109B109B695A7959795879580938A
:10491000D80085E48093DC001F910F91089598EFF3
:10492000980F903728F4982F990F9093DA000895F4
:104930001092DA0081EB92E29093150180931401BA
:1049400082EB92E2909313018093120180E008952C
:104950006132B0F42091F5023091F6022430310535
:1049600089F46093AD02282FAFEAB2E0FC018E2FEC
:10497000821B861718F481918D93F9CF80E00895FA
:1049800081E0089582E00895009711F482EB92E2AD
:1049900090931301809312010895009711F481EB15
:1049A00092E29093150180931401089597FB072ECE
:1049B00016F4009407D077FD09D00E94122507FC59
:1049C00005D03EF4909581959F4F0895709561951F
:1049D0007F4F0895A1E21A2EAA1BBB1BFD010DC03B
:1049E000AA1FBB1FEE1FFF1FA217B307E407F5079F
:1049F00020F0A21BB30BE40BF50B661F771F881F7B
:104A0000991F1A9469F760957095809590959B0110
:104A1000AC01BD01CF010895EE0FFF1F0590F49189
:104A2000E02D0994AA1BBB1B51E107C0AA1FBB1FA5
:104A3000A617B70710F0A61BB70B881F991F5A952A
:104A4000A9F780959095BC01CD010895CF93DF9390
:104A5000EC012B8120FF33C026FF0AC02F7B2B8364
:104A60008E819F8101969F838E838A8190E029C0E9
:104A700022FF0FC0E881F9818081082E000C990B7C
:104A8000009719F420622B831AC03196F983E883CA
:104A90000EC0EA85FB85099597FF09C02B81019619
:104AA00011F080E201C080E1822B8B8308C02E814F
:104AB0003F812F5F3F4F3F832E83992702C08FEFA7
:104AC0009FEFDF91CF910895A0E0B0E0EAE6F5E234
:104AD0000C946328AE014B5F5F4FFA0161917191B5
:104AE000AF0180914C0490914D040E947A25E2E040
:104AF0000C947F28ABE0B0E0E0E8F5E20C9453289A
:104B00006C017B018A01FC0117821682838181FF7F
:104B1000CCC1CE0101963C01F6019381F70193FDD2
:104B2000859193FF81917F01882309F4BAC1853271
:104B300039F493FD859193FF81917F01853229F4AA
:104B4000B60190E00E947127E7CF912C212C312CE7
:104B5000FFE1F315D8F08B3279F038F4803279F038
:104B60008332A1F4232D20611DC08D3261F080338A
:104B700069F4232D216016C0832D8260382EE32D29
:104B8000E4603E2E2AC0F32DF8601DC037FC2DC016
:104B900020ED280F2A3040F08E32B9F436FC81C166
:104BA000232D2064322E19C036FE06C08AE0989E5E
:104BB000200D1124922E11C0EAE02E9E200D11240A
:104BC000222EF32DF0623F2E08C08C3621F4832D67
:104BD0008068382E02C0883641F4F70193FD859134
:104BE00093FF81917F018111B3CF982F9F7D9554C1
:104BF000933028F40C5F1F4F9FE399830DC08336D9
:104C000031F0833771F0833509F059C021C0F801C4
:104C1000808189830E5F1F4F88248394912C5301D8
:104C200013C02801F2E04F0E511CF801A080B180A2
:104C300036FE03C0692D70E002C06FEF7FEFC50143
:104C40000E9466274C018201F32DFF773F2E16C08C
:104C5000280122E0420E511CF801A080B18036FEEE
:104C600003C0692D70E002C06FEF7FEFC5010E94A5
:104C70005B274C01F32DF0683F2E820133FC1BC0F3
:104C8000822D90E088169906B0F4B60180E290E09B
:104C90000E9471272A94F4CFF50137FC859137FEE5
:104CA00081915F01B60190E00E94712721102A9442
:104CB00021E0821A91088114910471F7E8C08436CA
:104CC00011F0893641F5F80137FE07C06081718126
:104CD000828193810C5F1F4F08C060817181072E14
:104CE000000C880B990B0E5F1F4FF32DFF763F2EA4
:104CF00097FF09C090958095709561957F4F8F4F74
:104D00009F4FF0683F2E2AE030E0A3010E94AD27BC
:104D1000882E861845C0853731F4232D2F7EB22E7C
:104D20002AE030E025C0932D997FB92E8F36C1F04F
:104D300018F4883579F0B5C0803719F0883721F03C
:104D4000B0C0E92FE061BE2EB4FE0DC0FB2DF460B3
:104D5000BF2E09C034FE0AC0292F2660B22E06C01D
:104D600028E030E005C020E130E002C020E132E080
:104D7000F801B7FE07C060817181828193810C5F69
:104D80001F4F06C06081718180E090E00E5F1F4F71
:104D9000A3010E94AD27882E8618FB2DFF773F2E9A
:104DA00036FE0DC0232D2E7FA22E891458F434FE1A
:104DB0000BC032FC09C0832D8E7EA82E05C0B82CF6
:104DC000A32C03C0B82C01C0B92CA4FE0FC0FE0157
:104DD000E80DF11D8081803321F49A2D997EA92E52
:104DE00009C0A2FE06C0B394B39404C08A2D86788D
:104DF00009F0B394A3FC11C0A0FE06C0B21488F45D
:104E0000280C922C9B180EC0B21460F4B60180E2FC
:104E100090E00E947127B394F7CFB21418F42B18C6
:104E200002C0982C212CA4FE10C0B60180E390E0B3
:104E30000E947127A2FE17C0A1FC03C088E790E082
:104E400002C088E590E0B6010CC08A2D867859F042
:104E5000A1FE02C08BE201C080E2A7FC8DE2B60198
:104E600090E00E947127891438F4B60180E390E045
:104E70000E9471279A94F7CF8A94F301E80DF11DEF
:104E80008081B60190E00E9471278110F5CF222029
:104E900009F442CEB60180E290E00E9471272A9484
:104EA000F6CFF6018681978102C08FEF9FEF2B9698
:104EB000E2E10C946F28FC010590615070400110F4
:104EC000D8F7809590958E0F9F1F0895FC01615033
:104ED000704001900110D8F7809590958E0F9F1F1C
:104EE00008950F931F93CF93DF93FB01238121FD3F
:104EF00003C08FEF9FEF2CC022FF16C04681578161
:104F0000248135814217530744F4A081B1819D016A
:104F10002F5F3F4F318320838C93268137812F5F12
:104F20003F4F3783268314C08B01EC01FB010084C3
:104F3000F185E02D0995892BE1F6D80116968D9122
:104F40009C911797019617969C938E931697CE0176
:104F5000DF91CF911F910F910895FA01AA27283070
:104F600051F1203181F1E8946F936E7F6E5F7F4F36
:104F70008F4F9F4FAF4FB1E03ED0B4E03CD0670FB2
:104F8000781F891F9A1FA11D680F791F8A1F911D05
:104F9000A11D6A0F711D811D911DA11D20D009F455
:104FA00068943F912AE0269F11243019305D319397
:104FB000DEF6CF010895462F4770405D4193B3E080
:104FC0000FD0C9F7F6CF462F4F70405D4A3318F027
:104FD000495D31FD4052419302D0A9F7EACFB4E0D8
:104FE000A6959795879577956795BA95C9F7009790
:104FF0006105710508959B01AC010A2E0694579531
:10500000479537952795BA95C9F7620F731F841F87
:10501000951FA01D0895F999FECF92BD81BDF89A04
:10502000992780B50895A6E1B0E044E050E00C94E3
:105030004528A8E1B0E042E050E00C944528262F36
:10504000F999FECF92BD81BDF89A019700B402167E
:1050500039F01FBA20BD0FB6F894FA9AF99A0FBE2C
:1050600008950396272F0E9420280E941F28252F8D
:105070000E942028242F0C9420280196272F0E947C
:1050800020280C941F28DC01CB01FC01F999FECFEC
:1050900006C0F2BDE1BDF89A319600B40D924150C0
:1050A0005040B8F708952F923F924F925F926F92BF
:1050B0007F928F929F92AF92BF92CF92DF92EF92A8
:1050C000FF920F931F93CF93DF93CDB7DEB7CA1B29
:1050D000DB0B0FB6F894DEBF0FBECDBF09942A8854
:1050E000398848885F846E847D848C849B84AA84FC
:1050F000B984C884DF80EE80FD800C811B81AA8189
:10510000B981CE0FD11D0FB6F894DEBF0FBECDBF53
:08511000ED010895F894FFCFB2
:105118000000000300000000E21B701C00009F1E3E
:105128009E1EB222B1222563256300F10A02060CF5
:1051380006E806000A3B078707E7061906E7065848
:10514800088B082106BE08F1082F062409280AE75B
:1051580006E7063D06E7068E06E706A00BF20B817A
:105168000A6A0C4209A1097907E70600000100064E
:10517800000700360D02060C06E806000A3B078702
:1051880007E7061906E70658088B082106BE08F146
:10519800082F062409280AE706E7063D06E7068ED3
:1051A80006E706A00BF20B810A6A0C4209A10979ED
:0451B80007E70600FF
:00000001FF
