:100000000C9469000C9486000C9486000C94860075
:100010000C9486000C9486000C9486000C94860048
:100020000C9486000C9486000C9486000C94860038
:100030000C9486000C9486000C9486000C94860028
:100040000C94F81B0C9486000C944E1A0C94831A92
:100050000C9486000C94361B0C9486000C9486003D
:100060000C94FE1C0C9486000C9486000C94860064
:100070000C9486000C9486000C9486000C948600E8
:100080000C9486000C9486000C9486000C948600D8
:100090000C9486000C9486000C9486000C948600C8
:1000A0000C9411210C9486000C9486000C9486000C
:1000B0000C94860099129B12CB1211136F138F139D
:1000C000B913E713A3142E14561493145250556900
:1000D000640011241FBECFEFD8E0DEBFCDBF11E01A
:1000E000A0E0B1E0ECEAFDE402C005900D92A43A74
:1000F000B107D9F724E0A4EAB1E001C01D92A03411
:10010000B207E1F70E94A8010C94D4260C940000D9
:100110008FB7F89429988FBF8FB7F894219A8FBF23
:100120008FB7F894259A8FBF8FB7F8942D9A8FBF09
:100130008FB7F89453988FBF8FB7F8945B9A8FBF9F
:100140008FB7F894529A8FBF8FB7F8945A9A8FBF8F
:100150008FB7F8943B9A8FBF8FB7F894439A8FBFAD
:100160008FB7F894549A8FBF8FB7F8945C988FBF6D
:100170008FB7F894559A8FBF8FB7F8945D9A8FBF59
:100180008FB7F8943A9A8FBF8FB7F89442988FBF81
:100190008FB7F894579A8FBF8FB7F8945F988FBF37
:1001A0008FB7F894569A8FBF8FB7F8945E988FBF29
:1001B0008FB7F894229A8FBF8FB7F8942A9A8FBF7F
:1001C0008FB7F894239A8FBF8FB7F8942B988FBF6F
:1001D00080E3809310031092120310920103109297
:1001E0000303109208031092060310920503109265
:1001F000130310920F031092000310921503109234
:1002000007031092790310927803109216030E944C
:100210001D1C80E40E94B71B80E00E94D21B0E943C
:100220005B1C6093AB037093AC038093AD0390931E
:10023000AE0342E060E970ED83E090E00E94E01AD6
:1002400090933B0480933A0490933D0480933C0444
:1002500089E20E94B42085EF9BE00E94F2208DEBA2
:100260009BE00E94E92040E050E060EA76E881E00F
:1002700090E00E945A1E8AE20E94D92289EE9CE0F8
:100280000E9417238FE69CE00E940E2340E050E07E
:1002900060EA76E881E090E00E947D2278942FEB7E
:1002A00084ED91E0215080409040E1F700C00000D3
:1002B0008FB7F8945F9A8FBF1092AF0380E090E001
:1002C0000E94740E81E090E00E94740E0E941D0D49
:1002D000882329F082E390E00E94552601C081E343
:1002E000809311030E949E180E9419150E94A10F6D
:1002F0000E945B1C6093CE037093CF038093D00366
:100300009093D1031092130480E090E00E9475193D
:1003100081E090E00E94751982E090E00E947519DA
:1003200083E090E00E9475198FB7F89420988FBFF2
:100330008FB7F894289A8FBF89E090E09093DC0300
:100340008093DB0380910303886080930303089507
:100350000E9488000E945B1C60930B0370930C0347
:1003600080930D0390930E0380911503811108C0B3
:100370000E940E020E94AD020E94DF020E94C6028D
:100380000E94F20C0E94E3030E94380D0E94C50EE9
:100390000E94EC190E94FA180E9428160E9452101E
:1003A0000E94AA100E94E4150E946F120E94790C0C
:1003B000DBCF80910A038823C1F08FB7F89443986C
:1003C0008FBF8FB7F8945C988FBF80910903882303
:1003D00021F08FB7F8945D9A03C08FB7F8945D98B9
:1003E0008FBF8FB7F894429A17C08FB7F894439A8B
:1003F0008FBF8FB7F8945C988FBF809109038823D3
:1004000021F08FB7F8945D9A03C08FB7F8945D9888
:100410008FBF8FB7F89442988FBF08958091DB0308
:100420009091DC030197089728F48FB7F8942D9AE0
:100430008FBF08958BE093E00E94D41C20910303AA
:10044000277F09F067C020910A03222321F09695A7
:10045000879577956795209102032223D9F06C3414
:10046000710581059105B0F093B18FB7F89495FDB2
:1004700002C02D9A01C02D988FBF80910B039091DF
:100480000C03A0910D03B0910E03855B9F4FAF4FFE
:10049000BF4F5AC0209101032223E1F0613D27E0C4
:1004A000720781059105B0F093B18FB7F89495FD6F
:1004B00002C02D9A01C02D988FBF80910B0390919F
:1004C0000C03A0910D03B0910E038053984FAF4FD2
:1004D000BF4F3AC020911203222309F43DC0653F6B
:1004E000714081059105C0F193B18FB7F89495FDE6
:1004F00002C02D9A01C02D988FBF80910B0390915F
:100500000C03A0910D03B0910E038C509E4FAF4F82
:10051000BF4F1AC0693C710581059105E8F093B1A0
:100520008FB7F89495FD02C02D9A01C02D988FBF0A
:1005300080910B0390910C03A0910D03B0910E03D9
:1005400088539F4FAF4FBF4F80930B0390930C0383
:10055000A0930D03B0930E030895809102038823A6
:10056000A1F088EF92E00E94D41C20910F0321118A
:100570000CC06933714C8140910538F00E94D9015B
:1005800081E0809312031092020308958CEF92E0B1
:100590000E94D41C20910F03211110C0209101034F
:1005A000222361F0613C744D8140910538F00E9436
:1005B000D90181E080931203109201030895809184
:1005C0000A038111B5C04B9956C08091030383FD86
:1005D000AFC04A9B05C08FB7F8945A988FBF089553
:1005E000809102038111A4C0809101038111A0C0F8
:1005F0008091120381119CC080911403811198C0D5
:100600000E945B1C6093190370931A0380931B0371
:1006100090931C038091100380931603209116037E
:10062000909116034091160330E0209530952A7082
:10063000332764E0220F331F6A95E1F7892F90E09A
:10064000809590958075992774E0959587957A9512
:10065000E1F7822B932B9F938F931F924F9386E109
:1006600091E09F938F930E94AE2381E080931403C7
:100670008093040357C080911203882309F458C063
:1006800080910403882309F453C0809114038111DD
:100690004FC08091020381114BC0809101038111F1
:1006A00047C00E945B1C6093190370931A038093E8
:1006B0001B0390931C038FEC809316032091160369
:1006C000909116034091160330E0209530952A70E2
:1006D000332784E0220F331F8A95E1F7892F90E0BA
:1006E000809590958075992754E0959587955A95B2
:1006F000E1F7822B932B9F938F931F924F9386E169
:1007000091E09F938F930E94AE2381E08093140326
:100710008FB7F8942D9A8FBF109204038FB7F89477
:100720005A9A8FBF0F900F900F900F900F900F90CD
:10073000089580910A03882381F08FB7F894439835
:100740008FBF8FB7F8945C988FBF8FB7F8945D9A7E
:100750008FBF8FB7F894429A0FC08FB7F894439A1F
:100760008FBF8FB7F8945C988FBF8FB7F8945D9A5E
:100770008FBF8FB7F89442988FBF089580910A0376
:10078000882381F08FB7F89443988FBF8FB7F89480
:100790005C9A8FBF8FB7F8945D988FBF8FB7F8942E
:1007A000429A0FC08FB7F894439A8FBF8FB7F894CF
:1007B0005C9A8FBF8FB7F8945D988FBF8FB7F8940E
:1007C00042988FBF08958F929F92AF92BF92CF921F
:1007D000DF92EF92FF920F931F93CF93DF9389E104
:1007E00093E00E94D41C20911403222369F0653FFA
:1007F00071408105910540F08091030381708093E1
:10080000030310921403E7C10E94AF1A892B09F465
:10081000E2C180913A0490913B040E947023609160
:100820001703262F30E020953095A9014A705527EF
:1008300074E0440F551F7A95E1F720753327E4E003
:1008400035952795EA95E1F7242B352BAC015527F3
:100850002417350739F4109217038091140381117E
:1008600004C00FC080931703B6C1809116036817A8
:1008700029F0809103038470809303031092140382
:1008800004C080910403882319F010920A0303C066
:1008900081E080930A03611127C00E945B1CDC0188
:1008A000CB01805C944DA140B1098093FC029093F0
:1008B000FD02A093FE02B093FF020E945B1CDC01CC
:1008C000CB018853914CA140B1098093F8029093D9
:1008D000F902A093FA02B093FB028FB7F8942D9817
:1008E0008FBF10920F0350C16F3F31F4109213036A
:1008F00081E080930F036FC1613009F06DC0E9B1F1
:1009000079B156B189B149B199B129B136B1E3FB99
:10091000AA24A0F8B12CB694BA2CAA24B794A79410
:1009200072FBCC24C0F8D12CF6E0CC0CDD1CFA957F
:10093000E1F7CA2833FBAA24A0F8CA2852FBEE2408
:10094000E0F8F12CA5E0EE0CFF1CAA95E1F7EC28ED
:1009500085FB002700F910E0B4E0000F111FBA95E5
:10096000E1F70E2946FB442740F9C42F80E0D82F39
:1009700013E0CC0FDD1F1A95E1F7C02B892F990FDB
:10098000990B8827990F881F9927880F991F880F1F
:10099000991F8C2B24FB882480F8912C880C991C9F
:1009A0008829809307038FB7F894429A8FBF8FB737
:1009B000F8945D988FBF8FB7F8945F988FBF8FB70B
:1009C000F8945C9A8FBF8FB7F89443988FBF1092BA
:1009D000000360931503FFC06E3F09F076C080915D
:1009E0000703881F8827881F9FB7F894882311F072
:1009F0005B9A01C05B989FBF8091070386FB8827A5
:100A000080F99FB7F894882311F05A9A01C05A9838
:100A10009FBF8091070385FB882780F99FB7F894D3
:100A2000882311F0429A01C042989FBF809107032A
:100A3000829581709FB7F894882311F05D9A01C068
:100A40005D989FBF8091070383FB882780F99FB73C
:100A5000F894882311F05E9A01C05E989FBF8FB70B
:100A6000F894599A8FBF8FB7F89451988FBF80919F
:100A7000C10088618093C1008091070382FB8827B1
:100A800080F99FB7F894882311F05F9A01C05F98AE
:100A90009FBF80910703869581709FB7F894882344
:100AA00011F05C9A01C05C989FBF80910703817030
:100AB0009FB7F894882311F0439A01C043989FBFD1
:100AC000109200031092150386C0809111036813E1
:100AD00046C080911803811118C00E9499038FB7F6
:100AE000F8942A988FBF1092FE031092D2030E94AE
:100AF0005B1C60931D0370931E0380931F039093F0
:100B0000200381E08093180366C08DE193E00E948A
:100B1000D41C643171058105910508F45CC08FB760
:100B2000F8942A9A8FBF1092180381E080930203F1
:100B3000109209030E945B1C60930B0370930C03DB
:100B400080930D0390930E030E945B1C6093F80248
:100B50007093F9028093FA029093FB023CC067FD08
:100B60001EC081E0809301031092020310921203D1
:100B70000E94BE030E945B1C6093FC027093FD0206
:100B80008093FE029093FF020E945B1C60930B0314
:100B900070930C0380930D0390930E031CC010926E
:100BA0000A031092010310921203109202038FB7EE
:100BB000F8942D9A8FBF8FB7F89443988FBF8FB753
:100BC000F8945C9A8FBF8FB7F8945D988FBF8FB7FA
:100BD000F894429A8FBFDF91CF911F910F91FF90B0
:100BE000EF90DF90CF90BF90AF909F908F9008953F
:100BF000FC018181909103039F70918387FD909305
:100C000003030895FC01218130ED320F3B3410F4D1
:100C10002093100320911003FC0121830895FC010F
:100C200080910704909108042091090430910A04EE
:100C300031832283938384830895FC01818180938F
:100C4000D20382818093C80383818093C703848108
:100C50008093D30308950F931F93FC01018110E04B
:100C600020E030E0302F2227112700279281492FE2
:100C700050E060E070E0BA0155274427400F511F53
:100C8000621F731F84818A019B01080F111D211DA2
:100C9000311D438150E060E070E0762F652F542FC6
:100CA0004427400F511F621F731F411551056105F5
:100CB000710549F480919B0390919C0320919D03C1
:100CC00030919E0312C0423051056105710549F40F
:100CD00080919F039091A0032091A1033091A203E2
:100CE00004C080E090E020E030E0318322839383F1
:100CF00084831F910F9108951F93CF93DF93FC017D
:100D00009181292F2F77223008F044C09093B003AF
:100D100084E0289FE0011124CF54DC4F5881698181
:100D20003A814B818281428343813383348164835E
:100D30001581558397FF35C090E0A0E0B0E0B82F53
:100D4000AA279927882750E060E070E0BA0155276C
:100D50004427840F951FA61FB71F810F911DA11D4A
:100D6000B11D432F50E060E070E0762F652F542FC7
:100D70004427840F951FA61FB71F88839983AA83D2
:100D8000BB8380E190E001C0880F2A95EAF7809349
:100D9000AF0307C08FE781838FEF828383838483D0
:100DA0008583DF91CF911F91089508951F93CF936D
:100DB000DF93EC011981113009F044C080911303D5
:100DC000811140C00E945B1C6093190370931A0349
:100DD00080931B0390931C038FEF80931603209145
:100DE0001603909116034091160330E0209530953C
:100DF0002A70332784E0220F331F8A95E1F7892F69
:100E000090E0809590958075992754E09595879509
:100E10005A95E1F7822B932B9F938F931F924F93B9
:100E200086E191E09F938F930E94AE231093140369
:100E30001093130310920F030F900F900F900F90C9
:100E40000F900F9080910F038983DF91CF911F91B5
:100E50000895CF93DF9300D0CDB7DEB7FC01218199
:100E600030E0322F22278281280F311D3A832983D7
:100E7000809111048183809110048283CE010196B8
:100E80000E945118882369F089819A8190931104F6
:100E90008093100483E090E090930F0480930E04FD
:100EA00006C0CE0101960E9467188111EDCF0F9008
:100EB0000F90DF91CF910895CF93DF9300D0CDB7FE
:100EC000DEB7FC01218130E0322F22278281280FFA
:100ED000311D3A83298380910D04818380910C0414
:100EE0008283CE0101960E944618882369F0898189
:100EF0009A8190930D0480930C0482E090E090938B
:100F00000F0480930E0406C0CE0101960E945C1867
:100F10008111EDCF0F900F90DF91CF910895CF9376
:100F2000DF9300D0CDB7DEB7FC01218130E0322F56
:100F300022278281280F311D3A8329838091BE03A5
:100F400081838091BD038283CE0101960E94FA0EB7
:100F5000882369F089819A819093BE038093BD03B1
:100F600082E090E09093C0038093BF0306C0CE015F
:100F700001960E94100F8111EDCF0F900F90DF911D
:100F8000CF910895CF93DF9300D0CDB7DEB7FC01AA
:100F9000218130E0322F22278281280F311D3A83B0
:100FA00029838091C20381838091C1038283CE0112
:100FB00001960E94050F882369F089819A81909398
:100FC000C2038093C10383E090E09093C0038093B9
:100FD000BF0306C0CE0101960E941B0F8111EDCF09
:100FE0000F900F90DF91CF910895CF93DF93EC0195
:100FF000898190E0982F88272A81820F911D843063
:10100000910550F4880F991FFC01E55AFE4F80812D
:1010100091810E94E71B02C080E090E099838A835F
:10102000DF91CF9108950F931F93CF93DF9300D05B
:1010300000D0CDB7DEB7FC01418150E060E070E048
:10104000342F2227112700278281482F50E060E0AB
:1010500070E0BA0155274427400F511F621F731FCC
:101060008481480F511D611D711D838190E0A0E0B6
:10107000B0E0BA2FA92F982F8827480F591F6A1F51
:101080007B1F49835A836B837C838091C603818352
:101090008091C50382838091C40383838091C303BD
:1010A0008483CE0101960E94370F882391F08981B5
:1010B0009A81AB81BC818093C3039093C403A093B6
:1010C000C503B093C60384E090E09093C00380937F
:1010D000BF030F900F900F900F90DF91CF911F9152
:1010E0000F9108950F931F93CF93DF9300D000D0FB
:1010F000CDB7DEB7FC01418150E060E070E0342FF5
:101100002227112700278281482F50E060E070E0FD
:10111000BA0155274427400F511F621F731F848156
:10112000480F511D611D711D838190E0A0E0B0E06A
:10113000BA2FA92F982F8827480F591F6A1F7B1F86
:1011400049835A836B837C838091BC038183809124
:10115000BB0382838091BA0383838091B903848324
:10116000CE0101960E94260F882391F089819A81F1
:10117000AB81BC818093B9039093BA03A093BB0366
:10118000B093BC0385E090E09093C0038093BF03CD
:101190000F900F900F900F90DF91CF911F910F91B3
:1011A0000895CF93DF93EC018EEC93E00E94D41C62
:1011B00099838A837B836C83DF91CF910895FC01AF
:1011C00091819093FE03828180930B04992361F0B7
:1011D00010920704109208041092090410920A0455
:1011E0001092FD031092FC0308951F93CF93DF9399
:1011F000FC019181292F2F77243008F044C090936F
:10120000120484E0289FE0011124CC5EDB4F58815A
:1012100069813A814B818281428343813383348166
:1012200064831581558397FF35C090E0A0E0B0E05E
:10123000B82FAA279927882750E060E070E0BA010C
:1012400055274427840F951FA61FB71F810F911D97
:10125000A11DB11D432F50E060E070E0762F652F97
:10126000542F4427840F951FA61FB71F8883998387
:10127000AA83BB8380E190E001C0880F2A95EAF73A
:101280008093130407C08FE781838FEF828383836A
:1012900084838583DF91CF911F910895AF92BF9290
:1012A000CF92DF92EF92FF920F931F93CF93DF9332
:1012B000FC0180911503882309F454C0A9B0B9B08A
:1012C000C6B0D9B039B199B189B126B1A3FAEE242B
:1012D000E0F8F12CF694FE2CEE24F794E794B2FAA1
:1012E000002700F910E056E0000F111F5A95E1F7B2
:1012F0000E2923FB222720F9022BC2FACC24C0F8A6
:10130000CC2D20E0D22F65E0CC0FDD1F6A95E1F7F0
:10131000C02BD5FAAA27A0F9B0E074E0AA0FBB1F32
:101320007A95E1F7AC2B36FB662760F970E0B3E005
:10133000660F771FBA95E1F76A2B292F990F330BA8
:101340002227330F221F3327220F331F220F331F71
:10135000262B84FB442740F950E0440F551F242BD3
:10136000218301C01182DF91CF911F910F91FF90D6
:10137000EF90DF90CF90BF90AF900895CF93FC0196
:10138000918180911103818380ED890F8B3430F43A
:101390009093110381E0809308039DC0C1E0C09346
:1013A0000903809104038823B1F10E945B1C6093C0
:1013B000190370931A0380931B0390931C031092DC
:1013C000160320911603909116034091160330E006
:1013D000209530952A70332764E0220F331F6A95D9
:1013E000E1F7892F90E0809590958075992774E0BA
:1013F000959587957A95E1F7822B932B9F938F9301
:101400001F924F9386E191E09F938F930E94AE23AA
:10141000C093140339C0809102038823E1F10E9434
:101420005B1C6093190370931A0380931B039093C2
:101430001C031092160320911603909116034091FD
:10144000160330E0209530952A70332784E0220F70
:10145000331F8A95E1F7892F90E0809590958075EC
:10146000992754E0959587955A95E1F7822B932B10
:101470009F938F931F924F9386E191E09F938F9359
:101480000E94AE23109214030F900F900F900F90B4
:101490000F900F9020C00E945B1CDC01CB01805C90
:1014A000944DA140B1098093FC029093FD02A0935A
:1014B000FE02B093FF020E945B1CDC01CB0188534B
:1014C000914CA140B1098093F8029093F902A09346
:1014D000FA02B093FB02CF910895CF93FC01C18132
:1014E000C13009F048C080910003811142C0809151
:1014F000150381113EC00E945B1C60931903709319
:101500001A0380931B0390931C03C093160320912E
:101510001603909116034091160330E02095309504
:101520002A70332784E0220F331F8A95E1F7892F31
:1015300090E0809590958075992754E095958795D2
:101540005A95E1F7822B932B9F938F931F924F9382
:1015500086E191E09F938F930E94AE23C093140382
:10156000C09300030F900F900F900F900F900F906B
:1015700004C082E001C083E08183CF9108951F936E
:10158000CF93DF93EC011981113009F06BC080918A
:101590000003811167C080911503882309F462C09C
:1015A0008FB7F894599A8FBF8FB7F89451988FBF1F
:1015B00042E060E970ED83E090E00E94E01A9093D1
:1015C0003B0480933A0490933D0480933C048FB78E
:1015D000F8945F9A8FBF8FB7F8945E988FBF0E9480
:1015E0005B1C6093190370931A0380931B03909301
:1015F0001C038EEF8093160320911603809116032F
:101600009091160330E0209530952A703327A90178
:1016100024E0440F551F2A95E1F7282F30E020954C
:1016200030952075332764E0359527956A95E1F765
:10163000242B352B3F932F931F929F9386E191E0AC
:101640009F938F930E94AE23109314031093000373
:101650008091070389830F900F900F900F900F9048
:101660000F9001C01982DF91CF911F9108950F93C0
:101670001F93CF93DF93FC0180911503882309F416
:1016800076C08181881F8827881F9FB7F894882398
:1016900011F05B9A01C05B989FBF818186FBAA27EE
:1016A000A0F9B0E08FB7F894AB2B11F05A9A01C0B3
:1016B0005A988FBF818185FB662760F970E08FB7EC
:1016C000F894672B11F0429A01C042988FBF818134
:1016D00084FB442740F950E08FB7F894452B11F074
:1016E0005D9A01C05D988FBF818183FB222720F91D
:1016F00030E08FB7F894232B11F05E9A01C05E980A
:10170000EF018FBF818182FF1AC040E060E070E08E
:10171000CB010E94E01A90933B0480933A0490938B
:101720003D0480933C048FB7F894519A8FBF8FB7D4
:10173000F89459988FBF8FB7F8945F9A8FBF8981BB
:1017400081FB002700F910E08FB7F894012B11F00E
:101750005C9A01C05C988FBF898181709FB7F894B3
:10176000882311F0439A01C043989FBF01C01182A2
:10177000DF91CF911F910F910895282FA1E2B3E03F
:10178000FC018E2F821B861718F481918D93F9CF5F
:10179000603228F4E62FF0E0EF5DFC4F1182609399
:1017A000A401623010F48FEF0DC080912103E82F67
:1017B000E295EF70E43010F08EEF04C08F70883047
:1017C00020F08DEF80932103089598E0E99FF001C8
:1017D0001124E80FF11DEE0FFF1FE55EFE4F019093
:1017E000F081E02D81E293E009946091A40181E20F
:1017F00093E00E94CD20882329F08091030382701A
:10180000809303030895FC019181809111038183EA
:1018100080ED890F8B3428F49093110381E080933D
:1018200008030895D901ED91FC913297F9F491E004
:1018300090934B0380934C0382E080934903609321
:101840004E0340934F031092500380934D03109228
:10185000410310924203109243038FB7F8942D98DE
:101860008FBF83E090E0F901918380830895EF9228
:10187000FF920F93CF93DF93EC01888199810397B7
:1018800018F17E0100914D0321E433E040914903BA
:101890006EE473E080914C030E946F2028813981AF
:1018A00021303105A9F4982F907E29F082958695F4
:1018B000877080934A038FB7F8942D9A8FBF19824F
:1018C000188210924B0302C01982188280E001C076
:1018D00081E0DF91CF910F91FF90EF900895909369
:1018E00077038093760370E07093790360937803B5
:1018F000089520917803309179032115310509F479
:1019000067C01092790310927803E0917603F0910A
:1019100077032130310511F040E01FC090818091A4
:101920005603981355C08091A701A6E5B3E0EAE7F6
:10193000F3E090E0981721F02D9121939F5FFACF6B
:10194000803228F4E82FF0E0E658FC4F11828093B3
:10195000A60181E08093A5010895842F90E082176D
:10196000930754F4DF01A80FB91F5C91DC01AA5A58
:10197000BC4F5C934F5FF1CF403220F4FC01EA5A38
:10198000FC4F11822093A701211102C08FEF0DC0DF
:1019900080915603E82FE295EF70E43010F08EEF5F
:1019A00004C08F70883020F08DEF80935603089527
:1019B00098E0E99FF0011124E80FF11DEE0FFF1FE1
:1019C000ED59FE4F0190F081E02D86E593E00994FA
:1019D00008956091A6018AE793E00E94F222109296
:1019E000A5010895CF9380910803882321F1F999E7
:1019F00022C09FEF980F9A3090F490E0FC01E553DD
:101A0000FF4FC4916C2F87960E946926C11102C0B6
:101A10008BE003C0809108038F5F8093080380915F
:101A200008038B3041F46091110382E390E00E943F
:101A3000692610920803CF9108951F93CF93DF93E7
:101A4000C8E2D0E0FE01EC55FF4F1491CE010E9498
:101A50005526181306C0112331F02196C233D10543
:101A600089F780E001C081E0DF91CF911F91089557
:101A70008F929F92AF92BF92CF92DF92EF92FF929E
:101A80000F931F938BEA93E00E94D41C6B30710577
:101A90008105910508F4E4C080919A03882349F1F7
:101AA0008091A3039091A403A091A503B091A603F4
:101AB0000196A11DB11D8093A3039093A403A0934D
:101AC000A503B093A6038091A7039091A803A091CA
:101AD000A903B091AA030196A11DB11D8093A7038C
:101AE0009093A803A093A903B093AA0310929A031A
:101AF00003C081E080939A03EFB7F8948091A30329
:101B00009091A403A091A503B091A603C0909B035C
:101B1000D0909C03E0909D03F0909E034091A7031A
:101B20005091A8036091A9037091AA0380909F032C
:101B30009090A003A090A103B090A203009128046C
:101B400010912904012E000C220B330B800F911FE2
:101B5000A21FB31F813422E492072FE0A207B10530
:101B600048F080549244AF40B109FFEFCF1ADF0A2A
:101B7000EF0AFF0A0091340410913504012E000C85
:101B8000220B330B400F511F621F731F95018401FD
:101B90000F5F1F4F2F4F3F4F4134F2E45F07FFE0CD
:101BA0006F077105C0F58093A3039093A403A093DE
:101BB000A503B093A603C0929B03D0929C03E0922E
:101BC0009D03F0929E0380929F039092A003A092A7
:101BD000A103B092A2034093A7035093A80360937C
:101BE000A9037093AA03EFBF80E00E94D21B8091EB
:101BF000AB039091AC03A091AD03B091AE030A96F4
:101C0000A11DB11D8093AB039093AC03A093AD03D2
:101C1000B093AE0325C0405452446F407109809385
:101C2000A3039093A403A093A503B093A603C0922B
:101C30009B03D0929C03E0929D03F0929E034093FD
:101C4000A7035093A8036093A9037093AA0300937A
:101C50009F031093A0032093A1033093A203C3CF4B
:101C60001F910F91FF90EF90DF90CF90BF90AF90BA
:101C70009F908F90089583309105A8F4880F991F45
:101C8000880F991FFC01EF54FC4F40815181628104
:101C90007381415051096109710981E04E3F5F4FE5
:101CA0006F4F7F4F08F080E00895CF938091B0038D
:101CB00087FF17C0C091B003F99913C0CF7724E014
:101CC000C29FC0011124FC01EF54FC4F408151819F
:101CD000628173814E960E947B26C093B00381E09F
:101CE00001C080E0CF9108950F931F93CF93DF93AE
:101CF0008230910508F044C0EC018C01000F111FE7
:101D0000000F111FC8014E960E945D26F801EF5486
:101D1000FC4F6083718382839383CE010E943B0ECC
:101D2000811112C0CD2BD9F480E090E0A0EAB0E49C
:101D30008093B1039093B203A093B303B093B40321
:101D40008091AF038F5F1AC02091AF0381E090E0D4
:101D500001C0880FCA95EAF7809582230FC081E7FA
:101D60009DE3AAE8BFE38093B5039093B603A093E5
:101D7000B703B093B8038091AF038E5F8093AF0336
:101D8000DF91CF911F910F9108950F931F93CF93E0
:101D90008091AF03807351F18091B00387FF26C01B
:101DA000C091B003CF770C2F10E0C8010E943B0E0A
:101DB0008823B1F00E94550E8823C1F08091AF03B3
:101DC0008F708093AF032091AF0381E090E001C05A
:101DD000880FCA95EAF7809582238093AF0306C0E7
:101DE000C801CF911F910F910C94740ECF911F9148
:101DF0000F910895FC01208131812B53310981E03D
:101E00002539310508F080E00895FC0120813181F9
:101E10002951310981E02035310508F080E008952D
:101E2000FC01208131812657310981E0293231407E
:101E300008F080E00895FC012081318122533109AE
:101E400081E02E39310508F080E00895FC014081E1
:101E500051816281738140545F416109710981E060
:101E600041345F4C6643710508F080E008950C949E
:101E7000260F86E490E00E946326F9990CC06091D9
:101E8000BD037091BE038617970739F086E490E092
:101E90000E94872602C080E0089581E0089588E4CA
:101EA00090E00E946326F9990CC06091C103709183
:101EB000C2038617970739F088E490E00E948726CE
:101EC00002C080E0089581E008958AE490E00E94D5
:101ED0005D26DC01CB01F99912C04091C3035091FA
:101EE000C4036091C5037091C60384179507A607C4
:101EF000B70739F08AE490E00E947B2602C080E0B8
:101F0000089581E008958EE490E00E945D26DC0152
:101F1000CB01F99912C04091B9035091BA03609175
:101F2000BB037091BC0384179507A607B70739F068
:101F30008EE490E00E947B2602C080E0089581E05C
:101F40000895CF92DF92EF92FF921F93CF93DF938A
:101F5000CDB7DEB72C970FB6F894DEBF0FBECDBF5E
:101F600086E490E00E9463267C019C878B87CE01EB
:101F70000B960E94FA0E811106C0CE010B960E94AC
:101F8000100F882331F0F092BE03E092BD0310E001
:101F900001C011E088E490E00E9463267C019A87EA
:101FA0008987CE0109960E94050F811106C0CE01D6
:101FB00009960E941B0F882329F0F092C203E09239
:101FC000C10301C011E08AE490E00E945D266B012C
:101FD0007C016D837E838F839887CE0105960E9456
:101FE000260F882349F0C092C303D092C403E09225
:101FF000C503F092C60301C011E08EE490E00E9498
:102000005D266B017C0169837A838B839C83CE017F
:1020100001960E94260F811128C080E590E09093E0
:10202000BE038093BD0388E290E09093C203809347
:10203000C10380E89FE4A2E1B0E08093C3039093E2
:10204000C403A093C503B093C6038093B9039093D0
:10205000BA03A093BB03B093BC0381E090E09093DC
:10206000C0038093BF0380E00FC0C092B903D09239
:10207000BA03E092BB03F092BC031111CECF1092D1
:10208000C0031092BF0381E02C960FB6F894DEBF18
:102090000FBECDBFDF91CF911F91FF90EF90DF90EA
:1020A000CF9008958091BF039091C0038230910535
:1020B00008F44FC00297A9F48DEB93E00E94FA0E4A
:1020C000811106C08DEB93E00E94100F882349F028
:1020D0000E94390F882329F01092C0031092BF0389
:1020E00008958091BF039091C003039781F481EC20
:1020F00093E00E94050F811106C081EC93E00E94DD
:102100001B0F882321F00E944F0F8111E5CF809192
:10211000BF039091C003049751F483EC93E00E94B5
:10212000260F882321F00E94650F8111D5CF809161
:10213000BF039091C003059751F489EB93E00E948F
:10214000260F882321F00E94830F8111C5CF0C94A4
:10215000A10F0895CF92DF92EF92FF92CF93DF937A
:102160008CEC93E00E94370C8111B2C180914B033B
:102170008111AEC18091BF039091C003029708F016
:10218000A7C181E090E00E94E71BEC018EEC93E098
:102190000E94D41C6B017C018091C9039091CA03F9
:1021A0000097F9F489EFC8168AE2D806E104F10431
:1021B00008F48EC12091C1033091C2038091D203F3
:1021C0002C173D073CF421E030E03093CA03209304
:1021D000C903F3C024E030E03093CA032093C9035D
:1021E0000AC18130910531F58091C1039091C203FC
:1021F000C817D9070CF096C022E030E03093CA032C
:102200002093C9038091D203882309F481C060918F
:10221000C803662309F47CC04091CC035091CD03E0
:10222000452B21F43093CD032093CC032CEC33E0E9
:1022300042E06CC082309105D9F48091C103909145
:10224000C203C817D9078CF48091B9039091BA03DF
:10225000A091BB03B091BC038C159D05AE05BF05D5
:1022600008F036C183E090E0C0C081E090E09FC0FC
:102270008330910519F580E88093CB0384E090E0EA
:102280009093CA038093C9038091D203882309F4F1
:102290001FC16091D303662309F41AC12091CC03B6
:1022A0003091CD03232B31F422E030E03093CD0385
:1022B0002093CC032CEC33E043E002C18430910541
:1022C00009F05AC08091BD039091BE038C179D0701
:1022D0004CF585E090E09093CA038093C903809108
:1022E000D2038823A9F06091C803662389F0209166
:1022F000CC033091CD03232B31F422E030E0309336
:10230000CD032093CC032CEC33E045E00E94120C6B
:102310000E945B1C6093CE037093CF038093D00325
:102320009093D10381E0C81682EAD8068AE4E806D1
:1023300084E0F80608F4CCC087E090E09093CA03EC
:102340008093C9038091D203882309F46BC0609104
:10235000C803662309F466C02091CC033091CD03F5
:10236000232B31F422E030E03093CD032093CC03D3
:102370002CEC33E047E054C08530910509F05DC096
:102380008091BD039091BE038C179D0764F58091E9
:10239000C3039091C403A091C503B091C6038C15EB
:1023A0009D05AE05BF0508F093C086E090E09093D0
:1023B000CA038093C9038091D203882399F1609165
:1023C000C803662379F12091CC033091CD03232BF0
:1023D00031F422E030E03093CD032093CC032CEC99
:1023E00033E041E01DC084E090E09093CA03809305
:1023F000C9038091D2038823A9F06091C8036623A2
:1024000089F02091CC033091CD03232B31F422E0CD
:1024100030E03093CD032093CC032CEC33E044E048
:102420000E94120C0E945B1C6093CE037093CF033A
:102430008093D0039093D1034BC08630910509F56A
:1024400080E48093CB0381E090E09093CA03809373
:10245000C9038091D2038823D9F16091C703662311
:10246000B9F12091CC033091CD03232B31F422E03C
:1024700030E03093CD032093CC032CEC33E046E0E6
:102480001FC0079729F187E090E09093CA038093DB
:10249000C9038091D2038823D9F06091C8036623D1
:1024A000B9F02091CC033091CD03232B31F422E0FD
:1024B00030E03093CD032093CC032CEC33E047E0A5
:1024C000DF91CF91FF90EF90DF90CF900C94120CA2
:1024D000DF91CF91FF90EF90DF90CF9008950F9311
:1024E0001F93CF93DF938CEC93E00E94370C811104
:1024F0002AC280914B03811126C28091FA039091E8
:10250000FB03029708F01FC286E090E00E94E71BE1
:10251000EC0188EE93E00E94D41CE091DB03F09183
:10252000DC03EC30F10508F00EC2E65AFF4F0C94C4
:102530005623189908C28FB7F894209A8FBF8FB787
:10254000F89428988FBF0E945B1C6093E8037093F7
:10255000E9038093EA039093EB0322E030E03093A9
:10256000DC032093DB038091D603882309F4EBC1BD
:102570006091E103662309F4E6C14091CC035091D8
:10258000CD03452B21F43093CD032093CC032CECC9
:1025900033E042E0C2C1693C71058105910508F450
:1025A000D2C18091FE038093D5031092FE038091E7
:1025B000E8039091E903A091EA03B091EB038093C3
:1025C000DD039093DE03A093DF03B093E0030E944A
:1025D0005B1C6093E8037093E9038093EA03909394
:1025E000EB0383E090E09093DC038093DB03809126
:1025F000D603882309F4A7C16091E103662309F497
:10260000A2C12091CC033091CD03232B31F422E0E1
:1026100030E03093CD032093CC032CEC33E043E047
:102620007CC10091EC031091ED032091EE033091F9
:10263000EF030617170728073907F8F484E090E03E
:102640009093DC038093DB038091D6038823A9F069
:102650006091E103662389F02091CC033091CD0392
:10266000232B31F422E030E03093CD032093CC03D0
:102670002CEC33E044E00E94120C8091F403909122
:10268000F503C817D9070CF05EC10E945B1C60936C
:10269000E4037093E5038093E6039093E70385E0FA
:1026A00090E09093DC038093DB038091D603882332
:1026B00009F449C16091E103662309F444C1209102
:1026C000CC033091CD03232B31F422E030E0309362
:1026D000CD032093CC032CEC33E045E01EC18BE00E
:1026E00090E09093DC038093DB038091D6038823F2
:1026F00009F429C16091E103662309F424C1209102
:10270000CC033091CD03232B31F422E030E0309321
:10271000CD032093CC032CEC33E04BE0FEC00E94B1
:102720005B1C6093E8037093E9038093EA03909342
:10273000EB0386E090E09093DC038093DB038091D1
:10274000D603882309F4FFC06091E103662309F4EE
:10275000FAC02091CC033091CD03232B31F422E039
:1027600030E03093CD032093CC032CEC33E046E0F3
:10277000D4C00091F0031091F1032091F203309145
:10278000F303061717072807390708F0DCC087E0AE
:1027900090E09093DC038093DB038091D603882341
:1027A00009F4D1C06091E103662309F4CCC0209103
:1027B000CC033091CD03232B31F422E030E0309371
:1027C000CD032093CC032CEC33E047E0A6C020914E
:1027D000E2033091E303A90141505109C417D50721
:1027E000C4F12F5F3F4F2C173D079CF10091F6037A
:1027F0001091F7032091F8033091F903061717079A
:102800002807390708F09FC089E090E09093DC0327
:102810008093DB038FB7F89429988FBF8FB7F89414
:10282000219A8FBF8FB7F89420988FBF8FB7F894F5
:10283000289A8FBF0E945B1C6093D7037093D803C4
:102840008093D9039093DA038091D5038093FE039C
:102850004CC0D093E303C093E2032AC0189928C068
:10286000613D77408105910508F46DC08AE090E0F4
:102870009093DC038093DB038091D603882309F4D3
:1028800062C06091E103662309F45DC02091CC032E
:102890003091CD03232B31F422E030E03093CD038F
:1028A0002093CC032CEC33E04AE037C018990BC0DE
:1028B0000E945B1C6093E8037093E9038093EA0332
:1028C0009093EB0340C0613D77408105910508F48A
:1028D0003AC01092DC031092DB038FB7F894219872
:1028E0008FBF8FB7F894299A8FBF8091D603882322
:1028F00051F16091E103662331F12091CC033091D5
:10290000CD03232B31F422E030E03093CD0320932C
:10291000CC032CEC33E04091DB03DF91CF911F918E
:102920000F910C94120C8FB7F89429988FBF8FB722
:10293000F894219A8FBF8FB7F894209A8FBF8FB7E2
:10294000F89428988FBFDF91CF911F910F91089530
:10295000FC01208131812753310981E02C34314041
:1029600008F080E00895FC0140815181628173810B
:102970004B5051096109710981E0453352446F4060
:10298000710508F080E00895FC0140815181628169
:1029900073814B5051096109710981E045375E4EE1
:1029A0006643710508F080E00895F9990AC06091C6
:1029B000F4037091F50382E890E00E94872681E09D
:1029C000089580E00895F9990EC04091EC0350916C
:1029D000ED036091EE037091EF0384E890E00E94B4
:1029E0007B2681E0089580E00895F9990EC040911A
:1029F000F0035091F1036091F2037091F30388E8C2
:102A000090E00E947B2681E0089580E00895F99986
:102A10000EC04091F6035091F7036091F803709156
:102A2000F9038CE890E00E947B2681E0089580E025
:102A300008952F923F924F925F926F927F928F9262
:102A40009F92AF92BF92CF92DF92EF92FF920F933D
:102A50001F93CF93DF93CDB7DEB72E970FB6F894C1
:102A6000DEBF0FBECDBF82E890E00E9463268C01DE
:102A70009E878D8784E890E00E945D262B013C01B3
:102A800069877A878B879C8788E890E00E945D261B
:102A90004B015C016D837E838F8398878CE890E087
:102AA0000E945D266B017C0169837A838B839C8302
:102AB000CE010D960E94A814282ECE0109960E94E0
:102AC000B31433243394811103C0211001C0312C7D
:102AD000CE0105960E94C414882311F03324339448
:102AE000CE0101960E94C414811124C0311022C06D
:102AF0001093F5030093F4034092EC035092ED031E
:102B00006092EE037092EF038092F0039092F103D3
:102B1000A092F203B092F303C092F603D092F703AF
:102B2000E092F803F092F9031092FB031092FA037B
:102B300081E031C08FE390E09093F5038093F4033C
:102B400080E69AEEA0E0B0E08093EC039093ED0372
:102B5000A093EE03B093EF0380E197E2A0E0B0E032
:102B60008093F0039093F103A093F203B093F303E7
:102B700084E690E0A0E0B0E08093F6039093F70342
:102B8000A093F803B093F90381E090E09093FB03E6
:102B90008093FA0380E02E960FB6F894DEBF0FBE46
:102BA000CDBFDF91CF911F910F91FF90EF90DF90FC
:102BB000CF90BF90AF909F908F907F906F905F90DD
:102BC0004F903F902F9008958091FA039091FB03CE
:102BD00083309105C9F018F4029739F030C0843081
:102BE0009105D9F0059711F12AC084EF93E00E9476
:102BF000A814882351F10E94D514882301F1109262
:102C0000FB031092FA031BC08CEE93E00E94B314F6
:102C10008823D9F00E94E314F0CF80EF93E00E9464
:102C2000C414882391F00E94F514E7CF86EF93E057
:102C30000E94C414882349F00E940715DECF8091BA
:102C4000FA039091FB03029710F00C941915089564
:102C5000CF92DF92EF92FF920F931F93CF93DF9368
:102C60008CEC93E00E94370C811107C280914B03DA
:102C7000811103C280910E0490910F04029708F015
:102C8000FCC18091FE03882309F4C6C1C090C9032A
:102C9000D090CA0321E0C216D10409F0BDC187E07B
:102CA00090E00E94E71B7C01C0910C04D0910D04C0
:102CB0008091100490911104C81BD90BD595C7952C
:102CC0008FEF93E00E94D41C0091FC031091FD0350
:102CD00002301105C9F140F40115110509F43DC197
:102CE0000130110561F0C9C10430110509F42BC18F
:102CF00008F483C00530110509F460C1BEC16B3F03
:102D000071058105910508F4B8C18FB7F8942B9A25
:102D10008FBF82E090E09093FD038093FC0360916D
:102D20000B04662309F4A9C12091CC033091CD0393
:102D3000232B21F49093CD038093CC032CEC33E030
:102D400042E08091FE038FC1209110043091110464
:102D5000C20FD31FCE15DF056CF58FB7F8942B9AF1
:102D60008FBF0E945B1C6093FF03709300048093ED
:102D70000104909302041092030410920404109230
:102D800005041092060483E090E09093FD03809385
:102D9000FC0360910B04662309F46FC18091CC039E
:102DA0009091CD03892B09F005C11093CD030093B9
:102DB000CC0300C1613177428105910508F45DC102
:102DC0008FB7F8942B988FBFD092FD03C092FC036D
:102DD0008091FF0390910004A0910104B09102043E
:102DE000805F984DAF4FBF4F8093FF0390930004D7
:102DF000A0930104B093020471C040910C0450915F
:102E00000D04E416F506FCF08FB7F8942B988FBFED
:102E100084E090E09093FD038093FC0360910B04A9
:102E2000662309F42AC18091CC039091CD03892BAC
:102E300031F482E090E09093CD038093CC032CECAE
:102E400033E044E07ECF009103041091040420910C
:102E5000050430910604011511052105310509F419
:102E600052C01B9B09C0061717072807390720F413
:102E70002FB7F8942B982FBF613D774081059105BE
:102E800008F4FBC08091100490911104C80FD91F61
:102E9000CE15DF05ECF48091FF0390910004A09122
:102EA0000104B09102048053984FAF4FBF4F8093FD
:102EB000FF0390930004A0930104B09302041092C6
:102EC0000304109204041092050410920604D5C065
:102ED00081E090E09093FD038093FC0360910B04EC
:102EE000662309F4CAC08091CC039091CD03892B4D
:102EF00031F482E090E09093CD038093CC032CECEE
:102F000033E041E01ECFCA018E199F09BE010E9425
:102F1000202320ED37E0629FC001639F900D729FD8
:102F2000900D1124092E000CAA0BBB0B80930304F7
:102F300090930404A0930504B09306048FB7F8940B
:102F40002B9A8FBF9AC08091100490911104C80FE2
:102F5000D91FCE15DF050CF490C08FB7F8942B98CD
:102F60008FBF0E945B1C6093FF03709300048093EB
:102F7000010490930204109203041092040410922E
:102F800005041092060483E090E09093FD03809383
:102F9000FC0360910B04662309F46FC08091CC039D
:102FA0009091CD03892B31F482E090E09093CD0392
:102FB0008093CC032CEC33E043E0C3CE8091D40368
:102FC000882351F0813009F058C010920B04109200
:102FD000FE031092D40351C08FB7F8942B988FBF83
:102FE00060910B046623A1F08091CC039091CD03F6
:102FF000892B31F482E090E09093CD038093CC0351
:103000002CEC33E04091FC038091FE030E94120CF3
:1030100081E08093D40331C08091FC039091FD0343
:10302000049758F58FB7F8942B988FBF84E090E001
:103030009093FD038093FC038091FE038823E9F0C5
:1030400060910B046623C9F02091CC033091CD032D
:10305000232B31F422E030E03093CD032093CC03D6
:103060002CEC33E044E0DF91CF911F910F91FF9062
:10307000EF90DF90CF900C94120CDF91CF911F91C5
:103080000F91FF90EF90DF90CF900895FC01208189
:1030900031812B54314081E02738310508F080E040
:1030A0000895FC01208131812E53314081E0263684
:1030B000310508F080E00895FC0120813181255917
:1030C000324081E02F30314008F080E00895FC016B
:1030D000208131812C57324081E02B3C310508F0B2
:1030E00080E008958CE390E00E946326F9990CC07B
:1030F00060910C0470910D048617970739F08CE3EA
:1031000090E00E94872602C080E0089581E0089543
:103110008EE390E00E946326F9990CC06091100440
:10312000709111048617970739F08EE390E00E94A2
:10313000872602C080E0089581E00895EF92FF9213
:103140000F931F93CF93DF9300D000D0CDB7DEB79E
:103150008CE390E00E9463267C019C838B838EE34A
:1031600090E00E9463268C019A838983CE010396A6
:103170000E944618811106C0CE0103960E945C1879
:103180008823D1F0CE0101960E945118811106C00A
:10319000CE0101960E946718882371F0F0920D0409
:1031A000E0920C04109311040093100410920F0489
:1031B00010920E0481E013C08DE891E090930D040D
:1031C00080930C0486E791E090931104809310049F
:1031D00081E090E090930F0480930E0480E00F90C4
:1031E0000F900F900F90DF91CF911F910F91FF9053
:1031F000EF90089580910E0490910F048230910514
:1032000078F10297A9F48CE094E00E9446188111AD
:1032100006C08CE094E00E945C18882349F00E946C
:103220007218882329F010920F0410920E0408954A
:1032300080910E0490910F04039781F480E194E053
:103240000E945118811106C080E194E00E94671825
:10325000882321F00E9488188111E5CF0C949E18D4
:10326000089585309105A8F4880F991F880F991F3C
:10327000FC01EC5EFB4F40815181628173814150C2
:1032800051096109710981E04E3F5F4F6F4F7F4FD8
:1032900008F080E00895809112048F77843018F44C
:1032A00090E00C94311980E00895CF93809112043E
:1032B00087FF18C0C0911204F99914C0CF7724E099
:1032C000C29FC0011124FC01EC5EFB4F4081518183
:1032D000628173818E5A9F4F0E947B26C093120495
:1032E00081E001C080E0CF9108950F931F93CF93A9
:1032F000DF938430910508F06AC0EC018C01000F67
:10330000111F000F111FC8018E5A9F4F0E945D268A
:10331000F801EC5EFB4F6083718382839383CE015F
:103320000E943119811147C0209781F484EE98E3FF
:10333000AEE8BAE38093140490931504A0931604A6
:10334000B0931704809113048F5F3FC0C130D10543
:1033500081F480E090E0A0E3BCE3809318049093B4
:103360001904A0931A04B0931B04809113048E5F78
:103370002CC0229781F486E996E9A6E9B9E3809307
:103380001C0490931D04A0931E04B0931F0480910D
:1033900013048C5F1AC08AE198E8AAEEBBE380931D
:1033A000200490932104A0932204B09323048091DD
:1033B0001304885F0AC02091130481E090E001C0EB
:1033C000880FCA95EAF78095822380931304DF91D2
:1033D000CF911F910F9108950F931F93CF93DF9378
:1033E00080911304807F99F18091120487FF2FC090
:1033F000809112048F77082F10E0C1E0D0E002C066
:10340000CC0FDD1F8A95E2F78091130482958F70AF
:1034100090E0C817D907D9F40E944B19882381F08E
:103420000E945519882399F0809113048F7080931E
:10343000130480911304C095C823C093130407C0DC
:10344000C801DF91CF911F910F910C947519DF91F5
:10345000CF911F910F9108952091AC0130E02F5F23
:103460003F4F2F7133274091AB0150E024173507B0
:10347000D1F39091A801F901E353FE4F90FF03C0EF
:103480008A3009F48DE080832093AC018091C100E3
:1034900080628093C10080E090E008951F920F92B7
:1034A0000FB60F9211242F933F934F935F938F93F7
:1034B0009F93EF93FF932091C00028713091C60035
:1034C0008091AA0190E001968F7199274091A901FE
:1034D00050E08417950711F42E5F06C08093AA016F
:1034E000FC01E355FE4F308320932404FF91EF91BC
:1034F0009F918F915F914F913F912F910F900FBEB0
:103500000F901F9018951F920F920FB60F921124D3
:103510008F939F93EF93FF939091AC018091AB01B8
:10352000981779F08091AB0190E001968F719927FF
:103530008093AB01FC01E353FE4F80818093C60072
:1035400005C08091C1008F7D8093C100FF91EF91F4
:103550009F918F910F900FBE0F901F9018958091A3
:10356000AA012091A90190E08096821B91098F7198
:10357000992708950E94AF1A892BE1F39091AA012F
:103580008091A901981307C0809124048F5F8093D4
:10359000240480E00CC08091A90190E001968F7115
:1035A00099278093A901FC01E355FE4F80819091FA
:1035B000A80191FF03C08D3009F48AE090E00895DE
:1035C000CF92DF92EF92FF920F931F93CF938B01D5
:1035D0009C01C42F6B017C0180E6C80E83EED81ECF
:1035E00086E1E81EF11CC701B60143E0660F771FB4
:1035F000881F991F4A95D1F7A9019801E4E0220F8D
:10360000331F441F551FEA95D1F70E9434232150E0
:1036100031091092AC011092AB011092AA011092E4
:10362000A9012115310531F48091C100877F809374
:10363000C10010C037FF04C082E08093C0003F7714
:1036400088E98093C10086E08093C2003093C50072
:103650002093C400C093A80180E091E0CF911F9116
:103660000F91FF90EF90DF90CF9008951F920F92EF
:103670000FB60F9211242F933F938F939F93EF9345
:10368000FF938091250490912604019711F41B99D2
:103690000EC0E0912504F09126048091780090916D
:1036A0007900EE0FFF1FE85DFB4F918380838091CF
:1036B0002504909126040196909326048093250476
:1036C00080912504909126048630910540F4823043
:1036D000910550F40097B1F0019721F00CC00897C4
:1036E00050F410C01B9B0EC086E090E0909326041F
:1036F0008093250407C010922604109225048FE7BA
:103700008093390480917C00807F80937C0030918D
:103710007C00209127048091250490912604932F0A
:103720009F71922B890F80937C008091250490914A
:103730002604892B31F080917A00806480937A008E
:103740000BC08091ED01882339F080917A0080646C
:1037500080937A0010923904FF91EF919F918F919D
:103760003F912F910F900FBE0F901F90189580934F
:1037700027041092ED01ECE7F0E090819073892B23
:103780008083EAE7F0E080818460808380818260CA
:1037900080838081816080838081806880831092B3
:1037A00038040895109226041092250410923904CA
:1037B0008093ED01EAE7F0E0808187758868808377
:1037C00080818064808381E080933804089588300C
:1037D000910558F42FB7F894880F991FFC01E85D04
:1037E000FB4F808191812FBF089580E090E0089584
:1037F0001F920F920FB60F9211248F939F93AF9346
:10380000BF938091F8019091F901A091FA01B091D4
:10381000FB010196A11DB11D8093F8019093F90160
:10382000A093FA01B093FB01BF91AF919F918F914B
:103830000F900FBE0F901F90189584B5847F836002
:1038400084BD85B5887F836085BDEEE6F0E080812C
:1038500081608083E0E8F0E0108280818160808375
:10386000E1E8F0E01082808183608083E0EBF0E0AB
:103870001082808181608083E1EBF0E010828081A2
:1038800084608083E0E9F0E0108280818160808341
:10389000E1E9F0E01082808183608083E0EAF0E07B
:1038A0001082808181608083E1EAF0E01082808173
:1038B0008360808308958F929F92AF92BF92CF9240
:1038C000DF92EF92FF928FB7F8948090F80190907A
:1038D000F901A090FA01B090FB018FBF8091F40133
:1038E0009091F501A091F601B091F701A501940125
:1038F000281B390B4A0B5B0BDA01C9012B3F310541
:103900004105510518F42223F1F101C08AEFC0905E
:10391000EE01D090EF01E090F001F090F101E09124
:10392000F201F091F301B701A6014F5F5F4F6F4FB6
:103930007F4F81509F0123593E4F293E93E0390725
:1039400040F0285E3340B701A6014E5F5F4F6F4FD6
:103950007F4F882321F0F9016A017B01E4CF409376
:10396000EE015093EF016093F0017093F1013093F9
:10397000F3012093F2018092F4019092F501A0925C
:10398000F601B092F7016091EE017091EF01809124
:10399000F0019091F101FF90EF90DF90CF90BF90F8
:1039A000AF909F908F9008950F931F93CF93DF93C5
:1039B000EC010E945B1C088119812A813B81601BFC
:1039C000710B820B930BDF91CF911F910F91089593
:1039D0000895089585ED8093BC008091BC0084FD1E
:1039E000FCCF1092680210926702089585EC8093D4
:1039F000BC00109268021092670208951F920F9205
:103A00000FB60F9211242F933F934F935F936F93B1
:103A10007F938F939F93AF93BF93EF93FF93809187
:103A2000B900887F803609F4C5C0B8F5883209F43A
:103A30006AC0A0F4803109F463C038F4882309F423
:103A40005AC0883009F45CC024C1883109F45BC0D5
:103A5000803209F01EC180E290E06BC0803409F42E
:103A60007BC078F4803309F462C0883309F011C157
:103A700088E390E090936402809363020E94F61CB6
:103A800008C1803509F45CC0883509F46AC08834FF
:103A900009F0FFC088E490E04CC0883909F4EEC01A
:103AA000A8F4883709F486C038F4883609F482C04F
:103AB000803709F47FC0EDC0883809F4DFC0803951
:103AC00009F481C0803809F0E4C07DC0803B09F46E
:103AD000A9C038F4803A09F48BC0883A09F4A2C02E
:103AE000D8C0803C09F4CEC0883C09F4CBC0883BE8
:103AF00009F4B0C0CEC010926402109263021DC0DF
:103B00008091690211C09091420280914102981700
:103B100008F03FC0E091420281E08E0F80934202A4
:103B2000F0E0ED5BFD4F80818093BB00A5C080E39A
:103B300090E090936402809363020E94EA1CA9C003
:103B4000E091420281E08E0F809342028091BB009F
:103B5000F0E0ED5BFD4F8083909142028091410245
:103B600089C0E091420281E08E0F809342028091F1
:103B7000BB00F0E0ED5BFD4F8083909142028091AD
:103B80004102981730F488E590E0909364028093A6
:103B90006302809165029091660280FDCECF809194
:103BA000650290916602826090936602809365023E
:103BB00084EA69C083E090E0909368028093670292
:103BC0001092FC0159C08091FC01803208F056C06F
:103BD000E091FD01F091FE018091FC0191E0980FD0
:103BE0009093FC019091BB00E80FF11D908344C0BD
:103BF0000E94F61C2091FC018091FD019091FE0134
:103C0000203230F42091FC01FC01E20FF11D108202
:103C10006091FC01E0910E01F0910F010995109265
:103C2000FC0137C084E090E09093680280936702C3
:103C30001092200210921F02E0911001F0911101E8
:103C4000099580911F02811105C081E080931F02B8
:103C500010922102E091200281E08E0F80932002D9
:103C6000F0E0EF5DFD4F80818093BB0090912002DA
:103C700080911F02981710F485EC01C085E88093AD
:103C8000BC0007C085EC8093BC00109268021092C3
:103C90006702FF91EF91BF91AF919F918F917F91BB
:103CA0006F915F914F913F912F910F900FBE0F90A9
:103CB0001F9018950F931F938B019C01672B682B06
:103CC000692B71F48091BC008A7B8093BC008FB714
:103CD000F89445988FBF8FB7F89444988FBF43C02E
:103CE0008FEF91E09093FE018093FD0110926802A6
:103CF0001092670281E090E09093660280936502E3
:103D00008FB7F8943D988FBF8FB7F8943C988FBFCA
:103D10004130510541F48FB7F894459A8FBF8FB762
:103D2000F894449A8FBF8091B9008E7F8093B90038
:103D30008091B9008D7F8093B90060E07BE187EBD3
:103D400090E0A90198010E943423DA01C90140974B
:103D5000A109B109B695A795979587958093B80065
:103D600085E48093BC001F910F910895413208F0C3
:103D70005BC0E0916702F0916802EF2B09F057C039
:103D8000E2E0F0E0F0936802E09367022130310551
:103D900031F42091650230916602216005C02091C6
:103DA0006502309166022E7F309366022093650291
:103DB0002FEF30E0309364022093630210924202AE
:103DC00040934102262FA3E4B2E0FB019E2F921BF9
:103DD000941718F491919D93F9CF880F80936902FD
:103DE00080916902809369028091650290916602D8
:103DF00081FF14C080916502909166028D7F90E0F2
:103E00009093660280936502809169028093BB0063
:103E10008091BC0083FDF8CF85EC01C085EE8093D6
:103E2000BC0080E090E0089581E090E0089582E099
:103E300090E0089580916702909168020297E1F006
:103E400080916302909164028F3F9105C1F080914F
:103E50006302909164028097A9F08091630290912F
:103E60006402C09791F08091630290916402892B63
:103E700079F085E090E0089581E090E0089580E099
:103E800090E0089582E090E0089583E090E0089546
:103E900084E090E008950F931F93CF93DF93E801A0
:103EA000E881F981E430F105C9F030F4E230F10540
:103EB000F9F0339721F020C03797F0F419C00E9431
:103EC000B61E8130910529F49983888381E090E0C2
:103ED00015C0029789F084E090E00CC00E941A1F80
:103EE0008130910559F021E030E03983288306C004
:103EF00081E090E09983888380E090E0DF91CF912A
:103F00001F910F910895613208F04EC02091670211
:103F100030916802232B09F04AC021E030E0309351
:103F20006802209367022091650230916602413059
:103F3000510511F4216001C02E7F30936602209359
:103F400065022FEF30E030936402209363021092F9
:103F50004202615060934102880F80936902809110
:103F600069028F5F80936902809165029091660279
:103F700081FF14C080916502909166028D7F90E070
:103F80009093660280936502809169028093BB00E2
:103F90008091BC0083FDF8CF85EC01C085EE809355
:103FA000BC0080E090E0089581E090E0089582E018
:103FB00090E0089580916702909168020197F1F076
:103FC00080916302909164028F3F9105D1F08091BE
:103FD00063029091640288349105B1F0809163028C
:103FE000909164028835910591F0809163029091DF
:103FF0006402892B79F085E090E0089581E090E0FB
:10400000089580E090E0089582E090E0089583E0D4
:1040100090E0089584E090E0089520916702309147
:1040200068022130310539F4209163023091640235
:104030002F3F3105B1F4209141022F5F30914202B0
:10404000321710F420914202A3E4B2E0382FFC01B1
:104050008E2F831B821718F48D918193F9CF822FB5
:10406000089580E00895EF92FF920F931F93CF93EE
:10407000DF937B01642FE801E881F981E530F105E8
:1040800039F018F43297F8F422C0369761F01FC067
:10409000A9010E94831F81309105A9F00297B9F010
:1040A00086E090E012C00E94DA1F8130910579F01D
:1040B0000297039740F0C7010E940D2021E030E0F5
:1040C0003983288305C081E090E09983888380E06C
:1040D000DF91CF911F910F91FF90EF900895AF92D4
:1040E000BF92CF92DF92EF92FF920F931F93CF93E5
:1040F000DF93B82E6901A02EE7018881998103978B
:10410000029788F4870122E030E08B2D0E944B1F3C
:104110002881398121303105B9F4811115C085E03C
:1041200090E0998388838E0121E030E04A2DB6012A
:104130008B2D0E943320288139812130310541F4B3
:10414000811107C00E94DA1F8295880F807E01C00E
:1041500080E0DF91CF911F910F91FF90EF90DF9062
:10416000CF90BF90AF90089598EF980F903728F4B4
:10417000982F990F9093BA0008951092BA0088EE84
:104180009CE1909311018093100189EE9CE1909342
:104190000F0180930E0180E008956132B0F4209108
:1041A0006702309168022430310589F460931F0260
:1041B000282FA1E2B2E0FC018E2F821B861718F493
:1041C00081918D93F9CF80E0089581E0089582E098
:1041D0000895009711F489EE9CE190930F0180936C
:1041E0000E010895009711F488EE9CE1909311015F
:1041F0008093100108950895089585ED8093DC0063
:104200008091DC0084FDFCCF1092F6021092F50242
:10421000089585EC8093DC001092F6021092F5026E
:1042200008951F920F920FB60F9211242F933F9370
:104230004F935F936F937F938F939F93AF93BF93AE
:10424000EF93FF938091D900887F803609F4C5C031
:10425000B8F5883209F46AC0A0F4803109F463C06B
:1042600038F4882309F45AC0883009F45CC034C19A
:10427000883109F45BC0803209F02EC180E290E001
:104280006BC0803409F47BC078F4803309F462C0D9
:10429000883309F021C188E390E09093F202809383
:1042A000F1020E94092118C1803509F45CC08835EB
:1042B00009F46AC0883409F00FC188E490E04CC06A
:1042C000883909F4FEC0A8F4883709F486C038F4A8
:1042D000883609F482C0803709F47FC0FDC0883871
:1042E00009F4EFC0803909F481C0803809F0F4C0C6
:1042F0007DC0803B09F4B9C038F4803A09F48BC022
:10430000883A09F4B2C0E8C0803C09F4DEC0883CB9
:1043100009F4DBC0883B09F4C0C0DEC01092F20291
:104320001092F1021DC08091F70211C09091D0024D
:104330008091CF02981708F03FC0E091D00281E051
:104340008E0F8093D002F0E0EF52FD4F808180937A
:10435000DB00B5C080E390E09093F2028093F1021D
:104360000E94FD20B9C0E091D00281E08E0F8093C1
:10437000D0028091DB00F0E0EF52FD4F80839091FE
:10438000D0028091CF0299C0E091D00281E08E0FDF
:104390008093D0028091DB00F0E0EF52FD4F8083EC
:1043A0009091D0028091CF02981730F488E590E088
:1043B0009093F2028093F1028091F3029091F402C3
:1043C00080FDCECF8091F3029091F40282609093B1
:1043D000F4028093F30284EA79C083E090E0909342
:1043E000F6028093F50210926A0269C080916A0217
:1043F000803208F066C0E0916B02F0916C0280910F
:104400006A0291E0980F90936A029091DB00E80FA6
:10441000F11D908354C00E94092120916A0280916D
:104420006B0290916C02203230F420916A02FC0100
:10443000E20FF11D108260916A02E0911201F09189
:104440001301099580916B0290916C028D589240F6
:1044500019F48DE692E002C08DE892E090936C0230
:1044600080936B0210926A0237C084E090E09093D0
:10447000F6028093F5021092AE021092AD02E09126
:104480001401F091150109958091AD02811105C0CB
:1044900081E08093AD021092AF02E091AE0281E024
:1044A0008E0F8093AE02F0E0E155FD4F8081809346
:1044B000DB009091AE028091AD02981710F485EC6C
:1044C00001C085E88093DC0007C085EC8093DC00A8
:1044D0001092F6021092F502FF91EF91BF91AF9109
:1044E0009F918F917F916F915F914F913F912F910C
:1044F0000F900FBE0F901F9018950F931F938B0175
:104500009C01672B682B692B71F48091DC008A7BFE
:104510008093DC008FB7F89471988FBF8FB7F894B1
:1045200070988FBF43C08DE892E090936C028093A7
:104530006B021092F6021092F50281E090E09093E7
:10454000F4028093F3028FB7F89469988FBF8FB706
:10455000F89468988FBF4130510541F48FB7F894B3
:10456000719A8FBF8FB7F894709A8FBF8091D900DE
:104570008E7F8093D9008091D9008D7F8093D90060
:1045800060E07BE187EB90E0A90198010E94342371
:10459000DA01C9014097A109B109B695A795979588
:1045A00087958093D80085E48093DC001F910F915C
:1045B000089598EF980F903728F4982F990F9093BB
:1045C000DA0008951092DA008BEF90E290931501D3
:1045D000809314018CEF90E2909313018093120169
:1045E00080E008956132B0F42091F5023091F60236
:1045F0002430310589F46093AD02282FAFEAB2E090
:10460000FC018E2F821B861718F481918D93F9CFB0
:1046100080E0089581E0089582E00895009711F404
:104620008CEF90E29093130180931201089500970C
:1046300011F48BEF90E2909315018093140108958B
:1046400097FB072E16F4009407D077FD09D00E943F
:104650005C2307FC05D03EF4909581959F4F08950B
:10466000709561957F4F0895A1E21A2EAA1BBB1B7E
:10467000FD010DC0AA1FBB1FEE1FFF1FA217B3072E
:10468000E407F50720F0A21BB30BE40BF50B661F44
:10469000771F881F991F1A9469F760957095809508
:1046A00090959B01AC01BD01CF010895EE0FFF1F56
:1046B0000590F491E02D0994AA1BBB1B51E107C0A2
:1046C000AA1FBB1FA617B70710F0A61BB70B881FA2
:1046D000991F5A95A9F780959095BC01CD01089531
:1046E000CF93DF93EC012B8120FF33C026FF0AC05C
:1046F0002F7B2B838E819F8101969F838E838A815E
:1047000090E029C022FF0FC0E881F9818081082E46
:10471000000C990B009719F420622B831AC0319674
:10472000F983E8830EC0EA85FB85099597FF09C0E8
:104730002B81019611F080E201C080E1822B8B83F6
:1047400008C02E813F812F5F3F4F3F832E839927E3
:1047500002C08FEF9FEFDF91CF910895A0E0B0E00E
:10476000E4EBF3E20C94AD26AE014B5F5F4FFA0130
:1047700061917191AF0180913C0490913D040E9440
:10478000C423E2E00C94C926ABE0B0E0EAECF3E22B
:104790000C949D266C017B018A01FC011782168214
:1047A000838181FFCCC1CE0101963C01F60193814A
:1047B000F70193FD859193FF81917F01882309F48F
:1047C000BAC1853239F493FD859193FF81917F01C0
:1047D000853229F4B60190E00E94BB25E7CF912CE9
:1047E000212C312CFFE1F315D8F08B3279F038F41D
:1047F000803279F08332A1F4232D20611DC08D32E7
:1048000061F0803369F4232D216016C0832D82600E
:10481000382EE32DE4603E2E2AC0F32DF8601DC033
:1048200037FC2DC020ED280F2A3040F08E32B9F42D
:1048300036FC81C1232D2064322E19C036FE06C0FD
:104840008AE0989E200D1124922E11C0EAE02E9E3F
:10485000200D1124222EF32DF0623F2E08C08C363D
:1048600021F4832D8068382E02C0883641F4F70188
:1048700093FD859193FF81917F018111B3CF982F93
:104880009F7D9554933028F40C5F1F4F9FE39983CD
:104890000DC0833631F0833771F0833509F059C08C
:1048A00021C0F801808189830E5F1F4F8824839483
:1048B000912C530113C02801F2E04F0E511CF80156
:1048C000A080B18036FE03C0692D70E002C06FEF9A
:1048D0007FEFC5010E94B0254C018201F32DFF77C7
:1048E0003F2E16C0280122E0420E511CF801A08084
:1048F000B18036FE03C0692D70E002C06FEF7FEF1C
:10490000C5010E94A5254C01F32DF0683F2E8201C0
:1049100033FC1BC0822D90E088169906B0F4B601D6
:1049200080E290E00E94BB252A94F4CFF50137FC89
:10493000859137FE81915F01B60190E00E94BB2511
:1049400021102A9421E0821A91088114910471F7B0
:10495000E8C0843611F0893641F5F80137FE07C00A
:1049600060817181828193810C5F1F4F08C06081DB
:104970007181072E000C880B990B0E5F1F4FF32DD2
:10498000FF763F2E97FF09C09095809570956195B1
:104990007F4F8F4F9F4FF0683F2E2AE030E0A301FA
:1049A0000E94F725882E861845C0853731F4232DBF
:1049B0002F7EB22E2AE030E025C0932D997FB92EAC
:1049C0008F36C1F018F4883579F0B5C0803719F00A
:1049D000883721F0B0C0E92FE061BE2EB4FE0DC0D3
:1049E000FB2DF460BF2E09C034FE0AC0292F2660BB
:1049F000B22E06C028E030E005C020E130E002C061
:104A000020E132E0F801B7FE07C060817181828148
:104A100093810C5F1F4F06C06081718180E090E040
:104A20000E5F1F4FA3010E94F725882E8618FB2DCD
:104A3000FF773F2E36FE0DC0232D2E7FA22E891428
:104A400058F434FE0BC032FC09C0832D8E7EA82E94
:104A500005C0B82CA32C03C0B82C01C0B92CA4FEEF
:104A60000FC0FE01E80DF11D8081803321F49A2DE5
:104A7000997EA92E09C0A2FE06C0B394B39404C0C7
:104A80008A2D867809F0B394A3FC11C0A0FE06C05D
:104A9000B21488F4280C922C9B180EC0B21460F447
:104AA000B60180E290E00E94BB25B394F7CFB21428
:104AB00018F42B1802C0982C212CA4FE10C0B601AB
:104AC00080E390E00E94BB25A2FE17C0A1FC03C0BA
:104AD00088E790E002C088E590E0B6010CC08A2D1E
:104AE000867859F0A1FE02C08BE201C080E2A7FCEB
:104AF0008DE2B60190E00E94BB25891438F4B6011E
:104B000080E390E00E94BB259A94F7CF8A94F3014A
:104B1000E80DF11D8081B60190E00E94BB25811057
:104B2000F5CF222009F442CEB60180E290E00E9447
:104B3000BB252A94F6CFF6018681978102C08FEFBC
:104B40009FEF2B96E2E10C94B926FC010590615091
:104B500070400110D8F7809590958E0F9F1F089593
:104B6000FC016150704001900110D8F7809590953C
:104B70008E0F9F1F08950F931F93CF93DF93FB0119
:104B8000238121FD03C08FEF9FEF2CC022FF16C0B1
:104B900046815781248135814217530744F4A0810F
:104BA000B1819D012F5F3F4F318320838C932681FC
:104BB00037812F5F3F4F3783268314C08B01EC0171
:104BC000FB010084F185E02D0995892BE1F6D801E0
:104BD00016968D919C911797019617969C938E939C
:104BE0001697CE01DF91CF911F910F910895FA0191
:104BF000AA27283051F1203181F1E8946F936E7F1C
:104C00006E5F7F4F8F4F9F4FAF4FB1E03ED0B4E00C
:104C10003CD0670F781F891F9A1FA11D680F791F4D
:104C20008A1F911DA11D6A0F711D811D911DA11D5E
:104C300020D009F468943F912AE0269F112430196E
:104C4000305D3193DEF6CF010895462F4770405D09
:104C50004193B3E00FD0C9F7F6CF462F4F70405DB8
:104C60004A3318F0495D31FD4052419302D0A9F713
:104C7000EACFB4E0A6959795879577956795BA950D
:104C8000C9F700976105710508959B01AC010A2ED3
:104C900006945795479537952795BA95C9F7620FAA
:104CA000731F841F951FA01D0895F999FECF92BD13
:104CB00081BDF89A992780B50895A6E1B0E044E057
:104CC00050E00C948F26A8E1B0E042E050E00C9454
:104CD0008F26262FF999FECF92BD81BDF89A0197B4
:104CE00000B4021639F01FBA20BD0FB6F894FA9A34
:104CF000F99A0FBE08950396272F0E946A260E94F4
:104D00006926252F0E946A26242F0C946A26019674
:104D1000272F0E946A260C946926DC01CB01FC0136
:104D2000F999FECF06C0F2BDE1BDF89A319600B404
:104D30000D9241505040B8F708952F923F924F92F4
:104D40005F926F927F928F929F92AF92BF92CF921B
:104D5000DF92EF92FF920F931F93CF93DF93CDB724
:104D6000DEB7CA1BDB0B0FB6F894DEBF0FBECDBF9C
:104D700009942A88398848885F846E847D848C846D
:104D80009B84AA84B984C884DF80EE80FD800C8176
:104D90001B81AA81B981CE0FD11D0FB6F894DEBF59
:0C4DA0000FBECDBFED010895F894FFCFC9
:104DAC0000000003000000002C1ABA1A0000E91CD5
:104DBC00E81CFC20FB202563256300BE09F80502D6
:104DCC0006D606D506D506D506D506DF08D506299E
:104DDC00075C070F068F07C2071D06F507F508D5F8
:104DEC0006D5062B06D5067C06D5066D0ABF0A4EDF
:104DFC0009370B13087208D108D50600000100060C
:104E0C00000700030CF8050206D606D506D506D514
:104E1C0006D506DF08D50629075C070F068F07C2E3
:104E2C00071D06F507F508D506D5062B06D5067C15
:104E3C0006D5066D0ABF0A4E09370B13087208D146
:044E4C0008D506007F
:00000001FF
