:100000000C945D000C947A000C947A000C947A00A5
:100010000C947A000C947A000C947A000C947A0078
:100020000C947A000C947A000C947A000C947A0068
:100030000C947A000C947A000C947A000C947A0058
:100040000C94FF130C947A000C9474120C94A91263
:100050000C947A000C945C130C947A000C947A0043
:100060000C9405150C947A000C947A000C947A0088
:100070000C947A000C947A000C947A000C947A0018
:100080000C947A000C947A000C947A000C947A0008
:100090000C947A000C947A000C947A000C947A00F8
:1000A0000C9418190C947A000C947A000C947A0031
:1000B0000C947A0052505569640011241FBECFEF92
:1000C000D8E0DEBFCDBF11E0A0E0B1E0E2E2F2E4B3
:1000D00002C005900D92A43AB107D9F724E0A4EA32
:1000E000B1E001C01D92A031B207E1F70E94371CB8
:1000F0000C940F210C94000080910A038823C1F016
:100100008FB7F89443988FBF8FB7F8945C988FBFE0
:1001100080910903882321F08FB7F8945D9A03C07A
:100120008FB7F8945D988FBF8FB7F894429A17C035
:100130008FB7F894439A8FBF8FB7F8945C988FBFAE
:1001400080910903882321F08FB7F8945D9A03C04A
:100150008FB7F8945D988FBF8FB7F89442988FBF90
:10016000089580910A03882381F08FB7F89443980B
:100170008FBF8FB7F8945C988FBF8FB7F8945D9A54
:100180008FBF8FB7F894429A0FC08FB7F894439AF5
:100190008FBF8FB7F8945C988FBF8FB7F8945D9A34
:1001A0008FBF8FB7F89442988FBF089580910A034C
:1001B000882381F08FB7F89443988FBF8FB7F89456
:1001C0005C9A8FBF8FB7F8945D988FBF8FB7F89404
:1001D000429A0FC08FB7F894439A8FBF8FB7F894A5
:1001E0005C9A8FBF8FB7F8945D988FBF8FB7F894E4
:1001F00042988FBF089580910603811192C08BE0D1
:1002000093E00E94DB1420910303277F09F067C06D
:1002100020910A03222321F096958795779567957B
:10022000209102032223D9F06C34710581059105D8
:10023000B0F093B18FB7F89495FD02C02D9A01C02C
:100240002D988FBF80910B0390910C03A0910D030B
:10025000B0910E03855B9F4FAF4FBF4F5AC02091A7
:1002600001032223E1F0613D27E07207810591053A
:10027000B0F093B18FB7F89495FD02C02D9A01C0EC
:100280002D988FBF80910B0390910C03A0910D03CB
:10029000B0910E038053984FAF4FBF4F3AC020919B
:1002A0001603222309F43DC0653F71408105910585
:1002B000C0F193B18FB7F89495FD02C02D9A01C09B
:1002C0002D988FBF80910B0390910C03A0910D038B
:1002D000B0910E038C509E4FAF4FBF4F1AC0693C78
:1002E000710581059105E8F093B18FB7F89495FDFC
:1002F00002C02D9A01C02D988FBF80910B03909161
:100300000C03A0910D03B0910E0388539F4FAF4F84
:10031000BF4F80930B0390930C03A0930D03B093F6
:100320000E030895809102038823A1F088EF92E0E4
:100330000E94DB1420910F0321110CC06933714C12
:100340008140910538F00E947C0081E08093160383
:100350001092020308958CEF92E00E94DB1420912A
:100360000F03211110C020910103222361F0613C91
:10037000744D8140910538F00E947C0081E08093AB
:100380001603109201030895809105038823B9F0A4
:1003900080E193E00E94DB14693E73408105910582
:1003A00098F18FB7F89420988FBF8FB7F894289A58
:1003B0008FBF1092050381E080930603089580911A
:1003C0000603811121C018991FC08FB7F894209A95
:1003D0008FBF8FB7F89428988FBF8FB7F894259A5E
:1003E0008FBF8FB7F8942D9A8FBF1092060381E0CC
:1003F000809305030E9462146093100370931103AD
:100400008093120390931303089580910A0381113E
:10041000B5C04B9956C08091030383FDAFC04A9B82
:1004200005C08FB7F8945A988FBF08958091020342
:100430008111A4C0809101038111A0C08091160395
:1004400081119CC080911803811198C00E94621490
:1004500060931D0370931E0380931F0390932003EA
:100460008091140380931A0320911A0390911A0328
:1004700040911A0330E0209530952A70332764E0CC
:10048000220F331F6A95E1F7892F90E080959095B0
:100490008075992774E0959587957A95E1F7822B79
:1004A000932B9F938F931F924F9386E191E09F939D
:1004B0008F930E94E91D81E08093180380930403C9
:1004C00057C080911603882309F458C08091040313
:1004D000882309F453C08091180381114FC0809183
:1004E000020381114BC080910103811147C00E941A
:1004F000621460931D0370931E0380931F039093F7
:1005000020038FEC80931A0320911A0390911A0311
:1005100040911A0330E0209530952A70332784E00B
:10052000220F331F8A95E1F7892F90E080959095EF
:100530008075992754E0959587955A95E1F7822B18
:10054000932B9F938F931F924F9386E191E09F93FC
:100550008F930E94E91D81E0809318038FB7F89470
:100560002D9A8FBF109204038FB7F8945A9A8FBFB9
:100570000F900F900F900F900F900F9008958F9203
:100580009F92AF92BF92CF92DF92EF92FF920F9322
:100590001F93CF93DF938DE193E00E94DB142091B2
:1005A0001803222369F0653F71408105910540F0F1
:1005B0008091030381708093030310921803E7C1B5
:1005C0000E94D512892B09F4E2C180910A0490910E
:1005D0000B040E94AB1D60911B03262F30E0209579
:1005E0003095A9014A70552774E0440F551F7A953C
:1005F000E1F720753327E4E035952795EA95E1F793
:10060000242B352BAC0155272417350739F41092CC
:100610001B0380911803811104C00FC080931B033A
:10062000B6C180911A03681729F080910303847082
:10063000809303031092180304C08091040388235D
:1006400019F010920A0303C081E080930A0361113C
:1006500027C00E946214DC01CB01805C944DA14054
:10066000B1098093FC029093FD02A093FE02B09327
:10067000FF020E946214DC01CB018853914CA1401F
:10068000B1098093F8029093F902A093FA02B09313
:10069000FB028FB7F8942D988FBF10920F0350C1B3
:1006A0006F3F31F41092170381E080930F036FC105
:1006B000613009F071C0E9B179B156B189B149B180
:1006C00099B129B136B1E3FBAA24A0F8B12CB694B4
:1006D000BA2CAA24B794A79472FBCC24C0F8D12CCE
:1006E000F6E0CC0CDD1CFA95E1F7CA2833FBAA240E
:1006F000A0F8CA2852FBEE24E0F8F12CA5E0EE0C9D
:10070000FF1CAA95E1F7EC2885FB002700F910E013
:10071000B4E0000F111FBA95E1F70E2946FB4427FC
:1007200040F9C42F80E0D82F13E0CC0FDD1F1A95BD
:10073000E1F7C02B892F990F990B8827990F881FF4
:100740009927880F991F880F991F8C2B24FB8824C9
:1007500080F8912C880C991C8829809307038FB707
:10076000F8942B988FBF8FB7F894429A8FBF8FB7AA
:10077000F8945D988FBF8FB7F8945F988FBF8FB74D
:10078000F8945C9A8FBF8FB7F89443988FBF1092FC
:10079000000360931903FBC06E3F09F076C080919F
:1007A0000703881F8827881F9FB7F894882311F0B4
:1007B0005B9A01C05B989FBF8091070386FB8827E7
:1007C00080F99FB7F894882311F05A9A01C05A987B
:1007D0009FBF8091070385FB882780F99FB7F89416
:1007E000882311F0429A01C042989FBF809107036D
:1007F000829581709FB7F894882311F05D9A01C0AB
:100800005D989FBF8091070383FB882780F99FB77E
:10081000F894882311F05E9A01C05E989FBF8FB74D
:10082000F894599A8FBF8FB7F89451988FBF8091E1
:10083000C10088618093C1008091070382FB8827F3
:1008400080F99FB7F894882311F05F9A01C05F98F0
:100850009FBF80910703869581709FB7F894882386
:1008600011F05C9A01C05C989FBF80910703817072
:100870009FB7F894882311F0439A01C043989FBF13
:10088000109200031092190382C08091150368131F
:1008900042C080911C03811114C00E94B1008FB727
:1008A000F8942A988FBF0E9462146093210370937A
:1008B0002203809323039093240381E080931C03FD
:1008C00066C081E293E00E94DB146431710581050A
:1008D000910508F45CC08FB7F8942A9A8FBF1092E4
:1008E0001C0381E080930203109209030E946214AA
:1008F00060930B0370930C0380930D0390930E038E
:100900000E9462146093F8027093F9028093FA02D5
:100910009093FB023CC067FD1EC081E08093010301
:1009200010920203109216030E94D6000E946214D5
:100930006093FC027093FD028093FE029093FF028D
:100940000E94621460930B0370930C0380930D0359
:1009500090930E031CC010920A0310920103109290
:100960001603109202038FB7F8942D9A8FBF8FB79A
:10097000F89443988FBF8FB7F8945C9A8FBF8FB766
:10098000F8945D988FBF8FB7F894429A8FBFDF912C
:10099000CF911F910F91FF90EF90DF90CF90BF907C
:1009A000AF909F908F900895FC01218130ED320F20
:1009B0003B3410F42093140320911403FC01218391
:1009C0000895FC018091C8039091C903218130E012
:1009D000322F222791839281290F311D82833093F8
:1009E000C9032093C80383E08093C7030895FC01E3
:1009F0008091C5039091C603218130E0322F2227D8
:100A000091839281290F311D82833093C6032093F5
:100A1000C50382E08093C7030895FC018091C10360
:100A20009091C2032091C3033091C4033183228388
:100A3000938384830895FC018091CE039091CF032A
:100A4000218130E0322F222791839281290F311D9D
:100A500082833093CF032093CE0382E08093D00330
:100A60000895FC018091D1039091D203218130E05F
:100A7000322F222791839281290F311D8283309357
:100A8000D2032093D10383E08093D0030895FC0127
:100A900081818093E10382818093D8038381809355
:100AA000D70384818093E20308950F931F93FC0181
:100AB000018110E020E030E0302F222711270027AD
:100AC0009281492F50E060E070E0BA015527442739
:100AD000400F511F621F731F84818A019B01080F01
:100AE000111D211D311D438150E060E070E0762F23
:100AF000652F542F4427400F511F621F731F41154C
:100B000051056105710549F480919E0390919F0301
:100B10002091A0033091A10312C04230510561051C
:100B2000710549F48091A2039091A3032091A4033D
:100B30003091A50304C080E090E020E030E03183F4
:100B40002283938384831F910F9108951F93CF93E2
:100B5000DF93FC019181292F2F77223008F044C0C8
:100B60009093B30384E0289FE0011124CC54DC4F20
:100B7000588169813A814B818281428343813383E9
:100B8000348164831581558397FF35C090E0A0E0E0
:100B9000B0E0B82FAA279927882750E060E070E0DE
:100BA000BA0155274427840F951FA61FB71F810F31
:100BB000911DA11DB11D432F50E060E070E0762F24
:100BC000652F542F4427840F951FA61FB71F8883B6
:100BD0009983AA83BB8380E190E001C0880F2A95A6
:100BE000EAF78093B20307C08FE781838FEF828398
:100BF000838384838583DF91CF911F9108950F9321
:100C00001F93CF93DF93FC01C091D303D091D40302
:100C10008091D5039091D603418150E060E070E06F
:100C2000342F2227112700279183428150E060E072
:100C300070E0BA0155274427400F511F621F731FF0
:100C40008283838190E0A0E0B0E0BA2FA92F982F93
:100C50008827D3832481420F511D611D711DC483D8
:100C6000840F951FA61FB71F8093D3039093D403BF
:100C7000A093D503B093D60384E08093D003DF9193
:100C8000CF911F910F9108950F931F93CF93DF93EF
:100C9000FC01C091CA03D091CB038091CC03909109
:100CA000CD03418150E060E070E0342F222711270E
:100CB00000279183428150E060E070E0BA0155273F
:100CC0004427400F511F621F731F8283838190E06E
:100CD000A0E0B0E0BA2FA92F982F8827D3832481D2
:100CE000420F511D611D711DC483840F951FA61FE6
:100CF000B71F8093CA039093CB03A093CC03B09308
:100D0000CD0385E08093D003DF91CF911F910F91A8
:100D1000089508951F93CF93DF93EC01198111304B
:100D200009F044C080911703811140C00E946214F1
:100D300060931D0370931E0380931F039093200301
:100D40008FEF80931A0320911A0390911A03409118
:100D50001A0330E0209530952A70332784E0220F63
:100D6000331F8A95E1F7892F90E0809590958075E3
:100D7000992754E0959587955A95E1F7822B932B07
:100D80009F938F931F924F9386E191E09F938F9350
:100D90000E94E91D109318031093170310920F037C
:100DA0000F900F900F900F900F900F9080910F0366
:100DB0008983DF91CF911F910895CF93DF93EC0149
:100DC000898190E0982F88272A81820F911D843095
:100DD000910550F4880F991FFC01E55AFE4F808160
:100DE00091810E94EE1302C080E090E099838A8393
:100DF000DF91CF910895CF93DF93EC018DED93E0D8
:100E00000E94DB1499838A837B836C83DF91CF916B
:100E10000895FC019181809103038F7081831B9B56
:100E200002C0805F8183199B03C08181805E8183C2
:100E30008091D903873019F48181805C818397FF89
:100E400024C0818184FF0BC081E08093BC03109299
:100E5000C1031092C2031092C3031092C403818194
:100E600085FF0CC080910503811108C080910603A5
:100E7000811104C08FB7F894299A8FBF818186FDB4
:100E80001092D9038F708093030308951F93CF931B
:100E9000DF93FC019181292F2F77243008F044C083
:100EA0009093F80384E0289FE0011124C650DC4FA2
:100EB000588169813A814B818281428343813383A6
:100EC000348164831581558397FF35C090E0A0E09D
:100ED000B0E0B82FAA279927882750E060E070E09B
:100EE000BA0155274427840F951FA61FB71F810FEE
:100EF000911DA11DB11D432F50E060E070E0762FE1
:100F0000652F542F4427840F951FA61FB71F888372
:100F10009983AA83BB8380E190E001C0880F2A9562
:100F2000EAF78093F90307C08FE781838FEF82830D
:100F3000838384838583DF91CF911F910895AF923E
:100F4000BF92CF92DF92EF92FF920F931F93CF93B6
:100F5000DF93FC0180911903882309F454C0A9B0E0
:100F6000B9B0C6B0D9B039B199B189B126B1A3FA37
:100F7000EE24E0F8F12CF694FE2CEE24F794E7949E
:100F8000B2FA002700F910E056E0000F111F5A9541
:100F9000E1F70E2923FB222720F9022BC2FACC24E9
:100FA000C0F8CC2D20E0D22F65E0CC0FDD1F6A9574
:100FB000E1F7C02BD5FAAA27A0F9B0E074E0AA0F98
:100FC000BB1F7A95E1F7AC2B36FB662760F970E022
:100FD000B3E0660F771FBA95E1F76A2B292F990FB7
:100FE000330B2227330F221F3327220F331F220FE9
:100FF000331F262B84FB442740F950E0440F551F34
:10100000242B218301C01182DF91CF911F910F9179
:10101000FF90EF90DF90CF90BF90AF900895FC01CC
:101020009181809106038183109206039130F1F43F
:101030008FB7F894209A8FBF8FB7F89428988FBFF6
:101040008FB7F894259A8FBF8FB7F8942D9A8FBFDA
:1010500090930503109206030E946214609310039C
:101060007093110380931203909313030895CF9309
:10107000FC01918180911503818380ED890F8B3470
:1010800030F49093150381E0809308039DC0C1E084
:10109000C0930903809104038823B1F10E94621474
:1010A00060931D0370931E0380931F03909320038E
:1010B00010921A0320911A0390911A0340911A0377
:1010C00030E0209530952A70332764E0220F331FDB
:1010D0006A95E1F7892F90E0809590958075992722
:1010E00074E0959587957A95E1F7822B932B9F93E2
:1010F0008F931F924F9386E191E09F938F930E946D
:10110000E91DC093180339C0809102038823E1F1DF
:101110000E94621460931D0370931E0380931F034B
:101120009093200310921A0320911A0390911A03AE
:1011300040911A0330E0209530952A70332784E0DF
:10114000220F331F8A95E1F7892F90E080959095C3
:101150008075992754E0959587955A95E1F7822BEC
:10116000932B9F938F931F924F9386E191E09F93D0
:101170008F930E94E91D109218030F900F900F900B
:101180000F900F900F9020C00E946214DC01CB01E1
:10119000805C944DA140B1098093FC029093FD02C4
:1011A000A093FE02B093FF020E946214DC01CB0107
:1011B0008853914CA140B1098093F8029093F902B1
:1011C000A093FA02B093FB02CF910895CF93FC0154
:1011D000C181C13009F048C080910003811142C033
:1011E0008091190381113EC00E94621460931D0317
:1011F00070931E0380931F0390932003C0931A03E0
:1012000020911A0390911A0340911A0330E020951F
:1012100030952A70332784E0220F331F8A95E1F737
:10122000892F90E0809590958075992754E0959549
:1012300087955A95E1F7822B932B9F938F931F925B
:101240004F9386E191E09F938F930E94E91DC09395
:101250001803C09300030F900F900F900F900F9002
:101260000F9004C082E001C083E08183CF91089594
:101270001F93CF93DF93EC011981113009F06BC0FC
:1012800080910003811167C080911903882309F4BC
:1012900062C08FB7F894599A8FBF8FB7F89451985E
:1012A0008FBF42E060E970ED83E090E00E9406139A
:1012B00090930B0480930A0490930D0480930C0484
:1012C0008FB7F8945F9A8FBF8FB7F8945E988FBFEF
:1012D0000E94621460931D0370931E0380931F038A
:1012E000909320038EEF80931A0320911A0380912C
:1012F0001A0390911A0330E0209530952A70332715
:10130000A90124E0440F551F2A95E1F7282F30E06A
:10131000209530952075332764E0359527956A959B
:10132000E1F7242B352B3F932F931F929F9386E158
:1013300091E09F938F930E94E91D109318031093DF
:1013400000038091070389830F900F900F900F90F7
:101350000F900F9001C01982DF91CF911F910895D6
:101360000F931F93CF93DF93FC0180911903882380
:1013700009F476C08181881F8827881F9FB7F89459
:10138000882311F05B9A01C05B989FBF818186FB27
:10139000AA27A0F9B0E08FB7F894AB2B11F05A9AB6
:1013A00001C05A988FBF818185FB662760F970E084
:1013B0008FB7F894672B11F0429A01C042988FBF03
:1013C000818184FB442740F950E08FB7F894452B86
:1013D00011F05D9A01C05D988FBF818183FB222748
:1013E00020F930E08FB7F894232B11F05E9A01C0FA
:1013F0005E98EF018FBF818182FF1AC040E060E0FC
:1014000070E0CB010E94061390930B0480930A04B2
:1014100090930D0480930C048FB7F894519A8FBF6A
:101420008FB7F89459988FBF8FB7F8945F9A8FBF92
:10143000898181FB002700F910E08FB7F894012B18
:1014400011F05C9A01C05C988FBF898181709FB751
:10145000F894882311F0439A01C043989FBF01C0BC
:101460001182DF91CF911F910F910895282FA5E24E
:10147000B3E0FC018E2F821B861718F481918D93A7
:10148000F9CF603228F4E62FF0E0EB5DFC4F1182DB
:101490006093A401623010F48FEF0DC0809125039A
:1014A000E82FE295EF70E43010F08EEF04C08F70FB
:1014B000883020F08DEF80932503089598E0E99F10
:1014C000F0011124E80FF11DEE0FFF1FE55EFE4F46
:1014D0000190F081E02D85E293E009946091A401F0
:1014E00085E293E00E94D418882329F080910303B9
:1014F0008270809303030895FC019181809115030C
:10150000818380ED890F8B3428F49093150381E05B
:10151000809308030895D901ED91FC913297E1F48D
:1015200080934F0382E080934D0360935103409377
:10153000520310925303809350031092450310926C
:101540004603109247038FB7F8942D988FBF83E01E
:1015500090E0F901918380830895EF92FF920F93B9
:10156000CF93DF93EC01888199810397F0F07E019E
:101570000091500325E433E040914D0361E573E0B1
:1015800080914F030E9476182881398121303105DE
:1015900081F4982F907E29F08295869587708093AC
:1015A0004E038FB7F8942D9A8FBF1982188280E06E
:1015B00001C081E0DF91CF910F91FF90EF900895EE
:1015C00090937A038093790370E070937C03609327
:1015D0007B03089520917B0330917C032115310515
:1015E00009F467C010927C0310927B03E0917903A9
:1015F000F0917A032130310511F040E01FC0908155
:1016000080915903981355C08091A701A9E5B3E0D3
:10161000EDE7F3E090E0981721F02D9121939F5F83
:10162000FACF803228F4E82FF0E0E358FC4F118223
:101630008093A60181E08093A5010895842F90E016
:101640008217930754F4DF01A80FB91F5C91DC01E6
:10165000A75ABC4F5C934F5FF1CF403220F4FC019E
:10166000E75AFC4F11822093A701211102C08FEF8E
:101670000DC080915903E82FE295EF70E43010F02F
:101680008EEF04C08F70883020F08DEF8093590367
:10169000089598E0E99FF0011124E80FF11DEE0F85
:1016A000FF1FED59FE4F0190F081E02D89E593E099
:1016B000099408956091A6018DE793E00E94F91ABC
:1016C0001092A5010895CF9380910803882321F1FA
:1016D000F99922C09FEF980F9A3090F490E0FC01A6
:1016E000ED54FF4FC4916C2F87960E94A420C11126
:1016F00002C08BE003C0809108038F5F80930803D2
:10170000809108038B3041F46091150382E390E0EF
:101710000E94A42010920803CF9108951F93CF93A5
:10172000DF93C8E2D0E0FE01E457FF4F1491CE01F1
:101730000E949020181306C0112331F02196C23365
:10174000D10589F780E001C081E0DF91CF911F9141
:1017500008958F929F92AF92BF92CF92DF92EF92B5
:10176000FF920F931F938EEA93E00E94DB146B307D
:1017700071058105910508F4E4C080919D038823DB
:1017800049F18091A6039091A703A091A803B0917D
:10179000A9030196A11DB11D8093A6039093A703F1
:1017A000A093A803B093A9038091AA039091AB03DF
:1017B000A091AC03B091AD030196A11DB11D809322
:1017C000AA039093AB03A093AC03B093AD03109224
:1017D0009D0303C081E080939D03EFB7F89480914F
:1017E000A6039091A703A091A803B091A903C0906C
:1017F0009E03D0909F03E090A003F090A10340913E
:10180000AA035091AB036091AC037091AD0380903B
:10181000A2039090A303A090A403B090A50300910D
:10182000E6031091E703012E000C220B330B800F0F
:10183000911FA21FB31F813422E492072FE0A20759
:10184000B10548F080549244AF40B109FFEFCF1A80
:10185000DF0AEF0AFF0A0091F2031091F303012E51
:10186000000C220B330B400F511F621F731F950199
:1018700084010F5F1F4F2F4F3F4F4134F2E45F074A
:10188000FFE06F077105C0F58093A6039093A7034F
:10189000A093A803B093A903C0929E03D0929F0384
:1018A000E092A003F092A1038092A2039092A3037E
:1018B000A092A403B092A5034093AA035093AB0354
:1018C0006093AC037093AD03EFBF80E00E94DB1325
:1018D0008091AE039091AF03A091B003B091B1039A
:1018E0000A96A11DB11D8093AE039093AF03A09300
:1018F000B003B093B10325C0405452446F40710906
:101900008093A6039093A703A093A803B093A90381
:10191000C0929E03D0929F03E092A003F092A10395
:101920004093AA035093AB036093AC037093AD0351
:101930000093A2031093A3032093A4033093A50361
:10194000C3CF1F910F91FF90EF90DF90CF90BF908A
:10195000AF909F908F90089583309105A8F4880FE1
:10196000991F880F991FFC01EC54FC4F4081518155
:1019700062817381415051096109710981E04E3FD3
:101980005F4F6F4F7F4F08F080E00895CF938091B5
:10199000B30387FF17C0C091B303F99913C0CF7782
:1019A00024E0C29FC0011124FC01EC54FC4F408193
:1019B0005181628173814E960E94B620C093B30319
:1019C00081E001C080E0CF9108950F931F93CF93E2
:1019D000DF938230910508F044C0EC018C01000FC8
:1019E000111F000F111FC8014E960E949820F80188
:1019F000EC54FC4F6083718382839383CE010E94F9
:101A0000AC0C811112C0CD2BD9F480E090E0A0EA9B
:101A1000B0E48093B4039093B503A093B603B0935E
:101A2000B7038091B2038F5F1AC02091B20381E0A7
:101A300090E001C0880FCA95EAF7809582230FC015
:101A400081E79DE3AAE8BFE38093B8039093B903CD
:101A5000A093BA03B093BB038091B2038E5F8093CF
:101A6000B203DF91CF911F910F9108950F931F93B0
:101A7000CF938091B203807351F18091B30387FFBC
:101A800026C0C091B303CF770C2F10E0C8010E948D
:101A9000AC0C8823B1F00E94C60C8823C1F0809161
:101AA000B2038F708093B2032091B20381E090E083
:101AB00001C0880FCA95EAF7809582238093B2030C
:101AC00006C0C801CF911F910F910C94E50CCF91E6
:101AD0001F910F910895EF92FF920F931F93CF9351
:101AE000DF938091BC03882309F4C0C087E090E0B5
:101AF0000E94EE137C01C091C503D091C6038C17E0
:101B00009D074CF01B9BB6C08FB7F8942B988FBFE6
:101B10001092BC03AFC08091C8039091C903C81B49
:101B2000D90BD595C7958DEB93E00E94DB148B0103
:101B30009C018091C8039091C9038C0F9D1FE816EA
:101B4000F9060CF058C01B9B39C08091C5039091D9
:101B5000C6038E199F09BE010E94611D40ED57E02A
:101B6000649FC001659F900D749F900D1124092EF4
:101B7000000CAA0BBB0B800F911FA21FB31F813D4E
:101B80009740A105B10508F475C08FB7F8942B985C
:101B90008FBF8091C1039091C203A091C303B09104
:101BA000C403080F191F2A1F3B1F0093C103109382
:101BB000C2032093C3033093C4035CC0013D87E09C
:101BC00018072105310508F455C08FB7F8942B9AF2
:101BD0008FBF013A1F402105310540F58091BD03BB
:101BE0009091BE03A091BF03B091C0038053984F62
:101BF000AF4FBF4F32C01B9B0AC006501F4F2F4F25
:101C00003F4F0131174221053105A0F12FC00131AD
:101C100047E214072105310568F18FB7F8942B9A34
:101C20008FBF01321E442105310558F00E94621415
:101C30006093BD037093BE038093BF039093C00372
:101C400019C08091BD039091BE03A091BF03B091D4
:101C5000C003805F984DAF4FBF4F8093BD039093FB
:101C6000BE03A093BF03B093C00304C08FB7F89422
:101C70002B988FBFDF91CF911F910F91FF90EF9025
:101C80000895FC01208131812B54314081E02738B7
:101C9000310508F080E00895FC01208131812E5348
:101CA000314081E02636310508F080E00895FC01DE
:101CB000208131812559324081E02F30314008F0B8
:101CC00080E00895FC01208131812C57324081E071
:101CD0002B3C310508F080E008958CE390E00E94F1
:101CE0009E20F9990CC06091C5037091C6038617B8
:101CF000970739F08CE390E00E94C22002C080E098
:101D0000089581E008958EE390E00E949E20F99965
:101D10000CC06091C8037091C9038617970739F00A
:101D20008EE390E00E94C22002C080E0089581E02E
:101D30000895EF92FF920F931F93CF93DF9300D0FC
:101D400000D0CDB7DEB78CE390E00E949E207C01EE
:101D50009C838B838EE390E00E949E208C019A836B
:101D60008983CE0103960E94410E811106C0CE01E7
:101D700003960E94570E8823C1F0CE0101960E945F
:101D80004C0E811106C0CE0101960E94620E88237E
:101D900061F0F092C603E092C5031093C90300936B
:101DA000C8031092C70381E010C08DE891E09093C2
:101DB000C6038093C50386E791E09093C90380939F
:101DC000C80381E08093C70380E00F900F900F90CD
:101DD0000F90DF91CF911F910F91FF90EF90089599
:101DE0008091C703823058F1823099F485EC93E0FA
:101DF0000E94410E811106C085EC93E00E94570EAF
:101E0000882339F00E946D0E882319F01092C703C1
:101E100008958091C703833081F488EC93E00E9499
:101E20004C0E811106C088EC93E00E94620E88235C
:101E300021F00E94830E8111E9CF0C94990E089530
:101E4000FC01208131812B53310981E02539310595
:101E500008F080E00895FC01208131812951310989
:101E600081E02035310508F080E00895FC012081F3
:101E700031812657310981E02932314008F080E074
:101E80000895FC01208131812253310981E02E39EE
:101E9000310508F080E00895FC01408151816281A4
:101EA000738140545F416109710981E041345F4CA5
:101EB0006643710508F080E0089586E490E00E9492
:101EC0009E20F9990CC06091CE037091CF038617C4
:101ED000970739F086E490E00E94C22002C080E0BB
:101EE000089581E0089588E490E00E949E20F99989
:101EF0000CC06091D1037091D2038617970739F017
:101F000088E490E00E94C22002C080E0089581E051
:101F100008958AE490E00E949820DC01CB01F999B1
:101F200012C04091D3035091D4036091D5037091B6
:101F3000D60384179507A607B70739F08AE490E01F
:101F40000E94B62002C080E0089581E008958EE4EA
:101F500090E00E949820DC01CB01F99912C04091D9
:101F6000CA035091CB036091CC037091CD038417C9
:101F70009507A607B70739F08EE490E00E94B620D7
:101F800002C080E0089581E00895CF92DF92EF9241
:101F9000FF921F93CF93DF93CDB7DEB72C970FB689
:101FA000F894DEBF0FBECDBF86E490E00E949E2075
:101FB0007C019C878B87CE010B960E94200F81119C
:101FC00006C0CE010B960E94360F882331F0F092A6
:101FD000CF03E092CE0310E001C011E088E490E06E
:101FE0000E949E207C019A878987CE0109960E94D3
:101FF0002B0F811106C0CE0109960E94410F882344
:1020000029F0F092D203E092D10301C011E08AE4FA
:1020100090E00E9498206B017C016D837E838F830A
:102020009887CE0105960E944C0F882349F0C092F4
:10203000D303D092D403E092D503F092D60301C02B
:1020400011E08EE490E00E9498206B017C0169838E
:102050007A838B839C83CE0101960E944C0F811161
:1020600025C080E590E09093CF038093CE0388E273
:1020700090E09093D2038093D10380E89FE4A2E1A3
:10208000B0E08093D3039093D403A093D503B0938F
:10209000D6038093CA039093CB03A093CC03B09351
:1020A000CD0381E08093D00380E00DC0C092CA03CD
:1020B000D092CB03E092CC03F092CD031111D1CF9B
:1020C0001092D00381E02C960FB6F894DEBF0FBEBD
:1020D000CDBFDF91CF911F91FF90EF90DF90CF9018
:1020E00008958091D003823008F447C0823099F47B
:1020F0008EEC93E00E94200F811106C08EEC93E0DD
:102100000E94360F882339F00E945D0F882319F052
:102110001092D00308958091D003833081F481ED33
:1021200093E00E942B0F811106C081ED93E00E9485
:10213000410F882321F00E94730F8111E9CF809114
:10214000D003843051F483ED93E00E944C0F882338
:1021500021F00E94890F8111DBCF8091D00385305F
:1021600051F48AEC93E00E944C0F882321F00E94E6
:10217000A70F8111CDCF0C94C50F0895CF92DF9298
:10218000EF92FF92CF93DF938BED93E00E94AD0A25
:10219000811181C181E090E00E94EE13EC018DED90
:1021A00093E00E94DB146B017C018091D9038111C3
:1021B00019C089EFC8168AE2D806E104F10408F4D0
:1021C0006AC12091D1033091D2038091E1032C1791
:1021D0003D0724F491E09093D903DCC094E0909300
:1021E000D903F3C0813029F58091D1039091D203B6
:1021F000C817D9070CF08AC082E08093D903809178
:10220000E103882309F478C06091D803662309F4B8
:1022100073C02091DB033091DC03232B31F422E0E7
:1022200030E03093DC032093DB032BED33E042E01E
:1022300061C08230C9F48091D1039091D203C81754
:10224000D90784F48091CA039091CB03A091CC0369
:10225000B091CD038C159D05AE05BF0508F01BC1DF
:1022600083E0AFC081E092C0833001F580E88093C5
:10227000DA0384E08093D9038091E103882309F491
:102280000AC16091E203662309F405C12091DB03D2
:102290003091DC03232B31F422E030E03093DC0377
:1022A0002093DB032BED33E043E0EDC0843009F0F5
:1022B00054C08091CE039091CF038C179D0734F5C5
:1022C00085E08093D9038091E1038823A9F0609190
:1022D000D803662389F02091DB033091DC03232BA4
:1022E00031F422E030E03093DC032093DB032BED6C
:1022F00033E045E00E948B0A0E9462146093DD0384
:102300007093DE038093DF039093E00381E0C816AF
:1023100082EAD8068AE4E80684E0F80608F4BBC03E
:1023200087E08093D9038091E103882309F464C096
:102330006091D803662309F45FC02091DB033091DC
:10234000DC03232B31F422E030E03093DC032093D4
:10235000DB032BED33E047E04DC0853009F057C07B
:102360008091CE039091CF038C179D074CF58091FF
:10237000D3039091D403A091D503B091D6038C15CB
:102380009D05AE05BF0508F086C086E08093D903A1
:102390008091E103882381F16091D803662361F184
:1023A0002091DB033091DC03232B31F422E030E079
:1023B0003093DC032093DB032BED33E041E01AC0C4
:1023C00084E08093D9038091E1038823A9F0609190
:1023D000D803662389F02091DB033091DC03232BA3
:1023E00031F422E030E03093DC032093DB032BED6B
:1023F00033E044E00E948B0A0E9462146093DD0384
:102400007093DE038093DF039093E00344C0863033
:10241000F1F480E48093DA0381E08093D903809122
:10242000E1038823C1F16091D7036623A1F12091D4
:10243000DB033091DC03232B31F422E030E03093D6
:10244000DC032093DB032BED33E046E01CC0873038
:1024500011F187E08093D9038091E1038823D9F0BB
:102460006091D8036623B9F02091DB033091DC033F
:10247000232B31F422E030E03093DC032093DB03A4
:102480002BED33E047E0DF91CF91FF90EF90DF90AD
:10249000CF900C948B0ADF91CF91FF90EF90DF905B
:1024A000CF9008952091AC0130E02F5F3F4F2F7106
:1024B00033274091AB0150E024173507D1F39091B9
:1024C000A801F901E353FE4F90FF03C08A3009F4DD
:1024D0008DE080832093AC018091C1008062809365
:1024E000C10080E090E008951F920F920FB60F9206
:1024F00011242F933F934F935F938F939F93EF9369
:10250000FF932091C00028713091C6008091AA01EC
:1025100090E001968F7199274091A90150E08417AE
:10252000950711F42E5F06C08093AA01FC01E355C4
:10253000FE4F30832093E303FF91EF919F918F91A2
:102540005F914F913F912F910F900FBE0F901F9071
:1025500018951F920F920FB60F9211248F939F938D
:10256000EF93FF939091AC018091AB01981779F0B4
:102570008091AB0190E001968F7199278093AB0118
:10258000FC01E353FE4F80818093C60005C080911B
:10259000C1008F7D8093C100FF91EF919F918F913A
:1025A0000F900FBE0F901F9018958091AA01209157
:1025B000A90190E08096821B91098F719927089557
:1025C0000E94D512892BE1F39091AA018091A90173
:1025D000981307C08091E3038F5F8093E30380E04B
:1025E0000CC08091A90190E001968F71992780938A
:1025F000A901FC01E355FE4F80819091A80191FF54
:1026000003C08D3009F48AE090E00895CF92DF9204
:10261000EF92FF920F931F93CF938B019C01C42FD6
:102620006B017C0180E6C80E83EED81E86E1E81EB1
:10263000F11CC701B60143E0660F771F881F991F81
:102640004A95D1F7A9019801E4E0220F331F441FF6
:10265000551FEA95D1F70E94751D2150310910923E
:10266000AC011092AB011092AA011092A9012115A0
:10267000310531F48091C100877F8093C10010C083
:1026800037FF04C082E08093C0003F7788E98093E1
:10269000C10086E08093C2003093C5002093C4003F
:1026A000C093A80180E091E0CF911F910F91FF901E
:1026B000EF90DF90CF9008951F920F920FB60F9278
:1026C00011242F938F939F93EF93FF93E091E40353
:1026D000F0E08091780090917900EE0FFF1FEA51B1
:1026E000FC4F918380838091E4038F5F8093E403A8
:1026F0008091E403813029F41B9B03C086E0809322
:10270000E4038091E403823019F486E08093E403CB
:102710008091E403883028F01092E4038FE78093DF
:10272000F70380917C00807F80937C0080917C0007
:102730002091E5039091E4038F71822B890F8093A0
:102740007C008091E403882331F080917A008064DA
:1027500080937A000BC08091ED01882339F080913D
:102760007A00806480937A001092F703FF91EF91D2
:102770009F918F912F910F900FBE0F901F901895E2
:102780008093E5031092ED01ECE7F0E09081907307
:10279000892B8083EAE7F0E08081846080838081F8
:1027A0008260808380818160808380818068808373
:1027B0001092F60308951092E4031092F7038093A9
:1027C000ED01EAE7F0E08081877588688083808189
:1027D0008064808381E08093F603089588309105BA
:1027E00058F42FB7F894880F991FFC01EA51FC4F59
:1027F000808191812FBF089580E090E008951F921D
:102800000F920FB60F9211248F939F93AF93BF93A4
:102810008091F8019091F901A091FA01B091FB012A
:102820000196A11DB11D8093F8019093F901A09329
:10283000FA01B093FB01BF91AF919F918F910F90DF
:102840000FBE0F901F90189584B5847F836084BD60
:1028500085B5887F836085BDEEE6F0E0808181608C
:102860008083E0E8F0E01082808181608083E1E88D
:10287000F0E01082808183608083E0EBF0E01082E2
:10288000808181608083E1EBF0E010828081846050
:102890008083E0E9F0E01082808181608083E1E95B
:1028A000F0E01082808183608083E0EAF0E01082B3
:1028B000808181608083E1EAF0E010828081836022
:1028C000808308958F929F92AF92BF92CF92DF92B2
:1028D000EF92FF928FB7F8948090F8019090F901F1
:1028E000A090FA01B090FB018FBF8091F40190910C
:1028F000F501A091F601B091F701A5019401281B03
:10290000390B4A0B5B0BDA01C9012B3F310541053D
:10291000510518F42223F1F101C08AEFC090EE01B5
:10292000D090EF01E090F001F090F101E091F20120
:10293000F091F301B701A6014F5F5F4F6F4F7F4FDB
:1029400081509F0123593E4F293E93E0390740F0C3
:10295000285E3340B701A6014E5F5F4F6F4F7F4F38
:10296000882321F0F9016A017B01E4CF4093EE0155
:102970005093EF016093F0017093F1013093F301F4
:102980002093F2018092F4019092F501A092F60159
:10299000B092F7016091EE017091EF018091F0012A
:1029A0009091F101FF90EF90DF90CF90BF90AF90AA
:1029B0009F908F9008950F931F93CF93DF93EC0117
:1029C0000E946214088119812A813B81601B710B6E
:1029D000820B930BDF91CF911F910F910895089572
:1029E000089585ED8093BC008091BC0084FDFCCFF0
:1029F0001092680210926702089585EC8093BC00E3
:102A0000109268021092670208951F920F920FB6FB
:102A10000F9211242F933F934F935F936F937F9364
:102A20008F939F93AF93BF93EF93FF938091B900E0
:102A3000887F803609F4C5C0B8F5883209F46AC0C9
:102A4000A0F4803109F463C038F4882309F45AC033
:102A5000883009F45CC024C1883109F45BC080323D
:102A600009F01EC180E290E06BC0803409F47BC0A5
:102A700078F4803309F462C0883309F011C188E327
:102A800090E090936402809363020E94FD1408C159
:102A9000803509F45CC0883509F46AC0883409F0CF
:102AA000FFC088E490E04CC0883909F4EEC0A8F477
:102AB000883709F486C038F4883609F482C0803734
:102AC00009F47FC0EDC0883809F4DFC0803909F40B
:102AD00081C0803809F0E4C07DC0803B09F4A9C002
:102AE00038F4803A09F48BC0883A09F4A2C0D8C0FF
:102AF000803C09F4CEC0883C09F4CBC0883B09F483
:102B0000B0C0CEC010926402109263021DC08091CA
:102B1000690211C09091420280914102981708F019
:102B20003FC0E091420281E08E0F80934202F0E0CC
:102B3000ED5BFD4F80818093BB00A5C080E390E0FA
:102B400090936402809363020E94F114A9C0E09103
:102B5000420281E08E0F809342028091BB00F0E040
:102B6000ED5BFD4F8083909142028091410289C0CC
:102B7000E091420281E08E0F809342028091BB007F
:102B8000F0E0ED5BFD4F8083909142028091410225
:102B9000981730F488E590E0909364028093630284
:102BA000809165029091660280FDCECF8091650292
:102BB000909166028260909366028093650284EA37
:102BC00069C083E090E0909368028093670210925E
:102BD000FC0159C08091FC01803208F056C0E091A0
:102BE000FD01F091FE018091FC0191E0980F90931E
:102BF000FC019091BB00E80FF11D908344C00E943E
:102C0000FD142091FC018091FD019091FE01203284
:102C100030F42091FC01FC01E20FF11D1082609163
:102C2000FC01E0910E01F0910F0109951092FC0159
:102C300037C084E090E0909368028093670210921E
:102C4000200210921F02E0911001F09111010995EC
:102C500080911F02811105C081E080931F021092B4
:102C60002102E091200281E08E0F80932002F0E0AB
:102C7000EF5DFD4F80818093BB0090912002809199
:102C80001F02981710F485EC01C085E88093BC0002
:102C900007C085EC8093BC00109268021092670216
:102CA000FF91EF91BF91AF919F918F917F916F9124
:102CB0005F914F913F912F910F900FBE0F901F90FA
:102CC00018950F931F938B019C01672B682B692B21
:102CD00071F48091BC008A7B8093BC008FB7F8941C
:102CE00045988FBF8FB7F89444988FBF43C08FEF3C
:102CF00091E09093FE018093FD0110926802109282
:102D0000670281E090E090936602809365028FB73E
:102D1000F8943D988FBF8FB7F8943C988FBF41309F
:102D2000510541F48FB7F894459A8FBF8FB7F89447
:102D3000449A8FBF8091B9008E7F8093B9008091B3
:102D4000B9008D7F8093B90060E07BE187EB90E074
:102D5000A90198010E94751DDA01C9014097A109D6
:102D6000B109B695A795979587958093B80085E4A6
:102D70008093BC001F910F910895413208F05BC011
:102D8000E0916702F0916802EF2B09F057C0E2E092
:102D9000F0E0F0936802E09367022130310531F4EE
:102DA0002091650230916602216005C02091650284
:102DB000309166022E7F30936602209365022FEFDA
:102DC00030E03093640220936302109242024093F9
:102DD0004102262FA3E4B2E0FB019E2F921B941721
:102DE00018F491919D93F9CF880F80936902809197
:102DF000690280936902809165029091660281FF69
:102E000014C080916502909166028D7F90E090934E
:102E1000660280936502809169028093BB00809175
:102E2000BC0083FDF8CF85EC01C085EE8093BC002B
:102E300080E090E0089581E090E0089582E090E0E5
:102E4000089580916702909168020297E1F0809165
:102E50006302909164028F3F9105C1F080916302FB
:102E6000909164028097A9F080916302909164022E
:102E7000C09791F08091630290916402892B79F060
:102E800085E090E0089581E090E0089580E090E092
:102E9000089582E090E0089583E090E0089584E052
:102EA00090E008950F931F93CF93DF93E801E8819B
:102EB000F981E430F105C9F030F4E230F105F9F0C0
:102EC000339721F020C03797F0F419C00E94BD1647
:102ED0008130910529F49983888381E090E015C0C1
:102EE000029789F084E090E00CC00E9421178130A5
:102EF000910559F021E030E03983288306C081E054
:102F000090E09983888380E090E0DF91CF911F91DA
:102F10000F910895613208F04EC020916702309100
:102F20006802232B09F04AC021E030E030936802A8
:102F3000209367022091650230916602413051056D
:102F400011F4216001C02E7F309366022093650248
:102F50002FEF30E03093640220936302109242021C
:102F6000615060934102880F8093690280916902E9
:102F70008F5F80936902809165029091660281FF64
:102F800014C080916502909166028D7F90E09093CD
:102F9000660280936502809169028093BB008091F4
:102FA000BC0083FDF8CF85EC01C085EE8093BC00AA
:102FB00080E090E0089581E090E0089582E090E064
:102FC000089580916702909168020197F1F08091D5
:102FD0006302909164028F3F9105D1F0809163026A
:102FE0009091640288349105B1F0809163029091D0
:102FF00064028835910591F080916302909164029A
:10300000892B79F085E090E0089581E090E00895C3
:1030100080E090E0089582E090E0089583E090E001
:10302000089584E090E0089520916702309168024D
:103030002130310539F420916302309164022F3F31
:103040003105B1F4209141022F5F309142023217D5
:1030500010F420914202A3E4B2E0382FFC018E2F3D
:10306000831B821718F48D918193F9CF822F0895D5
:1030700080E00895EF92FF920F931F93CF93DF9319
:103080007B01642FE801E881F981E530F10539F031
:1030900018F43297F8F422C0369761F01FC0A901E6
:1030A0000E948A1781309105A9F00297B9F086E055
:1030B00090E012C00E94E1178130910579F00297EB
:1030C000039740F0C7010E94141821E030E03983D3
:1030D000288305C081E090E09983888380E0DF91B8
:1030E000CF911F910F91FF90EF900895AF92BF92F3
:1030F000CF92DF92EF92FF920F931F93CF93DF93C4
:10310000B82E6901A02EE701888199810397029763
:1031100088F4870122E030E08B2D0E94521728812D
:10312000398121303105B9F4811115C085E090E075
:10313000998388838E0121E030E04A2DB6018B2DE2
:103140000E943A18288139812130310541F48111DA
:1031500007C00E94E1178295880F807E01C080E041
:10316000DF91CF911F910F91FF90EF90DF90CF9063
:10317000BF90AF90089598EF980F903728F4982F4C
:10318000990F9093BA0008951092BA008FEE94E1CF
:10319000909311018093100180EF94E190930F01BF
:1031A00080930E0180E008956132B0F420916702AF
:1031B000309168022430310589F460931F02282F72
:1031C000A1E2B2E0FC018E2F821B861718F48191D8
:1031D0008D93F9CF80E0089581E0089582E008950D
:1031E000009711F480EF94E190930F0180930E010A
:1031F0000895009711F48FEE94E19093110180935C
:10320000100108950895089585ED8093DC00809164
:10321000DC0084FDFCCF1092F6021092F5020895B6
:1032200085EC8093DC001092F6021092F50208956E
:103230001F920F920FB60F9211242F933F934F932B
:103240005F936F937F938F939F93AF93BF93EF930E
:10325000FF938091D900887F803609F4C5C0B8F506
:10326000883209F46AC0A0F4803109F463C038F4EC
:10327000882309F45AC0883009F45CC034C188310D
:1032800009F45BC0803209F02EC180E290E06BC08F
:10329000803409F47BC078F4803309F462C0883349
:1032A00009F021C188E390E09093F2028093F1024B
:1032B0000E94101918C1803509F45CC0883509F4E2
:1032C0006AC0883409F00FC188E490E04CC08839A6
:1032D00009F4FEC0A8F4883709F486C038F48836AB
:1032E00009F482C0803709F47FC0FDC0883809F432
:1032F000EFC0803909F481C0803809F0F4C07DC086
:10330000803B09F4B9C038F4803A09F48BC0883A9C
:1033100009F4B2C0E8C0803C09F4DEC0883C09F47E
:10332000DBC0883B09F4C0C0DEC01092F2021092EC
:10333000F1021DC08091F70211C09091D0028091DE
:10334000CF02981708F03FC0E091D00281E08E0FC5
:103350008093D002F0E0EF52FD4F80818093DB003C
:10336000B5C080E390E09093F2028093F1020E9456
:103370000419B9C0E091D00281E08E0F8093D00291
:103380008091DB00F0E0EF52FD4F80839091D002FE
:103390008091CF0299C0E091D00281E08E0F80939E
:1033A000D0028091DB00F0E0EF52FD4F80839091DE
:1033B000D0028091CF02981730F488E590E0909386
:1033C000F2028093F1028091F3029091F40280FD69
:1033D000CECF8091F3029091F40282609093F40238
:1033E0008093F30284EA79C083E090E09093F60240
:1033F0008093F50210926A0269C080916A0280325D
:1034000008F066C0E0916B02F0916C0280916A0254
:1034100091E0980F90936A029091DB00E80FF11D04
:10342000908354C00E94101920916A0280916B020F
:1034300090916C02203230F420916A02FC01E20F7C
:10344000F11D108260916A02E0911201F091130166
:10345000099580916B0290916C028D58924019F4FD
:103460008DE692E002C08DE892E090936C0280932A
:103470006B0210926A0237C084E090E09093F602EB
:103480008093F5021092AE021092AD02E091140109
:10349000F091150109958091AD02811105C081E07F
:1034A0008093AD021092AF02E091AE0281E08E0FE8
:1034B0008093AE02F0E0E155FD4F80818093DB0008
:1034C0009091AE028091AD02981710F485EC01C086
:1034D00085E88093DC0007C085EC8093DC001092C7
:1034E000F6021092F502FF91EF91BF91AF919F917B
:1034F0008F917F916F915F914F913F912F910F909D
:103500000FBE0F901F9018950F931F938B019C0176
:10351000672B682B692B71F48091DC008A7B809388
:10352000DC008FB7F89471988FBF8FB7F8947098BC
:103530008FBF43C08DE892E090936C0280936B0242
:103540001092F6021092F50281E090E09093F4025E
:103550008093F3028FB7F89469988FBF8FB7F89470
:1035600068988FBF4130510541F48FB7F894719A34
:103570008FBF8FB7F894709A8FBF8091D9008E7FDC
:103580008093D9008091D9008D7F8093D90060E02D
:103590007BE187EB90E0A90198010E94751DDA019B
:1035A000C9014097A109B109B695A7959795879547
:1035B0008093D80085E48093DC001F910F910895DB
:1035C00098EF980F903728F4982F990F9093DA007E
:1035D00008951092DA0082E099E1909315018093AA
:1035E000140183E099E1909313018093120180E02C
:1035F00008956132B0F42091F5023091F602243042
:10360000310589F46093AD02282FAFEAB2E0FC01E6
:103610008E2F821B861718F481918D93F9CF80E04D
:10362000089581E0089582E00895009711F483E001
:1036300099E190931301809312010895009711F47A
:1036400082E099E1909315018093140108958FB75A
:10365000F894259A8FBF8FB7F8942D9A8FBF8FB7A4
:10366000F89453988FBF8FB7F8945B9A8FBF8FB73A
:10367000F894529A8FBF8FB7F8945A9A8FBF8FB72A
:10368000F8943B9A8FBF8FB7F894439A8FBF8FB748
:10369000F894549A8FBF8FB7F8945C988FBF8FB708
:1036A000F894559A8FBF8FB7F8945D9A8FBF8FB7F4
:1036B000F8943A9A8FBF8FB7F89442988FBF8FB71C
:1036C000F894579A8FBF8FB7F8945F988FBF8FB7D2
:1036D000F894569A8FBF8FB7F8945E988FBF8FB7C4
:1036E000F894229A8FBF8FB7F8942A9A8FBF8FB71A
:1036F000F89420988FBF8FB7F894289A8FBF8FB710
:10370000F894239A8FBF8FB7F8942B988FBF80E3DC
:103710008093140310921603109201031092030376
:1037200010920803109206031092050310921703DB
:1037300010920F03109200031092190310920703C6
:1037400010927C0310927B0310921A030E9424149F
:1037500080E40E94C01380E00E94DB130E94621488
:103760006093AE037093AF038093B0039093B10363
:1037700042E060E970ED83E090E00E9406139093D0
:103780000B0480930A0490930D0480930C0489E247
:103790000E94BB188EE69AE00E94F91886E39AE030
:1037A0000E94F01840E050E060EA76E881E090E0A6
:1037B0000E9461168AE20E94E01A8AE59BE00E945C
:1037C0001E1B80EE9AE00E94151B40E050E060EA6C
:1037D00076E881E090E00E94841A78942FEB84EDE3
:1037E00091E0215080409040E1F700C000008FB789
:1037F000F8945F9A8FBF1092B20380E090E00E942D
:10380000E50C81E090E00E94E50C0E948E0B88237D
:1038100029F082E390E00E94902001C081E3809330
:1038200015030E94990E0E94C50F0E9462146093B6
:10383000DD037093DE038093DF039093E003109227
:10384000F90380E090E00E94AA1C81E090E00E94D1
:10385000AA1C82E090E00E94AA1C83E090E00E94F3
:10386000AA1C8091030388608093030308950E943B
:10387000271B0E94621460930B0370930C038093C8
:103880000D0390930E038091190381110AC00E94C9
:10389000FB000E9492010E9405020E94AB010E945F
:1038A000C4010E94630B0E94BF020E94A90B0E94E8
:1038B000360D0E94F00E0E94211D0E946B0D0E9489
:1038C00071100E94BE100E94EA0ADDCF853091057A
:1038D000A8F4880F991F880F991FFC01E650FC4F30
:1038E000408151816281738141505109610971099F
:1038F00081E04E3F5F4F6F4F7F4F08F080E00895AB
:103900008091F8038F77843018F490E00C94661C53
:1039100080E00895CF938091F80387FF18C0C0918D
:10392000F803F99914C0CF7724E0C29FC001112495
:10393000FC01E650FC4F40815181628173818E5AB7
:103940009F4F0E94B620C093F80381E001C080E041
:10395000CF9108950F931F93CF93DF9384309105F8
:1039600008F06AC0EC018C01000F111F000F111F3D
:10397000C8018E5A9F4F0E949820F801E650FC4FD4
:103980006083718382839383CE010E94661C8111C0
:1039900047C0209781F484EE98E3AEE8BAE38093C1
:1039A000FA039093FB03A093FC03B093FD03809173
:1039B000F9038F5F3FC0C130D10581F480E090E012
:1039C000A0E3BCE38093FE039093FF03A093000465
:1039D000B09301048091F9038E5F2CC0229781F48B
:1039E00086E996E9A6E9B9E380930204909303047B
:1039F000A0930404B09305048091F9038C5F1AC06E
:103A00008AE198E8AAEEBBE380930604909307044A
:103A1000A0930804B09309048091F903885F0AC059
:103A20002091F90381E090E001C0880FCA95EAF780
:103A3000809582238093F903DF91CF911F910F919D
:103A400008950F931F93CF93DF938091F903807FA5
:103A500099F18091F80387FF2FC08091F8038F7749
:103A6000082F10E0C1E0D0E002C0CC0FDD1F8A9526
:103A7000E2F78091F90382958F7090E0C817D9071B
:103A8000D9F40E94801C882381F00E948A1C88231C
:103A900099F08091F9038F708093F9038091F90375
:103AA000C095C823C093F90307C0C801DF91CF9127
:103AB0001F910F910C94AA1CDF91CF911F910F9130
:103AC000089597FB072E16F4009407D077FD09D0D0
:103AD0000E94971D07FC05D03EF4909581959F4F5D
:103AE0000895709561957F4F0895A1E21A2EAA1B43
:103AF000BB1BFD010DC0AA1FBB1FEE1FFF1FA2179E
:103B0000B307E407F50720F0A21BB30BE40BF50B9A
:103B1000661F771F881F991F1A9469F76095709523
:103B2000809590959B01AC01BD01CF010895AA1B22
:103B3000BB1B51E107C0AA1FBB1FA617B70710F098
:103B4000A61BB70B881F991F5A95A9F780959095CA
:103B5000BC01CD010895CF93DF93EC012B8120FFB1
:103B600033C026FF0AC02F7B2B838E819F81019655
:103B70009F838E838A8190E029C022FF0FC0E88155
:103B8000F9818081082E000C990B009719F42062AE
:103B90002B831AC03196F983E8830EC0EA85FB8532
:103BA000099597FF09C02B81019611F080E201C0B1
:103BB00080E1822B8B8308C02E813F812F5F3F4F96
:103BC0003F832E83992702C08FEF9FEFDF91CF9124
:103BD0000895A0E0B0E0EFEEFDE10C94E820AE0126
:103BE0004B5F5F4FFA0161917191AF0180910C04BD
:103BF00090910D040E94FF1DE2E00C940421ABE0C3
:103C0000B0E0E5E0FEE10C94D8206C017B018A0174
:103C1000FC0117821682838181FFCCC1CE010196FF
:103C20003C01F6019381F70193FD859193FF81910A
:103C30007F01882309F4BAC1853239F493FD859157
:103C400093FF81917F01853229F4B60190E00E94B3
:103C5000F61FE7CF912C212C312CFFE1F315D8F082
:103C60008B3279F038F4803279F08332A1F4232D4D
:103C700020611DC08D3261F0803369F4232D2160F5
:103C800016C0832D8260382EE32DE4603E2E2AC0BC
:103C9000F32DF8601DC037FC2DC020ED280F2A3011
:103CA00040F08E32B9F436FC81C1232D2064322ECF
:103CB00019C036FE06C08AE0989E200D1124922E6F
:103CC00011C0EAE02E9E200D1124222EF32DF06269
:103CD0003F2E08C08C3621F4832D8068382E02C018
:103CE000883641F4F70193FD859193FF81917F011F
:103CF0008111B3CF982F9F7D9554933028F40C5F9A
:103D00001F4F9FE399830DC0833631F0833771F0E5
:103D1000833509F059C021C0F801808189830E5F85
:103D20001F4F88248394912C530113C02801F2E083
:103D30004F0E511CF801A080B18036FE03C0692DE2
:103D400070E002C06FEF7FEFC5010E94EB1F4C01D6
:103D50008201F32DFF773F2E16C0280122E0420E8C
:103D6000511CF801A080B18036FE03C0692D70E0BF
:103D700002C06FEF7FEFC5010E94E01F4C01F32DE1
:103D8000F0683F2E820133FC1BC0822D90E0881624
:103D90009906B0F4B60180E290E00E94F61F2A94E2
:103DA000F4CFF50137FC859137FE81915F01B601B3
:103DB00090E00E94F61F21102A9421E0821A9108B7
:103DC0008114910471F7E8C0843611F0893641F509
:103DD000F80137FE07C060817181828193810C5F99
:103DE0001F4F08C060817181072E000C880B990B52
:103DF0000E5F1F4FF32DFF763F2E97FF09C0909562
:103E00008095709561957F4F8F4F9F4FF0683F2E43
:103E10002AE030E0A3010E943220882E861845C097
:103E2000853731F4232D2F7EB22E2AE030E025C0D5
:103E3000932D997FB92E8F36C1F018F4883579F01B
:103E4000B5C0803719F0883721F0B0C0E92FE061A4
:103E5000BE2EB4FE0DC0FB2DF460BF2E09C034FE93
:103E60000AC0292F2660B22E06C028E030E005C027
:103E700020E130E002C020E132E0F801B7FE07C0E7
:103E800060817181828193810C5F1F4F06C06081C8
:103E9000718180E090E00E5F1F4FA3010E943220ED
:103EA000882E8618FB2DFF773F2E36FE0DC0232D62
:103EB0002E7FA22E891458F434FE0BC032FC09C0A8
:103EC000832D8E7EA82E05C0B82CA32C03C0B82C41
:103ED00001C0B92CA4FE0FC0FE01E80DF11D8081C8
:103EE000803321F49A2D997EA92E09C0A2FE06C026
:103EF000B394B39404C08A2D867809F0B394A3FCDC
:103F000011C0A0FE06C0B21488F4280C922C9B1895
:103F10000EC0B21460F4B60180E290E00E94F61F79
:103F2000B394F7CFB21418F42B1802C0982C212C9C
:103F3000A4FE10C0B60180E390E00E94F61FA2FE2E
:103F400017C0A1FC03C088E790E002C088E590E0BC
:103F5000B6010CC08A2D867859F0A1FE02C08BE212
:103F600001C080E2A7FC8DE2B60190E00E94F61F3E
:103F7000891438F4B60180E390E00E94F61F9A9409
:103F8000F7CF8A94F301E80DF11D8081B60190E02E
:103F90000E94F61F8110F5CF222009F442CEB6010F
:103FA00080E290E00E94F61F2A94F6CFF601868107
:103FB000978102C08FEF9FEF2B96E2E10C94F420E3
:103FC000FC010590615070400110D8F780959095E4
:103FD0008E0F9F1F0895FC016150704001900110E9
:103FE000D8F7809590958E0F9F1F08950F931F937C
:103FF000CF93DF93FB01238121FD03C08FEF9FEF60
:104000002CC022FF16C0468157812481358142177A
:10401000530744F4A081B1819D012F5F3F4F31834D
:1040200020838C93268137812F5F3F4F37832683F0
:1040300014C08B01EC01FB010084F185E02D099592
:10404000892BE1F6D80116968D919C9117970196D0
:1040500017969C938E931697CE01DF91CF911F9167
:104060000F910895FA01AA27283051F1203181F1EA
:10407000E8946F936E7F6E5F7F4F8F4F9F4FAF4F70
:10408000B1E03ED0B4E03CD0670F781F891F9A1F83
:10409000A11D680F791F8A1F911DA11D6A0F711D37
:1040A000811D911DA11D20D009F468943F912AE043
:1040B000269F11243019305D3193DEF6CF0108952B
:1040C000462F4770405D4193B3E00FD0C9F7F6CF5C
:1040D000462F4F70405D4A3318F0495D31FD405224
:1040E000419302D0A9F7EACFB4E0A69597958795BA
:1040F00077956795BA95C9F7009761057105089599
:104100009B01AC010A2E0694579547953795279544
:10411000BA95C9F7620F731F841F951FA01D0895DC
:10412000F999FECF92BD81BDF89A992780B508957F
:10413000A6E1B0E044E050E00C94CA20A8E1B0E071
:1041400042E050E00C94CA20262FF999FECF92BD90
:1041500081BDF89A019700B4021639F01FBA20BD4C
:104160000FB6F894FA9AF99A0FBE08950396272F7E
:104170000E94A5200E94A420252F0E94A520242F64
:104180000C94A5200196272F0E94A5200C94A42012
:10419000DC01CB01FC01F999FECF06C0F2BDE1BD07
:1041A000F89A319600B40D9241505040B8F70895F6
:1041B0002F923F924F925F926F927F928F929F9237
:1041C000AF92BF92CF92DF92EF92FF920F931F9325
:1041D000CF93DF93CDB7DEB7CA1BDB0B0FB6F894D6
:1041E000DEBF0FBECDBF09942A88398848885F8416
:1041F0006E847D848C849B84AA84B984C884DF8087
:10420000EE80FD800C811B81AA81B981CE0FD11D6A
:104210000FB6F894DEBF0FBECDBFED010895F89440
:02422000FFCFCE
:1042220000000003000000005212E0120000F0142F
:10423200EF1403190219256325630037088906D490
:104242000489060F088906090789068A068906E194
:1042520004F7040D051B0531054705DD06460789F0
:1042620006890655058906A6058906E60838099FC6
:1042720007B009FF054406FB068906000001000697
:104282000007007C0A8906D40489060F08890609FA
:104292000789068A068906E104F7040D051B053124
:1042A200054705DD0646078906890655058906A6DE
:1042B200058906E60838099F07B009FF054406FB91
:0442C2000689060063
:00000001FF
