:100000000C945D000C947A000C947A000C947A00A5
:100010000C947A000C947A000C947A000C947A0078
:100020000C947A000C947A000C947A000C947A0068
:100030000C947A000C947A000C947A000C947A0058
:100040000C9489120C947A000C9489180C94BE18A4
:100050000C947A000C94F9110C947A000C947A00A8
:100060000C9486130C947A000C947A000C947A0009
:100070000C947A000C947A000C947A000C947A0018
:100080000C947A000C947A000C947A000C947A0008
:100090000C947A000C947A000C947A000C947A00F8
:1000A0000C941C150C947A000C947A000C947A0031
:1000B0000C947A0052505569640011241FBECFEF92
:1000C000D8E0DEBFCDBF11E0A0E0B1E0EEE9FAE399
:1000D00002C005900D92AC3AB107D9F723E0ACEA23
:1000E000B1E001C01D92A93EB207E1F70E9450178E
:1000F0000C944D1D0C940000809107038823C1F0DF
:100100008FB7F89443988FBF8FB7F8945C988FBFE0
:1001100080910603882321F08FB7F8945D9A03C07D
:100120008FB7F8945D988FBF8FB7F894429A17C035
:100130008FB7F894439A8FBF8FB7F8945C988FBFAE
:1001400080910603882321F08FB7F8945D9A03C04D
:100150008FB7F8945D988FBF8FB7F89442988FBF90
:10016000089580910703882381F08FB7F89443980E
:100170008FBF8FB7F8945C988FBF8FB7F8945D9A54
:100180008FBF8FB7F894429A0FC08FB7F894439AF5
:100190008FBF8FB7F8945C988FBF8FB7F8945D9A34
:1001A0008FBF8FB7F89442988FBF0895809107034F
:1001B000882381F08FB7F89443988FBF8FB7F89456
:1001C0005C9A8FBF8FB7F8945D988FBF8FB7F89404
:1001D000429A0FC08FB7F894439A8FBF8FB7F894A5
:1001E0005C9A8FBF8FB7F8945D988FBF8FB7F894E4
:1001F00042988FBF08950F931F938091030381113D
:10020000A6C00E94D3120091080310910903209107
:100210000A0330910B03DC01CB01801B910BA20B75
:10022000B30B20910003277F09F06DC020910703D5
:10023000222321F0B695A795979587952091FF02E7
:100240002223E9F08C349105A105B105C0F0259B6E
:1002500009C093B18FB7F89495FD02C02D9A01C0E3
:100260002D988FBF8091080390910903A0910A03F4
:10027000B0910B03855B9F4FAF4FBF4F60C0209184
:10028000FE022223F1F0813D27E09207A105B1058E
:10029000C0F0259B09C093B18FB7F89495FD02C0BB
:1002A0002D9A01C02D988FBF80910803909109036A
:1002B000A0910A03B0910B038053984FAF4FBF4FEB
:1002C0003EC020911303222309F441C0853F914091
:1002D000A105B105E0F1259B09C093B18FB7F89452
:1002E00095FD02C02D9A01C02D988FBF8091080303
:1002F00090910903A0910A03B0910B038C509E4F7B
:10030000AF4FBF4F1CC0893C9105A105B105F8F066
:10031000259B09C093B18FB7F89495FD02C02D9A23
:1003200001C02D988FBF8091080390910903A0917F
:100330000A03B0910B0388539F4FAF4FBF4F809379
:10034000080390930903A0930A03B0930B031F9132
:100350000F9108950F931F938091FF02882301F15D
:100360000E94D31220910C0321111AC00091F502B2
:100370001091F6022091F7023091F802DC01CB01D6
:10038000801B910BA20BB30B8933914CA140B1059B
:1003900038F00E947C0081E0809313031092FF02EA
:1003A0001F910F9108950F931F930E94D3122091D4
:1003B0000C0321111EC02091FE022223D1F00091D6
:1003C000F9021091FA022091FB023091FC02DC014B
:1003D000CB01801B910BA20BB30B813C944DA14030
:1003E000B10538F00E947C0081E0809313031092E5
:1003F000FE021F910F9108950F931F9380910203A6
:10040000882319F10E94D31200910D0310910E035D
:1004100020910F0330911003DC01CB01801B910B65
:10042000A20BB30B893E9340A105B10598F18FB79C
:10043000F89420988FBF8FB7F894289A8FBF1092A6
:10044000020381E08093030325C08091030381119F
:1004500021C018991FC08FB7F894209A8FBF8FB70B
:10046000F89428988FBF8FB7F894259A8FBF8FB7CD
:10047000F8942D9A8FBF1092030381E080930203BA
:100480000E94D31260930D0370930E0380930F03A9
:10049000909310031F910F9108958091070381118C
:1004A000B5C04B9956C08091000383FDAFC04A9BF5
:1004B00005C08FB7F8945A988FBF08958091FF02B6
:1004C0008111A4C08091FE028111A0C0809113030C
:1004D00081119CC080911503811198C00E94D31294
:1004E00060931A0370931B0380931C0390931D0366
:1004F00080911103809317032091170390911703A4
:100500004091170330E0209530952A70332764E03E
:10051000220F331F6A95E1F7892F90E0809590951F
:100520008075992774E0959587957A95E1F7822BE8
:10053000932B9F938F931F924F9386E191E09F930C
:100540008F930E94271A81E0809315038093010303
:1005500057C080911303882309F458C08091010388
:10056000882309F453C08091150381114FC08091F5
:10057000FF0281114BC08091FE02811147C00E9491
:10058000D31260931A0370931B0380931C03909300
:100590001D038FEC8093170320911703909117038D
:1005A0004091170330E0209530952A70332784E07E
:1005B000220F331F8A95E1F7892F90E0809590955F
:1005C0008075992754E0959587955A95E1F7822B88
:1005D000932B9F938F931F924F9386E191E09F936C
:1005E0008F930E94271A81E0809315038FB7F894A8
:1005F0002D9A8FBF109201038FB7F8945A9A8FBF2C
:100600000F900F900F900F900F900F9008954F92B2
:100610005F926F927F928F929F92AF92BF92CF9292
:10062000DF92EF92FF920F931F93CF93DF930E947D
:10063000D312209115032223D9F040901A03509031
:100640001B0360901C0370901D03DC01CB01841917
:100650009509A609B709853F9140A105B10540F06C
:100660008091000381708093000310921503F0C104
:100670000E94EA18892B09F4EBC18091E303909161
:10068000E4030E94E91960911803262F30E02095B9
:100690003095A9014A70552774E0440F551F7A958B
:1006A000E1F720753327E4E035952795EA95E1F7E2
:1006B000242B352BAC0155272417350739F410921C
:1006C000180380911503811104C00FC08093180393
:1006D000BFC180911703681729F0809100038470CF
:1006E000809300031092150304C0809101038823B6
:1006F00019F01092070303C081E080930703611192
:1007000027C00E94D312DC01CB01805C944DA14034
:10071000B1098093F9029093FA02A093FB02B0937F
:10072000FC020E94D312DC01CB018853914CA14002
:10073000B1098093F5029093F602A093F702B0936B
:10074000F8028FB7F8942D988FBF10920C0359C1FF
:100750006F3F31F41092140381E080930C0378C151
:10076000613009F06FC0F9B1E9B156B149B139B1A1
:1007700089B129B176B190E0880F892F881F990B34
:10078000880F991F880F991F73FB992790F9892B60
:10079000F3FBAA24A0F8B12CB694BA2CAA24B794DF
:1007A000A794A82AE2FBCC24C0F8D12CD6E0CC0C2C
:1007B000DD1CDA95E1F7CA2852FBEE24E0F8F12CB3
:1007C00015E0EE0CFF1C1A95E1F7EC2845FB00271D
:1007D00000F910E084E0000F111F8A95E1F70E295F
:1007E00036FB332730F9C32F80E0D82F93E0CC0FAE
:1007F000DD1F9A95E1F7C02B24FB882480F8912C0B
:10080000880C991C8C2A809204038FB7F8942B983B
:100810008FBF8FB7F894429A8FBF8FB7F8945D98C7
:100820008FBF8FB7F8945F988FBF8FB7F8945C9A9B
:100830008FBF8FB7F89443988FBF1092FD026093DB
:10084000160306C16E3F09F076C080910403881F2D
:100850008827881F9FB7F894882311F05B9A01C0FE
:100860005B989FBF8091040386FB882780F99FB720
:10087000F894882311F05A9A01C05A989FBF80912A
:10088000040385FB882780F99FB7F894882311F02B
:10089000429A01C042989FBF809104038295817063
:1008A0009FB7F894882311F05D9A01C05D989FBFAF
:1008B0008091040383FB882780F99FB7F8948823ED
:1008C00011F05E9A01C05E989FBF8FB7F894599A55
:1008D0008FBF8FB7F89451988FBF8091C100886106
:1008E0008093C1008091040382FB882780F99FB721
:1008F000F894882311F05F9A01C05F989FBF8091A0
:100900000403869581709FB7F894882311F05C9A50
:1009100001C05C989FBF8091040381709FB7F894D9
:10092000882311F0439A01C043989FBF1092FD02A3
:10093000109216038DC08091120368134DC08091F0
:100940001903811114C00E94B1008FB7F8942A983E
:100950008FBF0E94D31260931E0370931F03809376
:1009600020039093210381E08093190371C00E94BA
:10097000D31200911E0310911F0320912003309188
:100980002103DC01CB01801B910BA20BB30B44971D
:10099000A105B10508F45CC08FB7F8942A9A8FBFFF
:1009A0001092190381E08093FF02109206030E94C7
:1009B000D312609308037093090380930A03909302
:1009C0000B030E94D3126093F5027093F60280939A
:1009D000F7029093F8023CC067FD1EC081E080934F
:1009E000FE021092FF02109213030E94D6000E9492
:1009F000D3126093F9027093FA028093FB029093F2
:100A0000FC020E94D3126093080370930903809341
:100A10000A0390930B031CC0109207031092FE026E
:100A2000109213031092FF028FB7F8942D9A8FBF84
:100A30008FB7F89443988FBF8FB7F8945C9A8FBFA5
:100A40008FB7F8945D988FBF8FB7F894429A8FBF95
:100A5000DF91CF911F910F91FF90EF90DF90CF909A
:100A6000BF90AF909F908F907F906F905F904F90CE
:100A7000089520911103FC0121830895FC018181D7
:100A800080931103089520910303FC0121831092A8
:100A900003030895FC01809100038F7081831B9BE9
:100AA00002C0805F8183199B03C08181805E818346
:100AB0008091B603873019F48181805C8183089529
:100AC000FC01818184FF0BC081E080939B03109225
:100AD000A0031092A1031092A2031092A30381819C
:100AE00085FF0CC080910203811108C0809103032F
:100AF000811104C08FB7F894299A8FBF818186FD38
:100B00001092B6038F7080930003089520910C0318
:100B1000FC0121830895FC018091A7039091A80313
:100B2000218130E0322F222791839281290F311DBC
:100B300082833093A8032093A70383E08093A603C6
:100B40000895FC018091A4039091A503218130E0D8
:100B5000322F222791839281290F311D8283309376
:100B6000A5032093A40382E08093A6030895FC01CB
:100B70008091A0039091A1032091A2033091A3033F
:100B800031832283938384830895FC018091AD0394
:100B90009091AE03218130E0322F22279183928100
:100BA000290F311D82833093AE032093AD0382E081
:100BB0008093AF030895FC018091B0039091B1033D
:100BC000218130E0322F222791839281290F311D1C
:100BD00082833093B1032093B00383E08093AF030B
:100BE0000895CF92DF92EF92FF92CF93FC01918113
:100BF000A92FAF77A23028F08AEF8A0F823008F051
:100C000055C09093E103B0E0A55ABE4F2C9184E00B
:100C1000289FB0011124DB01AF52BC4FCD90DD9075
:100C2000ED90FC90C114D104E104F10421F4CC2432
:100C3000CA94DC2C76018281F2824381E382348182
:100C4000D482C581C58297FF38C0FB01EF52FC4FAB
:100C500090E0A0E0B0E0B82FAA279927882750E0BD
:100C600060E070E0BA0155274427840F951FA61F46
:100C7000B71F8C0F911DA11DB11D432F50E060E0E7
:100C800070E0762F652F542F4427840F951FA61FE1
:100C9000B71F80839183A283B38380E190E001C07A
:100CA000880F2A95EAF78093D00307C08FE78183E6
:100CB0008FEF8283838384838583CF91FF90EF902E
:100CC000DF90CF9008950F931F93FC01018110E0F6
:100CD00020E030E0302F2227112700279281492F72
:100CE00050E060E070E0BA0155274427400F511FE3
:100CF000621F731F84818A019B01080F111D211D32
:100D0000311D438150E060E070E0762F652F542F55
:100D10004427400F511F621F731F41155105610584
:100D2000710549F48091860390918703209188038F
:100D30003091890312C0463051056105710549F4AF
:100D400080918A0390918B0320918C0330918D03C5
:100D500004C080E090E020E030E031832283938380
:100D600084831F910F9108950F931F93CF93DF9367
:100D7000FC01C0919303D0919403809195039091CD
:100D80009603418150E060E070E0342F2227112764
:100D900000279183428150E060E070E0BA0155275E
:100DA0004427400F511F621F731F8283838190E08D
:100DB000A0E0B0E0BA2FA92F982F8827D3832481F1
:100DC000420F511D611D711DC483840F951FA61F05
:100DD000B71F8093930390939403A0939503B093CC
:100DE000960382E080939203DF91CF911F910F9140
:100DF00008950F931F93CF93DF93FC01C091970346
:100E0000D09198038091990390919A03418150E089
:100E100060E070E0342F2227112700279183428160
:100E200050E060E070E0BA0155274427400F511FA1
:100E3000621F731F8283838190E0A0E0B0E0BA2F2D
:100E4000A92F982F8827D3832481420F511D611D1C
:100E5000711DC483840F951FA61FB71F809397032E
:100E600090939803A0939903B0939A0383E080939F
:100E70009203DF91CF911F910F9108950F931F93CC
:100E8000CF93DF93FC01C091B203D091B303809163
:100E9000B4039091B503418150E060E070E0342FDD
:100EA0002227112700279183428150E060E070E003
:100EB000BA0155274427400F511F621F731F8283B9
:100EC000838190E0A0E0B0E0BA2FA92F982F882767
:100ED000D3832481420F511D611D711DC483840F72
:100EE000951FA61FB71F8093B2039093B303A093DF
:100EF000B403B093B50384E08093AF03DF91CF9147
:100F00001F910F9108950F931F93CF93DF93FC01CF
:100F1000C091A903D091AA038091AB039091AC0337
:100F2000418150E060E070E0342F22271127002734
:100F30009183428150E060E070E0BA015527442778
:100F4000400F511F621F731F8283838190E0A0E0D6
:100F5000B0E0BA2FA92F982F8827D3832481420F7E
:100F6000511D611D711DC483840F951FA61FB71FDE
:100F70008093A9039093AA03A093AB03B093AC030F
:100F800085E08093AF03DF91CF911F910F9108957A
:100F900008950F931F93CF93DF93EC010E94D31218
:100FA0000091B8031091B9032091BA033091BB03AB
:100FB000DC01CB01801B910BA20BB30BB983AA837D
:100FC0009B838C83DF91CF911F910F910895CF93D5
:100FD000DF93EC01898190E0982F88272A81820F86
:100FE000911D8230910530F09C012650310922304C
:100FF000310518F40E94CD1102C080E090E0998381
:101000008A83DF91CF910895FC01818184FD109244
:10101000B7039091B60385FF05C08091B703890F90
:1010200081830895918308957F928F929F92AF92CA
:10103000BF92CF92DF92EF92FF920F931F93CF93C5
:10104000DF93E0911603EE2309F455C0E9B1B9B17D
:10105000F6B179B0A9B009B1B9B0C6B110E0000FCE
:10106000012F001F110B000F111F000F111FC3FBD9
:10107000CC27C0F9AC2FA02BE3FB882480F8912C5F
:10108000E401D695DC2FCC27D795C795CA2BB2FBA8
:10109000CC24C0F8D12CD60156E0AA0FBB1F5A951C
:1010A000E1F7AC2BF2FBEE24E0F8F12CF70165E060
:1010B000EE0FFF1F6A95E1F7EA2B75FA662760F9D4
:1010C00070E0F4E0660F771FFA95E1F76E2BA6FA51
:1010D000442740F950E0A3E0440F551FAA95E1F7DB
:1010E000462BB4FA222720F930E0220F331F242B9D
:1010F000FC01218302C0FC011182DF91CF911F917D
:101100000F91FF90EF90DF90CF90BF90AF909F90A6
:101110008F907F900895CF93DF93FC018091160309
:10112000882309F46EC08181881F8827881F9FB794
:10113000F894882311F05B9A01C05B989FBF81816E
:1011400086FB882780F9C82F80E0D82F8FB7F894C6
:10115000CD2B11F05A9A01C05A988FBF818185FB1F
:10116000AA27A0F9B0E08FB7F894AB2B11F0429A00
:1011700001C042988FBF818184FB662760F970E0CF
:101180008FB7F894672B11F05D9A01C05D988FBFFF
:10119000818183FB442740F950E08FB7F894452BB9
:1011A00011F05E9A01C05E988FBF818182FF11C0ED
:1011B0008091C100877E8093C1008FB7F894519AC7
:1011C0008FBF8FB7F89459988FBF8FB7F8945F9AF5
:1011D0008FBF818181FB222720F930E08FB7F894FF
:1011E000232B11F05C9A01C05C988FBF81818170C4
:1011F0009FB7F894882311F0439A01C043989FBF8A
:1012000001C01182DF91CF910895FC01818181306D
:10121000F1F49FB7F894209A9FBF9FB7F89428984D
:101220009FBF9FB7F894259A9FBF9FB7F8942D9AB8
:101230009FBF80930203109203030E94D312609316
:101240000D0370930E0380930F0390931003089582
:10125000CF93FC01918180911203818380ED890FEE
:101260008B3430F49093120381E0809305039DC08A
:10127000C1E0C0930603809101038823B1F10E946D
:10128000D31260931A0370931B0380931C039093F3
:101290001D0310921703209117039091170340919B
:1012A000170330E0209530952A70332764E0220F31
:1012B000331F6A95E1F7892F90E0809590958075AE
:1012C000992774E0959587957A95E1F7822B932B72
:1012D0009F938F931F924F9386E191E09F938F93FB
:1012E0000E94271AC093150339C08091FF028823FA
:1012F000E1F10E94D31260931A0370931B03809351
:101300001C0390931D0310921703209117039091D3
:1013100017034091170330E0209530952A7033274A
:1013200084E0220F331F8A95E1F7892F90E08095A2
:1013300090958075992754E0959587955A95E1F792
:10134000822B932B9F938F931F924F9386E191E073
:101350009F938F930E94271A109215030F900F905E
:101360000F900F900F900F9020C00E94D312DC01BD
:10137000CB01805C944DA140B1098093F902909318
:10138000FA02A093FB02B093FC020E94D312DC018C
:10139000CB018853914CA140B1098093F502909301
:1013A000F602A093F702B093F802CF910895CF937D
:1013B000FC01C181C13009F045C020911403211105
:1013C00041C00E94D31260931A0370931B03809351
:1013D0001C0390931D038FEF809317032091170335
:1013E000909117034091170330E0209530952A70B3
:1013F000332784E0220F331F8A95E1F7892F90E08D
:10140000809590958075992754E0959587955A9584
:10141000E1F7822B932B9F938F931F924F9386E13B
:1014200091E09F938F930E94271AC0931503C09356
:10143000140310920C030F900F900F900F900F90C9
:101440000F9002C0FC011182CF910895CF93FC014F
:10145000C181C13009F048C08091FD02811142C0B4
:101460008091160381113EC00E94D31260931A032B
:1014700070931B0380931C0390931D03C093170369
:1014800020911703909117034091170330E02095A6
:1014900030952A70332784E0220F331F8A95E1F7B5
:1014A000892F90E0809590958075992754E09595C7
:1014B00087955A95E1F7822B932B9F938F931F92D9
:1014C0004F9386E191E09F938F930E94271AC093D8
:1014D0001503C093FD020F900F900F900F900F9087
:1014E0000F9004C082E001C083E08183CF91089512
:1014F0001F93CF93DF93EC011981113009F061C084
:101500008091FD0281115DC080911603882309F44A
:1015100058C08FB7F894599A8FBF8FB7F8945198E5
:101520008FBF8091C10088618093C1008FB7F8940C
:101530005F9A8FBF8FB7F8945E988FBF0E94D312C7
:1015400060931A0370931B0380931C0390931D03F5
:101550008EEF8093170320911703809117039091CA
:10156000170330E0209530952A703327A90124E035
:10157000440F551F2A95E1F7282F30E0209530952C
:101580002075332764E0359527956A95E1F7242B7C
:10159000352B3F932F931F929F9386E191E09F936A
:1015A0008F930E94271A109315031093FD028091C8
:1015B000040389830F900F900F900F900F900F905E
:1015C00001C01982DF91CF911F910895AC0190E085
:1015D000292F30E02617370754F4FA01E20FF31FE2
:1015E0008081F901EE5DFC4F80839F5FF1CF9032E7
:1015F00020F4F901EE5DFC4F11826093AC01623082
:1016000010F48FEF0DC080912203E82FE295EF7068
:10161000E43010F08EEF04C08F70883020F08DEF32
:1016200080932203089598E0E99FF0011124E80FC8
:10163000F11DEE0FFF1FE55EFE4F0190F081E02DE2
:1016400082E293E009946091AC0182E293E00E940F
:101650005313882329F08091000382708093000344
:101660000895FC01918180911203818380ED890F9F
:101670008B3428F49093120381E08093050308953E
:101680009093630380936203709365036093640394
:10169000089520916403309165032115310509F403
:1016A0006BC01092650310926403E0916203F091A5
:1016B00063032130310511F040E023C09081809117
:1016C0004203981359C08091AD01811155C080919A
:1016D000AF01A2E4B3E0E6E6F3E090E0981721F072
:1016E0002D9121939F5FFACF803228F4E82FF0E00C
:1016F000EA59FC4F11828093AE0181E08093AD01E5
:101700000895842F90E08217930754F4DF01A80F07
:10171000B91F5C91DC01AE5BBC4F5C934F5FF1CFB6
:10172000403220F4FC01EE5BFC4F11822093AF01AC
:10173000211102C08FEF0DC080914203E82FE29586
:10174000EF70E43010F08EEF04C08F70883020F01E
:101750008DEF80934203089598E0E99FF0011124F2
:10176000E80FF11DEE0FFF1FED59FE4F0190F081C4
:10177000E02D82E493E0099408956091AE0186E63D
:1017800093E00E94E9141092AD010895CF938091E7
:101790000503882321F1F99922C09FEF980F9A3011
:1017A00090F490E0FC01ED54FF4FC4916C2F8796AC
:1017B0000E94E21CC11102C08BE003C080910503AE
:1017C0008F5F80930503809105038B3041F4609116
:1017D000120382E390E00E94E21C10920503CF9175
:1017E00008951F93CF93DF93C8E2D0E0FE01E45742
:1017F000FF4F1491CE010E94CE1C181306C0112376
:1018000031F02196C233D10589F780E001C081E033
:10181000DF91CF911F9108950F931F930E94D312D0
:1018200000918E0310918F032091900330919103CA
:10183000DC01CB01801B910BA20BB30B0B97A10515
:10184000B10508F44CC080E00E94CD11092E000CB7
:10185000AA0BBB0B409186035091870360918803CC
:1018600070918903840F951FA61FB71F809386036D
:1018700090938703A0938803B093890386E00E9426
:10188000CD11092E000CAA0BBB0B40918A0350917D
:101890008B0360918C0370918D03840F951FA61F9D
:1018A000B71F80938A0390938B03A0938C03B0930C
:1018B0008D0380E00E94761280918E0390918F03B9
:1018C000A0919003B09191030A96A11DB11D809340
:1018D0008E0390938F03A0939003B09391031F9175
:1018E0000F910895CF92DF92EF92FF92C0909303F1
:1018F000D0909403E0909503F090960320E030E0C0
:1019000040E950E4C701B6010E94E419181664F4D6
:1019100020E030E040EB50E4C701B6010E94BB1963
:10192000881F8827881F01C080E0FF90EF90DF901C
:10193000CF900895CF92DF92EF92FF92C0909703DD
:10194000D0909803E0909903F0909A0326E636E64B
:1019500046E65FE3C701B6010E94E419181664F475
:1019600026E636E646EA5FE3C701B6010E94BB19E8
:10197000881F8827881F01C080E0FF90EF90DF90CC
:10198000CF9008958EE190E00E94DC1CF9990AC086
:101990008434914449F064E471E48EE190E00E9463
:1019A000001D02C080E0089581E0089580E290E08B
:1019B0000E94D61CDC01CB01F99912C0409193031F
:1019C0005091940360919503709196038417950745
:1019D000A607B70739F080E290E00E94F41C02C02D
:1019E00080E0089581E0089584E290E00E94D61C92
:1019F000DC01CB01F99912C04091970350919803F3
:101A00006091990370919A0384179507A607B70709
:101A100039F084E290E00E94F41C02C080E0089556
:101A200081E008958EE190E00E94DC1C84349144B2
:101A300081F580E290E00E94D61C6093930370933E
:101A4000940380939503909396030E94720C8823CD
:101A500001F184E290E00E94D61C6093970370939A
:101A600098038093990390939A030E949A0C811192
:101A70000CC081E79DE3AAE8BFE3809397039093AE
:101A80009803A0939903B0939A031092920381E074
:101A9000089580E090E0A0EAB0E4809393039093EF
:101AA0009403A0939503B093960381E79DE3AAE87E
:101AB000BFE38093970390939803A0939903B09307
:101AC0009A0381E08093920380E00895CF93C091C0
:101AD0009203C23038F10E94720C882301F10E94F7
:101AE0009A0C8823E1F08EE190E00E94DC1C8434A3
:101AF000914419F0CF910C94C20CC33039F40E9478
:101B0000F40C882319F0109292030CC08091920378
:101B1000823041F40E94D60C8111F5CF03C0CF91E1
:101B20000C94120DCF910895AF92BF92CF92DF9295
:101B3000EF92FF920F931F93CF93DF9380919B03BC
:101B4000882309F4D1C087E00E94CD117C01C091A7
:101B5000A403D091A5038C179D074CF01B9BC8C014
:101B60008FB7F8942B988FBF10929B03C1C08091C0
:101B7000A7039091A803C81BD90BD595C7950E94C0
:101B8000D31200919C0310919D0320919E033091EC
:101B90009F035B016C01A01AB10AC20AD30A960125
:101BA00085018091A7039091A8038C0F9D1FE816D3
:101BB000F9060CF05BC01B9B39C08091A403909187
:101BC000A5038E199F09BE010E94711940ED57E0CF
:101BD000649FC001659F900D749F900D1124092E84
:101BE000000CAA0BBB0B8A0D9B1DAC1DBD1D813DBE
:101BF0009740A105B10508F47BC08FB7F8942B98E6
:101C00008FBF8091A0039091A103A091A203B091F6
:101C1000A303080F191F2A1F3B1F0093A003109353
:101C2000A1032093A2033093A30362C081EDA81601
:101C300087E0B806C104D10408F45AC08FB7F894FD
:101C40002B9A8FBF41EAA4164FE0B406C104D10419
:101C500058F580919C0390919D03A0919E03B091B3
:101C60009F038053984FAF4FBF4F35C01B9B0AC097
:101C700006501F4F2F4F3F4F0131174221053105AD
:101C8000B8F132C041E1A41647E2B406C104D10460
:101C900078F18FB7F8942B9A8FBF81E2A8168EE463
:101CA000B806C104D10458F00E94D31260939C037B
:101CB00070939D0380939E0390939F0319C080911E
:101CC0009C0390919D03A0919E03B0919F03805F20
:101CD000984DAF4FBF4F80939C0390939D03A0936B
:101CE0009E03B0939F0304C08FB7F8942B988FBFC7
:101CF000DF91CF911F910F91FF90EF90DF90CF90E8
:101D0000BF90AF900895FC01208131812B54314068
:101D100081E02738310508F080E00895FC0120813A
:101D200031812E53314081E02636310508F080E0C4
:101D30000895FC01208131812559324081E02F3006
:101D4000314008F080E00895FC01208131812C575A
:101D5000324081E02B3C310508F080E008958CE3AF
:101D600090E00E94DC1CF9990CC06091A403709172
:101D7000A5038617970739F08CE390E00E94001DB9
:101D800002C080E0089581E008958EE390E00E9413
:101D9000DC1CF9990CC06091A7037091A803861709
:101DA000970739F08EE390E00E94001D02C080E0AA
:101DB000089581E00895EF92FF920F931F93CF93C0
:101DC000DF9300D000D0CDB7DEB78CE390E00E9467
:101DD000DC1C7C019C838B838EE390E00E94DC1CE6
:101DE0008C019A838983CE0103960E94830E811110
:101DF00006C0CE0103960E94990E8823C1F0CE0141
:101E000001960E948E0E811106C0CE0101960E949D
:101E1000A40E882361F0F092A503E092A40310932E
:101E2000A8030093A7031092A60381E010C08DE8D9
:101E300091E09093A5038093A40386E791E09093AB
:101E4000A8038093A70381E08093A60380E00F900E
:101E50000F900F900F90DF91CF911F910F91FF90F6
:101E6000EF9008958091A603823058F1823099F462
:101E700084EA93E00E94830E811106C084EA93E015
:101E80000E94990E882339F00E94AF0E882319F022
:101E90001092A60308958091A603833081F487EA07
:101EA00093E00E948E0E811106C087EA93E00E94A3
:101EB000A40E882321F00E94C50E8111E9CF0C9455
:101EC000DB0E0895FC01208131812B53310981E023
:101ED0002539310508F080E00895FC012081318129
:101EE0002951310981E02035310508F080E008955D
:101EF000FC01208131812657310981E029323140AE
:101F000008F080E00895FC012081318122533109DD
:101F100081E02E39310508F080E00895FC01408110
:101F200051816281738140545F416109710981E08F
:101F300041345F4C6643710508F080E0089586E403
:101F400090E00E94DC1CF9990CC06091AD03709187
:101F5000AE038617970739F086E490E00E94001DD3
:101F600002C080E0089581E0089588E490E00E9436
:101F7000DC1CF9990CC06091B0037091B103861715
:101F8000970739F088E490E00E94001D02C080E0CD
:101F9000089581E008958AE490E00E94D61CDC0157
:101FA000CB01F99912C04091B2035091B3036091F3
:101FB000B4037091B50384179507A607B70739F0E6
:101FC0008AE490E00E94F41C02C080E0089581E061
:101FD00008958EE490E00E94D61CDC01CB01F999B3
:101FE00012C04091A9035091AA036091AB03709174
:101FF000AC0384179507A607B70739F08EE490E085
:102000000E94F41C02C080E0089581E00895CF9200
:10201000DF92EF92FF921F93CF93DF93CDB7DEB79E
:102020002C970FB6F894DEBF0FBECDBF86E490E0CC
:102030000E94DC1C7C019C878B87CE010B960E9442
:10204000620F811106C0CE010B960E94780F882383
:1020500031F0F092AE03E092AD0310E001C011E068
:1020600088E490E00E94DC1C7C019A878987CE017D
:1020700009960E946D0F811106C0CE0109960E943B
:10208000830F882329F0F092B103E092B00301C0DE
:1020900011E08AE490E00E94D61C6B017C016D8304
:1020A0007E838F839887CE0105960E948E0F8823AA
:1020B00049F0C092B203D092B303E092B403F0921D
:1020C000B50301C011E08EE490E00E94D61C6B01C4
:1020D0007C0169837A838B839C83CE0101960E9465
:1020E0008E0F811125C080E590E09093AE03809320
:1020F000AD0388E290E09093B1038093B00380E851
:102100009FE4A2E1B0E08093B2039093B303A09365
:10211000B403B093B5038093A9039093AA03A0934B
:10212000AB03B093AC0381E08093AF0380E00DC0BC
:10213000C092A903D092AA03E092AB03F092AC0341
:102140001111D1CF1092AF0381E02C960FB6F89405
:10215000DEBF0FBECDBFDF91CF911F91FF90EF90FB
:10216000DF90CF9008958091AF03823008F447C08C
:10217000823099F48DEA93E00E94620F811106C0CB
:102180008DEA93E00E94780F882339F00E949F0F18
:10219000882319F01092AF0308958091AF03833024
:1021A00081F480EB93E00E946D0F811106C080EBFB
:1021B00093E00E94830F882321F00E94B50F8111C4
:1021C000E9CF8091AF03843051F482EB93E00E9419
:1021D0008E0F882321F00E94CB0F8111DBCF8091DD
:1021E000AF03853051F489EA93E00E948E0F882373
:1021F00021F00E94E90F8111CDCF0C9407100895B2
:10220000CF92DF92EF92FF92CF93DF9381E00E9413
:10221000CD11EC010E94D312C090B803D090B90345
:10222000E090BA03F090BB039B01AC012C193D096F
:102230004E095F0969017A018091B60381111FC0BF
:1022400039EFC3163AE2D306E104F10408F49EC064
:102250008091B0039091B1038C179D0714F481E035
:1022600001C084E08093B6030E94D3126093B80348
:102270007093B9038093BA039093BB0387C08130F6
:10228000F9F48091B0039091B103C817D9076CF4A9
:1022900082E08093B6030E94D3126093B8037093D8
:1022A000B9038093BA039093BB0341E0C41642EA9A
:1022B000D4064AE4E40644E0F40608F467C03EC0ED
:1022C0008230B9F48091B0039091B103C817D90757
:1022D00034F68091A9039091AA03A091AB03B09129
:1022E000AC0382179307A407B50708F04FC083E03B
:1022F000B9CF833021F480E88093B70339C08430AC
:10230000F9F48091AD039091AE038C179D076CF4A6
:1023100085E08093B6030E94D3126093B803709354
:10232000B9038093BA039093BB0351E0C51652EAF8
:10233000D5065AE4E50654E0F50640F187E092CF71
:102340008530C1F48091AD039091AE038C179D0749
:102350007CF48091B2039091B303A091B403B09147
:10236000B50382179307A407B50780F486E00CC075
:1023700084E00AC0863029F480E48093B70381E0CA
:1023800003C0873019F087E08093B603DF91CF91C7
:10239000FF90EF90DF90CF9008959091CE03992316
:1023A00061F02FB7F894E82FF0E0EE0FFF1FE25432
:1023B000FC4F808191812FBF089520917C00207374
:1023C0009091BD03E82FE770822F892BE82BE093D3
:1023D0007C0080917A00806480937A0080917A00FA
:1023E00086FDFCCF809178002091790090E0922BBF
:1023F00008951F920F920FB60F9211242F938F936F
:102400009F93EF93FF93E091BC03F0E080917800FD
:1024100090917900EE0FFF1FE254FC4F918380836F
:102420008091BC038F5F8093BC038091BC0381309B
:1024300029F41B9B03C086E08093BC038091BC03FE
:10244000823019F486E08093BC038091BC0387300E
:1024500029F41B9B03C088E08093BC038091BC03DC
:102460008830B0F480917C00807F80937C008091E4
:102470007C002091BD039091BC038F71822B890F4A
:1024800080937C0080917A00806480937A0009C0F8
:102490001092BC038FE78093CF038091B00181112C
:1024A000E1CFFF91EF919F918F912F910F900FBEF0
:1024B0000F901F9018958093BD031092B001ECE728
:1024C000F0E090819073892B8083EAE7F0E08081CF
:1024D000846080838081826080838081816080834A
:1024E0008081806880831092CE0308951092BC038F
:1024F0001092CF038093B001EAE7F0E08081877506
:102500008868808380818064808381E08093CE03AB
:1025100008951F920F920FB60F9211242F933F939D
:102520008F939F93AF93BF938091B2019091B3012A
:10253000A091B401B091B5013091B1012DE2230F0A
:102540002D3720F40196A11DB11D05C020EB230FEE
:102550000296A11DB11D2093B1018093B201909309
:10256000B301A093B401B093B5018091B6019091ED
:10257000B701A091B801B091B9010196A11DB11D9B
:102580008093B6019093B701A093B801B093B901BD
:10259000BF91AF919F918F913F912F910F900FBE5F
:1025A0000F901F9018952FB7F8946091B201709119
:1025B000B3018091B4019091B5012FBF089584B506
:1025C000826084BD84B5816084BD85B5826085BD2F
:1025D00085B5816085BDEEE6F0E080818160808315
:1025E000E1E8F0E0108280818260808380818160F8
:1025F0008083E0E8F0E0808181608083E1EBF0E0BF
:10260000808184608083E0EBF0E080818160808362
:10261000E1E9F0E080818260808380818160808355
:10262000E0E9F0E0808181608083E1EAF0E0808190
:1026300082608083808181608083E0EAF0E0808135
:10264000816080830895089508951092230291E097
:1026500090932102109220029FB7F8943D989FBF5B
:102660009FB7F8943C989FBF882341F08FB7F894A8
:10267000459A8FBF8FB7F894449A8FBF8091B90065
:102680008E7F8093B9008091B9008D7F8093B900CF
:1026900084E38093B80085E48093BC000895880F9C
:1026A0008093BA000895613298F420912302243077
:1026B00089F46093DC01282FAEEDB1E0FC018E2F90
:1026C000821B861718F481918D93F9CF80E00895CD
:1026D00081E0089582E008959093010180930001C4
:1026E00008959093030180930201089585ED8093EE
:1026F000BC008091BC0084FDFCCF109223020895A1
:1027000085EC8093BC001092230208951F920F92D3
:102710000FB60F9211242F933F934F935F936F93B4
:102720007F938F939F93AF93BF93EF93FF9380918A
:10273000B900887F803609F49EC078F5883209F4A4
:102740005DC090F4803109F456C038F4882309F450
:10275000F5C0883009F44FC0F5C0883109F44EC087
:10276000803209F45FC0EEC0803409F46AC058F4C6
:10277000803309F457C0883309F0E4C08093BA016C
:102780000E948013DFC0803509F44FC0883509F4FA
:102790005DC0883409F0D6C0D3C0883909F4C4C0FC
:1027A000A8F4883709F467C038F4883609F463C0A0
:1027B000803709F460C0C6C0883809F4B5C08039D4
:1027C00009F45FC0803809F0BDC05BC0803B09F4EC
:1027D00083C038F4803A09F466C0883A09F47CC0B2
:1027E000B1C0803C09F4A4C0883C09F4A1C0883B76
:1027F00009F487C0A7C08091220210C09091FF0108
:102800008091FE01981770F5E091FF0181E08E0F35
:102810008093FF01F0E0E050FE4F80818093BB0089
:1028200085EC83C08093BA018BC0E091FF0181E009
:102830008E0F8093FF018091BB00F0E0E050FE4FCF
:1028400080839091FF018091FE016BC0E091FF01B8
:1028500081E08E0F8093FF018091BB00F0E0E0509B
:10286000FE4F80838091210281116AC081E08093B4
:10287000200284EA5EC083E0809323021092BB01B1
:10288000CFCF8091BB01803208F04EC0E091BB01F8
:1028900081E08E0F8093BB018091BB00F0E0E45497
:1028A000FE4F8083BDCF0E9480138091BB01803298
:1028B00030F4E091BB01F0E0E454FE4F10826091EF
:1028C000BB0170E0E0910001F09101018CEB91E01F
:1028D00009951092BB0136C084E0809323021092C8
:1028E000DD011092DC01E0910201F09103010995F4
:1028F0008091DC01811105C081E08093DC011092A0
:10290000DE01E091DD0181E08E0F8093DD01F0E0DA
:10291000E252FE4F80818093BB009091DD01809157
:10292000DC01981708F47CCF85E88093BC000AC0CE
:1029300085EC8093BC001092230204C01092BA016F
:102940000E947613FF91EF91BF91AF919F918F916C
:102950007F916F915F914F913F912F910F900FBE9B
:102960000F901F9018950895089528E432E0309351
:102970002702209326021092AF0291E09093AD02BD
:102980001092AC029FB7F89469989FBF9FB7F894D4
:1029900068989FBF882341F08FB7F894719A8FBFD2
:1029A0008FB7F894709A8FBF8091D9008E7F8093F3
:1029B000D9008091D9008D7F8093D90084E38093E2
:1029C000D80085E48093DC000895880F8093DA00B6
:1029D0000895613298F42091AF02243089F4609315
:1029E0006802282FAAE6B2E0FC018E2F821B861710
:1029F00018F481918D93F9CF80E0089581E00895D6
:102A000082E00895909305018093040108959093C6
:102A1000070180930601089585ED8093DC00809185
:102A2000DC0084FDFCCF1092AF02089585EC80930A
:102A3000DC001092AF0208951F920F920FB60F9212
:102A400011242F933F934F935F936F937F938F93B3
:102A50009F93AF93BF93EF93FF938091D900887FAB
:102A6000803609F49EC078F5883209F45DC090F490
:102A7000803109F456C038F4882309F40AC188303B
:102A800009F44FC00AC1883109F44EC0803209F4FC
:102A90005FC003C1803409F46AC058F4803309F47C
:102AA00057C0883309F0F9C0809324020E9416159C
:102AB000F4C0803509F44FC0883509F45DC088340E
:102AC00009F0EBC0E8C0883909F4D9C0A8F4883708
:102AD00009F467C038F4883609F463C0803709F414
:102AE00060C0DBC0883809F4CAC0803909F45FC00F
:102AF000803809F0D2C05BC0803B09F498C038F43C
:102B0000803A09F469C0883A09F491C0C6C0803C93
:102B100009F4B9C0883C09F4B6C0883B09F49CC0EC
:102B2000BCC08091AE0210C090918B0280918A024D
:102B3000981770F5E0918B0281E08E0F80938B02E5
:102B4000F0E0E457FD4F80818093DB0085EC98C076
:102B500080932402A0C0E0918B0281E08E0F8093CD
:102B60008B028091DB00F0E0E457FD4F8083909171
:102B70008B0280918A0280C0E0918B0281E08E0FEF
:102B800080938B028091DB00F0E0E457FD4F80835F
:102B90008091AD0281117FC081E08093AC0284EA14
:102BA00073C083E08093AF0210922502CFCF809153
:102BB0002502803208F063C0E0912602F0912702DE
:102BC0008091250291E0980F909325029091DB006F
:102BD000E80FF11D9083BACF0E94161520912502AF
:102BE0008091260290912702203230F42091250214
:102BF000FC01E20FF11D10826091250270E0E0916E
:102C00000401F09105010995809126029091270217
:102C10008854924019F488E292E002C088E492E07D
:102C200090932702809326021092250236C084E0FA
:102C30008093AF021092690210926802E09106013F
:102C4000F0910701099580916802811105C081E02A
:102C50008093680210926A02E091690281E08E0F0F
:102C600080936902F0E0E659FD4F80818093DB009C
:102C70009091690280916802981708F467CF85E8FF
:102C80008093DC000AC085EC8093DC001092AF02D8
:102C900004C0109224020E940C15FF91EF91BF9185
:102CA000AF919F918F917F916F915F914F913F91E4
:102CB0002F910F900FBE0F901F9018958FB7F8941B
:102CC000259A8FBF8FB7F8942D9A8FBF8FB7F8943E
:102CD00053988FBF8FB7F8945B9A8FBF8FB7F894D4
:102CE000529A8FBF8FB7F8945A9A8FBF8FB7F894C4
:102CF0003B9A8FBF8FB7F894439A8FBF8FB7F894E2
:102D0000549A8FBF8FB7F8945C988FBF8FB7F894A1
:102D1000559A8FBF8FB7F8945D9A8FBF8FB7F8948D
:102D20003A9A8FBF8FB7F89442988FBF8FB7F894B5
:102D3000579A8FBF8FB7F8945F988FBF8FB7F8946B
:102D4000569A8FBF8FB7F8945E988FBF8FB7F8945D
:102D5000229A8FBF8FB7F8942A9A8FBF8FB7F894B3
:102D600020988FBF8FB7F894289A8FBF80E3809305
:102D70001103109213031092FE021092000310929E
:102D80000503109203031092020310921403109291
:102D90000C031092FD02109216031092040310927D
:102DA000650310926403109217030E94DF1280E4FF
:102DB0000E945B1280E00E9476120E94D312609300
:102DC0008E0370938F03809390039093910342E05E
:102DD00060E970ED83E090E00E941B199093E4039A
:102DE0008093E3039093E6038093E50389E20E94D6
:102DF0004F1383E29BE00E94711386EE9AE00E94DB
:102E00006C1380E00E9425138AE20E94E5148DEB8A
:102E10009BE00E94071580E49BE00E94021580E081
:102E20000E94B51478942FEB84ED91E021508040FE
:102E30009040E1F700C000008FB7F8945F9A8FBF11
:102E40000E94120D0E94F10B882329F082E390E08A
:102E50000E94CE1C01C081E3809312030E94DB0E0E
:102E60000E9407100E94D3126093B8037093B903B5
:102E70008093BA039093BB031092D00380E00E942A
:102E8000C71781E00E94C71782E00E94C71783E03E
:102E90000E94C71780910003886080930003089503
:102EA0000E945E160E94D312609308037093090378
:102EB00080930A0390930B038091160381110AC03B
:102EC0000E94FB000E94AA010E944D020E94D301B1
:102ED0000E94FC010E94C60B0E9407030E940C0C7A
:102EE0000E94660D0E94320F0E9427180E94940DC6
:102EF0000E94B3100E9400110E94490BDDCF24E014
:102F0000829FC0011124FC01EF52FC4F408151818E
:102F100062817381415051096109710981E04E3F1D
:102F20005F4F6F4F7F4F08F080E00895E091E1031D
:102F3000EF77E23020F08AEF8E0F823030F4F0E04D
:102F4000ED55FE4F80810C947F1780E008958091AD
:102F5000E10387FF1AC0E091E103F99916C0EF770A
:102F6000F0E0ED55FE4F808124E0829FC0011124E6
:102F7000FC01EF52FC4F40815181628173818E5A76
:102F80009F4F0E94F41C81E0089580E008951F93F4
:102F9000CF93DF93182F84E0189FE0011124CE0116
:102FA0008E5A9F4F0E94D61CCF52DC4F6883798384
:102FB0008A839B83812F0E947F17811138C0111152
:102FC0000CC084EE98E3AEE8BAE388839983AA83C1
:102FD000BB838091D0038F5F34C0113061F480E0F7
:102FE00090E0A0E3BCE388839983AA83BB838091AC
:102FF000D0038E5F26C0123061F486E996E9A6E917
:10300000B9E388839983AA83BB838091D0038C5FC3
:1030100018C01330C1F48AE198E8AAEEBBE38883B4
:103020009983AA83BB838091D003885F0AC02091D3
:10303000D00381E090E001C0880F1A95EAF78095EF
:1030400082238093D003DF91CF911F9108951F9326
:10305000CF93DF938091D003807FA9F18091E1032A
:1030600087FF31C0E091E103EF77F0E0ED55FE4FCF
:103070001081C1E0D0E0012E02C0CC0FDD1F0A9408
:10308000E2F78091D00382958F7090E0C817D9073E
:10309000D1F40E949617882381F00E94A7178823F5
:1030A00091F08091D0038F708093D0038091D003F2
:1030B000C095C823C093D00306C0812FDF91CF9164
:1030C0001F910C94C717DF91CF911F910895209104
:1030D000B40230E02F5F3F4F2F7133274091B3028E
:1030E00050E024173507D1F39091B002F901EB526B
:1030F000FD4F90FF03C08A3009F48DE08083209358
:10310000B4028091C10080628093C10080E090E0B1
:1031100008951F920F920FB60F9211242F933F9391
:103120004F935F938F939F93EF93FF932091C000F2
:1031300028713091C6008091B20290E001968F71A3
:1031400099274091B10250E08417950711F42E5F42
:1031500006C08093B202FC01EB54FD4F30832093F4
:10316000E203FF91EF919F918F915F914F913F917A
:103170002F910F900FBE0F901F9018951F920F92D6
:103180000FB60F9211248F939F93EF93FF9390911B
:10319000B4028091B302981779F08091B30290E065
:1031A00001968F7199278093B302FC01EB52FD4F7A
:1031B00080818093C60005C08091C1008F7D80937F
:1031C000C100FF91EF919F918F910F900FBE0F90D3
:1031D0001F9018958091B2022091B10290E08096E4
:1031E000821B91098F71992708950E94EA18892BF3
:1031F000E1F39091B2028091B102981307C08091DF
:10320000E2038F5F8093E20380E00CC08091B10203
:1032100090E001968F7199278093B102FC01EB54E5
:10322000FD4F80819091B00291FF03C08D3009F471
:103230008AE090E00895CF92DF92EF92FF920F9391
:103240001F93CF938B019C01C42F6B017C0180E6FF
:10325000C80E83EED81E86E1E81EF11CC701B60138
:1032600043E0660F771F881F991F4A95D1F7A90180
:103270009801E4E0220F331F441F551FEA95D1F750
:103280000E948519215031091092B4021092B302A4
:103290001092B2021092B1022115310531F48091E1
:1032A000C100877F8093C10010C037FF04C082E057
:1032B0008093C0003F7788E98093C10086E08093C7
:1032C000C2003093C5002093C400C093B00288E0D0
:1032D00091E0CF911F910F91FF90EF90DF90CF90F1
:1032E000089597FB072E16F4009407D077FD09D0B8
:1032F0000E94A71907FC05D03EF4909581959F4F39
:103300000895709561957F4F0895A1E21A2EAA1B2A
:10331000BB1BFD010DC0AA1FBB1FEE1FFF1FA21785
:10332000B307E407F50720F0A21BB30BE40BF50B82
:10333000661F771F881F991F1A9469F7609570950B
:10334000809590959B01AC01BD01CF010895AA1B0A
:10335000BB1B51E107C0AA1FBB1FA617B70710F080
:10336000A61BB70B881F991F5A95A9F780959095B2
:10337000BC01CD0108950E94C01908F481E00895B0
:10338000990F0008550FAA0BE0E8FEEF1616170676
:10339000E807F907C0F012161306E407F50798F0DE
:1033A000621B730B840B950B39F40A2661F0232BF7
:1033B000242B252B21F408950A2609F4A140A69573
:1033C0008FEF811D811D08950E94C01908F48FEFB1
:1033D0000895CF93DF93EC012B8120FF33C026FFAC
:1033E0000AC02F7B2B838E819F8101969F838E83C2
:1033F0008A8190E029C022FF0FC0E881F981808195
:10340000082E000C990B009719F420622B831AC028
:103410003196F983E8830EC0EA85FB85099597FF0D
:1034200009C02B81019611F080E201C080E1822B5E
:103430008B8308C02E813F812F5F3F4F3F832E83B8
:10344000992702C08FEF9FEFDF91CF910895A0E001
:10345000B0E0EDE2FAE10C94261DAE014B5F5F4F48
:10346000FA0161917191AF018091E5039091E603BA
:103470000E943D1AE2E00C94421DABE0B0E0E3E4B0
:10348000FAE10C94161D6C017B018A01FC01178284
:103490001682838181FFCCC1CE0101963C01F601E9
:1034A0009381F70193FD859193FF81917F0188239B
:1034B00009F4BAC1853239F493FD859193FF819166
:1034C0007F01853229F4B60190E00E94341CE7CFD9
:1034D000912C212C312CFFE1F315D8F08B3279F0AF
:1034E00038F4803279F08332A1F4232D20611DC09D
:1034F0008D3261F0803369F4232D216016C0832D55
:103500008260382EE32DE4603E2E2AC0F32DF86051
:103510001DC037FC2DC020ED280F2A3040F08E3220
:10352000B9F436FC81C1232D2064322E19C036FE39
:1035300006C08AE0989E200D1124922E11C0EAE068
:103540002E9E200D1124222EF32DF0623F2E08C056
:103550008C3621F4832D8068382E02C0883641F4E1
:10356000F70193FD859193FF81917F018111B3CF85
:10357000982F9F7D9554933028F40C5F1F4F9FE345
:1035800099830DC0833631F0833771F0833509F0AC
:1035900059C021C0F801808189830E5F1F4F8824A4
:1035A0008394912C530113C02801F2E04F0E511C5B
:1035B000F801A080B18036FE03C0692D70E002C022
:1035C0006FEF7FEFC5010E94291C4C018201F32D92
:1035D000FF773F2E16C0280122E0420E511CF80151
:1035E000A080B18036FE03C0692D70E002C06FEF8D
:1035F0007FEFC5010E941E1C4C01F32DF0683F2E89
:10360000820133FC1BC0822D90E088169906B0F42D
:10361000B60180E290E00E94341C2A94F4CFF501B8
:1036200037FC859137FE81915F01B60190E00E94E1
:10363000341C21102A9421E0821A910881149104EB
:1036400071F7E8C0843611F0893641F5F80137FE8C
:1036500007C060817181828193810C5F1F4F08C018
:1036600060817181072E000C880B990B0E5F1F4F34
:10367000F32DFF763F2E97FF09C0909580957095AA
:1036800061957F4F8F4F9F4FF0683F2E2AE030E0CB
:10369000A3010E94701C882E861845C0853731F41E
:1036A000232D2F7EB22E2AE030E025C0932D997F66
:1036B000B92E8F36C1F018F4883579F0B5C080374F
:1036C00019F0883721F0B0C0E92FE061BE2EB4FEBA
:1036D0000DC0FB2DF460BF2E09C034FE0AC0292F97
:1036E0002660B22E06C028E030E005C020E130E0C0
:1036F00002C020E132E0F801B7FE07C060817181AD
:10370000828193810C5F1F4F06C06081718180E0D0
:1037100090E00E5F1F4FA3010E94701C882E861838
:10372000FB2DFF773F2E36FE0DC0232D2E7FA22EC0
:10373000891458F434FE0BC032FC09C0832D8E7EF0
:10374000A82E05C0B82CA32C03C0B82C01C0B92CDE
:10375000A4FE0FC0FE01E80DF11D8081803321F42D
:103760009A2D997EA92E09C0A2FE06C0B394B394E7
:1037700004C08A2D867809F0B394A3FC11C0A0FE82
:1037800006C0B21488F4280C922C9B180EC0B214F8
:1037900060F4B60180E290E00E94341CB394F7CF4D
:1037A000B21418F42B1802C0982C212CA4FE10C0BF
:1037B000B60180E390E00E94341CA2FE17C0A1FC79
:1037C00003C088E790E002C088E590E0B6010CC035
:1037D0008A2D867859F0A1FE02C08BE201C080E2FA
:1037E000A7FC8DE2B60190E00E94341C891438F4E5
:1037F000B60180E390E00E94341C9A94F7CF8A943B
:10380000F301E80DF11D8081B60190E00E94341CA7
:103810008110F5CF222009F442CEB60180E290E07B
:103820000E94341C2A94F6CFF6018681978102C04B
:103830008FEF9FEF2B96E2E10C94321DFC01059077
:10384000615070400110D8F7809590958E0F9F1FA2
:103850000895FC016150704001900110D8F78095E7
:1038600090958E0F9F1F08950F931F93CF93DF9313
:10387000FB01238121FD03C08FEF9FEF2CC022FFAE
:1038800016C046815781248135814217530744F47D
:10389000A081B1819D012F5F3F4F318320838C93A5
:1038A000268137812F5F3F4F3783268314C08B01DA
:1038B000EC01FB010084F185E02D0995892BE1F6EF
:1038C000D80116968D919C911797019617969C9307
:1038D0008E931697CE01DF91CF911F910F9108958E
:1038E000FA01AA27283051F1203181F1E8946F9331
:1038F0006E7F6E5F7F4F8F4F9F4FAF4FB1E03ED0D7
:10390000B4E03CD0670F781F891F9A1FA11D680F74
:10391000791F8A1F911DA11D6A0F711D811D911DA7
:10392000A11D20D009F468943F912AE0269F11241C
:103930003019305D3193DEF6CF010895462F477080
:10394000405D4193B3E00FD0C9F7F6CF462F4F70DB
:10395000405D4A3318F0495D31FD4052419302D039
:10396000A9F7EACFB4E0A6959795879577956795DF
:10397000BA95C9F700976105710508959B01AC01DF
:103980000A2E06945795479537952795BA95C9F706
:10399000620F731F841F951FA01D0895F999FECF14
:1039A00092BD81BDF89A992780B50895A6E1B0E04F
:1039B00044E050E00C94081DA8E1B0E042E050E083
:1039C0000C94081D262FF999FECF92BD81BDF89A5F
:1039D000019700B4021639F01FBA20BD0FB6F89453
:1039E000FA9AF99A0FBE08950396272F0E94E31CB6
:1039F0000E94E21C252F0E94E31C242F0C94E31C40
:103A00000196272F0E94E31C0C94E21CDC01CB01E1
:103A1000FC01F999FECF06C0F2BDE1BDF89A3196DE
:103A200000B40D9241505040B8F708952F923F9244
:103A30004F925F926F927F928F929F92AF92BF92BE
:103A4000CF92DF92EF92FF920F931F93CF93DF936A
:103A5000CDB7DEB7CA1BDB0B0FB6F894DEBF0FBEC7
:103A6000CDBF09942A88398848885F846E847D8414
:103A70008C849B84AA84B984C884DF80EE80FD8016
:103A80000C811B81AA81B981CE0FD11D0FB6F8948C
:0E3A9000DEBF0FBECDBFED010895F894FFCF4D
:103A9E0024132313B414B314000000030000000019
:103AAE006718F518000025632563002809C8073933
:103ABE00053E05430505094A056005D70986058BB0
:103ACE0005A105B705C505DB050408E707F105C81F
:103ADE0007C8076306C807B406F906260A780A144B
:103AEE00088B083E078307C907C8070001000000BE
:103AFE00000203310BC80739053E05430505094A87
:103B0E00056005D70986058B05A105B705C505DB3B
:103B1E00050408E707F105C807C8076306C807B418
:103B2E0006F906260A780A14088B083E078307C989
:0C3B3E0007C8070001000000000203009F
:00000001FF
