:100000000C945D000C947A000C947A000C947A00A5
:100010000C947A000C947A000C947A000C947A0078
:100020000C947A000C947A000C947A000C947A0068
:100030000C947A000C947A000C947A000C947A0058
:100040000C94FF130C947A000C9439120C946E12D9
:100050000C947A000C942D130C947A000C947A0072
:100060000C94F0140C947A000C947A000C947A009E
:100070000C947A000C947A000C947A000C947A0018
:100080000C947A000C947A000C947A000C947A0008
:100090000C947A000C947A000C947A000C947A00F8
:1000A0000C947A160C947A000C947A000C947A00D2
:1000B0000C947A0052505569640011241FBECFEF92
:1000C000D8E0DEBFCDBF11E0A0E0B1E0E4E3F7E3AC
:1000D00002C005900D92AC39B107D9F723E0ACE925
:1000E000B1E001C01D92A83CB207E1F70E945F0198
:1000F0000C94981B0C9400008FB7F894259A8FBF2E
:100100008FB7F8942D9A8FBF8FB7F89453988FBFFD
:100110008FB7F8945B9A8FBF8FB7F894529A8FBFBE
:100120008FB7F8945A9A8FBF8FB7F8943B9A8FBFC6
:100130008FB7F894439A8FBF8FB7F894549A8FBFB4
:100140008FB7F8945C988FBF8FB7F894559A8FBF8C
:100150008FB7F8945D9A8FBF8FB7F8943A9A8FBF94
:100160008FB7F89442988FBF8FB7F894579A8FBF84
:100170008FB7F8945F988FBF8FB7F894569A8FBF58
:100180008FB7F8945E988FBF8FB7F894229A8FBF7D
:100190008FB7F8942A9A8FBF8FB7F89420988FBFA3
:1001A0008FB7F894289A8FBF80E380930103109251
:1001B00003031092EE021092F0021092F5021092D8
:1001C000F3021092F202109204031092FC021092B9
:1001D000ED02109206031092F40210925503109251
:1001E0005403109207030E94551480E40E94921356
:1001F00080E00E94AD130E94491460937E037093C7
:100200007F03809380039093810360E970ED83E026
:1002100090E00E9406139093C3038093C2039093CF
:10022000C5038093C40389E20E94B9148CE99BE062
:100230000E94DB148FE59BE00E94D61480E00E94B0
:100240009B148AE20E94431689E29CE00E94651694
:100250008CEA9BE00E94601680E00E941F16789452
:100260002FEB84ED91E0215080409040E1F700C0F9
:1002700000008FB7F8945F9A8FBF0E947E0D0E9496
:100280005D0C882329F082E390E00E94191B01C0D5
:1002900081E3809302030E94470F0E9473100E9423
:1002A00049146093A9037093AA038093AB039093BE
:1002B000AC038091F00288608093F00208950E9460
:1002C0007C000E9449146093F8027093F9028093B5
:1002D000FA029093FB028091060381110AC00E94EA
:1002E0000B020E94BA020E945D030E94E3020E9478
:1002F0000C030E94320C0E9417040E94780C0E948A
:10030000D20D0E949E0F0E94000E0E941F110E949B
:100310006C110E94B50BDFCF8091F7028823C1F0EA
:100320008FB7F89443988FBF8FB7F8945C988FBFBE
:100330008091F602882321F08FB7F8945D9A03C06C
:100340008FB7F8945D988FBF8FB7F894429A17C013
:100350008FB7F894439A8FBF8FB7F8945C988FBF8C
:100360008091F602882321F08FB7F8945D9A03C03C
:100370008FB7F8945D988FBF8FB7F89442988FBF6E
:1003800008958091F702882381F08FB7F8944398FD
:100390008FBF8FB7F8945C988FBF8FB7F8945D9A32
:1003A0008FBF8FB7F894429A0FC08FB7F894439AD3
:1003B0008FBF8FB7F8945C988FBF8FB7F8945D9A12
:1003C0008FBF8FB7F89442988FBF08958091F7023E
:1003D000882381F08FB7F89443988FBF8FB7F89434
:1003E0005C9A8FBF8FB7F8945D988FBF8FB7F894E2
:1003F000429A0FC08FB7F894439A8FBF8FB7F89483
:100400005C9A8FBF8FB7F8945D988FBF8FB7F894C1
:1004100042988FBF08950F931F938091F30281112B
:10042000A6C00E9449140091F8021091F90220918F
:10043000FA023091FB02DC01CB01801B910BA20B75
:10044000B30B2091F002277F09F06DC02091F702D5
:10045000222321F0B695A795979587952091EF02D5
:100460002223E9F08C349105A105B105C0F0259B4C
:1004700009C093B18FB7F89495FD02C02D9A01C0C1
:100480002D988FBF8091F8029091F902A091FA0205
:10049000B091FB02855B9F4FAF4FBF4F60C0209173
:1004A000EE022223F1F0813D27E09207A105B1057C
:1004B000C0F0259B09C093B18FB7F89495FD02C099
:1004C0002D9A01C02D988FBF8091F8029091F9026A
:1004D000A091FA02B091FB028053984FAF4FBF4FEB
:1004E0003EC020910303222309F441C0853F91407F
:1004F000A105B105E0F1259B09C093B18FB7F89430
:1005000095FD02C02D9A01C02D988FBF8091F802F1
:100510009091F902A091FA02B091FB028C509E4F8B
:10052000AF4FBF4F1CC0893C9105A105B105F8F044
:10053000259B09C093B18FB7F89495FD02C02D9A01
:1005400001C02D988FBF8091F8029091F902A0917F
:10055000FA02B091FB0288539F4FAF4FBF4F809379
:10056000F8029093F902A093FA02B093FB021F9154
:100570000F9108950F931F938091EF02882301F14B
:100580000E9449142091FC0221111AC00091E50239
:100590001091E6022091E7023091E802DC01CB01E4
:1005A000801B910BA20BB30B8933914CA140B10579
:1005B00038F00E948C0181E0809303031092EF02D7
:1005C0001F910F9108950F931F930E94491420913A
:1005D000FC0221111EC02091EE022223D1F00091D5
:1005E000E9021091EA022091EB023091EC02DC0169
:1005F000CB01801B910BA20BB30B813C944DA1400E
:10060000B10538F00E948C0181E0809303031092C1
:10061000EE021F910F9108950F931F938091F202A4
:10062000882319F10E9449140091FD021091FE02E5
:100630002091FF0230910003DC01CB01801B910B64
:10064000A20BB30B893E9340A105B10598F18FB77A
:10065000F89420988FBF8FB7F894289A8FBF109284
:10066000F20281E08093F30225C08091F3028111B0
:1006700021C018991FC08FB7F894209A8FBF8FB7E9
:10068000F89428988FBF8FB7F894259A8FBF8FB7AB
:10069000F8942D9A8FBF1092F30281E08093F202BA
:1006A0000E9449146093FD027093FE028093FF0242
:1006B000909300031F910F9108958091F70281118B
:1006C000B5C04B9956C08091F00283FDAFC04A9BE4
:1006D00005C08FB7F8945A988FBF08958091EF02A4
:1006E0008111A4C08091EE028111A0C0809103030A
:1006F00081119CC080910503811198C00E9449140A
:1007000060930A0370930B0380930C0390930D0383
:1007100080910103809307032091070390910703C1
:100720004091070330E0209530952A70332764E02C
:10073000220F331F6A95E1F7892F90E080959095FD
:100740008075992774E0959587957A95E1F7822BC6
:10075000932B9F938F931F924F9386E191E09F93EA
:100760008F930E94721881E0809305038093F102B9
:1007700057C080910303882309F458C08091F10287
:10078000882309F453C08091050381114FC08091E3
:10079000EF0281114BC08091EE02811147C00E948F
:1007A000491460930A0370930B0380930C03909396
:1007B0000D038FEC809307032091070390910703AB
:1007C0004091070330E0209530952A70332784E06C
:1007D000220F331F8A95E1F7892F90E0809590953D
:1007E0008075992754E0959587955A95E1F7822B66
:1007F000932B9F938F931F924F9386E191E09F934A
:100800008F930E94721881E0809305038FB7F8944C
:100810002D9A8FBF1092F1028FB7F8945A9A8FBF1A
:100820000F900F900F900F900F900F9008954F9290
:100830005F926F927F928F929F92AF92BF92CF9270
:10084000DF92EF92FF920F931F93CF93DF930E945B
:100850004914209105032223D9F040900A035090B7
:100860000B0360900C0370900D03DC01CB01841925
:100870009509A609B709853F9140A105B10540F04A
:100880008091F00281708093F00210920503F0C114
:100890000E94EE12892B09F4EBC18091C203909162
:1008A000C3030E94341860910803262F30E020957E
:1008B0003095A9014A70552774E0440F551F7A9569
:1008C000E1F720753327E4E035952795EA95E1F7C0
:1008D000242B352BAC0155272417350739F41092FA
:1008E000080380910503811104C00FC080930803A1
:1008F000BFC180910703681729F08091F0028470CE
:100900008093F0021092050304C08091F1028823C5
:1009100019F01092F70203C081E08093F702611191
:1009200027C00E944914DC01CB01805C944DA1409A
:10093000B1098093E9029093EA02A093EB02B0938D
:10094000EC020E944914DC01CB018853914CA14078
:10095000B1098093E5029093E602A093E702B09379
:10096000E8028FB7F8942D988FBF1092FC0259C1FE
:100970006F3F31F41092040381E08093FC0278C150
:10098000613009F06FC0F9B1E9B156B149B139B17F
:1009900089B129B176B190E0880F892F881F990B12
:1009A000880F991F880F991F73FB992790F9892B3E
:1009B000F3FBAA24A0F8B12CB694BA2CAA24B794BD
:1009C000A794A82AE2FBCC24C0F8D12CD6E0CC0C0A
:1009D000DD1CDA95E1F7CA2852FBEE24E0F8F12C91
:1009E00015E0EE0CFF1C1A95E1F7EC2845FB0027FB
:1009F00000F910E084E0000F111F8A95E1F70E293D
:100A000036FB332730F9C32F80E0D82F93E0CC0F8B
:100A1000DD1F9A95E1F7C02B24FB882480F8912CE8
:100A2000880C991C8C2A8092F4028FB7F8942B982A
:100A30008FBF8FB7F894429A8FBF8FB7F8945D98A5
:100A40008FBF8FB7F8945F988FBF8FB7F8945C9A79
:100A50008FBF8FB7F89443988FBF1092ED026093C9
:100A6000060306C16E3F09F076C08091F402881F2C
:100A70008827881F9FB7F894882311F05B9A01C0DC
:100A80005B989FBF8091F40286FB882780F99FB70F
:100A9000F894882311F05A9A01C05A989FBF809108
:100AA000F40285FB882780F99FB7F894882311F01A
:100AB000429A01C042989FBF8091F4028295817052
:100AC0009FB7F894882311F05D9A01C05D989FBF8D
:100AD0008091F40283FB882780F99FB7F8948823DC
:100AE00011F05E9A01C05E989FBF8FB7F894599A33
:100AF0008FBF8FB7F89451988FBF8091C1008861E4
:100B00008093C1008091F40282FB882780F99FB70F
:100B1000F894882311F05F9A01C05F989FBF80917D
:100B2000F402869581709FB7F894882311F05C9A3F
:100B300001C05C989FBF8091F40281709FB7F894C8
:100B4000882311F0439A01C043989FBF1092ED0291
:100B5000109206038DC08091020368134DC08091EE
:100B60000903811114C00E94C1018FB7F8942A981B
:100B70008FBF0E94491460930E0370930F038093FC
:100B800010039093110381E08093090371C00E94C8
:100B9000491400910E0310910F032091100330911E
:100BA0001103DC01CB01801B910BA20BB30B44970B
:100BB000A105B10508F45CC08FB7F8942A9A8FBFDD
:100BC0001092090381E08093EF021092F6020E94D6
:100BD00049146093F8027093F9028093FA0290939B
:100BE000FB020E9449146093E5027093E602809331
:100BF000E7029093E8023CC067FD1EC081E080934D
:100C0000EE021092EF02109203030E94E6010E948E
:100C100049146093E9027093EA028093EB02909387
:100C2000EC020E9449146093F8027093F9028093D9
:100C3000FA029093FB021CC01092F7021092EE028F
:100C4000109203031092EF028FB7F8942D9A8FBF82
:100C50008FB7F89443988FBF8FB7F8945C9A8FBF83
:100C60008FB7F8945D988FBF8FB7F894429A8FBF73
:100C7000DF91CF911F910F91FF90EF90DF90CF9078
:100C8000BF90AF909F908F907F906F905F904F90AC
:100C90000895FC01918180910203818380ED890F89
:100CA0008B3428F49093020381E08093F502089539
:100CB00020910103FC0121830895FC01818180932F
:100CC000010308952091F302FC0121831092F302A5
:100CD0000895FC019091F0029F70918383B111827D
:100CE00083B10895FC01218124FF0BC021E02093F2
:100CF0008B0310929103109292031092930310921F
:100D00009403FC01818185FF0BC09091F202911147
:100D100007C09091F302911103C091E090938C036E
:100D200086FD1092A7038F708093F00208952091A2
:100D3000FC02FC0121830895FC01809198039091AD
:100D40009903218130E0322F222791839281290F4C
:100D5000311D8283309399032093980383E080931D
:100D600097030895FC01809195039091960321814A
:100D700030E0322F222791839281290F311D828307
:100D8000309396032093950382E080939703089510
:100D9000FC018091910390919203209193033091F3
:100DA000940331832283938384830895FC0180918B
:100DB0009E0390919F03218130E0322F222791835F
:100DC0009281290F311D828330939F0320939E03CC
:100DD00082E08093A0030895FC018091A10390918B
:100DE000A203218130E0322F222791839281290FA3
:100DF000311D82833093A2032093A10383E080936B
:100E0000A0030895FC0180917603909177032091CF
:100E10007803309179033183228393838483089507
:100E2000FC0180917A0390917B0320917C033091A7
:100E30007D03318322839383848308950F931F93CB
:100E4000CF93DF93FC01C0918303D0918403809101
:100E5000850390918603418150E060E070E0342F7B
:100E60002227112700279183428150E060E070E043
:100E7000BA0155274427400F511F621F731F8283F9
:100E8000838190E0A0E0B0E0BA2FA92F982F8827A7
:100E9000D3832481420F511D611D711DC483840FB2
:100EA000951FA61FB71F8093830390938403A0937D
:100EB0008503B093860382E080938203DF91CF9114
:100EC0001F910F9108950F931F93CF93DF93FC0110
:100ED000C0918703D09188038091890390918A0300
:100EE000418150E060E070E0342F22271127002775
:100EF0009183428150E060E070E0BA0155274427B9
:100F0000400F511F621F731F8283838190E0A0E016
:100F1000B0E0BA2FA92F982F8827D3832481420FBE
:100F2000511D611D711DC483840F951FA61FB71F1E
:100F30008093870390938803A0938903B0938A03D7
:100F400083E080938203DF91CF911F910F910895E9
:100F50000F931F93CF93DF93FC01C091A303D09114
:100F6000A4038091A5039091A603418150E060E025
:100F700070E0342F2227112700279183428150E00F
:100F800060E070E0BA0155274427400F511F621FEF
:100F9000731F8283838190E0A0E0B0E0BA2FA92F75
:100FA000982F8827D3832481420F511D611D711D05
:100FB000C483840F951FA61FB71F8093A30390932C
:100FC000A403A093A503B093A60384E08093A00399
:100FD000DF91CF911F910F9108950F931F93CF939E
:100FE000DF93FC01C0919A03D0919B0380919C03F5
:100FF00090919D03418150E060E070E0342F222702
:10100000112700279183428150E060E070E0BA012F
:1010100055274427400F511F621F731F828383810E
:1010200090E0A0E0B0E0BA2FA92F982F8827D383B3
:101030002481420F511D611D711DC483840F951FB2
:10104000A61FB71F80939A0390939B03A0939C03C2
:10105000B0939D0385E08093A003DF91CF911F9112
:101060000F91089508950F931F93CF93DF93EC0191
:101070000E9449140091A9031091AA032091AB0387
:101080003091AC03DC01CB01801B910BA20BB30BA5
:10109000B983AA839B838C83DF91CF911F910F919A
:1010A0000895CF93DF93EC0180E00E94D3139983DE
:1010B0008A83DF91CF910895CF93DF93EC0181E094
:1010C0000E94D31399838A83DF91CF910895CF93A0
:1010D000DF93EC0186E00E94D31399838A83DF912A
:1010E000CF910895CF93DF93EC0187E00E94D31353
:1010F00099838A83DF91CF910895FC01818184FDDA
:101100001092A8039091A70385FF05C08091A803C2
:10111000890F81830895918308957F928F929F9282
:10112000AF92BF92CF92DF92EF92FF920F931F93F5
:10113000CF93DF93E0910603EE2309F455C0E9B1A4
:10114000B9B1F6B179B0A9B009B1B9B0C6B110E082
:10115000000F012F001F110B000F111F000F111F97
:10116000C3FBCC27C0F9AC2FA02BE3FB882480F86D
:10117000912CE401D695DC2FCC27D795C795CA2BA7
:10118000B2FBCC24C0F8D12CD60156E0AA0FBB1F6D
:101190005A95E1F7AC2BF2FBEE24E0F8F12CF701C5
:1011A00065E0EE0FFF1F6A95E1F7EA2B75FA6627F7
:1011B00060F970E0F4E0660F771FFA95E1F76E2BA7
:1011C000A6FA442740F950E0A3E0440F551FAA9522
:1011D000E1F7462BB4FA222720F930E0220F331F23
:1011E000242BFC01218302C0FC011182DF91CF91ED
:1011F0001F910F91FF90EF90DF90CF90BF90AF9035
:101200009F908F907F900895CF93DF93FC01809102
:101210000603882309F46EC08181881F8827881FF0
:101220009FB7F894882311F05B9A01C05B989FBF29
:10123000818186FB882780F9C82F80E0D82F8FB75F
:10124000F894CD2B11F05A9A01C05A988FBF818122
:1012500085FBAA27A0F9B0E08FB7F894AB2B11F06B
:10126000429A01C042988FBF818184FB662760F952
:1012700070E08FB7F894672B11F05D9A01C05D980C
:101280008FBF818183FB442740F950E08FB7F894EA
:10129000452B11F05E9A01C05E988FBF818182FF5D
:1012A00011C08091C100877E8093C1008FB7F894F0
:1012B000519A8FBF8FB7F89459988FBF8FB7F89412
:1012C0005F9A8FBF818181FB222720F930E08FB7A1
:1012D000F894232B11F05C9A01C05C988FBF818138
:1012E00081709FB7F894882311F0439A01C0439806
:1012F0009FBF01C01182DF91CF910895FC018181D0
:101300008130F1F49FB7F894209A9FBF9FB7F8946B
:1013100028989FBF9FB7F894259A9FBF9FB7F894CE
:101320002D9A9FBF8093F2021092F3020E944914FB
:101330006093FD027093FE028093FF02909300037E
:101340000895CF93FC01918180910203818380ED08
:10135000890F8B3430F49093020381E08093F5027F
:101360009DC0C1E0C093F6028091F1028823B1F1E3
:101370000E94491460930A0370930B0380930C033B
:1013800090930D0310920703209107039091070398
:101390004091070330E0209530952A70332764E0B0
:1013A000220F331F6A95E1F7892F90E08095909581
:1013B0008075992774E0959587957A95E1F7822B4A
:1013C000932B9F938F931F924F9386E191E09F936E
:1013D0008F930E947218C093050339C08091EF0269
:1013E0008823E1F10E94491460930A0370930B0370
:1013F00080930C0390930D03109207032091070331
:10140000909107034091070330E0209530952A70B2
:10141000332784E0220F331F8A95E1F7892F90E06C
:10142000809590958075992754E0959587955A9564
:10143000E1F7822B932B9F938F931F924F9386E11B
:1014400091E09F938F930E947218109205030F9062
:101450000F900F900F900F900F9020C00E94491492
:10146000DC01CB01805C944DA140B1098093E9027D
:101470009093EA02A093EB02B093EC020E9449140D
:10148000DC01CB018853914CA140B1098093E50266
:101490009093E602A093E702B093E802CF910895FB
:1014A000CF93FC01C181C13009F045C020910403F4
:1014B000211141C00E94491460930A0370930B03E9
:1014C00080930C0390930D038FEF8093070320917B
:1014D0000703909107034091070330E02095309572
:1014E0002A70332784E0220F331F8A95E1F7892F72
:1014F00090E0809590958075992754E09595879513
:101500005A95E1F7822B932B9F938F931F924F93C2
:1015100086E191E09F938F930E947218C093050318
:10152000C09304031092FC020F900F900F900F9045
:101530000F900F9002C0FC011182CF910895CF93BC
:10154000FC01C181C13009F048C08091ED028111D8
:1015500042C08091060381113EC00E9449146093ED
:101560000A0370930B0380930C0390930D03C093B5
:10157000070320910703909107034091070330E090
:10158000209530952A70332784E0220F331F8A95E7
:10159000E1F7892F90E0809590958075992754E028
:1015A000959587955A95E1F7822B932B9F938F936F
:1015B0001F924F9386E191E09F938F930E94721840
:1015C000C0930503C093ED020F900F900F900F9002
:1015D0000F900F9004C082E001C083E08183CF911F
:1015E00008951F93CF93DF93EC011981113009F017
:1015F00061C08091ED0281115DC080910603882356
:1016000009F458C08FB7F894599A8FBF8FB7F894E0
:1016100051988FBF8091C10088618093C1008FB7BE
:10162000F8945F9A8FBF8FB7F8945E988FBF0E942F
:10163000491460930A0370930B0380930C039093F7
:101640000D038EEF8093070320910703809107031A
:101650009091070330E0209530952A703327A90137
:1016600024E0440F551F2A95E1F7282F30E02095FC
:1016700030952075332764E0359527956A95E1F715
:10168000242B352B3F932F931F929F9386E191E05C
:101690009F938F930E947218109305031093ED028D
:1016A0008091F40289830F900F900F900F900F900C
:1016B0000F9001C01982DF91CF911F910895AC0165
:1016C00090E0292F30E02617370754F4FA01E20F93
:1016D000F31F8081F901EE5EFC4F80839F5FF1CFA5
:1016E000903220F4F901EE5EFC4F118260939C0170
:1016F000623010F48FEF0DC080911203E82FE29555
:10170000EF70E43010F08EEF04C08F70883020F05E
:101710008DEF80931203089598E0E99FF001112462
:10172000E80FF11DEE0FFF1FE55EFE4F0190F08107
:10173000E02D82E193E0099460919C0182E193E0C5
:101740000E94BD14882329F08091F002827080935A
:10175000F00208950C94490690935303809352032A
:10176000709355036093540308952091540330916E
:1017700055032115310509F46BC0109255031092E1
:101780005403E0915203F09153032130310511F0DD
:1017900040E023C0908180913203981359C080911A
:1017A0009D01811155C080919F01A2E3B3E0E6E560
:1017B000F3E090E0981721F02D9121939F5FFACFED
:1017C000803228F4E82FF0E0EA5AFC4F118280932F
:1017D0009E0181E080939D010895842F90E08217FF
:1017E000930754F4DF01A80FB91F5C91DC01AE5CD4
:1017F000BC4F5C934F5FF1CF403220F4FC01EE5CB4
:10180000FC4F118220939F01211102C08FEF0DC068
:1018100080913203E82FE295EF70E43010F08EEF04
:1018200004C08F70883020F08DEF809332030895CC
:1018300098E0E99FF0011124E80FF11DEE0FFF1F62
:10184000E55AFE4F0190F081E02D82E393E0099488
:10185000089560919E0186E593E00E9447161092DC
:101860009D010895CF938091F502882321F1F99984
:1018700022C09FEF980F9A3090F490E0FC01ED5455
:10188000FF4FC4916C2F87960E942D1BC11102C07F
:101890008BE003C08091F5028F5F8093F502809109
:1018A000F5028B3041F46091020382E390E00E94E4
:1018B0002D1B1092F502CF9108951F93CF93DF93C4
:1018C000C8E2D0E0FE01E457FF4F1491CE010E9420
:1018D000191B181306C0112331F02196C233D1050C
:1018E00089F780E001C081E0DF91CF911F910895D9
:1018F0000F931F930E94491400917E0310917F0360
:101900002091800330918103DC01CB01801B910B7E
:10191000A20BB30B0B97A105B10508F44CC080E0F6
:101920000E94D313092E000CAA0BBB0B4091760327
:10193000509177036091780370917903840F951F1C
:10194000A61FB71F8093760390937703A093780325
:10195000B093790386E00E94D313092E000CAA0BE2
:10196000BB0B40917A0350917B0360917C03709193
:101970007D03840F951FA61FB71F80937A03909352
:101980007B03A0937C03B0937D0380E00E94AD13A2
:1019900080917E0390917F03A0918003B091810399
:1019A0000A96A11DB11D80937E0390937F03A0939F
:1019B0008003B09381031F910F910895CF92DF921E
:1019C000EF92FF92C0908303D0908403E090850350
:1019D000F090860320E030E040E950E4C701B60112
:1019E0000E942F18181664F420E030E040EB50E419
:1019F000C701B6010E940618881F8827881F01C0EA
:101A000080E0FF90EF90DF90CF900895CF92DF922B
:101A1000EF92FF92C0908703D0908803E0908903F3
:101A2000F0908A0326E636E646E65FE3C701B60194
:101A30000E942F18181664F426E636E646EA5FE39D
:101A4000C701B6010E940618881F8827881F01C099
:101A500080E0FF90EF90DF90CF9008958EE190E0CE
:101A60000E94271BF9990AC08434914449F064E428
:101A700071E48EE190E00E944B1B02C080E008956B
:101A800081E0089580E290E00E94211BDC01CB01FF
:101A9000F99912C0409183035091840360918503AA
:101AA0007091860384179507A607B70739F080E27F
:101AB00090E00E943F1B02C080E0089581E00895FD
:101AC00084E290E00E94211BDC01CB01F99912C055
:101AD00040918703509188036091890370918A0334
:101AE00084179507A607B70739F084E290E00E94B3
:101AF0003F1B02C080E0089581E008958EE190E0F0
:101B00000E94271B8434914481F580E290E00E947A
:101B1000211B6093830370938403809385039093C8
:101B200086030E94DE0C882301F184E290E00E948B
:101B3000211B60938703709388038093890390939C
:101B40008A030E94060D81110CC081E79DE3AAE87B
:101B5000BFE38093870390938803A0938903B09396
:101B60008A031092820381E0089580E090E0A0EA69
:101B7000B0E48093830390938403A0938503B09390
:101B8000860381E79DE3AAE8BFE3809387039093F0
:101B90008803A0938903B0938A0381E08093820332
:101BA00080E00895CF93C0918203C23038F10E9443
:101BB000DE0C882301F10E94060D8823E1F08EE1FE
:101BC00090E00E94271B8434914419F0CF910C942B
:101BD0002E0DC33039F40E94600D882319F0109245
:101BE00082030CC080918203823041F40E94420D36
:101BF0008111F5CF03C0CF910C947E0DCF91089544
:101C0000AF92BF92CF92DF92EF92FF920F931F930A
:101C1000CF93DF9380918B03882309F4D1C087E0B1
:101C20000E94D3137C01C0919503D09196038C1729
:101C30009D074CF01B9BC8C08FB7F8942B988FBFA3
:101C400010928B03C1C08091980390919903C81B97
:101C5000D90BD595C7950E94491400918D03109119
:101C60008E0320918F03309190035B016C01A01AC9
:101C7000B10AC20AD30A9601850180919803909116
:101C800099038C0F9D1FE816F9060CF05BC01B9B97
:101C900039C080919503909196038E199F09BE01DA
:101CA0000E94BC1740ED57E0649FC001659F900DF6
:101CB000749F900D1124092E000CAA0BBB0B8A0DEA
:101CC0009B1DAC1DBD1D813D9740A105B10508F4CC
:101CD0007BC08FB7F8942B988FBF80919103909120
:101CE0009203A0919303B0919403080F191F2A1F28
:101CF0003B1F00939103109392032093930330931F
:101D0000940362C081EDA81687E0B806C104D1042F
:101D100008F45AC08FB7F8942B9A8FBF41EAA416E3
:101D20004FE0B406C104D10458F580918D03909121
:101D30008E03A0918F03B09190038053984FAF4FC3
:101D4000BF4F35C01B9B0AC006501F4F2F4F3F4F40
:101D50000131174221053105B8F132C041E1A41625
:101D600047E2B406C104D10478F18FB7F8942B9AF6
:101D70008FBF81E2A8168EE4B806C104D10458F0E2
:101D80000E94491460938D0370938E0380938F0398
:101D90009093900319C080918D0390918E03A09130
:101DA0008F03B0919003805F984DAF4FBF4F8093EA
:101DB0008D0390938E03A0938F03B093900304C080
:101DC0008FB7F8942B988FBFDF91CF911F910F9110
:101DD000FF90EF90DF90CF90BF90AF900895FC01FF
:101DE000208131812B54314081E02738310508F0C2
:101DF00080E00895FC01208131812E53314081E043
:101E00002636310508F080E00895FC0120813181FB
:101E10002559324081E02F30314008F080E00895AC
:101E2000FC01208131812C57324081E02B3C31056F
:101E300008F080E008958CE390E00E94271BF99958
:101E40000CC060919503709196038617970739F03F
:101E50008CE390E00E944B1B02C080E0089581E07B
:101E600008958EE390E00E94271BF9990CC06091C1
:101E70009803709199038617970739F08EE390E0E5
:101E80000E944B1B02C080E0089581E00895EF920C
:101E9000FF920F931F93CF93DF9300D000D0CDB765
:101EA000DEB78CE390E00E94271B7C019C838B8330
:101EB0008EE390E00E94271B8C019A838983CE01D8
:101EC00003960E94EF0E811106C0CE0103960E9478
:101ED000050F8823C1F0CE0101960E94FA0E8111F0
:101EE00006C0CE0101960E94100F882361F0F09287
:101EF0009603E09295031093990300939803109230
:101F0000970381E010C08DE891E090939603809351
:101F1000950386E791E0909399038093980381E07D
:101F20008093970380E00F900F900F900F90DF91B8
:101F3000CF911F910F91FF90EF900895809197039B
:101F4000823058F1823099F485E993E00E94EF0ED7
:101F5000811106C085E993E00E94050F882339F0BE
:101F60000E941B0F882319F0109297030895809107
:101F70009703833081F488E993E00E94FA0E81117F
:101F800006C088E993E00E94100F882321F00E9488
:101F9000310F8111E9CF0C94470F0895FC01208186
:101FA00031812B53310981E02539310508F080E07A
:101FB0000895FC01208131812951310981E02035CA
:101FC000310508F080E00895FC0120813181265719
:101FD000310981E02932314008F080E00895FC01A8
:101FE000208131812253310981E02E39310508F0F9
:101FF00080E00895FC0140815181628173814054E9
:102000005F416109710981E041345F4C66437105AC
:1020100008F080E0089586E490E00E94271BF9997B
:102020000CC060919E0370919F038617970739F04B
:1020300086E490E00E944B1B02C080E0089581E09E
:10204000089588E490E00E94271BF9990CC06091E4
:10205000A1037091A2038617970739F088E490E0F6
:102060000E944B1B02C080E0089581E008958AE43D
:1020700090E00E94211BDC01CB01F99912C0409134
:10208000A3035091A4036091A5037091A603841744
:102090009507A607B70739F08AE490E00E943F1B36
:1020A00002C080E0089581E008958EE490E00E94EF
:1020B000211BDC01CB01F99912C040919A03509188
:1020C0009B0360919C0370919D0384179507A6075D
:1020D000B70739F08EE490E00E943F1B02C080E019
:1020E000089581E00895CF92DF92EF92FF921F93BF
:1020F000CF93DF93CDB7DEB72C970FB6F894DEBF42
:102100000FBECDBF86E490E00E94271B7C019C8718
:102110008B87CE010B960E94CE0F811106C0CE0197
:102120000B960E94E40F882331F0F0929F03E09217
:102130009E0310E001C011E088E490E00E94271B9C
:102140007C019A878987CE0109960E94D90F811157
:1021500006C0CE0109960E94EF0F882329F0F09265
:10216000A203E092A10301C011E08AE490E00E9482
:10217000211B6B017C016D837E838F839887CE0149
:1021800005960E94FA0F882349F0C092A303D092CB
:10219000A403E092A503F092A60301C011E08EE42F
:1021A00090E00E94211B6B017C0169837A838B8301
:1021B0009C83CE0101960E94FA0F811125C080E513
:1021C00090E090939F0380939E0388E290E0909329
:1021D000A2038093A10380E89FE4A2E1B0E0809392
:1021E000A3039093A403A093A503B093A6038093A5
:1021F0009A0390939B03A0939C03B0939D0381E06B
:102200008093A00380E00DC0C0929A03D0929B03FC
:10221000E0929C03F0929D031111D1CF1092A00384
:1022200081E02C960FB6F894DEBF0FBECDBFDF91D4
:10223000CF911F91FF90EF90DF90CF900895809104
:10224000A003823008F447C0823099F48EE993E00D
:102250000E94CE0F811106C08EE993E00E94E40F28
:10226000882339F00E940B10882319F01092A003E4
:1022700008958091A003833081F481EA93E00E9465
:10228000D90F811106C081EA93E00E94EF0F8823E5
:1022900021F00E9421108111E9CF8091A0038430A8
:1022A00051F483EA93E00E94FA0F882321F00E9400
:1022B00037108111DBCF8091A003853051F48AE97A
:1022C00093E00E94FA0F882321F00E94551081119B
:1022D000CDCF0C9473100895CF92DF92EF92FF92BE
:1022E000CF93DF9381E00E94D313EC010E94491445
:1022F000C090A903D090AA03E090AB03F090AC0388
:102300009B01AC012C193D094E095F0969017A0155
:102310008091A70381111FC039EFC3163AE2D3069B
:10232000E104F10408F49EC08091A1039091A203FE
:102330008C179D0714F481E001C084E08093A7030B
:102340000E9449146093A9037093AA038093AB037E
:102350009093AC0387C08130F9F48091A1039091F0
:10236000A203C817D9076CF482E08093A7030E94E8
:1023700049146093A9037093AA038093AB039093CD
:10238000AC0341E0C41642EAD4064AE4E40644E061
:10239000F40608F467C03EC08230B9F48091A1030E
:1023A0009091A203C817D90734F680919A039091AF
:1023B0009B03A0919C03B0919D0382179307A407F0
:1023C000B50708F04FC083E0B9CF833021F480E82F
:1023D0008093A80339C08430F9F480919E039091D2
:1023E0009F038C179D076CF485E08093A7030E94E0
:1023F00049146093A9037093AA038093AB0390934D
:10240000AC0351E0C51652EAD5065AE4E50654E09D
:10241000F50640F187E092CF8530C1F480919E03AC
:1024200090919F038C179D077CF48091A30390915A
:10243000A403A091A503B091A60382179307A40754
:10244000B50780F486E00CC084E00AC0863029F429
:1024500080E48093A80381E003C0873019F087E00F
:102460008093A703DF91CF91FF90EF90DF90CF9003
:1024700008951F920F920FB60F9211242F933F933E
:102480004F935F938F939F93EF93FF932091C0009F
:102490003091C60028718091A20190E001968F7161
:1024A00099274091A10150E08417950739F0809356
:1024B000A201FC01EB55FE4F308301C022E02093C6
:1024C000A001FF91EF919F918F915F914F913F916B
:1024D0002F910F900FBE0F901F9018951F920F9283
:1024E0000FB60F9211248F939F93EF93FF939091C8
:1024F000A4018091A301981779F08091A30190E045
:1025000001968F7199278093A301FC01EB53FE4F35
:1025100080818093C60005C08091C1008F7D80932B
:10252000C100FF91EF919F918F910F900FBE0F907F
:102530001F9018951092A4011092A3011092A2016D
:102540001092A10197FF04C022E02093C0009F7762
:1025500028E92093C10026E02093C2009093C50093
:102560008093C40008959091A2018091A1019817D1
:10257000A1F08091A10190E001968F71992780933D
:10258000A101FC01EB55FE4F20818091A00190E05C
:10259000982F8827820F911D089580E091E008957B
:1025A0002091A40130E02F5F3F4F2F7133274091DE
:1025B000A30150E024173507D1F3F901EB53FE4F87
:1025C00080832093A4018091C10080628093C10028
:1025D00008950E94D01280E090E008958091A201B9
:1025E0002091A10190E08096821B91098F7199271B
:1025F00008950E94EE12892BE1F30E94B3128D30F0
:10260000910511F48AE090E0992708950F931F93A4
:102610008B019C01DC01CB01805A9C41A94EBF4F2C
:10262000BC01CD0143E0660F771F881F991F4A95B3
:10263000D1F7A9019801E4E0220F331F441F551F71
:10264000EA95D1F70E94D017C90101970E949A120A
:1026500080E091E01F910F9108951F920F920FB6A5
:102660000F9211242F938F939F93EF93FF93E091F9
:10267000AD03F0E08091780090917900EE0FFF1F9C
:10268000E155FC4F918380838091AD038F5F8093F0
:10269000AD038091AD03813029F41B9B03C086E01C
:1026A0008093AD038091AD03823019F486E080936E
:1026B000AD038091AD03873029F41B9B03C088E0F4
:1026C0008093AD038091AD038830B0F480917C009D
:1026D000807F80937C0080917C002091AE0390915C
:1026E000AD038F71822B890F80937C0080917A00DB
:1026F000806480937A000CC01092AD038FEF9FE747
:102700009093C0038093BF038091E5018111DECFD8
:10271000FF91EF919F918F912F910F900FBE0F908E
:102720001F9018958093AE031092E501ECE7F0E05E
:1027300090819073892B8083EAE7F0E08081846048
:10274000808380818260808380818E7F808380818E
:10275000806880831092C10308951092AD03109297
:10276000C0031092BF038093E501ECE7F0E08081A5
:102770009091AE038073892B8083EAE7F0E080813B
:102780008460808380818260808380818E7F80836B
:10279000808187758868808380818064808381E000
:1027A0008093C10308959091C103992361F02FB7DD
:1027B000F894E82FF0E0EE0FFF1FE155FC4F808109
:1027C00091812FBF089520917C0020739091AE03DA
:1027D000E82FE770822F892BE82BE0937C00809113
:1027E0007A00806480937A0080917A0086FDFCCF25
:1027F000809178002091790090E0922B08951F92AB
:102800000F920FB60F9211242F933F938F939F93A4
:10281000AF93BF938091E7019091E801A091E90106
:10282000B091EA013091E6012DE2230F2D3720F41B
:102830000196A11DB11D05C020EB230F0296A11D1D
:10284000B11D2093E6018093E7019093E801A093E6
:10285000E901B093EA018091EB019091EC01A09124
:10286000ED01B091EE010196A11DB11D8093EB0128
:102870009093EC01A093ED01B093EE01BF91AF9165
:102880009F918F913F912F910F900FBE0F901F90AE
:1028900018952FB7F8946091E7017091E801809145
:1028A000E9019091EA012FBF089584B5826084BD4B
:1028B00084B5816084BD85B5826085BD85B5816044
:1028C00085BDEEE6F0E0808181608083E1E8F0E0A4
:1028D0001082808182608083808181608083E0E8D3
:1028E000F0E0808181608083E1EBF0E080818460B2
:1028F0008083E0EBF0E0808181608083E1E9F0E0BB
:10290000808182608083808181608083E0E9F0E063
:10291000808181608083E1EAF0E080818260808351
:10292000808181608083E0EAF0E080818160808343
:102930000895089508951092580291E090935602D8
:1029400010925502882321F03C98449A3D98459A6C
:102950008091B9008E7F8093B9008091B9008D7FFE
:102960008093B90084E38093B80085E48093BC0031
:102970000895880F8093BA000895613298F42091E9
:102980005802243089F460931102282FA3E1B2E0A9
:10299000FC018E2F821B861718F481918D93F9CF3D
:1029A00080E0089581E0089582E0089590930F01FA
:1029B00080930E0108959093110180931001089562
:1029C00085ED8093BC008091BC0084FDFCCF10920B
:1029D0005802089585EC8093BC0010925802089527
:1029E0001F920F920FB60F9211242F933F934F9384
:1029F0005F936F937F938F939F93AF93BF93EF9367
:102A0000FF938091B900887F803609F49EC078F5E5
:102A1000883209F45DC090F4803109F456C038F46E
:102A2000882309F4F5C0883009F44FC0F5C0883117
:102A300009F44EC0803209F45FC0EEC0803409F45E
:102A40006AC058F4803309F457C0883309F0E4C0F1
:102A50008093EF010E94EA14DFC0803509F44FC073
:102A6000883509F45DC0883409F0D6C0D3C08839F0
:102A700009F4C4C0A8F4883709F467C038F488366C
:102A800009F463C0803709F460C0C6C0883809F40F
:102A9000B5C0803909F45FC0803809F0BDC05BC0A3
:102AA000803B09F483C038F4803A09F466C0883A60
:102AB00009F47CC0B1C0803C09F4A4C0883C09F48E
:102AC000A1C0883B09F487C0A7C08091570210C0FD
:102AD0009091340280913302981770F5E09134029E
:102AE00081E08E0F80933402F0E0EB5CFD4F80813B
:102AF0008093BB0085EC83C08093EF018BC0E09195
:102B0000340281E08E0F809334028091BB00F0E0AC
:102B1000EB5CFD4F808390913402809133026BC057
:102B2000E091340281E08E0F809334028091BB00EB
:102B3000F0E0EB5CFD4F80838091560281116AC00A
:102B400081E08093550284EA5EC083E0809358025E
:102B50001092F001CFCF8091F001803208F04EC08A
:102B6000E091F00181E08E0F8093F0018091BB0035
:102B7000F0E0EF50FE4F8083BDCF0E94EA148091B9
:102B8000F001803230F4E091F001F0E0EF50FE4FC0
:102B900010826091F00170E0E0910E01F0910F0160
:102BA00081EF91E009951092F00136C084E08093A6
:102BB00058021092120210921102E0911001F0914D
:102BC0001101099580911102811105C081E0809366
:102BD000110210921302E091120281E08E0F809395
:102BE0001202F0E0ED5EFD4F80818093BB0090917A
:102BF000120280911102981708F47CCF85E8809327
:102C0000BC000AC085EC8093BC001092580204C03E
:102C10001092EF010E94E014FF91EF91BF91AF91EC
:102C20009F918F917F916F915F914F913F912F91E4
:102C30000F900FBE0F901F901895089508952DE7DF
:102C400032E030935C0220935B021092E40291E048
:102C50009093E2021092E102882321F06898709A22
:102C60006998719A8091D9008E7F8093D900809164
:102C7000D9008D7F8093D90084E38093D80085E4C8
:102C80008093DC000895880F8093DA000895613204
:102C900098F42091E402243089F460939D02282F57
:102CA000AFE9B2E0FC018E2F821B861718F48191E8
:102CB0008D93F9CF80E0089581E0089582E0089532
:102CC00090931301809312010895909315018093BE
:102CD0001401089585ED8093DC008091DC0084FD73
:102CE000FCCF1092E402089585EC8093DC001092F2
:102CF000E40208951F920F920FB60F9211242F93A2
:102D00003F934F935F936F937F938F939F93AF9373
:102D1000BF93EF93FF938091D900887F803609F4A9
:102D20009EC078F5883209F45DC090F4803109F4D2
:102D300056C038F4882309F40AC1883009F44FC01A
:102D40000AC1883109F44EC0803209F45FC003C162
:102D5000803409F46AC058F4803309F457C08833CA
:102D600009F0F9C0809359020E947416F4C08035AE
:102D700009F44FC0883509F45DC0883409F0EBC010
:102D8000E8C0883909F4D9C0A8F4883709F467C0C5
:102D900038F4883609F463C0803709F460C0DBC0BA
:102DA000883809F4CAC0803909F45FC0803809F056
:102DB000D2C05BC0803B09F498C038F4803A09F473
:102DC00069C0883A09F491C0C6C0803C09F4B9C012
:102DD000883C09F4B6C0883B09F49CC0BCC0809113
:102DE000E30210C09091C0028091BF02981770F565
:102DF000E091C00281E08E0F8093C002F0E0EF53BB
:102E0000FD4F80818093DB0085EC98C08093590250
:102E1000A0C0E091C00281E08E0F8093C00280913B
:102E2000DB00F0E0EF53FD4F80839091C002809172
:102E3000BF0280C0E091C00281E08E0F8093C0028B
:102E40008091DB00F0E0EF53FD4F80838091E20240
:102E500081117FC081E08093E10284EA73C083E046
:102E60008093E40210925A02CFCF80915A028032AE
:102E700008F063C0E0915B02F0915C0280915A021D
:102E800091E0980F90935A029091DB00E80FF11DAA
:102E90009083BACF0E94741620915A0280915B02EF
:102EA00090915C02203230F420915A02FC01E20F32
:102EB000F11D108260915A0270E0E0911201F091D0
:102EC0001301099580915B0290915C028D579240AD
:102ED00019F48DE592E002C08DE792E090935C02D8
:102EE00080935B0210925A0236C084E08093E40221
:102EF00010929E0210929D02E0911401F091150132
:102F0000099580919D02811105C081E080939D0209
:102F100010929F02E0919E0281E08E0F80939E02AC
:102F2000F0E0E156FD4F80818093DB0090919E029E
:102F300080919D02981708F467CF85E88093DC00A4
:102F40000AC085EC8093DC001092E40204C0109269
:102F500059020E946A16FF91EF91BF91AF919F9124
:102F60008F917F916F915F914F913F912F910F9032
:102F70000FBE0F901F90189597FB072E16F4009424
:102F800007D077FD09D00E94F21707FC05D03EF468
:102F9000909581959F4F0895709561957F4F089505
:102FA000A1E21A2EAA1BBB1BFD010DC0AA1FBB1F4D
:102FB000EE1FFF1FA217B307E407F50720F0A21BBF
:102FC000B30BE40BF50B661F771F881F991F1A942C
:102FD00069F760957095809590959B01AC01BD0156
:102FE000CF010895AA1BBB1B51E107C0AA1FBB1F3D
:102FF000A617B70710F0A61BB70B881F991F5A9585
:10300000A9F780959095BC01CD0108950E940B18F9
:1030100008F481E00895990F0008550FAA0BE0E825
:10302000FEEF16161706E807F907C0F0121613068A
:10303000E407F50798F0621B730B840B950B39F4CA
:103040000A2661F0232B242B252B21F408950A2630
:1030500009F4A140A6958FEF811D811D08950E945E
:103060000B1808F48FEF0895CF93DF93EC012B81B9
:1030700020FF33C026FF0AC02F7B2B838E819F81C8
:1030800001969F838E838A8190E029C022FF0FC022
:10309000E881F9818081082E000C990B009719F4C2
:1030A00020622B831AC03196F983E8830EC0EA852B
:1030B000FB85099597FF09C02B81019611F080E2ED
:1030C00001C080E1822B8B8308C02E813F812F5F5E
:1030D0003F4F3F832E83992702C08FEF9FEFDF91F1
:1030E000CF910895A0E0B0E0E8E7F8E10C94711BFF
:1030F000AE014B5F5F4FFA0161917191AF01809119
:10310000C4039091C5030E948818E2E00C948D1BC3
:10311000ABE0B0E0EEE8F8E10C94611B6C017B01E0
:103120008A01FC0117821682838181FFCCC1CE0106
:1031300001963C01F6019381F70193FD859193FF80
:1031400081917F01882309F4BAC1853239F493FD56
:10315000859193FF81917F01853229F4B60190E03A
:103160000E947F1AE7CF912C212C312CFFE1F3151F
:10317000D8F08B3279F038F4803279F08332A1F4D0
:10318000232D20611DC08D3261F0803369F4232D21
:10319000216016C0832D8260382EE32DE4603E2E20
:1031A0002AC0F32DF8601DC037FC2DC020ED280F7C
:1031B0002A3040F08E32B9F436FC81C1232D2064D0
:1031C000322E19C036FE06C08AE0989E200D1124CA
:1031D000922E11C0EAE02E9E200D1124222EF32DF6
:1031E000F0623F2E08C08C3621F4832D8068382E83
:1031F00002C0883641F4F70193FD859193FF8191D8
:103200007F018111B3CF982F9F7D9554933028F47F
:103210000C5F1F4F9FE399830DC0833631F08337D6
:1032200071F0833509F059C021C0F801808189838C
:103230000E5F1F4F88248394912C530113C02801E3
:10324000F2E04F0E511CF801A080B18036FE03C0A1
:10325000692D70E002C06FEF7FEFC5010E94741A04
:103260004C018201F32DFF773F2E16C0280122E08A
:10327000420E511CF801A080B18036FE03C0692DBA
:1032800070E002C06FEF7FEFC5010E94691A4C0128
:10329000F32DF0683F2E820133FC1BC0822D90E09D
:1032A00088169906B0F4B60180E290E00E947F1A79
:1032B0002A94F4CFF50137FC859137FE81915F01A7
:1032C000B60190E00E947F1A21102A9421E0821A10
:1032D00091088114910471F7E8C0843611F08936A1
:1032E00041F5F80137FE07C06081718182819381C9
:1032F0000C5F1F4F08C060817181072E000C880B86
:10330000990B0E5F1F4FF32DFF763F2E97FF09C0DD
:1033100090958095709561957F4F8F4F9F4FF06886
:103320003F2E2AE030E0A3010E94BB1A882E8618A7
:1033300045C0853731F4232D2F7EB22E2AE030E0B0
:1033400025C0932D997FB92E8F36C1F018F488359A
:1033500079F0B5C0803719F0883721F0B0C0E92F77
:10336000E061BE2EB4FE0DC0FB2DF460BF2E09C07F
:1033700034FE0AC0292F2660B22E06C028E030E0B5
:1033800005C020E130E002C020E132E0F801B7FEE4
:1033900007C060817181828193810C5F1F4F06C0DD
:1033A0006081718180E090E00E5F1F4FA3010E9459
:1033B000BB1A882E8618FB2DFF773F2E36FE0DC0D8
:1033C000232D2E7FA22E891458F434FE0BC032FC1C
:1033D00009C0832D8E7EA82E05C0B82CA32C03C057
:1033E000B82C01C0B92CA4FE0FC0FE01E80DF11DE0
:1033F0008081803321F49A2D997EA92E09C0A2FEE6
:1034000006C0B394B39404C08A2D867809F0B394AF
:10341000A3FC11C0A0FE06C0B21488F4280C922CA4
:103420009B180EC0B21460F4B60180E290E00E94D6
:103430007F1AB394F7CFB21418F42B1802C0982C4B
:10344000212CA4FE10C0B60180E390E00E947F1AF8
:10345000A2FE17C0A1FC03C088E790E002C088E587
:1034600090E0B6010CC08A2D867859F0A1FE02C00A
:103470008BE201C080E2A7FC8DE2B60190E00E94E1
:103480007F1A891438F4B60180E390E00E947F1A15
:103490009A94F7CF8A94F301E80DF11D8081B6016B
:1034A00090E00E947F1A8110F5CF222009F442CECD
:1034B000B60180E290E00E947F1A2A94F6CFF601CE
:1034C0008681978102C08FEF9FEF2B96E2E10C94EB
:1034D0007D1BFC010590615070400110D8F780956C
:1034E00090958E0F9F1F0895FC01615070400190D0
:1034F0000110D8F7809590958E0F9F1F08950F9318
:103500001F93CF93DF93FB01238121FD03C08FEF36
:103510009FEF2CC022FF16C0468157812481358140
:103520004217530744F4A081B1819D012F5F3F4FA3
:10353000318320838C93268137812F5F3F4F3783E0
:10354000268314C08B01EC01FB010084F185E02D82
:103550000995892BE1F6D80116968D919C911797C4
:10356000019617969C938E931697CE01DF91CF917B
:103570001F910F910895FA01AA27283051F12031A7
:1035800081F1E8946F936E7F6E5F7F4F8F4F9F4FF7
:10359000AF4FB1E03ED0B4E03CD0670F781F891F39
:1035A0009A1FA11D680F791F8A1F911DA11D6A0F07
:1035B000711D811D911DA11D20D009F468943F91BA
:1035C0002AE0269F11243019305D3193DEF6CF01B9
:1035D0000895462F4770405D4193B3E00FD0C9F77F
:1035E000F6CF462F4F70405D4A3318F0495D31FDEC
:1035F0004052419302D0A9F7EACFB4E0A69597953F
:10360000879577956795BA95C9F700976105710514
:1036100008959B01AC010A2E06945795479537955E
:103620002795BA95C9F7620F731F841F951FA01DB8
:103630000895F999FECF92BD81BDF89A992780B57A
:103640000895A6E1B0E044E050E00C94531BA8E1DB
:10365000B0E042E050E00C94531B262FF999FECFC6
:1036600092BD81BDF89A019700B4021639F01FBAD5
:1036700020BD0FB6F894FA9AF99A0FBE08950396F2
:10368000272F0E942E1B0E942D1B252F0E942E1BD0
:10369000242F0C942E1B0196272F0E942E1B0C9476
:1036A0002D1BDC01CB01FC01F999FECF06C0F2BD58
:1036B000E1BDF89A319600B40D9241505040B8F7F0
:1036C00008952F923F924F925F926F927F928F92C6
:1036D0009F92AF92BF92CF92DF92EF92FF920F93A1
:1036E0001F93CF93DF93CDB7DEB7CA1BDB0B0FB6AB
:1036F000F894DEBF0FBECDBF09942A883988488868
:103700005F846E847D848C849B84AA84B984C884FD
:10371000DF80EE80FD800C811B81AA81B981CE0FF4
:10372000D11D0FB6F894DEBF0FBECDBFED010895D9
:04373000F894FFCF3B
:103734000000000300000000E912F91200009A14CE
:1037440099141E161D162563256300A10949065800
:10375400065D0662067E0969067206500A97069C93
:1037640006B206C806D606EC067D0851085C086752
:10377400087208020710071E0763079F0AF10A8DE3
:10378400080409A807ED0733083208AA0B490658AC
:10379400065D0662067E0969067206500A97069C53
:1037A40006B206C806D606EC067D0851085C086712
:1037B400087208020710071E0763079F0AF10A8DA3
:0C37C400080409A807ED073308320800CC
:00000001FF
