:100000000C945D000C947A000C947A000C947A00A5
:100010000C947A000C947A000C947A000C947A0078
:100020000C947A000C947A000C947A000C947A0068
:100030000C947A000C947A000C947A000C947A0058
:100040000C9443170C947A000C9499150C94CE15CB
:100050000C947A000C9481160C947A000C947A001B
:100060000C9449180C947A000C947A000C947A0041
:100070000C947A000C947A000C947A000C947A0018
:100080000C947A000C947A000C947A000C947A0008
:100090000C947A000C947A000C947A000C947A00F8
:1000A0000C945C1C0C947A000C947A000C947A00EA
:1000B0000C947A0052505569640011241FBECFEF92
:1000C000D8E0DEBFCDBF11E0A0E0B1E0E4EBF6E4A4
:1000D00002C005900D92A43AB107D9F724E0A4EA32
:1000E000B1E001C01D92AD31B207E1F70E947B1F64
:1000F0000C9458230C94000080910A038823C1F0CB
:100100008FB7F89443988FBF8FB7F8945C988FBFE0
:1001100080910903882321F08FB7F8945D9A03C07A
:100120008FB7F8945D988FBF8FB7F894429A17C035
:100130008FB7F894439A8FBF8FB7F8945C988FBFAE
:1001400080910903882321F08FB7F8945D9A03C04A
:100150008FB7F8945D988FBF8FB7F89442988FBF90
:10016000089580910603811192C08BE093E00E9474
:100170001F1820910303277F09F067C020910A030D
:10018000222321F096958795779567952091020314
:100190002223D9F06C34710581059105B0F093B13B
:1001A0008FB7F89495FD02C02D9A01C02D988FBF8E
:1001B00080910B0390910C03A0910D03B0910E035D
:1001C000855B9F4FAF4FBF4F5AC020910103222341
:1001D000E1F0613D27E0720781059105B0F093B130
:1001E0008FB7F89495FD02C02D9A01C02D988FBF4E
:1001F00080910B0390910C03A0910D03B0910E031D
:100200008053984FAF4FBF4F3AC02091160322231F
:1002100009F43DC0653F714081059105C0F193B17E
:100220008FB7F89495FD02C02D9A01C02D988FBF0D
:1002300080910B0390910C03A0910D03B0910E03DC
:100240008C509E4FAF4FBF4F1AC0693C710581055E
:100250009105E8F093B18FB7F89495FD02C02D9AFF
:1002600001C02D988FBF80910B0390910C03A0913A
:100270000D03B0910E0388539F4FAF4FBF4F809334
:100280000B0390930C03A0930D03B0930E030895FA
:10029000809102038823A1F088EF92E00E941F184A
:1002A00020910F0321110CC06933714C81409105DD
:1002B00038F00E947C0081E08093160310920203C4
:1002C00008958CEF92E00E941F1820910F032111D6
:1002D00010C020910103222361F0613C744D8140E4
:1002E000910538F00E947C0081E080931603109203
:1002F00001030895809105038823B9F080E193E01C
:100300000E941F18693E73408105910598F18FB7CF
:10031000F89420988FBF8FB7F894289A8FBF1092C7
:10032000050381E0809306030895809106038111FF
:1003300021C018991FC08FB7F894209A8FBF8FB72C
:10034000F89428988FBF8FB7F894259A8FBF8FB7EE
:10035000F8942D9A8FBF1092060381E080930503D5
:100360000E94A617609310037093110380931203E9
:1003700090931303089580910A038111B5C04B999E
:1003800056C08091030383FDAFC04A9B05C08FB761
:10039000F8945A988FBF0895809102038111A4C0E8
:1003A000809101038111A0C08091160381119CC02E
:1003B00080911803811198C00E94A61760931D03B5
:1003C00070931E0380931F03909320038091140366
:1003D00080931A0320911A0390911A0340911A03F3
:1003E00030E0209530952A70332764E0220F331FC8
:1003F0006A95E1F7892F90E080959095807599270F
:1004000074E0959587957A95E1F7822B932B9F93CE
:100410008F931F924F9386E191E09F938F930E9459
:10042000322081E0809318038093040357C08091A9
:100430001603882309F458C080910403882309F423
:1004400053C08091180381114FC080910203811124
:100450004BC080910103811147C00E94A617609391
:100460001D0370931E0380931F03909320038FEC52
:1004700080931A0320911A0390911A0340911A0352
:1004800030E0209530952A70332784E0220F331F07
:100490008A95E1F7892F90E080959095807599274E
:1004A00054E0959587955A95E1F7822B932B9F936E
:1004B0008F931F924F9386E191E09F938F930E94B9
:1004C000322081E0809318038FB7F8942D9A8FBF64
:1004D000109204038FB7F8945A9A8FBF0F900F9021
:1004E0000F900F900F900F90089580910A0388232A
:1004F00081F08FB7F89443988FBF8FB7F8945C98CA
:100500008FBF8FB7F8945D9A8FBF8FB7F894429AD8
:100510000FC08FB7F894439A8FBF8FB7F8945C9849
:100520008FBF8FB7F8945D9A8FBF8FB7F8944298BA
:100530008FBF089580910A03882381F08FB7F894C4
:1005400043988FBF8FB7F8945C9A8FBF8FB7F8949A
:100550005D988FBF8FB7F894429A0FC08FB7F89409
:10056000439A8FBF8FB7F8945C9A8FBF8FB7F89478
:100570005D988FBF8FB7F89442988FBF08958F9280
:100580009F92AF92BF92CF92DF92EF92FF920F9322
:100590001F93CF93DF938DE193E00E941F1820916A
:1005A0001803222369F0653F71408105910540F0F1
:1005B0008091030381708093030310921803E7C1B5
:1005C0000E94FA15892B09F4E2C1809117049091D9
:1005D00018040E94F41F60911B03262F30E0209521
:1005E0003095A9014A70552774E0440F551F7A953C
:1005F000E1F720753327E4E035952795EA95E1F793
:10060000242B352BAC0155272417350739F41092CC
:100610001B0380911803811104C00FC080931B033A
:10062000B6C180911A03681729F080910303847082
:10063000809303031092180304C08091040388235D
:1006400019F010920A0303C081E080930A0361113C
:1006500027C00E94A617DC01CB01805C944DA1400D
:10066000B1098093FC029093FD02A093FE02B09327
:10067000FF020E94A617DC01CB018853914CA140D8
:10068000B1098093F8029093F902A093FA02B09313
:10069000FB028FB7F8942D988FBF10920F0350C1B3
:1006A0006F3F31F41092170381E080930F036FC105
:1006B000613009F06DC0E9B179B156B189B149B184
:1006C00099B129B136B1E3FBAA24A0F8B12CB694B4
:1006D000BA2CAA24B794A79472FBCC24C0F8D12CCE
:1006E000F6E0CC0CDD1CFA95E1F7CA2833FBAA240E
:1006F000A0F8CA2852FBEE24E0F8F12CA5E0EE0C9D
:10070000FF1CAA95E1F7EC2885FB002700F910E013
:10071000B4E0000F111FBA95E1F70E2946FB4427FC
:1007200040F9C42F80E0D82F13E0CC0FDD1F1A95BD
:10073000E1F7C02B892F990F990B8827990F881FF4
:100740009927880F991F880F991F8C2B24FB8824C9
:1007500080F8912C880C991C8829809307038FB707
:10076000F894429A8FBF8FB7F8945D988FBF8FB778
:10077000F8945F988FBF8FB7F8945C9A8FBF8FB74C
:10078000F89443988FBF1092000360931903FFC041
:100790006E3F09F076C080910703881F8827881F65
:1007A0009FB7F894882311F05B9A01C05B989FBFB4
:1007B0008091070386FB882780F99FB7F8948823E8
:1007C00011F05A9A01C05A989FBF8091070385FB88
:1007D000882780F99FB7F894882311F0429A01C0C6
:1007E00042989FBF80910703829581709FB7F894CC
:1007F000882311F05D9A01C05D989FBF8091070327
:1008000083FB882780F99FB7F894882311F05E9ABC
:1008100001C05E989FBF8FB7F894599A8FBF8FB76A
:10082000F89451988FBF8091C10088618093C10076
:100830008091070382FB882780F99FB7F89488236B
:1008400011F05F9A01C05F989FBF80910703869562
:1008500081709FB7F894882311F05C9A01C05C986E
:100860009FBF8091070381709FB7F894882311F090
:10087000439A01C043989FBF10920003109219033E
:1008800086C080911503681346C080911C038111B6
:1008900018C00E9475028FB7F8942A988FBF1092E3
:1008A000C2031092ED030E94A61760932103709378
:1008B0002203809323039093240381E080931C03FD
:1008C00066C081E293E00E941F18643171058105C2
:1008D000910508F45CC08FB7F8942A9A8FBF1092E4
:1008E0001C0381E080930203109209030E94A61763
:1008F00060930B0370930C0380930D0390930E038E
:100900000E94A6176093F8027093F9028093FA028E
:100910009093FB023CC067FD1EC081E08093010301
:1009200010920203109216030E949A020E94A617C8
:100930006093FC027093FD028093FE029093FF028D
:100940000E94A61760930B0370930C0380930D0312
:1009500090930E031CC010920A0310920103109290
:100960001603109202038FB7F8942D9A8FBF8FB79A
:10097000F89443988FBF8FB7F8945C9A8FBF8FB766
:10098000F8945D988FBF8FB7F894429A8FBFDF912C
:10099000CF911F910F91FF90EF90DF90CF90BF907C
:1009A000AF909F908F900895FC01218130ED320F20
:1009B0003B3410F42093140320911403FC01218391
:1009C0000895FC018181909103039F70918387FDBD
:1009D000909303030895FC018091CB039091CC0385
:1009E0002091CD033091CE0331832283938384837E
:1009F0000895FC0181818093ED0382818093E5035A
:100A000083818093E40384818093EE0308950F93A0
:100A10001F93FC01018110E020E030E0302F2227FD
:100A2000112700279281492F50E060E070E0BA0161
:100A300055274427400F511F621F731F84818A016D
:100A40009B01080F111D211D311D438150E060E005
:100A500070E0762F652F542F4427400F511F621FDF
:100A6000731F411551056105710549F480919F037C
:100A70009091A0032091A1033091A20312C04230B3
:100A800051056105710549F48091A3039091A40378
:100A90002091A5033091A60304C080E090E020E0FF
:100AA00030E031832283938384831F910F910895D3
:100AB0001F93CF93DF93FC019181292F2F77223051
:100AC00008F044C09093B40384E0289FE00111240F
:100AD000CB54DC4F588169813A814B8182814283BA
:100AE00043813383348164831581558397FF35C0F7
:100AF00090E0A0E0B0E0B82FAA279927882750E01F
:100B000060E070E0BA0155274427840F951FA61FA7
:100B1000B71F810F911DA11DB11D432F50E060E053
:100B200070E0762F652F542F4427840F951FA61F42
:100B3000B71F88839983AA83BB8380E190E001C0BB
:100B4000880F2A95EAF78093B30307C08FE7818364
:100B50008FEF8283838384838583DF91CF911F917D
:100B6000089508951F93CF93DF93EC0119811130FD
:100B700009F044C080911703811140C00E94A6175C
:100B800060931D0370931E0380931F0390932003B3
:100B90008FEF80931A0320911A0390911A034091CA
:100BA0001A0330E0209530952A70332784E0220F15
:100BB000331F8A95E1F7892F90E080959095807595
:100BC000992754E0959587955A95E1F7822B932BB9
:100BD0009F938F931F924F9386E191E09F938F9302
:100BE0000E943220109318031093170310920F03E2
:100BF0000F900F900F900F900F900F9080910F0318
:100C00008983DF91CF911F910895CF93DF9300D017
:100C1000CDB7DEB7FC01218130E0322F222782815F
:100C2000280F311D3A8329838091D50381838091D8
:100C3000D4038283CE0101960E942710882369F095
:100C400089819A819093D5038093D40383E090E0C7
:100C50009093D3038093D20306C0CE0101960E94E5
:100C60003D108111EDCF0F900F90DF91CF9108953E
:100C7000CF93DF9300D0CDB7DEB7FC01218130E008
:100C8000322F22278281280F311D3A8329838091B8
:100C9000D10381838091D0038283CE0101960E948B
:100CA0001C10882369F089819A819093D1038093E5
:100CB000D00382E090E09093D3038093D20306C0E8
:100CC000CE0101960E9432108111EDCF0F900F904E
:100CD000DF91CF910895CF93DF9300D0CDB7DEB7EA
:100CE000FC01218130E0322F22278281280F311D23
:100CF0003A8329838091DB0381838091DA038283A5
:100D0000CE0101960E940711882369F089819A819A
:100D10009093DB038093DA0382E090E09093DD030D
:100D20008093DC0306C0CE0101960E941D11811143
:100D3000EDCF0F900F90DF91CF910895CF93DF9378
:100D400000D0CDB7DEB7FC01218130E0322F222761
:100D50008281280F311D3A8329838091DF038183AB
:100D60008091DE038283CE0101960E9412118823B6
:100D700069F089819A819093DF038093DE0383E099
:100D800090E09093DD038093DC0306C0CE010196D2
:100D90000E9428118111EDCF0F900F90DF91CF911C
:100DA0000895CF93DF93EC01898190E0982F8827F5
:100DB0002A81820F911D8430910550F4880F991F6C
:100DC000FC01E55AFE4F808191810E94321702C0DA
:100DD00080E090E099838A83DF91CF9108950F930B
:100DE0001F93CF93DF9300D000D0CDB7DEB7FC01C7
:100DF000418150E060E070E0342F22271127002766
:100E00008281482F50E060E070E0BA015527442706
:100E1000400F511F621F731F8481480F511D611DB8
:100E2000711D838190E0A0E0B0E0BA2FA92F982F28
:100E30008827480F591F6A1F7B1F49835A836B837A
:100E40007C838091E30381838091E203828380919C
:100E5000E10383838091E0038483CE0101960E94A5
:100E60004411882391F089819A81AB81BC81809360
:100E7000E0039093E103A093E203B093E30384E0E3
:100E800090E09093DD038093DC030F900F900F9020
:100E90000F90DF91CF911F910F9108950F931F93A2
:100EA000CF93DF9300D000D0CDB7DEB7FC014181F6
:100EB00050E060E070E0342F222711270027828164
:100EC000482F50E060E070E0BA0155274427400FFA
:100ED000511F621F731F8481480F511D611D711DB9
:100EE000838190E0A0E0B0E0BA2FA92F982F882747
:100EF000480F591F6A1F7B1F49835A836B837C836A
:100F00008091D90381838091D80382838091D70314
:100F100083838091D6038483CE0101960E9433118E
:100F2000882391F089819A81AB81BC818093D6031B
:100F30009093D703A093D803B093D90385E090E0B2
:100F40009093DD038093DC030F900F900F900F9030
:100F5000DF91CF911F910F910895CF93DF93EC0113
:100F600089EE93E00E941F1899838A837B836C83A8
:100F7000DF91CF910895FC0191819093C20382810A
:100F80008093CF03992361F01092CB031092CC038E
:100F90001092CD031092CE031092BE031092BD03A7
:100FA00008951F93CF93DF93FC019181292F2F7711
:100FB000243008F044C09093EF0384E0289FE001C0
:100FC0001124CF50DC4F588169813A814B81828155
:100FD000428343813383348164831581558397FF32
:100FE00035C090E0A0E0B0E0B82FAA279927882765
:100FF00050E060E070E0BA0155274427840F951F48
:10100000A61FB71F810F911DA11DB11D432F50E0D9
:1010100060E070E0762F652F542F4427840F951FD2
:10102000A61FB71F88839983AA83BB8380E190E0C2
:1010300001C0880F2A95EAF78093F00307C08FE775
:1010400081838FEF8283838384838583DF91CF9134
:101050001F910895AF92BF92CF92DF92EF92FF92CD
:101060000F931F93CF93DF93FC0180911903882383
:1010700009F454C0A9B0B9B0C6B0D9B039B199B16A
:1010800089B126B1A3FAEE24E0F8F12CF694FE2CF7
:10109000EE24F794E794B2FA002700F910E056E046
:1010A000000F111F5A95E1F70E2923FB222720F983
:1010B000022BC2FACC24C0F8CC2D20E0D22F65E060
:1010C000CC0FDD1F6A95E1F7C02BD5FAAA27A0F94E
:1010D000B0E074E0AA0FBB1F7A95E1F7AC2B36FBAA
:1010E000662760F970E0B3E0660F771FBA95E1F705
:1010F0006A2B292F990F330B2227330F221F3327F7
:10110000220F331F220F331F262B84FB442740F965
:1011100050E0440F551F242B218301C01182DF9121
:10112000CF911F910F91FF90EF90DF90CF90BF90E4
:10113000AF900895FC019181809106038183109204
:1011400006039130F1F48FB7F894209A8FBF8FB7D0
:10115000F89428988FBF8FB7F894259A8FBF8FB7D0
:10116000F8942D9A8FBF90930503109206030E9466
:10117000A61760931003709311038093120390934A
:1011800013030895CF93FC0191818091150381830E
:1011900080ED890F8B3430F49093150381E08093B8
:1011A00008039DC0C1E0C093090380910403882314
:1011B000B1F10E94A61760931D0370931E038093E4
:1011C0001F039093200310921A0320911A03909109
:1011D0001A0340911A0330E0209530952A70332786
:1011E00064E0220F331F6A95E1F7892F90E0809524
:1011F00090958075992774E0959587957A95E1F794
:10120000822B932B9F938F931F924F9386E191E0B4
:101210009F938F930E943220C093180339C080910E
:1012200002038823E1F10E94A61760931D037093C7
:101230001E0380931F039093200310921A032091A2
:101240001A0390911A0340911A0330E020953095CB
:101250002A70332784E0220F331F8A95E1F7892F04
:1012600090E0809590958075992754E095958795A5
:101270005A95E1F7822B932B9F938F931F924F9355
:1012800086E191E09F938F930E9432201092180381
:101290000F900F900F900F900F900F9020C00E9412
:1012A000A617DC01CB01805C944DA140B10980936D
:1012B000FC029093FD02A093FE02B093FF020E94F5
:1012C000A617DC01CB018853914CA140B109809352
:1012D000F8029093F902A093FA02B093FB02CF9127
:1012E0000895CF93FC01C181C13009F048C08091BD
:1012F0000003811142C08091190381113EC00E94F8
:10130000A61760931D0370931E0380931F03909391
:101310002003C0931A0320911A0390911A0340915D
:101320001A0330E0209530952A70332784E0220F8D
:10133000331F8A95E1F7892F90E08095909580750D
:10134000992754E0959587955A95E1F7822B932B31
:101350009F938F931F924F9386E191E09F938F937A
:101360000E943220C0931803C09300030F900F9087
:101370000F900F900F900F9004C082E001C083E0A7
:101380008183CF9108951F93CF93DF93EC0119814F
:10139000113009F06BC080910003811167C080910A
:1013A0001903882309F462C08FB7F894599A8FBF44
:1013B0008FB7F89451988FBF42E060E970ED83E0F9
:1013C00090E00E942B16909318048093170490933A
:1013D0001A04809319048FB7F8945F9A8FBF8FB760
:1013E000F8945E988FBF0E94A61760931D037093B8
:1013F0001E0380931F03909320038EEF80931A03A4
:1014000020911A0380911A0390911A0330E02095DD
:1014100030952A703327A90124E0440F551F2A95DF
:10142000E1F7282F30E0209530952075332764E0D0
:10143000359527956A95E1F7242B352B3F932F930C
:101440001F929F9386E191E09F938F930E94322099
:1014500010931803109300038091070389830F9062
:101460000F900F900F900F900F9001C01982DF9195
:10147000CF911F9108950F931F93CF93DF93FC019A
:1014800080911903882309F476C08181881F8827F9
:10149000881F9FB7F894882311F05B9A01C05B986E
:1014A0009FBF818186FBAA27A0F9B0E08FB7F8948F
:1014B000AB2B11F05A9A01C05A988FBF818185FBDE
:1014C000662760F970E08FB7F894672B11F0429AA5
:1014D00001C042988FBF818184FB442740F950E0CE
:1014E0008FB7F894452B11F05D9A01C05D988FBFBE
:1014F000818183FB222720F930E08FB7F894232BDA
:1015000011F05E9A01C05E98EF018FBF818182FF6A
:101510001AC040E060E070E0CB010E942B1690936F
:1015200018048093170490931A04809319048FB7BA
:10153000F894519A8FBF8FB7F89459988FBF8FB78F
:10154000F8945F9A8FBF898181FB002700F910E032
:101550008FB7F894012B11F05C9A01C05C988FBF93
:10156000898181709FB7F894882311F0439A01C054
:1015700043989FBF01C01182DF91CF911F910F91BE
:101580000895282FA5E2B3E0FC018E2F821B861759
:1015900018F481918D93F9CF603228F4E62FF0E0B2
:1015A000EB5DFC4F11826093A401623010F48FEF69
:1015B0000DC080912503E82FE295EF70E43010F024
:1015C0008EEF04C08F70883020F08DEF809325035C
:1015D000089598E0E99FF0011124E80FF11DEE0F46
:1015E000FF1FE55EFE4F0190F081E02D85E293E064
:1015F00009946091A40185E293E00E94181C88235D
:1016000029F0809103038270809303030895FC0105
:10161000918180911503818380ED890F8B3428F4AB
:101620009093150381E0809308030895D901ED910B
:10163000FC913297F9F491E090934F03809350031B
:1016400082E080934D0360935203409353031092C2
:101650005403809351031092450310924603109255
:1016600047038FB7F8942D988FBF83E090E0F9017E
:10167000918380830895EF92FF920F93CF93DF932E
:10168000EC0188819981039718F17E010091510343
:1016900025E433E040914D0362E573E0809150030F
:1016A0000E94BA1B2881398121303105A9F4982F75
:1016B000907E29F082958695877080934E038FB730
:1016C000F8942D9A8FBF1982188210924F0302C08E
:1016D0001982188280E001C081E0DF91CF910F91E3
:1016E000FF90EF90089590937B0380937A0370E0CE
:1016F00070937D0360937C03089520917C03309167
:101700007D032115310509F467C010927D03109205
:101710007C03E0917A03F0917B032130310511F0D5
:1017200040E01FC0908180915A03981355C080916A
:10173000A701AAE5B3E0EEE7F3E090E0981721F007
:101740002D9121939F5FFACF803228F4E82FF0E0AB
:10175000E258FC4F11828093A60181E08093A5019D
:101760000895842F90E08217930754F4DF01A80FA7
:10177000B91F5C91DC01A65ABC4F5C934F5FF1CF5F
:10178000403220F4FC01E65AFC4F11822093A7015D
:10179000211102C08FEF0DC080915A03E82FE2950E
:1017A000EF70E43010F08EEF04C08F70883020F0BE
:1017B0008DEF80935A03089598E0E99FF00111247A
:1017C000E80FF11DEE0FFF1FED59FE4F0190F08164
:1017D000E02D8AE593E0099408956091A6018EE7D3
:1017E00093E00E943D1E1092A5010895CF93809131
:1017F0000803882321F1F99922C09FEF980F9A30AE
:1018000090F490E0FC01ED54FF4FC4916C2F87964B
:101810000E94ED22C11102C08BE003C08091080339
:101820008F5F80930803809108038B3041F46091AF
:10183000150382E390E00E94ED2210920803CF91FD
:1018400008951F93CF93DF93C8E2D0E0FE01E457E1
:10185000FF4F1491CE010E94D922181306C0112304
:1018600031F02196C233D10589F780E001C081E0D3
:10187000DF91CF911F9108958F929F92AF92BF9267
:10188000CF92DF92EF92FF920F931F938FEA93E034
:101890000E941F186B3071058105910508F4E4C0A2
:1018A00080919E03882349F18091A7039091A8031A
:1018B000A091A903B091AA030196A11DB11D809327
:1018C000A7039093A803A093A903B093AA038091C0
:1018D000AB039091AC03A091AD03B091AE03019620
:1018E000A11DB11D8093AB039093AC03A093AD03F6
:1018F000B093AE0310929E0303C081E080939E03D9
:10190000EFB7F8948091A7039091A803A091A90341
:10191000B091AA03C0909F03D090A003E090A103D0
:10192000F090A2034091AB035091AC036091AD03E2
:101930007091AE038090A3039090A403A090A503A0
:10194000B090A6030091050410910604012E000C2E
:10195000220B330B800F911FA21FB31F813422E48F
:1019600092072FE0A207B10548F080549244AF409F
:10197000B109FFEFCF1ADF0AEF0AFF0A0091110445
:1019800010911204012E000C220B330B400F511F3B
:10199000621F731F950184010F5F1F4F2F4F3F4F31
:1019A0004134F2E45F07FFE06F077105C0F58093F3
:1019B000A7039093A803A093A903B093AA03C0928E
:1019C0009F03D092A003E092A103F092A203809221
:1019D000A3039092A403A092A503B092A603409300
:1019E000AB035093AC036093AD037093AE03EFBFB2
:1019F00080E00E941D178091AF039091B003A091E9
:101A0000B103B091B2030A96A11DB11D8093AF033B
:101A10009093B003A093B103B093B20325C0405498
:101A200052446F4071098093A7039093A803A09339
:101A3000A903B093AA03C0929F03D092A003E0929F
:101A4000A103F092A2034093AB035093AC036093C5
:101A5000AD037093AE030093A3031093A4032093EC
:101A6000A5033093A603C3CF1F910F91FF90EF9072
:101A7000DF90CF90BF90AF909F908F90089583306C
:101A80009105A8F4880F991F880F991FFC01EB544A
:101A9000FC4F40815181628173814150510961093C
:101AA000710981E04E3F5F4F6F4F7F4F08F080E03C
:101AB0000895CF938091B40387FF17C0C091B403FA
:101AC000F99913C0CF7724E0C29FC0011124FC0113
:101AD000EB54FC4F40815181628173814E960E948C
:101AE000FF22C093B40381E001C080E0CF9108954C
:101AF0000F931F93CF93DF938230910508F044C07A
:101B0000EC018C01000F111F000F111FC8014E9630
:101B10000E94E122F801EB54FC4F608371838283C1
:101B20009383CE010E943F0D811112C0CD2BD9F4B9
:101B300080E090E0A0EAB0E48093B5039093B60310
:101B4000A093B703B093B8038091B3038F5F1AC01B
:101B50002091B30381E090E001C0880FCA95EAF7B5
:101B6000809582230FC081E79DE3AAE8BFE38093BD
:101B7000B9039093BA03A093BB03B093BC038091C5
:101B8000B3038E5F8093B303DF91CF911F910F91C9
:101B900008950F931F93CF938091B303807351F1F6
:101BA0008091B40387FF26C0C091B403CF770C2F78
:101BB00010E0C8010E943F0D8823B1F00E94590D2A
:101BC0008823C1F08091B3038F708093B303209179
:101BD000B30381E090E001C0880FCA95EAF78095D1
:101BE00082238093B30306C0C801CF911F910F9148
:101BF0000C94780DCF911F910F910895CF92DF92A1
:101C0000EF92FF920F931F93CF93DF9380EC93E0BB
:101C10000E943B0B811107C280914F03811103C2C7
:101C20008091D2039091D303029708F0FCC1809178
:101C3000C203882309F4C6C1C090E603D090E7032D
:101C400021E0C216D10409F0BDC187E090E00E94F6
:101C500032177C01C091D003D091D1038091D4037D
:101C60009091D503C81BD90BD595C79583EC93E00C
:101C70000E941F180091BD031091BE030230110590
:101C8000C9F140F40115110509F43DC101301105F8
:101C900061F0C9C10430110509F42BC108F483C0F7
:101CA0000530110509F460C1BEC16B3F71058105A6
:101CB000910508F4B8C18FB7F8942B9A8FBF82E0D2
:101CC00090E09093BE038093BD036091CF036623A1
:101CD00009F4A9C12091C0033091C103232B21F441
:101CE0009093C1038093C00320EC33E042E08091E5
:101CF000C2038FC12091D4033091D503C20FD31FEB
:101D0000CE15DF056CF58FB7F8942B9A8FBF0E9424
:101D1000A6176093C3037093C4038093C503909385
:101D2000C6031092C7031092C8031092C903109201
:101D3000CA0383E090E09093BE038093BD0360915B
:101D4000CF03662309F46FC18091C0039091C10352
:101D5000892B09F005C11093C1030093C00300C192
:101D6000613177428105910508F45DC18FB7F89420
:101D70002B988FBFD092BE03C092BD038091C30346
:101D80009091C403A091C503B091C603805F984DA4
:101D9000AF4FBF4F8093C3039093C403A093C50379
:101DA000B093C60371C04091D0035091D103E416A3
:101DB000F506FCF08FB7F8942B988FBF84E090E085
:101DC0009093BE038093BD036091CF03662309F413
:101DD0002AC18091C0039091C103892B31F482E024
:101DE00090E09093C1038093C00320EC33E044E083
:101DF0007ECF0091C7031091C8032091C903309191
:101E0000CA03011511052105310509F452C01B9BB8
:101E100009C0061717072807390720F42FB7F894C9
:101E20002B982FBF613D77408105910508F4FBC0D9
:101E30008091D4039091D503C80FD91FCE15DF052B
:101E4000ECF48091C3039091C403A091C503B091B9
:101E5000C6038053984FAF4FBF4F8093C3039093F7
:101E6000C403A093C503B093C6031092C703109296
:101E7000C8031092C9031092CA03D5C081E090E054
:101E80009093BE038093BD036091CF03662309F452
:101E9000CAC08091C0039091C103892B31F482E0C4
:101EA00090E09093C1038093C00320EC33E041E0C5
:101EB0001ECFCA018E199F09BE010E94AA1F20EDE4
:101EC00037E0629FC001639F900D729F900D1124B7
:101ED000092E000CAA0BBB0B8093C7039093C80379
:101EE000A093C903B093CA038FB7F8942B9A8FBFFE
:101EF0009AC08091D4039091D503C80FD91FCE15F5
:101F0000DF050CF490C08FB7F8942B988FBF0E9418
:101F1000A6176093C3037093C4038093C503909383
:101F2000C6031092C7031092C8031092C9031092FF
:101F3000CA0383E090E09093BE038093BD03609159
:101F4000CF03662309F46FC08091C0039091C10351
:101F5000892B31F482E090E09093C1038093C00319
:101F600020EC33E043E0C3CE8091BF03882351F0DF
:101F7000813009F058C01092CF031092C203109222
:101F8000BF0351C08FB7F8942B988FBF6091CF03D8
:101F90006623A1F08091C0039091C103892B31F495
:101FA00082E090E09093C1038093C00320EC33E083
:101FB0004091BD038091C2030E94160B81E0809383
:101FC000BF0331C08091BD039091BE03049758F5C3
:101FD0008FB7F8942B988FBF84E090E09093BE0366
:101FE0008093BD038091C2038823E9F06091CF0301
:101FF0006623C9F02091C0033091C103232B31F433
:1020000022E030E03093C1032093C00320EC33E0A2
:1020100044E0DF91CF911F910F91FF90EF90DF90FF
:10202000CF900C94160BDF91CF911F910F91FF90E1
:10203000EF90DF90CF900895FC01208131812B54E7
:10204000314081E02738310508F080E00895FC0137
:10205000208131812E53314081E02636310508F050
:1020600080E00895FC01208131812559324081E0D2
:102070002F30314008F080E00895FC01208131814B
:102080002C57324081E02B3C310508F080E0089568
:102090008CE390E00E94E722F9990CC06091D00394
:1020A0007091D1038617970739F08CE390E00E9476
:1020B0000B2302C080E0089581E008958EE390E054
:1020C0000E94E722F9990CC06091D4037091D50366
:1020D0008617970739F08EE390E00E940B2302C029
:1020E00080E0089581E00895EF92FF920F931F938F
:1020F000CF93DF9300D000D0CDB7DEB78CE390E074
:102100000E94E7227C019C838B838EE390E00E94F7
:10211000E7228C019A838983CE0103960E941C10CA
:10212000811106C0CE0103960E9432108823D1F09F
:10213000CE0101960E942710811106C0CE010196A2
:102140000E943D10882371F0F092D103E092D003F9
:102150001093D5030093D4031092D3031092D203AB
:1021600081E013C08DE891E09093D1038093D00378
:1021700086E791E09093D5038093D40381E090E0CB
:102180009093D3038093D20380E00F900F900F9031
:102190000F90DF91CF911F910F91FF90EF900895D5
:1021A0008091D2039091D3038230910578F1029708
:1021B000A9F480ED93E00E941C10811106C080ED0F
:1021C00093E00E943210882349F00E94481088232F
:1021D00029F01092D3031092D20308958091D20374
:1021E0009091D303039781F484ED93E00E9427102C
:1021F000811106C084ED93E00E943D10882321F0F8
:102200000E945E108111E5CF0C9474100895FC01BA
:10221000208131812B53310981E02539310508F0C6
:1022200080E00895FC01208131812951310981E04C
:102230002035310508F080E00895FC0120813181CE
:102240002657310981E02932314008F080E00895B5
:10225000FC01208131812253310981E02E39310581
:1022600008F080E00895FC01408151816281738112
:1022700040545F416109710981E041345F4C66431C
:10228000710508F080E008950C94331186E490E025
:102290000E94E722F9990CC06091DA037091DB0388
:1022A0008617970739F086E490E00E940B2302C05E
:1022B00080E0089581E0089588E490E00E94E7229C
:1022C000F9990CC06091DE037091DF0386179707C0
:1022D00039F088E490E00E940B2302C080E008956A
:1022E00081E008958AE490E00E94E122DC01CB01C4
:1022F000F99912C04091E0035091E1036091E2032B
:102300007091E30384179507A607B70739F08AE4AD
:1023100090E00E94FF2202C080E0089581E00895CD
:102320008EE490E00E94E122DC01CB01F99912C019
:102330004091D6035091D7036091D8037091D9038F
:1023400084179507A607B70739F08EE490E00E943E
:10235000FF2202C080E0089581E00895CF92DF92CD
:10236000EF92FF921F93CF93DF93CDB7DEB72C97F9
:102370000FB6F894DEBF0FBECDBF86E490E00E949A
:10238000E7227C019C878B87CE010B960E94071168
:10239000811106C0CE010B960E941D11882331F0D9
:1023A000F092DB03E092DA0310E001C011E088E470
:1023B00090E00E94E7227C019A878987CE010996E6
:1023C0000E941211811106C0CE0109960E942811A7
:1023D000882329F0F092DF03E092DE0301C011E0D0
:1023E0008AE490E00E94E1226B017C016D837E8390
:1023F0008F839887CE0105960E943311882349F078
:10240000C092E003D092E103E092E203F092E30392
:1024100001C011E08EE490E00E94E1226B017C019A
:1024200069837A838B839C83CE0101960E9433114A
:10243000811128C080E590E09093DB038093DA035C
:1024400088E290E09093DF038093DE0380E89FE4CE
:10245000A2E1B0E08093E0039093E103A093E20354
:10246000B093E3038093D6039093D703A093D8034C
:10247000B093D90381E090E09093DD038093DC0377
:1024800080E00FC0C092D603D092D703E092D80369
:10249000F092D9031111CECF1092DD031092DC031C
:1024A00081E02C960FB6F894DEBF0FBECDBFDF9152
:1024B000CF911F91FF90EF90DF90CF900895809182
:1024C000DC039091DD038230910508F44FC0029740
:1024D000A9F48AED93E00E940711811106C08AEDEC
:1024E00093E00E941D11882349F00E944611882321
:1024F00029F01092DD031092DC0308958091DC0333
:102500009091DD03039781F48EED93E00E94121108
:10251000811106C08EED93E00E942811882321F0DE
:102520000E945C118111E5CF8091DC039091DD0365
:10253000049751F480EE93E00E943311882321F038
:102540000E9472118111D5CF8091DC039091DD033F
:10255000059751F486ED93E00E943311882321F012
:102560000E9490118111C5CF0C94AE110895CF92A5
:10257000DF92EF92FF92CF93DF9380EC93E00E9483
:102580003B0B8111B2C180914F038111AEC180918B
:10259000DC039091DD03029708F0A7C181E090E091
:1025A0000E943217EC0189EE93E00E941F186B0124
:1025B0007C018091E6039091E7030097F9F489EF9D
:1025C000C8168AE2D806E104F10408F48EC120910D
:1025D000DE033091DF038091ED032C173D073CF4BF
:1025E00021E030E03093E7032093E603F3C024E0DA
:1025F00030E03093E7032093E6030AC18130910570
:1026000031F58091DE039091DF03C817D9070CF0F4
:1026100096C022E030E03093E7032093E6038091F8
:10262000ED03882309F481C06091E503662309F472
:102630007CC04091C0035091C103452B21F43093DD
:10264000C1032093C00320EC33E042E06CC0823031
:102650009105D9F48091DE039091DF03C817D90763
:102660008CF48091D6039091D703A091D803B091B8
:10267000D9038C159D05AE05BF0508F036C183E072
:1026800090E0C0C081E090E09FC08330910519F5D3
:1026900080E88093E80384E090E09093E7038093E0
:1026A000E6038091ED03882309F41FC16091EE03D6
:1026B000662309F41AC12091C0033091C103232B72
:1026C00031F422E030E03093C1032093C00320ECCA
:1026D00033E043E002C18430910509F05AC0809193
:1026E000DA039091DB038C179D074CF585E090E0B1
:1026F0009093E7038093E6038091ED038823A9F08C
:102700006091E503662389F02091C0033091C103F5
:10271000232B31F422E030E03093C1032093C00337
:1027200020EC33E045E00E94160B0E94A617609350
:10273000E9037093EA038093EB039093EC0381E049
:10274000C81682EAD8068AE4E80684E0F80608F4A7
:10275000CCC087E090E09093E7038093E6038091FC
:10276000ED03882309F46BC06091E503662309F447
:1027700066C02091C0033091C103232B31F422E0C5
:1027800030E03093C1032093C00320EC33E047E0F6
:1027900054C08530910509F05DC08091DA039091B5
:1027A000DB038C179D0764F58091E0039091E103B2
:1027B000A091E203B091E3038C159D05AE05BF0522
:1027C00008F093C086E090E09093E7038093E603DF
:1027D0008091ED03882399F16091E503662379F1F7
:1027E0002091C0033091C103232B31F422E030E06B
:1027F0003093C1032093C00320EC33E041E01DC0BF
:1028000084E090E09093E7038093E6038091ED03EA
:102810008823A9F06091E503662389F02091C00325
:102820003091C103232B31F422E030E03093C10317
:102830002093C00320EC33E044E00E94160B0E947A
:10284000A6176093E9037093EA038093EB039093D8
:10285000EC034BC08630910509F580E48093E803D2
:1028600081E090E09093E7038093E6038091ED038D
:102870008823D9F16091E4036623B9F12091C00364
:102880003091C103232B31F422E030E03093C103B7
:102890002093C00320EC33E046E01FC0079729F1E6
:1028A00087E090E09093E7038093E6038091ED0347
:1028B0008823D9F06091E5036623B9F02091C00325
:1028C0003091C103232B31F422E030E03093C10377
:1028D0002093C00320EC33E047E0DF91CF91FF90DD
:1028E000EF90DF90CF900C94160BDF91CF91FF907B
:1028F000EF90DF90CF90089585309105A8F4880F70
:10290000991F880F991FFC01EF50FC4F40815181A6
:1029100062817381415051096109710981E04E3F23
:102920005F4F6F4F7F4F08F080E008958091EF0375
:102930008F77843018F490E00C947C1480E0089534
:10294000CF938091EF0387FF18C0C091EF03F999EF
:1029500014C0CF7724E0C29FC0011124FC01EF50C6
:10296000FC4F40815181628173818E5A9F4F0E943A
:10297000FF22C093EF0381E001C080E0CF91089572
:102980000F931F93CF93DF938430910508F06AC0B3
:10299000EC018C01000F111F000F111FC8018E5A8E
:1029A0009F4F0E94E122F801EF50FC4F608371833A
:1029B00082839383CE010E947C14811147C02097AB
:1029C00081F484EE98E3AEE8BAE38093F103909348
:1029D000F203A093F303B093F4038091F0038F5FAD
:1029E0003FC0C130D10581F480E090E0A0E3BCE3BA
:1029F0008093F5039093F603A093F703B093F80345
:102A00008091F0038E5F2CC0229781F486E996E9CD
:102A1000A6E9B9E38093F9039093FA03A093FB032B
:102A2000B093FC038091F0038C5F1AC08AE198E8B0
:102A3000AAEEBBE38093FD039093FE03A093FF03F4
:102A4000B09300048091F003885F0AC02091F003E6
:102A500081E090E001C0880FCA95EAF78095822353
:102A60008093F003DF91CF911F910F9108950F9301
:102A70001F93CF93DF938091F003807F99F1809132
:102A8000EF0387FF2FC08091EF038F77082F10E0AF
:102A9000C1E0D0E002C0CC0FDD1F8A95E2F7809143
:102AA000F00382958F7090E0C817D907D9F40E947F
:102AB0009614882381F00E94A014882399F08091B5
:102AC000F0038F708093F0038091F003C095C823CA
:102AD000C093F00307C0C801DF91CF911F910F9100
:102AE0000C94C014DF91CF911F910F910895209104
:102AF000AC0130E02F5F3F4F2F7133274091AB0186
:102B000050E024173507D1F39091A801F901E35360
:102B1000FE4F90FF03C08A3009F48DE0808320933C
:102B2000AC018091C10080628093C10080E090E0A0
:102B300008951F920F920FB60F9211242F933F9377
:102B40004F935F938F939F93EF93FF932091C000D8
:102B500028713091C6008091AA0190E001968F7192
:102B600099274091A90150E08417950711F42E5F31
:102B700006C08093AA01FC01E355FE4F30832093E9
:102B80000104FF91EF919F918F915F914F913F9140
:102B90002F910F900FBE0F901F9018951F920F92BC
:102BA0000FB60F9211248F939F93EF93FF93909101
:102BB000AC018091AB01981779F08091AB0190E066
:102BC00001968F7199278093AB01FC01E353FE4F6F
:102BD00080818093C60005C08091C1008F7D809365
:102BE000C100FF91EF919F918F910F900FBE0F90B9
:102BF0001F9018958091AA012091A90190E08096DC
:102C0000821B91098F71992708950E94FA15892BCB
:102C1000E1F39091AA018091A901981307C08091D6
:102C200001048F5F8093010480E00CC08091A901B2
:102C300090E001968F7199278093A901FC01E355DB
:102C4000FE4F80819091A80191FF03C08D3009F45F
:102C50008AE090E00895CF92DF92EF92FF920F9377
:102C60001F93CF938B019C01C42F6B017C0180E6E5
:102C7000C80E83EED81E86E1E81EF11CC701B6011E
:102C800043E0660F771F881F991F4A95D1F7A90166
:102C90009801E4E0220F331F441F551FEA95D1F736
:102CA0000E94BE1F215031091092AC011092AB015D
:102CB0001092AA011092A9012115310531F48091D9
:102CC000C100877F8093C10010C037FF04C082E03D
:102CD0008093C0003F7788E98093C10086E08093AD
:102CE000C2003093C5002093C400C093A80180E0C7
:102CF00091E0CF911F910F91FF90EF90DF90CF90D7
:102D000008951F920F920FB60F9211242F933F93A5
:102D10008F939F93EF93FF9380910204909103040C
:102D2000019711F41B990EC0E0910204F091030485
:102D30008091780090917900EE0FFF1FEB5FFB4FC1
:102D40009183808380910204909103040196909373
:102D5000030480930204809102049091030486305E
:102D6000910540F48230910550F40097B1F001973D
:102D700021F00CC0089750F410C01B9B0EC086E0D9
:102D800090E0909303048093020407C01092030420
:102D9000109202048FE78093160480917C00807F5C
:102DA00080937C0030917C00209104048091020487
:102DB00090910304932F9F71922B890F80937C0035
:102DC0008091020490910304892B31F080917A0064
:102DD000806480937A000BC08091ED01882339F0E4
:102DE00080917A00806480937A0010921604FF919B
:102DF000EF919F918F913F912F910F900FBE0F9068
:102E00001F901895809304041092ED01ECE7F0E018
:102E100090819073892B8083EAE7F0E08081846061
:102E200080838081826080838081816080838081D3
:102E30008068808310921504089510920304109204
:102E40000204109216048093ED01EAE7F0E080811D
:102E500087758868808380818064808381E0809327
:102E6000150408958830910558F42FB7F894880F09
:102E7000991FFC01EB5FFB4F808191812FBF08956B
:102E800080E090E008951F920F920FB60F921124E8
:102E90008F939F93AF93BF938091F8019091F90125
:102EA000A091FA01B091FB010196A11DB11D809383
:102EB000F8019093F901A093FA01B093FB01BF913F
:102EC000AF919F918F910F900FBE0F901F9018950B
:102ED00084B5847F836084BD85B5887F836085BD2C
:102EE000EEE6F0E0808181608083E0E8F0E010822F
:102EF000808181608083E1E8F0E0108280818360DE
:102F00008083E0EBF0E01082808181608083E1EBE0
:102F1000F0E01082808184608083E0E9F0E010823C
:102F2000808181608083E1E9F0E0108280818360AC
:102F30008083E0EAF0E01082808181608083E1EAB2
:102F4000F0E0108280818360808308958F929F9249
:102F5000AF92BF92CF92DF92EF92FF928FB7F89429
:102F60008090F8019090F901A090FA01B090FB01D7
:102F70008FBF8091F4019091F501A091F601B0917D
:102F8000F701A5019401281B390B4A0B5B0BDA01F1
:102F9000C9012B3F31054105510518F42223F1F1F8
:102FA00001C08AEFC090EE01D090EF01E090F001F7
:102FB000F090F101E091F201F091F301B701A60167
:102FC0004F5F5F4F6F4F7F4F81509F0123593E4F9F
:102FD000293E93E0390740F0285E3340B701A6014F
:102FE0004E5F5F4F6F4F7F4F882321F0F9016A01D9
:102FF0007B01E4CF4093EE015093EF016093F00129
:103000007093F1013093F3012093F2018092F40167
:103010009092F501A092F601B092F7016091EE0155
:103020007091EF018091F0019091F101FF90EF908C
:10303000DF90CF90BF90AF909F908F9008950F93A7
:103040001F93CF93DF93EC010E94A617088119818B
:103050002A813B81601B710B820B930BDF91CF9117
:103060001F910F9108950895089585ED8093BC00F8
:103070008091BC0084FDFCCF109268021092670220
:10308000089585EC8093BC0010926802109267024C
:1030900008951F920F920FB60F9211242F933F9312
:1030A0004F935F936F937F938F939F93AF93BF9350
:1030B000EF93FF938091B900887F803609F4C5C0F3
:1030C000B8F5883209F46AC0A0F4803109F463C00D
:1030D00038F4882309F45AC0883009F45CC024C14C
:1030E000883109F45BC0803209F01EC180E290E0B3
:1030F0006BC0803409F47BC078F4803309F462C07B
:10310000883309F011C188E390E0909364028093C2
:1031100063020E94411808C1803509F45CC08835FB
:1031200009F46AC0883409F0FFC088E490E04CC01C
:10313000883909F4EEC0A8F4883709F486C038F459
:10314000883609F482C0803709F47FC0EDC0883822
:1031500009F4DFC0803909F481C0803809F0E4C087
:103160007DC0803B09F4A9C038F4803A09F48BC0D3
:10317000883A09F4A2C0D8C0803C09F4CEC0883C8B
:1031800009F4CBC0883B09F4B0C0CEC010926402F1
:10319000109263021DC08091690211C09091420299
:1031A00080914102981708F03FC0E091420281E00F
:1031B0008E0F80934202F0E0ED5BFD4F80818093A3
:1031C000BB00A5C080E390E090936402809363020B
:1031D0000E943518A9C0E091420281E08E0F8093D1
:1031E00042028091BB00F0E0ED5BFD4F8083909147
:1031F00042028091410289C0E091420281E08E0F3B
:10320000809342028091BB00F0E0ED5BFD4F808334
:103210009091420280914102981730F488E590E045
:10322000909364028093630280916502909166029C
:1032300080FDCECF8091650290916602826090936E
:1032400066028093650284EA69C083E090E090930F
:103250006802809367021092FC0159C08091FC01C2
:10326000803208F056C0E091FD01F091FE0180919E
:10327000FC0191E0980F9093FC019091BB00E80F46
:10328000F11D908344C00E9441182091FC0180915F
:10329000FD019091FE01203230F42091FC01FC01EF
:1032A000E20FF11D10826091FC01E0910E01F0919E
:1032B0000F0109951092FC0137C084E090E09093D3
:1032C0006802809367021092200210921F02E09120
:1032D0001001F0911101099580911F02811105C023
:1032E00081E080931F0210922102E091200281E090
:1032F0008E0F80932002F0E0EF5DFD4F8081809380
:10330000BB009091200280911F02981710F485EC69
:1033100001C085E88093BC0007C085EC8093BC00A9
:103320001092680210926702FF91EF91BF91AF91E6
:103330009F918F917F916F915F914F913F912F91CD
:103340000F900FBE0F901F9018950F931F938B0136
:103350009C01672B682B692B71F48091BC008A7BE0
:103360008093BC008FB7F89445988FBF8FB7F894BF
:1033700044988FBF43C08FEF91E09093FE018093FC
:10338000FD01109268021092670281E090E0909334
:103390006602809365028FB7F8943D988FBF8FB710
:1033A000F8943C988FBF4130510541F48FB7F894A1
:1033B000459A8FBF8FB7F894449A8FBF8091B90018
:1033C0008E7F8093B9008091B9008D7F8093B90082
:1033D00060E07BE187EB90E0A90198010E94BE1FAD
:1033E000DA01C9014097A109B109B695A79597954A
:1033F00087958093B80085E48093BC001F910F915E
:103400000895413208F05BC0E0916702F0916802D4
:10341000EF2B09F057C0E2E0F0E0F0936802E09390
:1034200067022130310531F4209165023091660246
:10343000216005C020916502309166022E7F309395
:103440006602209365022FEF30E0309364022093F0
:1034500063021092420240934102262FA3E4B2E09D
:10346000FB019E2F921B941718F491919D93F9CF15
:10347000880F80936902809169028093690280912C
:1034800065029091660281FF14C08091650290915F
:1034900066028D7F90E09093660280936502809132
:1034A00069028093BB008091BC0083FDF8CF85EC5E
:1034B00001C085EE8093BC0080E090E0089581E03B
:1034C00090E0089582E090E00895809167029091E5
:1034D00068020297E1F080916302909164028F3F4D
:1034E0009105C1F080916302909164028097A9F0E8
:1034F0008091630290916402C09791F08091630281
:1035000090916402892B79F085E090E0089581E044
:1035100090E0089580E090E0089582E090E00895C2
:1035200083E090E0089584E090E008950F931F9366
:10353000CF93DF93E801E881F981E430F105C9F028
:1035400030F4E230F105F9F0339721F020C03797DD
:10355000F0F419C00E94011A8130910529F4998371
:10356000888381E090E015C0029789F084E090E0C4
:103570000CC00E94651A8130910559F021E030E0BD
:103580003983288306C081E090E09983888380E0B6
:1035900090E0DF91CF911F910F910895613208F073
:1035A0004EC02091670230916802232B09F04AC077
:1035B00021E030E030936802209367022091650299
:1035C000309166024130510511F4216001C02E7F17
:1035D00030936602209365022FEF30E0309364024F
:1035E0002093630210924202615060934102880F5F
:1035F00080936902809169028F5F80936902809154
:1036000065029091660281FF14C0809165029091DD
:1036100066028D7F90E090936602809365028091B0
:1036200069028093BB008091BC0083FDF8CF85ECDC
:1036300001C085EE8093BC0080E090E0089581E0B9
:1036400090E0089582E090E0089580916702909163
:1036500068020197F1F080916302909164028F3FBC
:103660009105D1F0809163029091640288349105B4
:10367000B1F080916302909164028835910591F0D8
:103680008091630290916402892B79F085E090E04B
:10369000089581E090E0089580E090E0089582E050
:1036A00090E0089583E090E0089584E090E008952C
:1036B00020916702309168022130310539F4209160
:1036C0006302309164022F3F3105B1F42091410231
:1036D0002F5F30914202321710F420914202A3E48E
:1036E000B2E0382FFC018E2F831B821718F48D91C6
:1036F0008193F9CF822F089580E00895EF92FF9291
:103700000F931F93CF93DF937B01642FE801E88130
:10371000F981E530F10539F018F43297F8F422C058
:10372000369761F01FC0A9010E94CE1A8130910521
:10373000A9F00297B9F086E090E012C00E94251B24
:103740008130910579F00297039740F0C7010E94FC
:10375000581B21E030E03983288305C081E090E0E8
:103760009983888380E0DF91CF911F910F91FF9023
:10377000EF900895AF92BF92CF92DF92EF92FF92B7
:103780000F931F93CF93DF93B82E6901A02EE7010B
:10379000888199810397029788F4870122E030E0BD
:1037A0008B2D0E94961A2881398121303105B9F478
:1037B000811115C085E090E0998388838E0121E016
:1037C00030E04A2DB6018B2D0E947E1B2881398165
:1037D0002130310541F4811107C00E94251B8295DB
:1037E000880F807E01C080E0DF91CF911F910F9103
:1037F000FF90EF90DF90CF90BF90AF90089598EF3B
:10380000980F903728F4982F990F9093BA00089545
:103810001092BA0083E398E1909311018093100114
:1038200084E398E190930F0180930E0180E0089566
:103830006132B0F420916702309168022430310582
:1038400089F460931F02282FA1E2B2E0FC018E2FC1
:10385000821B861718F481918D93F9CF80E008952B
:1038600081E0089582E00895009711F484E398E1DF
:1038700090930F0180930E010895009711F483E354
:1038800098E190931101809310010895089508958F
:1038900085ED8093DC008091DC0084FDFCCF1092EC
:1038A000F6021092F502089585EC8093DC001092E8
:1038B000F6021092F50208951F920F920FB60F9222
:1038C00011242F933F934F935F936F937F938F9325
:1038D0009F93AF93BF93EF93FF938091D900887F1D
:1038E000803609F4C5C0B8F5883209F46AC0A0F47E
:1038F000803109F463C038F4882309F45AC0883051
:1039000009F45CC034C1883109F45BC0803209F02D
:103910002EC180E290E06BC0803409F47BC078F463
:10392000803309F462C0883309F021C188E390E054
:103930009093F2028093F1020E94541C18C18035CA
:1039400009F45CC0883509F46AC0883409F00FC1F5
:1039500088E490E04CC0883909F4FEC0A8F48837A8
:1039600009F486C038F4883609F482C0803709F437
:103970007FC0FDC0883809F4EFC0803909F481C0E8
:10398000803809F0F4C07DC0803B09F4B9C038F438
:10399000803A09F48BC0883A09F4B2C0E8C0803C90
:1039A00009F4DEC0883C09F4DBC0883B09F4C0C0E0
:1039B000DEC01092F2021092F1021DC08091F70257
:1039C00011C09091D0028091CF02981708F03FC0AB
:1039D000E091D00281E08E0F8093D002F0E0EF52B0
:1039E000FD4F80818093DB00B5C080E390E0909331
:1039F000F2028093F1020E94481CB9C0E091D0020B
:103A000081E08E0F8093D0028091DB00F0E0EF52D6
:103A1000FD4F80839091D0028091CF0299C0E091B8
:103A2000D00281E08E0F8093D0028091DB00F0E025
:103A3000EF52FD4F80839091D0028091CF02981772
:103A400030F488E590E09093F2028093F102809147
:103A5000F3029091F40280FDCECF8091F302909119
:103A6000F40282609093F4028093F30284EA79C0B6
:103A700083E090E09093F6028093F50210926A0240
:103A800069C080916A02803208F066C0E0916B02E2
:103A9000F0916C0280916A0291E0980F90936A0213
:103AA0009091DB00E80FF11D908354C00E94541CDC
:103AB00020916A0280916B0290916C02203230F466
:103AC00020916A02FC01E20FF11D108260916A02EE
:103AD000E0911201F0911301099580916B02909190
:103AE0006C028D58924019F48DE692E002C08DE888
:103AF00092E090936C0280936B0210926A0237C03E
:103B000084E090E09093F6028093F5021092AE026A
:103B10001092AD02E0911401F09115010995809188
:103B2000AD02811105C081E08093AD021092AF0219
:103B3000E091AE0281E08E0F8093AE02F0E0E1559D
:103B4000FD4F80818093DB009091AE028091AD02A9
:103B5000981710F485EC01C085E88093DC0007C05D
:103B600085EC8093DC001092F6021092F502FF9132
:103B7000EF91BF91AF919F918F917F916F915F91E5
:103B80004F913F912F910F900FBE0F901F9018955E
:103B90000F931F938B019C01672B682B692B71F48A
:103BA0008091DC008A7B8093DC008FB7F894719859
:103BB0008FBF8FB7F89470988FBF43C08DE892E0A5
:103BC00090936C0280936B021092F6021092F502B1
:103BD00081E090E09093F4028093F3028FB7F89421
:103BE00069988FBF8FB7F89468988FBF413051059F
:103BF00041F48FB7F894719A8FBF8FB7F894709A89
:103C00008FBF8091D9008E7F8093D9008091D90099
:103C10008D7F8093D90060E07BE187EB90E0A90184
:103C200098010E94BE1FDA01C9014097A109B1099C
:103C3000B695A795979587958093D80085E480934E
:103C4000DC001F910F91089598EF980F903728F49A
:103C5000982F990F9093DA0008951092DA0086E475
:103C60009CE1909315018093140187E49CE190936B
:103C700013018093120180E008956132B0F4209125
:103C8000F5023091F6022430310589F46093AD02DB
:103C9000282FAFEAB2E0FC018E2F821B861718F4A2
:103CA00081918D93F9CF80E0089581E0089582E0BD
:103CB0000895009711F487E49CE190931301809399
:103CC00012010895009711F486E49CE19093150188
:103CD0008093140108958FB7F894259A8FBF8FB7FA
:103CE000F8942D9A8FBF8FB7F89453988FBF8FB7E2
:103CF000F8945B9A8FBF8FB7F894529A8FBF8FB7A3
:103D0000F8945A9A8FBF8FB7F8943B9A8FBF8FB7AA
:103D1000F894439A8FBF8FB7F894549A8FBF8FB798
:103D2000F8945C988FBF8FB7F894559A8FBF8FB770
:103D3000F8945D9A8FBF8FB7F8943A9A8FBF8FB778
:103D4000F89442988FBF8FB7F894579A8FBF8FB768
:103D5000F8945F988FBF8FB7F894569A8FBF8FB73C
:103D6000F8945E988FBF8FB7F894229A8FBF8FB761
:103D7000F8942A9A8FBF8FB7F89420988FBF8FB787
:103D8000F894289A8FBF8FB7F894239A8FBF8FB774
:103D9000F8942B988FBF80E380931403109216033E
:103DA000109201031092030310920803109206036D
:103DB000109205031092170310920F031092000344
:103DC000109219031092070310927D0310927C0346
:103DD00010921A030E94681780E40E94021780E084
:103DE0000E941D170E94A6176093AF037093B00343
:103DF0008093B1039093B20342E060E970ED83E0F9
:103E000090E00E942B1690931804809317049093CF
:103E10001A048093190489E20E94FF1B89EF9AE03B
:103E20000E943D1C81EC9AE00E94341C40E050E06E
:103E300060EA76E881E090E00E94A5198AE20E949B
:103E4000241E8DEE9BE00E94621E83E79BE00E9491
:103E5000591E40E050E060EA76E881E090E00E9480
:103E6000C81D78942FEB84ED91E021508040904064
:103E7000E1F700C000008FB7F8945F9A8FBF1092EF
:103E8000B30380E090E00E94780D81E090E00E9412
:103E9000780D0E94210C882329F082E390E00E9493
:103EA000D92201C081E3809315030E9474100E94FF
:103EB000AE110E94A6176093E9037093EA03809302
:103EC000EB039093EC031092F00380E090E00E94EB
:103ED000C01481E090E00E94C01482E090E00E9453
:103EE000C01483E090E00E94C014809103038860B6
:103EF0008093030308950E946B1E0E94A61760938F
:103F00000B0370930C0380930D0390930E03809129
:103F1000190381110AC00E94B1000E9448010E9449
:103F2000BB010E9461010E947A010E94F60B0E946F
:103F3000BF020E943C0C0E94C90D0E94D0100E943A
:103F400037150E94FE0D0E945F120E94B7120E9458
:103F50007D0BDDCF97FB072E16F4009407D077FD7D
:103F600009D00E94E01F07FC05D03EF49095819592
:103F70009F4F0895709561957F4F0895A1E21A2E85
:103F8000AA1BBB1BFD010DC0AA1FBB1FEE1FFF1FFD
:103F9000A217B307E407F50720F0A21BB30BE40B4D
:103FA000F50B661F771F881F991F1A9469F7609594
:103FB0007095809590959B01AC01BD01CF0108954E
:103FC000AA1BBB1B51E107C0AA1FBB1FA617B7073F
:103FD00010F0A61BB70B881F991F5A95A9F780955B
:103FE0009095BC01CD010895CF93DF93EC012B8117
:103FF00020FF33C026FF0AC02F7B2B838E819F8139
:1040000001969F838E838A8190E029C022FF0FC092
:10401000E881F9818081082E000C990B009719F432
:1040200020622B831AC03196F983E8830EC0EA859B
:10403000FB85099597FF09C02B81019611F080E25D
:1040400001C080E1822B8B8308C02E813F812F5FCE
:104050003F4F3F832E83992702C08FEF9FEFDF9161
:10406000CF910895A0E0B0E0E8E3F0E20C943123B2
:10407000AE014B5F5F4FFA0161917191AF01809189
:10408000190490911A040E944820E2E00C944D23F8
:10409000ABE0B0E0EEE4F0E20C9421236C017B0194
:1040A0008A01FC0117821682838181FFCCC1CE0177
:1040B00001963C01F6019381F70193FD859193FFF1
:1040C00081917F01882309F4BAC1853239F493FDC7
:1040D000859193FF81917F01853229F4B60190E0AB
:1040E0000E943F22E7CF912C212C312CFFE1F315C8
:1040F000D8F08B3279F038F4803279F08332A1F441
:10410000232D20611DC08D3261F0803369F4232D91
:10411000216016C0832D8260382EE32DE4603E2E90
:104120002AC0F32DF8601DC037FC2DC020ED280FEC
:104130002A3040F08E32B9F436FC81C1232D206440
:10414000322E19C036FE06C08AE0989E200D11243A
:10415000922E11C0EAE02E9E200D1124222EF32D66
:10416000F0623F2E08C08C3621F4832D8068382EF3
:1041700002C0883641F4F70193FD859193FF819148
:104180007F018111B3CF982F9F7D9554933028F4F0
:104190000C5F1F4F9FE399830DC0833631F0833747
:1041A00071F0833509F059C021C0F80180818983FD
:1041B0000E5F1F4F88248394912C530113C0280154
:1041C000F2E04F0E511CF801A080B18036FE03C012
:1041D000692D70E002C06FEF7FEFC5010E943422AD
:1041E0004C018201F32DFF773F2E16C0280122E0FB
:1041F000420E511CF801A080B18036FE03C0692D2B
:1042000070E002C06FEF7FEFC5010E9429224C01D0
:10421000F32DF0683F2E820133FC1BC0822D90E00D
:1042200088169906B0F4B60180E290E00E943F2221
:104230002A94F4CFF50137FC859137FE81915F0117
:10424000B60190E00E943F2221102A9421E0821AB8
:1042500091088114910471F7E8C0843611F0893611
:1042600041F5F80137FE07C0608171818281938139
:104270000C5F1F4F08C060817181072E000C880BF6
:10428000990B0E5F1F4FF32DFF763F2E97FF09C04E
:1042900090958095709561957F4F8F4F9F4FF068F7
:1042A0003F2E2AE030E0A3010E947B22882E861850
:1042B00045C0853731F4232D2F7EB22E2AE030E021
:1042C00025C0932D997FB92E8F36C1F018F488350B
:1042D00079F0B5C0803719F0883721F0B0C0E92FE8
:1042E000E061BE2EB4FE0DC0FB2DF460BF2E09C0F0
:1042F00034FE0AC0292F2660B22E06C028E030E026
:1043000005C020E130E002C020E132E0F801B7FE54
:1043100007C060817181828193810C5F1F4F06C04D
:104320006081718180E090E00E5F1F4FA3010E94C9
:104330007B22882E8618FB2DFF773F2E36FE0DC080
:10434000232D2E7FA22E891458F434FE0BC032FC8C
:1043500009C0832D8E7EA82E05C0B82CA32C03C0C7
:10436000B82C01C0B92CA4FE0FC0FE01E80DF11D50
:104370008081803321F49A2D997EA92E09C0A2FE56
:1043800006C0B394B39404C08A2D867809F0B39420
:10439000A3FC11C0A0FE06C0B21488F4280C922C15
:1043A0009B180EC0B21460F4B60180E290E00E9447
:1043B0003F22B394F7CFB21418F42B1802C0982CF4
:1043C000212CA4FE10C0B60180E390E00E943F22A1
:1043D000A2FE17C0A1FC03C088E790E002C088E5F8
:1043E00090E0B6010CC08A2D867859F0A1FE02C07B
:1043F0008BE201C080E2A7FC8DE2B60190E00E9452
:104400003F22891438F4B60180E390E00E943F22F5
:104410009A94F7CF8A94F301E80DF11D8081B601DB
:1044200090E00E943F228110F5CF222009F442CE75
:10443000B60180E290E00E943F222A94F6CFF60176
:104440008681978102C08FEF9FEF2B96E2E10C945B
:104450003D23FC010590615070400110D8F7809514
:1044600090958E0F9F1F0895FC0161507040019040
:104470000110D8F7809590958E0F9F1F08950F9388
:104480001F93CF93DF93FB01238121FD03C08FEFA7
:104490009FEF2CC022FF16C04681578124813581B1
:1044A0004217530744F4A081B1819D012F5F3F4F14
:1044B000318320838C93268137812F5F3F4F378351
:1044C000268314C08B01EC01FB010084F185E02DF3
:1044D0000995892BE1F6D80116968D919C91179735
:1044E000019617969C938E931697CE01DF91CF91EC
:1044F0001F910F910895FA01AA27283051F1203118
:1045000081F1E8946F936E7F6E5F7F4F8F4F9F4F67
:10451000AF4FB1E03ED0B4E03CD0670F781F891FA9
:104520009A1FA11D680F791F8A1F911DA11D6A0F77
:10453000711D811D911DA11D20D009F468943F912A
:104540002AE0269F11243019305D3193DEF6CF0129
:104550000895462F4770405D4193B3E00FD0C9F7EF
:10456000F6CF462F4F70405D4A3318F0495D31FD5C
:104570004052419302D0A9F7EACFB4E0A6959795AF
:10458000879577956795BA95C9F700976105710585
:1045900008959B01AC010A2E0694579547953795CF
:1045A0002795BA95C9F7620F731F841F951FA01D29
:1045B0000895F999FECF92BD81BDF89A992780B5EB
:1045C0000895A6E1B0E044E050E00C941323A8E184
:1045D000B0E042E050E00C941323262FF999FECF6F
:1045E00092BD81BDF89A019700B4021639F01FBA46
:1045F00020BD0FB6F894FA9AF99A0FBE0895039663
:10460000272F0E94EE220E94ED22252F0E94EE22EB
:10461000242F0C94EE220196272F0E94EE220C9458
:10462000ED22DC01CB01FC01F999FECF06C0F2BD01
:10463000E1BDF89A319600B40D9241505040B8F760
:1046400008952F923F924F925F926F927F928F9236
:104650009F92AF92BF92CF92DF92EF92FF920F9311
:104660001F93CF93DF93CDB7DEB7CA1BDB0B0FB61B
:10467000F894DEBF0FBECDBF09942A8839884888D8
:104680005F846E847D848C849B84AA84B984C8846E
:10469000DF80EE80FD800C811B81AA81B981CE0F65
:1046A000D11D0FB6F894DEBF0FBECDBFED0108954A
:0446B000F894FFCFAC
:1046B4000000000300000000771505160000341800
:1046C4003318471C461C2563256300C208B105D472
:1046D40004B2059A08B105E104B105BB07B10505AB
:1046E400063806EB046B069E06F904D106D107B121
:1046F40005B1050705B1055805B1057109C3092AB6
:10470400083B0AEF064E07AD07B10500000100069D
:10471400000700070BB105D404B2059A08B105E1FE
:1047240004B105BB07B10505063806EB046B069E0C
:1047340006F904D106D107B105B1050705B105583D
:1047440005B1057109C3092A083B0AEF064E07ADF6
:0447540007B10500A4
:00000001FF
