:100000000C945D000C947A000C947A000C947A00A5
:100010000C947A000C947A000C947A000C947A0078
:100020000C947A000C947A000C947A000C947A0068
:100030000C947A000C947A000C947A000C947A0058
:100040000C9428120C947A000C949F100C94D410E9
:100050000C947A000C9487110C947A000C947A001A
:100060000C942E130C947A000C947A000C947A0061
:100070000C947A000C947A000C947A000C947A0018
:100080000C947A000C947A000C947A000C947A0008
:100090000C947A000C947A000C947A000C947A00F8
:1000A0000C9443150C947A000C947A000C947A000A
:1000B0000C947A0052505569640011241FBECFEF92
:1000C000D8E0DEBFCDBF11E0A0E0B1E0ECE9FAE39B
:1000D00002C005900D92AC3BB107D9F724E0ACEB20
:1000E000B1E001C01D92A530B207E1F70E945A1895
:1000F0000C944C1D0C940000809122038823C1F0C5
:100100008FB7F89443988FBF8FB7F8945C988FBFE0
:1001100080912103882321F08FB7F8945D9A03C062
:100120008FB7F8945D988FBF8FB7F894429A17C035
:100130008FB7F894439A8FBF8FB7F8945C988FBFAE
:1001400080912103882321F08FB7F8945D9A03C032
:100150008FB7F8945D988FBF8FB7F89442988FBF90
:10016000089580912203882381F08FB7F8944398F3
:100170008FBF8FB7F8945C988FBF8FB7F8945D9A54
:100180008FBF8FB7F894429A0FC08FB7F894439AF5
:100190008FBF8FB7F8945C988FBF8FB7F8945D9A34
:1001A0008FBF8FB7F89442988FBF08958091220334
:1001B000882381F08FB7F89443988FBF8FB7F89456
:1001C0005C9A8FBF8FB7F8945D988FBF8FB7F89404
:1001D000429A0FC08FB7F894439A8FBF8FB7F894A5
:1001E0005C9A8FBF8FB7F8945D988FBF8FB7F894E4
:1001F00042988FBF089580911E03811192C083E2BF
:1002000093E00E94041320911B03277F09F067C02D
:1002100020912203222321F0969587957795679563
:1002200020911A032223D9F06C34710581059105C0
:10023000B0F093B18FB7F89495FD02C02D9A01C02C
:100240002D988FBF8091230390912403A0912503C3
:10025000B0912603855B9F4FAF4FBF4F5AC020918F
:1002600019032223E1F0613D27E072078105910522
:10027000B0F093B18FB7F89495FD02C02D9A01C0EC
:100280002D988FBF8091230390912403A091250383
:10029000B09126038053984FAF4FBF4F3AC0209183
:1002A0002E03222309F43DC0653F7140810591056D
:1002B000C0F193B18FB7F89495FD02C02D9A01C09B
:1002C0002D988FBF8091230390912403A091250343
:1002D000B09126038C509E4FAF4FBF4F1AC0693C60
:1002E000710581059105E8F093B18FB7F89495FDFC
:1002F00002C02D9A01C02D988FBF80912303909149
:100300002403A0912503B091260388539F4FAF4F3C
:10031000BF4F8093230390932403A0932503B093AE
:100320002603089580911A038823A1F080E193E0C9
:100330000E9404132091270321110CC06933714CD2
:100340008140910538F00E947C0081E080932E036B
:1003500010921A03089584E193E00E9404132091FF
:100360002703211110C020911903222361F0613C61
:10037000744D8140910538F00E947C0081E08093AB
:100380002E0310921903089580911D038823B9F05C
:1003900088E293E00E940413693E73408105910551
:1003A00098F18FB7F89420988FBF8FB7F894289A58
:1003B0008FBF10921D0381E080931E0308958091EA
:1003C0001E03811121C018991FC08FB7F894209A7D
:1003D0008FBF8FB7F89428988FBF8FB7F894259A5E
:1003E0008FBF8FB7F8942D9A8FBF10921E0381E0B4
:1003F00080931D030E948B1260932803709329033E
:1004000080932A0390932B030895809122038111F6
:10041000B5C04B9956C080911B0383FDAFC04A9B6A
:1004200005C08FB7F8945A988FBF089580911A032A
:100430008111A4C0809119038111A0C080912E0365
:1004400081119CC080913003811198C00E948B1251
:10045000609335037093360380933703909338038A
:1004600080912C03809332032091320390913203C8
:100470004091320330E0209530952A70332764E0B4
:10048000220F331F6A95E1F7892F90E080959095B0
:100490008075992774E0959587957A95E1F7822B79
:1004A000932B9F938F931F924F9386E191E09F939D
:1004B0008F930E94261A81E08093300380931C035F
:1004C00057C080912E03882309F458C080911C03E3
:1004D000882309F453C08091300381114FC080916B
:1004E0001A0381114BC080911903811147C00E94EA
:1004F0008B12609335037093360380933703909388
:1005000038038FEC809332032091320390913203B1
:100510004091320330E0209530952A70332784E0F3
:10052000220F331F8A95E1F7892F90E080959095EF
:100530008075992754E0959587955A95E1F7822B18
:10054000932B9F938F931F924F9386E191E09F93FC
:100550008F930E94261A81E0809330038FB7F8941E
:100560002D9A8FBF10921C038FB7F8945A9A8FBFA1
:100570000F900F900F900F900F900F9008958F9203
:100580009F92AF92BF92CF92DF92EF92FF920F9322
:100590001F93CF93DF9385E393E00E940413209190
:1005A0003003222369F0653F71408105910540F0D9
:1005B00080911B03817080931B0310923003E7C16D
:1005C0000E940011892B09F4E2C18091FF039091F0
:1005D00000040E94E81960913303262F30E0209533
:1005E0003095A9014A70552774E0440F551F7A953C
:1005F000E1F720753327E4E035952795EA95E1F793
:10060000242B352BAC0155272417350739F41092CC
:10061000330380913003811104C00FC080933303F2
:10062000B6C180913203681729F080911B03847052
:1006300080931B031092300304C080911C03882315
:1006400019F01092220303C081E08093220361110C
:1006500027C00E948B12DC01CB01805C944DA1402D
:10066000B1098093140390931503A0931603B093DC
:1006700017030E948B12DC01CB018853914CA140DF
:10068000B1098093100390931103A0931203B093C8
:1006900013038FB7F8942D988FBF1092270350C182
:1006A0006F3F31F410922F0381E0809327036FC1D5
:1006B000613009F071C0E9B179B156B189B149B180
:1006C00099B129B136B1E3FBAA24A0F8B12CB694B4
:1006D000BA2CAA24B794A79472FBCC24C0F8D12CCE
:1006E000F6E0CC0CDD1CFA95E1F7CA2833FBAA240E
:1006F000A0F8CA2852FBEE24E0F8F12CA5E0EE0C9D
:10070000FF1CAA95E1F7EC2885FB002700F910E013
:10071000B4E0000F111FBA95E1F70E2946FB4427FC
:1007200040F9C42F80E0D82F13E0CC0FDD1F1A95BD
:10073000E1F7C02B892F990F990B8827990F881FF4
:100740009927880F991F880F991F8C2B24FB8824C9
:1007500080F8912C880C991C882980931F038FB7EF
:10076000F8942B988FBF8FB7F894429A8FBF8FB7AA
:10077000F8945D988FBF8FB7F8945F988FBF8FB74D
:10078000F8945C9A8FBF8FB7F89443988FBF1092FC
:10079000180360933103FBC06E3F09F076C080916F
:1007A0001F03881F8827881F9FB7F894882311F09C
:1007B0005B9A01C05B989FBF80911F0386FB8827CF
:1007C00080F99FB7F894882311F05A9A01C05A987B
:1007D0009FBF80911F0385FB882780F99FB7F894FE
:1007E000882311F0429A01C042989FBF80911F0355
:1007F000829581709FB7F894882311F05D9A01C0AB
:100800005D989FBF80911F0383FB882780F99FB766
:10081000F894882311F05E9A01C05E989FBF8FB74D
:10082000F894599A8FBF8FB7F89451988FBF8091E1
:10083000C10088618093C10080911F0382FB8827DB
:1008400080F99FB7F894882311F05F9A01C05F98F0
:100850009FBF80911F03869581709FB7F89488236E
:1008600011F05C9A01C05C989FBF80911F0381705A
:100870009FB7F894882311F0439A01C043989FBF13
:10088000109218031092310382C080912D036813D7
:1008900042C080913403811114C00E94B1008FB70F
:1008A000F8942A988FBF0E948B126093390370933B
:1008B0003A0380933B0390933C0381E0809334039D
:1008C00066C089E393E00E940413643171058105D9
:1008D000910508F45CC08FB7F8942A9A8FBF1092E4
:1008E000340381E080931A03109221030E948B123B
:1008F000609323037093240380932503909326032E
:100900000E948B1260931003709311038093120363
:10091000909313033CC067FD1EC081E080931903D0
:1009200010921A0310922E030E94D6000E948B127E
:100930006093140370931503809316039093170329
:100940000E948B12609323037093240380932503EA
:10095000909326031CC01092220310921903109248
:100960002E0310921A038FB7F8942D9A8FBF8FB76A
:10097000F89443988FBF8FB7F8945C9A8FBF8FB766
:10098000F8945D988FBF8FB7F894429A8FBFDF912C
:10099000CF911F910F91FF90EF90DF90CF90BF907C
:1009A000AF909F908F90089520912C03FC0121839C
:1009B0000895FC01818180932C03089520911E03EA
:1009C000FC01218310921E030895FC0180911B03FA
:1009D0008F7081831B9B02C0805F8183199B03C042
:1009E0008181805E81838091D203873019F4818177
:1009F000805C81830895FC01818184FF0BC081E0CC
:100A00008093B7031092BC031092BD031092BE03F3
:100A10001092BF03818185FF0CC080911D0381115D
:100A200008C080911E03811104C08FB7F894299AE1
:100A30008FBF818186FD1092D2038F7080931B033C
:100A4000089520912703FC0121830895FC018091E2
:100A5000C3039091C403218130E0322F2227918378
:100A60009281290F311D82833093C4032093C303E5
:100A700083E08093C2030895FC018091C0039091AC
:100A8000C103218130E0322F222791839281290FE7
:100A9000311D82833093C1032093C00382E0809391
:100AA000C2030895FC018091BC039091BD03209185
:100AB000BE033091BF0331832283938384830895DF
:100AC000FC018091C9039091CA03218130E0322F4B
:100AD000222791839281290F311D82833093CA038B
:100AE0002093C90382E08093CB030895FC01809199
:100AF000CC039091CD03218130E0322F22279183C6
:100B00009281290F311D82833093CD032093CC0332
:100B100083E08093CB0308950F931F93CF93DF93CC
:100B2000FC019181A92FAF77A23028F08AEF8A0FBC
:100B3000823008F04CC09093FE03B0E0AA0FBB1FB8
:100B4000A55ABE4F2D913C91E901CC0FDD1FCC0F72
:100B5000DD1FC251DC4F588169817A814B818281CE
:100B6000428343817383148164830581558397FF96
:100B700035C090E0A0E0B0E0B82FAA2799278827D9
:100B800050E060E070E0BA0155274427840F951FBC
:100B9000A61FB71F800F911DA11DB11D412F50E051
:100BA00060E070E0762F652F542F4427840F951F47
:100BB000A61FB71F88839983AA83BB8380E190E037
:100BC00001C0880F2A95EAF78093ED0307C08FE7ED
:100BD00081838FEF8283838384838583DF91CF91A9
:100BE0001F910F9108950F931F93FC01018110E055
:100BF00020E030E0302F2227112700279281492F53
:100C000050E060E070E0BA0155274427400F511FC3
:100C1000621F731F84818A019B01080F111D211D12
:100C2000311D438150E060E070E0762F652F542F36
:100C30004427400F511F621F731F41155105610565
:100C4000710549F48091A1039091A2032091A3031F
:100C50003091A40312C0463051056105710549F475
:100C60008091A5039091A6032091A7033091A8033A
:100C700004C080E090E020E030E031832283938361
:100C800084831F910F9108951F93CF93DF93FC01ED
:100C90009181292F2F77223008F044C09093AE0322
:100CA00084E0289FE0011124C155DC4F58816981FF
:100CB0003A814B81828142834381338334816483CF
:100CC0001581558397FF35C090E0A0E0B0E0B82FC4
:100CD000AA279927882750E060E070E0BA015527DD
:100CE0004427840F951FA61FB71F810F911DA11DBB
:100CF000B11D432F50E060E070E0762F652F542F38
:100D00004427840F951FA61FB71F88839983AA8342
:100D1000BB8380E190E001C0880F2A95EAF78093B9
:100D2000AD0307C08FE781838FEF82838383848342
:100D30008583DF91CF911F9108950F931F93CF93D8
:100D4000DF93FC01C091CE03D091CF038091D003FB
:100D50009091D103418150E060E070E0342F222770
:100D6000112700279183428150E060E070E0BA01D2
:100D700055274427400F511F621F731F82838381B1
:100D800090E0A0E0B0E0BA2FA92F982F8827D38356
:100D90002481420F511D611D711DC483840F951F55
:100DA000A61FB71F8093CE039093CF03A093D003C9
:100DB000B093D10384E08093CB03DF91CF911F9157
:100DC0000F9108950F931F93CF93DF93FC01C09170
:100DD000C503D091C6038091C7039091C803418198
:100DE00050E060E070E0342F222711270027918324
:100DF000428150E060E070E0BA0155274427400F7F
:100E0000511F621F731F8283838190E0A0E0B0E0D6
:100E1000BA2FA92F982F8827D3832481420F511DE1
:100E2000611D711DC483840F951FA61FB71F80937A
:100E3000C5039093C603A093C703B093C80385E08E
:100E40008093CB03DF91CF911F910F910895089567
:100E5000CF93DF93EC01898190E0982F88272A8136
:100E6000820F911D8230910530F09C01265031098E
:100E70002230310520F499270E94171202C080E029
:100E800090E099838A83DF91CF910895CF93DF9388
:100E9000EC0184ED93E00E94041399838A837B83A1
:100EA0006C83DF91CF910895FC01818184FD1092C4
:100EB000D3039091D20385FF05C08091D303890F9E
:100EC0008183089591830895AF92BF92CF92DF926C
:100ED000EF92FF920F931F93CF93DF93FC018091CA
:100EE0003103882309F454C0A9B0B9B0C6B0D9B051
:100EF00039B199B189B126B1A3FAEE24E0F8F12C09
:100F0000F694FE2CEE24F794E794B2FA002700F949
:100F100010E056E0000F111F5A95E1F70E2923FB50
:100F2000222720F9022BC2FACC24C0F8CC2D20E0D5
:100F3000D22F65E0CC0FDD1F6A95E1F7C02BD5FA03
:100F4000AA27A0F9B0E074E0AA0FBB1F7A95E1F7D9
:100F5000AC2B36FB662760F970E0B3E0660F771FB5
:100F6000BA95E1F76A2B292F990F330B2227330FFC
:100F7000221F3327220F331F220F331F262B84FB00
:100F8000442740F950E0440F551F242B218301C012
:100F90001182DF91CF911F910F91FF90EF90DF9021
:100FA000CF90BF90AF900895FC0181818130F1F422
:100FB0009FB7F894209A9FBF9FB7F89428989FBF37
:100FC0009FB7F894259A9FBF9FB7F8942D9A9FBF1B
:100FD00080931D0310921E030E948B1260932803BE
:100FE0007093290380932A0390932B030895CF9342
:100FF000FC01918180912D03818380ED890F8B34D9
:1010000030F490932D0381E0809320039DC0C1E0D4
:10101000C093210380911C038823B1F10E948B129D
:1010200060933503709336038093370390933803AE
:101030001092320320913203909132034091320397
:1010400030E0209530952A70332764E0220F331F5B
:101050006A95E1F7892F90E08095909580759927A2
:1010600074E0959587957A95E1F7822B932B9F9362
:101070008F931F924F9386E191E09F938F930E94ED
:10108000261AC093300339C080911A038823E1F1F6
:101090000E948B126093350370933603809337035D
:1010A00090933803109232032091320390913203CF
:1010B0004091320330E0209530952A70332784E048
:1010C000220F331F8A95E1F7892F90E08095909544
:1010D0008075992754E0959587955A95E1F7822B6D
:1010E000932B9F938F931F924F9386E191E09F9351
:1010F0008F930E94261A109230030F900F900F903A
:101100000F900F900F9020C00E948B12DC01CB013A
:10111000805C944DA140B109809314039093150312
:10112000A0931603B09317030E948B12DC01CB012E
:101130008853914CA140B1098093100390931103FF
:10114000A0931203B0931303CF910895CF93FC01A2
:10115000C181C13009F045C020912F03211141C048
:101160000E948B126093350370933603809337038C
:10117000909338038FEF8093320320913203909144
:1011800032034091320330E0209530952A703327A6
:1011900084E0220F331F8A95E1F7892F90E0809534
:1011A00090958075992754E0959587955A95E1F724
:1011B000822B932B9F938F931F924F9386E191E005
:1011C0009F938F930E94261AC0933003C0932F03DE
:1011D000109227030F900F900F900F900F900F9089
:1011E00002C0FC011182CF910895CF93FC01C1810F
:1011F000C13009F048C080911803811142C080912C
:10120000310381113EC00E948B12609335037093AD
:1012100036038093370390933803C09332032091B1
:101220003203909132034091320330E020953095A3
:101230002A70332784E0220F331F8A95E1F7892F24
:1012400090E0809590958075992754E095958795C5
:101250005A95E1F7822B932B9F938F931F924F9375
:1012600086E191E09F938F930E94261AC0933003EA
:10127000C09318030F900F900F900F900F900F9046
:1012800004C082E001C083E08183CF9108951F9361
:10129000CF93DF93EC011981113009F06BC080917D
:1012A0001803811167C080913103882309F462C05B
:1012B0008FB7F894599A8FBF8FB7F89451988FBF12
:1012C00042E060E970ED83E090E00E94311190937C
:1012D00000048093FF0390930204809301048FB76E
:1012E000F8945F9A8FBF8FB7F8945E988FBF0E9473
:1012F0008B1260933503709336038093370390937A
:1013000038038EEF809332032091320380913203B1
:101310009091320330E0209530952A703327A9014F
:1013200024E0440F551F2A95E1F7282F30E020953F
:1013300030952075332764E0359527956A95E1F758
:10134000242B352B3F932F931F929F9386E191E09F
:101350009F938F930E94261A1093300310931803C3
:1013600080911F0389830F900F900F900F900F9023
:101370000F9001C01982DF91CF911F9108950F93B3
:101380001F93CF93DF93FC0180913103882309F4ED
:1013900076C08181881F8827881F9FB7F89488238B
:1013A00011F05B9A01C05B989FBF818186FBAA27E1
:1013B000A0F9B0E08FB7F894AB2B11F05A9A01C0A6
:1013C0005A988FBF818185FB662760F970E08FB7DF
:1013D000F894672B11F0429A01C042988FBF818127
:1013E00084FB442740F950E08FB7F894452B11F067
:1013F0005D9A01C05D988FBF818183FB222720F910
:1014000030E08FB7F894232B11F05E9A01C05E98FC
:10141000EF018FBF818182FF1AC040E060E070E081
:10142000CB010E943111909300048093FF039093AD
:101430000204809301048FB7F894519A8FBF8FB73D
:10144000F89459988FBF8FB7F8945F9A8FBF8981AE
:1014500081FB002700F910E08FB7F894012B11F001
:101460005C9A01C05C988FBF898181709FB7F894A6
:10147000882311F0439A01C043989FBF01C0118295
:10148000DF91CF911F910F910895282FADE3B3E025
:10149000FC018E2F821B861718F481918D93F9CF52
:1014A000603228F4E62FF0E0E35CFC4F1182609399
:1014B000BC01623010F48FEF0DC080913D03E82F26
:1014C000E295EF70E43010F08EEF04C08F7088303A
:1014D00020F08DEF80933D03089598E0E99FF0019F
:1014E0001124E80FF11DEE0FFF1FE55EFE4F019086
:1014F000F081E02D8DE393E009946091BC018DE3D0
:1015000093E00E94FF14882329F080911B038270CE
:1015100080931B030895FC01918180912D038183A9
:1015200080ED890F8B3428F490932D0381E0809314
:101530002003089590937E0380937D0370E0709361
:10154000800360937F03089520917F03309180038F
:101550002115310509F467C01092800310927F03B2
:10156000E0917D03F0917E032130310511F040E0E0
:101570001FC0908180915D03981355C08091BF0179
:10158000ADE5B3E0E1E8F3E090E0981721F02D91AC
:1015900021939F5FFACF803228F4E82FF0E0EF57D5
:1015A000FC4F11828093BE0181E08093BD010895BC
:1015B000842F90E08217930754F4DF01A80FB91F1E
:1015C0005C91DC01A35ABC4F5C934F5FF1CF40327A
:1015D00020F4FC01E35AFC4F11822093BF0121113A
:1015E00002C08FEF0DC080915D03E82FE295EF7090
:1015F000E43010F08EEF04C08F70883020F08DEF53
:1016000080935D03089598E0E99FF0011124E80FAD
:10161000F11DEE0FFF1FE559FE4F0190F081E02D07
:101620008DE593E0099408956091BE0181E893E00F
:101630000E9424171092BD010895CF93809120033A
:10164000882321F1F99922C09FEF980F9A3090F4E6
:1016500090E0FC01ED54FF4FC4916C2F87960E94DF
:10166000E11CC11102C08BE003C0809120038F5F99
:1016700080932003809120038B3041F460912D03EF
:1016800082E390E00E94E11C10922003CF91089524
:101690001F93CF93DF93C8E2D0E0FE01E457FF4FE2
:1016A0001491CE010E94CD1C181306C0112331F0F5
:1016B0002196C233D10589F780E001C081E0DF9136
:1016C000CF911F91089589EA93E00E9404136B3033
:1016D00071058105910508F451C02FB7F8948091E8
:1016E000DB039091DC03092E000CAA0BBB0B40918D
:1016F000A1035091A2036091A3037091A403840FEE
:10170000951FA61FB71F8093A1039093A203A093D8
:10171000A303B093A4038091E7039091E803092EFB
:10172000000CAA0BBB0B4091A5035091A60360913E
:10173000A7037091A803840F951FA61FB71F80935E
:10174000A5039093A603A093A703B093A8032FBF6C
:1017500080E00E9404128091A9039091AA03A091B5
:10176000AB03B091AC030A96A11DB11D8093A903F0
:101770009093AA03A093AB03B093AC030895833076
:101780009105A8F4880F991F880F991FFC01E15556
:10179000FC4F40815181628173814150510961093F
:1017A000710981E04E3F5F4F6F4F7F4F08F080E03F
:1017B0000895CF938091AE0387FF17C0C091AE0309
:1017C000F99913C0CF7724E0C29FC0011124FC0116
:1017D000E155FC4F40815181628173814E960E9498
:1017E000F31CC093AE0381E001C080E0CF91089567
:1017F0000F931F93CF93DF938230910508F044C07D
:10180000EC018C01000F111F000F111FC8014E9633
:101810000E94D51CF801E155FC4F608371838283DF
:101820009383CE010E94BF0B811112C0CD2BD9F43E
:1018300080E090E0A0EAB0E48093AF039093B0031F
:10184000A093B103B093B2038091AD038F5F1AC030
:101850002091AD0381E090E001C0880FCA95EAF7BE
:10186000809582230FC081E79DE3AAE8BFE38093C0
:10187000B3039093B403A093B503B093B6038091E0
:10188000AD038E5F8093AD03DF91CF911F910F91D8
:1018900008950F931F93CF938091AD03807351F1FF
:1018A0008091AE0387FF26C0C091AE03CF770C2F87
:1018B00010E0C8010E94BF0B8823B1F00E94D90B31
:1018C0008823C1F08091AD038F708093AD03209188
:1018D000AD0381E090E001C0880FCA95EAF78095DA
:1018E00082238093AD0306C0C801CF911F910F9151
:1018F0000C94F80BCF911F910F910895EF92FF92E6
:101900000F931F93CF93DF938091B703882309F43C
:10191000C0C087E090E00E9417127C01C091C00314
:10192000D091C1038C179D074CF01B9BB6C08FB79D
:10193000F8942B988FBF1092B703AFC08091C30368
:101940009091C403C81BD90BD595C79588EB93E03C
:101950000E9404138B019C018091C3039091C403E6
:101960008C0F9D1FE816F9060CF058C01B9B39C060
:101970008091C0039091C1038E199F09BE010E94FE
:101980009E1940ED57E0649FC001659F900D749FC4
:10199000900D1124092E000CAA0BBB0B800F911F78
:1019A000A21FB31F813D9740A105B10508F475C082
:1019B0008FB7F8942B988FBF8091BC039091BD0393
:1019C000A091BE03B091BF03080F191F2A1F3B1F30
:1019D0000093BC031093BD032093BE033093BF0359
:1019E0005CC0013D87E018072105310508F455C0AA
:1019F0008FB7F8942B9A8FBF013A1F40210531050C
:101A000040F58091B8039091B903A091BA03B091C9
:101A1000BB038053984FAF4FBF4F32C01B9B0AC0D0
:101A200006501F4F2F4F3F4F0131174221053105FF
:101A3000A0F12FC0013147E214072105310568F1FB
:101A40008FB7F8942B9A8FBF01321E4421053105C0
:101A500058F00E948B126093B8037093B90380937F
:101A6000BA039093BB0319C08091B8039091B90356
:101A7000A091BA03B091BB03805F984DAF4FBF4FA9
:101A80008093B8039093B903A093BA03B093BB03B8
:101A900004C08FB7F8942B988FBFDF91CF911F911F
:101AA0000F91FF90EF900895FC01208131812B541C
:101AB000314081E02738310508F080E00895FC01CD
:101AC000208131812E53314081E02636310508F0E6
:101AD00080E00895FC01208131812559324081E068
:101AE0002F30314008F080E00895FC0120813181E1
:101AF0002C57324081E02B3C310508F080E00895FE
:101B00008CE390E00E94DB1CF9990CC06091C0034B
:101B10007091C1038617970739F08CE390E00E941B
:101B2000FF1C02C080E0089581E008958EE390E0FC
:101B30000E94DB1CF9990CC06091C3037091C4032F
:101B40008617970739F08EE390E00E94FF1C02C0D1
:101B500080E0089581E00895EF92FF920F931F9324
:101B6000CF93DF9300D000D0CDB7DEB78CE390E009
:101B70000E94DB1C7C019C838B838EE390E00E949F
:101B8000DB1C8C019A838983CE0103960E94540D3D
:101B9000811106C0CE0103960E946A0D8823C1F010
:101BA000CE0101960E945F0D811106C0CE01019603
:101BB0000E94750D882361F0F092C103E092C0038A
:101BC0001093C4030093C3031092C20381E010C0BA
:101BD0008DE891E09093C1038093C00386E791E084
:101BE0009093C4038093C30381E08093C20380E099
:101BF0000F900F900F900F90DF91CF911F910F9149
:101C0000FF90EF9008958091C203823058F18230A6
:101C100099F480EC93E00E94540D811106C080EC91
:101C200093E00E946A0D882339F00E94800D88237A
:101C300019F01092C20308958091C203833081F499
:101C400083EC93E00E945F0D811106C083EC93E06A
:101C50000E94750D882321F00E94960D8111E9CF15
:101C60000C94AC0D0895FC01208131812B53310976
:101C700081E02539310508F080E00895FC012081DC
:101C800031812951310981E02035310508F080E0AA
:101C90000895FC01208131812657310981E02932E4
:101CA000314008F080E00895FC0120813181225309
:101CB000310981E02E39310508F080E00895FC01FA
:101CC000408151816281738140545F416109710992
:101CD00081E041345F4C6643710508F080E008956F
:101CE00086E490E00E94DB1CF9990CC06091C90366
:101CF0007091CA038617970739F086E490E00E9436
:101D0000FF1C02C080E0089581E0089588E490E01F
:101D10000E94DB1CF9990CC06091CC037091CD033B
:101D20008617970739F088E490E00E94FF1C02C0F4
:101D300080E0089581E008958AE490E00E94D51C37
:101D4000DC01CB01F99912C04091CE035091CF0331
:101D50006091D0037091D10384179507A607B70748
:101D600039F08AE490E00E94F31C02C080E00895FC
:101D700081E008958EE490E00E94D51CDC01CB0147
:101D8000F99912C04091C5035091C6036091C703F1
:101D90007091C80384179507A607B70739F08EE43A
:101DA00090E00E94F31C02C080E0089581E0089555
:101DB000CF92DF92EF92FF921F93CF93DF93CDB735
:101DC000DEB72C970FB6F894DEBF0FBECDBF86E40A
:101DD00090E00E94DB1C7C019C878B87CE010B96D8
:101DE0000E94330E811106C0CE010B960E94490E4F
:101DF000882331F0F092CA03E092C90310E001C0D9
:101E000011E088E490E00E94DB1C7C019A878987BE
:101E1000CE0109960E943E0E811106C0CE010996A0
:101E20000E94540E882329F0F092CD03E092CC0357
:101E300001C011E08AE490E00E94D51C6B017C0196
:101E40006D837E838F839887CE0105960E945F0EF7
:101E5000882349F0C092CE03D092CF03E092D00302
:101E6000F092D10301C011E08EE490E00E94D51CF5
:101E70006B017C0169837A838B839C83CE010196FD
:101E80000E945F0E811125C080E590E09093CA0307
:101E90008093C90388E290E09093CD038093CC03B4
:101EA00080E89FE4A2E1B0E08093CE039093CF035B
:101EB000A093D003B093D1038093C5039093C6033E
:101EC000A093C703B093C80381E08093CB0380E065
:101ED0000DC0C092C503D092C603E092C703F09232
:101EE000C8031111D1CF1092CB0381E02C960FB60D
:101EF000F894DEBF0FBECDBFDF91CF911F91FF9051
:101F0000EF90DF90CF9008958091CB03823008F45A
:101F100047C0823099F489EC93E00E94330E81111E
:101F200006C089EC93E00E94490E882339F00E9494
:101F3000700E882319F01092CB0308958091CB0383
:101F4000833081F48CEC93E00E943E0E811106C038
:101F50008CEC93E00E94540E882321F00E94860EA0
:101F60008111E9CF8091CB03843051F48EEC93E062
:101F70000E945F0E882321F00E949C0E8111DBCF0E
:101F80008091CB03853051F485EC93E00E945F0E85
:101F9000882321F00E94BA0E8111CDCF0C94D80E67
:101FA0000895CF92DF92EF92FF92CF93DF9381E07B
:101FB00090E00E941712EC0184ED93E00E9404135C
:101FC0006B017C018091D20381111FC089EFC8167B
:101FD0008AE2D806E104F10408F488C08091CC03B9
:101FE0009091CD038C179D0714F481E001C084E02B
:101FF0008093D2030E948B126093D4037093D50315
:102000008093D6039093D70371C0813049F48091B7
:10201000CC039091CD03C817D907BCF582E029C045
:102020008230B9F48091CC039091CD03C817D907C1
:10203000E4F68091C5039091C603A091C703B091C7
:10204000C8038C159D05AE05BF0508F04FC083E0A1
:10205000CFCF833021F480E88093D30339C084301C
:10206000F9F48091C9039091CA038C179D076CF411
:1020700085E08093D2030E948B126093D403709307
:10208000D5038093D6039093D70381E0C81682EAE4
:10209000D8068AE4E80684E0F80640F187E0A8CF95
:1020A0008530C1F48091C9039091CA038C179D07B4
:1020B0007CF48091CE039091CF03A091D003B09196
:1020C000D1038C159D05AE05BF0580F486E00CC0DC
:1020D00084E00AC0863029F480E48093D30381E051
:1020E00003C0873019F087E08093D203DF91CF914E
:1020F000FF90EF90DF90CF9008952091C40130E0E1
:102100002F5F3F4F2F7133274091C30150E02417B9
:102110003507D1F39091C001F901EB51FE4F90FFCB
:1021200003C08A3009F48DE080832093C40180913C
:10213000C10080628093C10080E090E008951F920A
:102140000F920FB60F9211242F933F934F935F93EB
:102150008F939F93EF93FF932091C000287130914C
:10216000C6008091C20190E001968F71992740913D
:10217000C10150E08417950711F42E5F06C08093CB
:10218000C201FC01EB53FE4F30832093D803FF9133
:10219000EF919F918F915F914F913F912F910F9070
:1021A0000FBE0F901F9018951F920F920FB60F92AF
:1021B00011248F939F93EF93FF939091C40180918B
:1021C000C301981779F08091C30190E001968F7157
:1021D00099278093C301FC01EB51FE4F80818093CE
:1021E000C60005C08091C1008F7D8093C100FF9122
:1021F000EF919F918F910F900FBE0F901F901895A8
:102200008091C2012091C10190E08096821B9109CA
:102210008F71992708950E940011892BE1F3909105
:10222000C2018091C101981307C08091D8038F5FCC
:102230008093D80380E00CC08091C10190E00196AA
:102240008F7199278093C101FC01EB53FE4F808170
:102250009091C00191FF03C08D3009F48AE090E0B5
:102260000895CF92DF92EF92FF920F931F93CF9337
:102270008B019C01C42F6B017C0180E6C80E83EEAC
:10228000D81E86E1E81EF11CC701B60143E0660FC7
:10229000771F881F991F4A95D1F7A9019801E4E09B
:1022A000220F331F441F551FEA95D1F70E94B21920
:1022B000215031091092C4011092C3011092C20141
:1022C0001092C1012115310531F48091C100877F41
:1022D0008093C10010C037FF04C082E08093C0002B
:1022E0003F7788E98093C10086E08093C2003093F5
:1022F000C5002093C400C093C00180E091E0CF915D
:102300001F910F91FF90EF90DF90CF9008951F9253
:102310000F920FB60F9211242F938F939F93EF93E9
:10232000FF93E091D903F0E08091780090917900DB
:10233000EE0FFF1FE552FC4F918380838091D903FC
:102340008F5F8093D9038091D903813029F41B9B3F
:1023500003C086E08093D9038091D903823019F4B9
:1023600086E08093D9038091D903873029F41B9BA1
:1023700003C088E08093D9038091D9038830B0F4FA
:1023800080917C00807F80937C0080917C002091F4
:10239000DA039091D9038F71822B890F80937C008F
:1023A00080917A00806480937A0009C01092D903EA
:1023B0008FE78093EC03809105028111E1CFFF91BB
:1023C000EF919F918F912F910F900FBE0F901F90C3
:1023D00018958093DA0310920502ECE7F0E0908103
:1023E0009073892B8083EAE7F0E0808184608083AA
:1023F0008081826080838081816080838081806829
:1024000080831092EB0308951092D9031092EC038D
:1024100080930502EAE7F0E0808187758868808311
:1024200080818064808381E08093EB03089588300D
:10243000910558F42FB7F894880F991FFC01E552C5
:10244000FC4F808191812FBF089580E090E0089536
:102450001F920F920FB60F9211248F939F93AF93F9
:10246000BF938091100290911102A0911202B0913D
:1024700013020196A11DB11D8093100290931102C9
:10248000A0931202B0931302BF91AF919F918F91CD
:102490000F900FBE0F901F90189584B5847F8360B6
:1024A00084BD85B5887F836085BDEEE6F0E08081E0
:1024B00081608083E0E8F0E0108280818160808329
:1024C000E1E8F0E01082808183608083E0EBF0E05F
:1024D0001082808181608083E1EBF0E01082808156
:1024E00084608083E0E9F0E01082808181608083F5
:1024F000E1E9F0E01082808183608083E0EAF0E02F
:102500001082808181608083E1EAF0E01082808126
:102510008360808308958F929F92AF92BF92CF92F3
:10252000DF92EF92FF928FB7F89480901002909014
:102530001102A0901202B09013028FBF80910C0282
:1025400090910D02A0910E02B0910F02A50194018D
:10255000281B390B4A0B5B0BDA01C9012B3F3105F4
:102560004105510518F42223F1F101C08AEFC09012
:102570000602D0900702E0900802F0900902E09174
:102580000A02F0910B02B701A6014F5F5F4F6F4F38
:102590007F4F81509F0123593E4F293E93E03907D9
:1025A00040F0285E3340B701A6014E5F5F4F6F4F8A
:1025B0007F4F882321F0F9016A017B01E4CF40932A
:1025C0000602509307026093080270930902309349
:1025D0000B0220930A0280920C0290920D02A092AC
:1025E0000E02B0920F026091060270910702809174
:1025F000080290910902FF90EF90DF90CF90BF907A
:10260000AF909F908F9008950F931F93CF93DF9378
:10261000EC010E948B12088119812A813B81601B89
:10262000710B820B930BDF91CF911F910F91089546
:102630000895089585ED8093BC008091BC0084FDD1
:10264000FCCF1092800210927F02089585EC809357
:10265000BC001092800210927F0208951F920F9288
:102660000FB60F9211242F933F934F935F936F9365
:102670007F938F939F93AF93BF93EF93FF9380913B
:10268000B900887F803609F4C5C0B8F5883209F4EE
:102690006AC0A0F4803109F463C038F4882309F4D7
:1026A0005AC0883009F45CC024C1883109F45BC089
:1026B000803209F01EC180E290E06BC0803409F4E2
:1026C0007BC078F4803309F462C0883309F011C10B
:1026D00088E390E090937C0280937B020E94261313
:1026E00008C1803509F45CC0883509F46AC08834B3
:1026F00009F0FFC088E490E04CC0883909F4EEC0CE
:10270000A8F4883709F486C038F4883609F482C002
:10271000803709F47FC0EDC0883809F4DFC0803904
:1027200009F481C0803809F0E4C07DC0803B09F421
:10273000A9C038F4803A09F48BC0883A09F4A2C0E1
:10274000D8C0803C09F4CEC0883C09F4CBC0883B9B
:1027500009F4B0C0CEC010927C0210927B021DC062
:102760008091810211C090915A028091590298176C
:1027700008F03FC0E0915A0281E08E0F80935A0228
:10278000F0E0E55AFD4F80818093BB00A5C080E357
:1027900090E090937C0280937B020E941A13A9C060
:1027A000E0915A0281E08E0F80935A028091BB0023
:1027B000F0E0E55AFD4F808390915A0280915902D2
:1027C00089C0E0915A0281E08E0F80935A02809175
:1027D000BB00F0E0E55AFD4F808390915A02809152
:1027E0005902981730F488E590E090937C0280932A
:1027F0007B0280917D0290917E0280FDCECF809100
:102800007D0290917E02826090937E0280937D0291
:1028100084EA69C083E090E09093800280937F0215
:102820001092140259C080911402803208F056C0F0
:10283000E0911502F09116028091140291E0980F38
:10284000909314029091BB00E80FF11D908344C057
:102850000E94261320911402809115029091160275
:10286000203230F420911402FC01E20FF11D10829D
:1028700060911402E0910E01F0910F010995109200
:10288000140237C084E090E09093800280937F022E
:102890001092380210923702E0911001F09111016C
:1028A000099580913702811105C081E0809337023C
:1028B00010923902E091380281E08E0F8093380245
:1028C000F0E0E75CFD4F80818093BB00909138027F
:1028D00080913702981710F485EC01C085E8809349
:1028E000BC0007C085EC8093BC001092800210925F
:1028F0007F02FF91EF91BF91AF919F918F917F9157
:102900006F915F914F913F912F910F900FBE0F905C
:102910001F9018950F931F938B019C01672B682BB9
:10292000692B71F48091BC008A7B8093BC008FB7C7
:10293000F89445988FBF8FB7F89444988FBF43C0E1
:1029400087E192E090931602809315021092800224
:1029500010927F0281E090E090937E0280937D024E
:102960008FB7F8943D988FBF8FB7F8943C988FBF7E
:102970004130510541F48FB7F894459A8FBF8FB716
:10298000F894449A8FBF8091B9008E7F8093B900EC
:102990008091B9008D7F8093B90060E07BE187EB87
:1029A00090E0A90198010E94B219DA01C90140978B
:1029B000A109B109B695A795979587958093B80019
:1029C00085E48093BC001F910F91089598EF980FB4
:1029D000903728F4982F990F9093BA000895109289
:1029E000BA0088E193E1909311018093100189E18D
:1029F00093E190930F0180930E0180E0089561327E
:102A0000B0F420917F02309180022430310589F4A6
:102A100060933702282FA9E3B2E0FC018E2F821BBE
:102A2000861718F481918D93F9CF80E0089581E0A5
:102A3000089582E00895009711F489E193E190935D
:102A40000F0180930E010895009711F488E193E13E
:102A5000909311018093100108950895089585EDD4
:102A60008093DC008091DC0084FDFCCF10920E038B
:102A700010920D03089585EC8093DC0010920E03F4
:102A800010920D0308951F920F920FB60F9211240A
:102A90002F933F934F935F936F937F938F939F9366
:102AA000AF93BF93EF93FF938091D900887F8036D7
:102AB00009F4C5C0B8F5883209F46AC0A0F48031C1
:102AC00009F463C038F4882309F45AC0883009F443
:102AD0005CC034C1883109F45BC0803209F02EC17A
:102AE00080E290E06BC0803409F47BC078F48033DE
:102AF00009F462C0883309F021C188E390E0909323
:102B00000A03809309030E943B1518C1803509F41C
:102B10005CC0883509F46AC0883409F00FC188E4C4
:102B200090E04CC0883909F4FEC0A8F4883709F455
:102B300086C038F4883609F482C0803709F47FC033
:102B4000FDC0883809F4EFC0803909F481C08038AD
:102B500009F0F4C07DC0803B09F4B9C038F4803A74
:102B600009F48BC0883A09F4B2C0E8C0803C09F48B
:102B7000DEC0883C09F4DBC0883B09F4C0C0DEC07D
:102B800010920A03109209031DC080910F0311C017
:102B90009091E8028091E702981708F03FC0E09119
:102BA000E80281E08E0F8093E802F0E0E751FD4FEC
:102BB00080818093DB00B5C080E390E090930A03AE
:102BC000809309030E942F15B9C0E091E80281E0CB
:102BD0008E0F8093E8028091DB00F0E0E751FD4F1B
:102BE00080839091E8028091E70299C0E091E80229
:102BF00081E08E0F8093E8028091DB00F0E0E751E6
:102C0000FD4F80839091E8028091E702981730F49D
:102C100088E590E090930A038093090380910B0369
:102C200090910C0380FDCECF80910B0390910C030B
:102C3000826090930C0380930B0384EA79C083E055
:102C400090E090930E0380930D031092820269C06E
:102C500080918202803208F066C0E0918302F09198
:102C600084028091820291E0980F90938202909169
:102C7000DB00E80FF11D908354C00E943B152091AA
:102C800082028091830290918402203230F420915C
:102C90008202FC01E20FF11D108260918202E0913C
:102CA0001201F091130109958091830290918402A1
:102CB000855A924019F485E892E002C085EA92E0D4
:102CC00090938402809383021092820237C084E042
:102CD00090E090930E0380930D031092C602109221
:102CE000C502E0911401F091150109958091C5028A
:102CF000811105C081E08093C5021092C702E09166
:102D0000C60281E08E0F8093C602F0E0E953FD4FCA
:102D100080818093DB009091C6028091C502981754
:102D200010F485EC01C085E88093DC0007C085ECD9
:102D30008093DC0010920E0310920D03FF91EF912F
:102D4000BF91AF919F918F917F916F915F914F91C3
:102D50003F912F910F900FBE0F901F9018950F93DA
:102D60001F938B019C01672B682B692B71F4809159
:102D7000DC008A7B8093DC008FB7F89471988FBF5A
:102D80008FB7F89470988FBF43C085EA92E0909314
:102D900084028093830210920E0310920D0381E04F
:102DA00090E090930C0380930B038FB7F89469988D
:102DB0008FBF8FB7F89468988FBF4130510541F4A9
:102DC0008FB7F894719A8FBF8FB7F894709A8FBFAE
:102DD0008091D9008E7F8093D9008091D9008D7F1A
:102DE0008093D90060E07BE187EB90E0A901980136
:102DF0000E94B219DA01C9014097A109B109B6953B
:102E0000A795979587958093D80085E48093DC00FB
:102E10001F910F91089598EF980F903728F4982FED
:102E2000990F9093DA0008951092DA008DE295E1FF
:102E300090931501809314018EE295E19093130114
:102E40008093120180E008956132B0F420910D0367
:102E500030910E032430310589F46093C502282F88
:102E6000A7ECB2E0FC018E2F821B861718F481912B
:102E70008D93F9CF80E0089581E0089582E0089570
:102E8000009711F48EE295E1909313018093120163
:102E90000895009711F48DE295E1909315018093C8
:102EA000140108958FB7F894259A8FBF8FB7F894BF
:102EB0002D9A8FBF8FB7F89453988FBF8FB7F89420
:102EC0005B9A8FBF8FB7F894529A8FBF8FB7F894E1
:102ED0005A9A8FBF8FB7F8943B9A8FBF8FB7F894E9
:102EE000439A8FBF8FB7F894549A8FBF8FB7F894D7
:102EF0005C988FBF8FB7F894559A8FBF8FB7F894AF
:102F00005D9A8FBF8FB7F8943A9A8FBF8FB7F894B6
:102F100042988FBF8FB7F894579A8FBF8FB7F894A6
:102F20005F988FBF8FB7F894569A8FBF8FB7F8947A
:102F30005E988FBF8FB7F894229A8FBF8FB7F8949F
:102F40002A9A8FBF8FB7F89420988FBF8FB7F894C5
:102F5000289A8FBF80E380932C0310922E03109247
:102F6000190310921B031092200310921E0310925B
:102F70001D0310922F031092270310921803109232
:102F8000310310921F031092800310927F0310925E
:102F900032030E944D1280E40E94E91180E00E94F9
:102FA00004120E948B126093A9037093AA0380936A
:102FB000AB039093AC0342E060E970ED83E090E0F6
:102FC0000E943111909300048093FF0390930204B8
:102FD0008093010489E20E94E6148DE79AE00E9442
:102FE000241585E49AE00E941B1540E050E060EA59
:102FF00076E881E090E00E948A148AE20E940B1732
:1030000084E19BE00E9449178AE99AE00E944017F8
:1030100040E050E060EA76E881E090E00E94AF1680
:1030200078942FEB84ED91E0215080409040E1F7BF
:1030300000C000008FB7F8945F9A8FBF1092AD0365
:1030400080E090E00E94F80B81E090E00E94F80B95
:103050000E94480B882329F082E390E00E94CD1C57
:1030600001C081E380932D030E94AC0D0E94D80E15
:103070000E948B126093D4037093D5038093D60380
:103080009093D7031092ED0380E090E00E94E01847
:1030900081E090E00E94E01882E090E00E94E01859
:1030A00083E090E00E94E01880911B038860809389
:1030B0001B0308950E9452170E948B1260932303F2
:1030C000709324038093250390932603809131030A
:1030D00081110AC00E94FB000E9492010E94050219
:1030E0000E94AB010E94C4010E941D0B0E94BF02FE
:1030F0000E94630B0E94490C0E94030E0E94571904
:103100000E947E0C0E94840F0E94D10F0E94A40A8C
:10311000DDCF85309105A8F4880F991F880F991F7E
:10312000FC01E251FC4F4081518162817381415029
:1031300051096109710981E04E3F5F4F6F4F7F4F29
:1031400008F080E00895E091FE03EF77E23020F090
:103150008AEF8E0F823048F4F0E0EE0FFF1FE55546
:10316000FE4F808191810C94891880E00895CF935F
:103170008091FE0387FF21C0C091FE03F9991DC015
:10318000CF77EC2FF0E0EE0FFF1FE555FE4F80816B
:1031900091819927880F991F880F991FFC01E2518F
:1031A000FC4F40815181628173818E5A9F4F0E94F2
:1031B000F31CC093FE0381E001C080E0CF9108952D
:1031C0000F931F93CF93DF938430910508F06AC06B
:1031D000EC018C01000F111F000F111FC8018E5A46
:1031E0009F4F0E94D51CF801E251FC4F6083718310
:1031F00082839383CE010E948918811147C0209752
:1032000081F484EE98E3AEE8BAE38093EE03909302
:10321000EF03A093F003B093F1038091ED038F5F70
:103220003FC0C130D10581F480E090E0A0E3BCE371
:103230008093F2039093F303A093F403B093F50308
:103240008091ED038E5F2CC0229781F486E996E988
:10325000A6E9B9E38093F6039093F703A093F803EC
:10326000B093F9038091ED038C5F1AC08AE198E86E
:10327000AAEEBBE38093FA039093FB03A093FC03B5
:10328000B093FD038091ED03885F0AC02091ED03A8
:1032900081E090E001C0880FCA95EAF7809582230B
:1032A0008093ED03DF91CF911F910F9108950F93BC
:1032B0001F93CF93DF938091ED03807FD1F18091B5
:1032C000FE0387FF36C0E091FE03EF77F0E0EE0FDC
:1032D000FF1FE555FE4F10810181C1E0D0E0012EB6
:1032E00002C0CC0FDD1F0A94E2F78091ED038295B6
:1032F0008F7090E0C817D907E1F40E94A3188823C3
:1033000081F00E94B7188823A1F08091ED038F709F
:103310008093ED038091ED03C095C823C093ED0326
:1033200008C0812F902FDF91CF911F910F910C94A6
:10333000E018DF91CF911F910F91089597FB072E11
:1033400016F4009407D077FD09D00E94D41907FC29
:1033500005D03EF4909581959F4F089570956195A5
:103360007F4F0895A1E21A2EAA1BBB1BFD010DC0C1
:10337000AA1FBB1FEE1FFF1FA217B307E407F50725
:1033800020F0A21BB30BE40BF50B661F771F881F01
:10339000991F1A9469F760957095809590959B0197
:1033A000AC01BD01CF010895AA1BBB1B51E107C0B1
:1033B000AA1FBB1FA617B70710F0A61BB70B881FC5
:1033C000991F5A95A9F780959095BC01CD01089554
:1033D000CF93DF93EC012B8120FF33C026FF0AC07F
:1033E0002F7B2B838E819F8101969F838E838A8181
:1033F00090E029C022FF0FC0E881F9818081082E6A
:10340000000C990B009719F420622B831AC0319697
:10341000F983E8830EC0EA85FB85099597FF09C00B
:103420002B81019611F080E201C080E1822B8B8319
:1034300008C02E813F812F5F3F4F3F832E83992706
:1034400002C08FEF9FEFDF91CF910895A0E0B0E031
:10345000ECE2FAE10C94251DAE014B5F5F4FFA01DF
:1034600061917191AF0180910104909102040E94D9
:103470003C1AE2E00C94411DABE0B0E0E2E4FAE17A
:103480000C94151D6C017B018A01FC0117821682C8
:10349000838181FFCCC1CE0101963C01F60193816D
:1034A000F70193FD859193FF81917F01882309F4B2
:1034B000BAC1853239F493FD859193FF81917F01E3
:1034C000853229F4B60190E00E94331CE7CF912C9D
:1034D000212C312CFFE1F315D8F08B3279F038F440
:1034E000803279F08332A1F4232D20611DC08D320A
:1034F00061F0803369F4232D216016C0832D826032
:10350000382EE32DE4603E2E2AC0F32DF8601DC056
:1035100037FC2DC020ED280F2A3040F08E32B9F450
:1035200036FC81C1232D2064322E19C036FE06C020
:103530008AE0989E200D1124922E11C0EAE02E9E62
:10354000200D1124222EF32DF0623F2E08C08C3660
:1035500021F4832D8068382E02C0883641F4F701AB
:1035600093FD859193FF81917F018111B3CF982FB6
:103570009F7D9554933028F40C5F1F4F9FE39983F0
:103580000DC0833631F0833771F0833509F059C0AF
:1035900021C0F801808189830E5F1F4F88248394A6
:1035A000912C530113C02801F2E04F0E511CF80179
:1035B000A080B18036FE03C0692D70E002C06FEFBD
:1035C0007FEFC5010E94281C4C018201F32DFF777B
:1035D0003F2E16C0280122E0420E511CF801A080A7
:1035E000B18036FE03C0692D70E002C06FEF7FEF3F
:1035F000C5010E941D1C4C01F32DF0683F2E820175
:1036000033FC1BC0822D90E088169906B0F4B601F9
:1036100080E290E00E94331C2A94F4CFF50137FC3D
:10362000859137FE81915F01B60190E00E94331CC5
:1036300021102A9421E0821A91088114910471F7D3
:10364000E8C0843611F0893641F5F80137FE07C02D
:1036500060817181828193810C5F1F4F08C06081FE
:103660007181072E000C880B990B0E5F1F4FF32DF5
:10367000FF763F2E97FF09C09095809570956195D4
:103680007F4F8F4F9F4FF0683F2E2AE030E0A3011D
:103690000E946F1C882E861845C0853731F4232D73
:1036A0002F7EB22E2AE030E025C0932D997FB92ECF
:1036B0008F36C1F018F4883579F0B5C0803719F02D
:1036C000883721F0B0C0E92FE061BE2EB4FE0DC0F6
:1036D000FB2DF460BF2E09C034FE0AC0292F2660DE
:1036E000B22E06C028E030E005C020E130E002C084
:1036F00020E132E0F801B7FE07C06081718182816C
:1037000093810C5F1F4F06C06081718180E090E063
:103710000E5F1F4FA3010E946F1C882E8618FB2D81
:10372000FF773F2E36FE0DC0232D2E7FA22E89144B
:1037300058F434FE0BC032FC09C0832D8E7EA82EB7
:1037400005C0B82CA32C03C0B82C01C0B92CA4FE12
:103750000FC0FE01E80DF11D8081803321F49A2D08
:10376000997EA92E09C0A2FE06C0B394B39404C0EA
:103770008A2D867809F0B394A3FC11C0A0FE06C080
:10378000B21488F4280C922C9B180EC0B21460F46A
:10379000B60180E290E00E94331CB394F7CFB214DC
:1037A00018F42B1802C0982C212CA4FE10C0B601CE
:1037B00080E390E00E94331CA2FE17C0A1FC03C06E
:1037C00088E790E002C088E590E0B6010CC08A2D41
:1037D000867859F0A1FE02C08BE201C080E2A7FC0E
:1037E0008DE2B60190E00E94331C891438F4B601D2
:1037F00080E390E00E94331C9A94F7CF8A94F301FF
:10380000E80DF11D8081B60190E00E94331C81100B
:10381000F5CF222009F442CEB60180E290E00E946A
:10382000331C2A94F6CFF6018681978102C08FEF70
:103830009FEF2B96E2E10C94311DFC010590615045
:1038400070400110D8F7809590958E0F9F1F0895B6
:10385000FC016150704001900110D8F7809590955F
:103860008E0F9F1F08950F931F93CF93DF93FB013C
:10387000238121FD03C08FEF9FEF2CC022FF16C0D4
:1038800046815781248135814217530744F4A08132
:10389000B1819D012F5F3F4F318320838C9326811F
:1038A00037812F5F3F4F3783268314C08B01EC0194
:1038B000FB010084F185E02D0995892BE1F6D80103
:1038C00016968D919C911797019617969C938E93BF
:1038D0001697CE01DF91CF911F910F910895FA01B4
:1038E000AA27283051F1203181F1E8946F936E7F3F
:1038F0006E5F7F4F8F4F9F4FAF4FB1E03ED0B4E030
:103900003CD0670F781F891F9A1FA11D680F791F70
:103910008A1F911DA11D6A0F711D811D911DA11D81
:1039200020D009F468943F912AE0269F1124301991
:10393000305D3193DEF6CF010895462F4770405D2C
:103940004193B3E00FD0C9F7F6CF462F4F70405DDB
:103950004A3318F0495D31FD4052419302D0A9F736
:10396000EACFB4E0A6959795879577956795BA9530
:10397000C9F700976105710508959B01AC010A2EF6
:1039800006945795479537952795BA95C9F7620FCD
:10399000731F841F951FA01D0895F999FECF92BD36
:1039A00081BDF89A992780B50895A6E1B0E044E07A
:1039B00050E00C94071DA8E1B0E042E050E00C9408
:1039C000071D262FF999FECF92BD81BDF89A019768
:1039D00000B4021639F01FBA20BD0FB6F894FA9A57
:1039E000F99A0FBE08950396272F0E94E21C0E94A9
:1039F000E11C252F0E94E21C242F0C94E21C01964E
:103A0000272F0E94E21C0C94E11CDC01CB01FC017D
:103A1000F999FECF06C0F2BDE1BDF89A319600B427
:103A20000D9241505040B8F708952F923F924F9217
:103A30005F926F927F928F929F92AF92BF92CF923E
:103A4000DF92EF92FF920F931F93CF93DF93CDB747
:103A5000DEB7CA1BDB0B0FB6F894DEBF0FBECDBFBF
:103A600009942A88398848885F846E847D848C8490
:103A70009B84AA84B984C884DF80EE80FD800C8199
:103A80001B81AA81B981CE0FD11D0FB6F894DEBF7C
:0C3A90000FBECDBFED010895F894FFCFEC
:103A9C0000000003000000007D100B110000191342
:103AAC0018132E152D152563256300F7072707D44A
:103ABC0004D904DE04D407E504FB04A6082105267A
:103ACC00053C05520560057605540728078C05272B
:103ADC00072707F305270744062707F50847096456
:103AEC0007BF099D06E206460727070000010000F4
:103AFC0000000000000000020003008B0A2707D41E
:103B0C0004D904DE04D407E504FB04A60821052629
:103B1C00053C05520560057605540728078C0527DA
:103B2C00072707F305270744062707F50847096405
:103B3C0007BF099D06E206460727070000010000A3
:0C3B4C0000000000000000020003000068
:00000001FF
