:100000000C9489000C94A6000C94A6000C94A600F5
:100010000C94A6000C94A6000C94A6000C94A600C8
:100020000C94A6000C94A6000C94A6000C94A600B8
:100030000C94A6000C94A6000C94A6000C94A600A8
:100040000C94E51F0C94A6000C943B1E0C94701E9F
:100050000C94A6000C94231F0C94A6000C94A600EC
:100060000C94EB200C94A6000C94A6000C94A60013
:100070000C94A6000C94A6000C94A6000C94A60068
:100080000C94A6000C94A6000C94A6000C94A60058
:100090000C94A6000C94A6000C94A6000C94A60048
:1000A0000C94FE240C94A6000C94A6000C94A600BC
:1000B0000C94A6001A0823082C08350838083B08B9
:1000C0003E08CA09D309DC09DF09E409E709F00998
:1000D000F909020A8112A012FA1215135F13B9135B
:1000E000161468141E15261556159615F5151516B1
:1000F0003F166D164017BE16E61600173017481942
:1001000067198F19E619A41A171B4D1B5250556910
:10011000640011241FBECFEFD8E0DEBFCDBF11E0D9
:10012000A0E0B1E0E6E8F5E502C005900D92A43A42
:10013000B107D9F724E0A4EAB1E001C01D92A336CB
:10014000B207E1F70E94D3010C94C12A0C9400007D
:100150008FB7F89429988FBF8FB7F894219A8FBFE3
:100160008FB7F894259A8FBF8FB7F8942D9A8FBFC9
:100170008FB7F89453988FBF8FB7F8945B9A8FBF5F
:100180008FB7F894529A8FBF8FB7F8945A9A8FBF4F
:100190008FB7F8943B9A8FBF8FB7F894439A8FBF6D
:1001A0008FB7F894549A8FBF8FB7F8945C988FBF2D
:1001B0008FB7F894559A8FBF8FB7F8945D9A8FBF19
:1001C0008FB7F8943A9A8FBF8FB7F89442988FBF41
:1001D0008FB7F894579A8FBF8FB7F8945F988FBFF7
:1001E0008FB7F894569A8FBF8FB7F8945E988FBFE9
:1001F0008FB7F894229A8FBF8FB7F8942A9A8FBF3F
:100200008FB7F894239A8FBF8FB7F8942B988FBF2E
:1002100080E3809310031092120310920103109256
:100220000303109208031092060310920503109224
:10023000130310920F0310920003109215031092F3
:1002400007031092790310927803109216030E940C
:100250000A2080E40E94A41F80E00E94BF1F0E9429
:1002600048206093AB037093AC038093AD039093ED
:10027000AE0342E060E970ED83E090E00E94CD1EA5
:1002800090935E0480935D049093600480935F0478
:1002900089E20E94A12482E79DE00E94DF248AE394
:1002A0009DE00E94D62440E050E060EA76E881E0DC
:1002B00090E00E9447228AE20E94C62686E69EE0DF
:1002C0000E9404278CEE9DE00E94FB2640E050E057
:1002D00060EA76E881E090E00E946A2678942FEB4D
:1002E00084ED91E0215080409040E1F700C0000093
:1002F0008FB7F8945F9A8FBF1092AF0380E090E0C1
:100300000E94F10F81E090E00E94F10F0E949A0E8E
:10031000882329F082E390E00E94422A01C081E311
:10032000809311030E94291C0E94B6170E941E117F
:100330000E9448206093DE037093DF038093E00304
:100340009093E1031092360480E090E00E94621DD9
:1003500081E090E00E94621D82E090E00E94621DB8
:1003600083E090E00E94621D8FB7F89421988FBFC0
:100370008FB7F894299A8FBF8FB7F894209A8FBFC0
:100380008FB7F894289A8FBF8BE090E09093F70393
:100390008093F60381E080932604809103038860B4
:1003A0008093030308950E94A8000E944820609350
:1003B0000B0370930C0380930D0390930E038091B5
:1003C0001503811108C00E9439020E94D8020E94C0
:1003D0000A030E94F1020E946F0E0E940E040E9406
:1003E000B50E0E9442100E94D91D0E94D01C0E948E
:1003F000C4180E94CF110E9427120E9480180E94E8
:1004000094140E94F60DDBCF80910A038823C1F07B
:100410008FB7F89443988FBF8FB7F8945C988FBFCD
:1004200080910903882321F08FB7F8945D9A03C067
:100430008FB7F8945D988FBF8FB7F894429A17C022
:100440008FB7F894439A8FBF8FB7F8945C988FBF9B
:1004500080910903882321F08FB7F8945D9A03C037
:100460008FB7F8945D988FBF8FB7F89442988FBF7D
:1004700008958091F6039091F7030197089728F467
:100480008FB7F8942D9A8FBF08958BE093E00E9468
:10049000C12020910303277F09F067C020910A0340
:1004A000222321F0969587957795679520910203F1
:1004B0002223D9F06C34710581059105B0F093B118
:1004C0008FB7F89495FD02C02D9A01C02D988FBF6B
:1004D00080910B0390910C03A0910D03B0910E033A
:1004E000855B9F4FAF4FBF4F5AC02091010322231E
:1004F000E1F0613D27E0720781059105B0F093B10D
:100500008FB7F89495FD02C02D9A01C02D988FBF2A
:1005100080910B0390910C03A0910D03B0910E03F9
:100520008053984FAF4FBF4F3AC020911203222300
:1005300009F43DC0653F714081059105C0F193B15B
:100540008FB7F89495FD02C02D9A01C02D988FBFEA
:1005500080910B0390910C03A0910D03B0910E03B9
:100560008C509E4FAF4FBF4F1AC0693C710581053B
:100570009105E8F093B18FB7F89495FD02C02D9ADC
:1005800001C02D988FBF80910B0390910C03A09117
:100590000D03B0910E0388539F4FAF4FBF4F809311
:1005A0000B0390930C03A0930D03B0930E030895D7
:1005B000809102038823A1F088EF92E00E94C1207D
:1005C00020910F0321110CC06933714C81409105BA
:1005D00038F00E94040281E080931203109202031B
:1005E00008958CEF92E00E94C12020910F03211109
:1005F00010C020910103222361F0613C744D8140C1
:10060000910538F00E94040281E080931203109259
:100610000103089580910A038111B5C04B9956C01A
:100620008091030383FDAFC04A9B05C08FB7F89448
:100630005A988FBF0895809102038111A4C08091C0
:1006400001038111A0C08091120381119CC080918F
:100650001403811198C00E9448206093190370937D
:100660001A0380931B0390931C03809110038093C3
:10067000160320911603909116034091160330E063
:10068000209530952A70332764E0220F331F6A9536
:10069000E1F7892F90E0809590958075992774E017
:1006A000959587957A95E1F7822B932B9F938F935E
:1006B0001F924F9386E191E09F938F930E949B2717
:1006C00081E0809314038093040357C08091120348
:1006D000882309F458C080910403882309F453C087
:1006E0008091140381114FC08091020381114BC08E
:1006F00080910103811147C00E9448206093190333
:1007000070931A0380931B0390931C038FEC8093C8
:10071000160320911603909116034091160330E0C2
:10072000209530952A70332784E0220F331F8A9555
:10073000E1F7892F90E0809590958075992754E096
:10074000959587955A95E1F7822B932B9F938F93DD
:100750001F924F9386E191E09F938F930E949B2776
:1007600081E0809314038FB7F8942D9A8FBF109275
:1007700004038FB7F8945A9A8FBF0F900F900F9081
:100780000F900F900F90089580910A03882381F0B5
:100790008FB7F89443988FBF8FB7F8945C988FBF4A
:1007A0008FB7F8945D9A8FBF8FB7F894429A0FC0B5
:1007B0008FB7F894439A8FBF8FB7F8945C988FBF28
:1007C0008FB7F8945D9A8FBF8FB7F89442988FBF18
:1007D000089580910A03882381F08FB7F894439895
:1007E0008FBF8FB7F8945C9A8FBF8FB7F8945D98DE
:1007F0008FBF8FB7F894429A0FC08FB7F894439A7F
:100800008FBF8FB7F8945C9A8FBF8FB7F8945D98BD
:100810008FBF8FB7F89442988FBF08958F929F92A1
:10082000AF92BF92CF92DF92EF92FF920F931F93FE
:10083000CF93DF9389E193E00E94C12020911403BC
:10084000222369F0653F71408105910540F0809158
:10085000030381708093030310921403EFC10E947D
:100860009C1E892B09F4EAC180915D0490915E047D
:100870000E945D2760911703262F30E02095309568
:10088000A9014A70552774E0440F551F7A95E1F786
:1008900020753327E4E035952795EA95E1F7242B79
:1008A000352BAC0155272417350739F4109217035F
:1008B00080911403811104C00FC080931703BEC13F
:1008C00080911603681729F0809103038470809348
:1008D00003031092140304C080910403882319F0C9
:1008E00010920A0303C081E080930A03611127C0BC
:1008F0000E944820DC01CB01805C944DA140B109ED
:100900008093FC029093FD02A093FE02B093FF023D
:100910000E944820DC01CB018853914CA140B109D1
:100920008093F8029093F902A093FA02B093FB022D
:100930008FB7F8942D988FBF10920F0358C16F3F57
:1009400031F41092130381E080930F0377C161307B
:1009500009F06DC0E9B179B156B189B149B199B128
:1009600029B136B1E3FBAA24A0F8B12CB694BA2C75
:10097000AA24B794A79472FBCC24C0F8D12CF6E03B
:10098000CC0CDD1CFA95E1F7CA2833FBAA24A0F8A9
:10099000CA2852FBEE24E0F8F12CA5E0EE0CFF1C77
:1009A000AA95E1F7EC2885FB002700F910E0B4E0F8
:1009B000000F111FBA95E1F70E2946FB442740F9B5
:1009C000C42F80E0D82F13E0CC0FDD1F1A95E1F77C
:1009D000C02B892F990F990B8827990F881F99276A
:1009E000880F991F880F991F8C2B24FB882480F86F
:1009F000912C880C991C8829809307038FB7F89451
:100A0000429A8FBF8FB7F8945D988FBF8FB7F894D5
:100A10005F988FBF8FB7F8945C9A8FBF8FB7F894A9
:100A200043988FBF109200036093150307C16E3F78
:100A300009F076C080910703881F8827881F9FB719
:100A4000F894882311F05B9A01C05B989FBF809156
:100A5000070386FB882780F99FB7F894882311F055
:100A60005A9A01C05A989FBF8091070385FB882737
:100A700080F99FB7F894882311F0429A01C04298F8
:100A80009FBF80910703829581709FB7F894882358
:100A900011F05D9A01C05D989FBF8091070383FBB1
:100AA000882780F99FB7F894882311F05E9A01C0D7
:100AB0005E989FBF8FB7F894599A8FBF8FB7F894FD
:100AC00051988FBF8091C10088618093C10080914F
:100AD000070382FB882780F99FB7F894882311F0D9
:100AE0005F9A01C05F989FBF8091070386958170D0
:100AF0009FB7F894882311F05C9A01C05C989FBF5F
:100B00008091070381709FB7F894882311F0439A6E
:100B100001C043989FBF10920003109215038EC02E
:100B20008091110368134EC080911803811120C079
:100B30000E94C4038FB7F8942A988FBF10921704AD
:100B400010922B041092EF031092F0031092EB031B
:100B50001092D6030E94482060931D0370931E03D9
:100B600080931F039093200381E08093180366C055
:100B70008DE193E00E94C1206431710581059105EA
:100B800008F45CC08FB7F8942A9A8FBF10921803AC
:100B900081E080930203109209030E944820609331
:100BA0000B0370930C0380930D0390930E030E942C
:100BB00048206093F8027093F9028093FA029093B0
:100BC000FB023CC067FD1EC081E0809301031092D0
:100BD0000203109212030E94E9030E9448206093CE
:100BE000FC027093FD028093FE029093FF020E942C
:100BF000482060930B0370930C0380930D03909334
:100C00000E031CC010920A031092010310921203EB
:100C1000109202038FB7F8942D9A8FBF8FB7F89474
:100C200043988FBF8FB7F8945C9A8FBF8FB7F894B3
:100C30005D988FBF8FB7F894429A8FBFDF91CF91A5
:100C40001F910F91FF90EF90DF90CF90BF90AF90EA
:100C50009F908F900895FC018181909103039F7173
:100C6000918387FD909303030895FC01218130ED6A
:100C7000320F3B3410F42093100320911003FC0139
:100C800021830895FC0181818093EF038281809309
:100C9000F0038381813011F48AE003C0811103C025
:100CA00081E08093F10381E08093FC030895FC01CF
:100CB000818180931704828180932B04838181300A
:100CC00011F0882319F08093260402C010922604A4
:100CD00081E080932C040895FC0181818F7729F0B5
:100CE000813061F48FEF93E00BC0809127049091E5
:100CF00028042091290430912A0404C080E090E067
:100D000020E030E032832383948385830895FC01BF
:100D100081818093EB0382818093D60383818093CA
:100D2000CB0384818093EC0381E08093DD030895FD
:100D30000F931F93FC01018110E020E030E0302F81
:100D40002227112700279281492F50E060E070E0B0
:100D5000BA0155274427400F511F621F731F84811A
:100D60008A019B01080F111D211D311D438150E097
:100D700060E070E0762F652F542F4427400F511FFD
:100D8000621F731F411551056105710549F480917A
:100D90009B0390919C0320919D0330919E0312C070
:100DA000423051056105710549F480919F0390918E
:100DB000A0032091A1033091A20304C080E090E041
:100DC00020E030E031832283938384831F910F914D
:100DD00008951F93CF93DF93FC019181292F2F77E3
:100DE000223008F044C09093B00384E0289FE001D3
:100DF0001124CF54DC4F588169813A814B81828123
:100E0000428343813383348164831581558397FF03
:100E100035C090E0A0E0B0E0B82FAA279927882736
:100E200050E060E070E0BA0155274427840F951F19
:100E3000A61FB71F810F911DA11DB11D432F50E0AB
:100E400060E070E0762F652F542F4427840F951FA4
:100E5000A61FB71F88839983AA83BB8380E190E094
:100E600001C0880F2A95EAF78093AF0307C08FE788
:100E700081838FEF8283838384838583DF91CF9106
:100E80001F91089508951F93CF93DF93EC0119816B
:100E9000113009F044C080911303811140C00E94B9
:100EA00048206093190370931A0380931B03909357
:100EB0001C038FEF80931603209116039091160365
:100EC0004091160330E0209530952A70332784E056
:100ED000220F331F8A95E1F7892F90E08095909536
:100EE0008075992754E0959587955A95E1F7822B5F
:100EF000932B9F938F931F924F9386E191E09F9343
:100F00008F930E949B271093140310931303109246
:100F10000F030F900F900F900F900F900F908091F4
:100F20000F038983DF91CF911F910895CF93DF93B2
:100F300000D0CDB7DEB7FC019181492F40789F7773
:100F4000228130E0322F22278381280F311D3A83FE
:100F50002983992329F0913041F080E020E007C0F7
:100F600080910F042091100402C08FEF23E02283B0
:100F700083834423A1F0911112C0CE0101960E94F7
:100F80004517882361F089819A819093100480939A
:100F90000F0482E090E090931604809315040F9064
:100FA0000F90DF91CF910895EF92FF920F931F93CF
:100FB000CF93DF9300D000D0CDB7DEB78C01FC011A
:100FC0008181F82FF078EF2E8F77F82EF80182814B
:100FD00090E0A0E0B0E0782F662755274427938162
:100FE000892F90E0A0E0B0E0DC0199278827840FEA
:100FF000951FA61FB71F2581820F911DA11DB11D31
:10100000448150E060E070E0762F652F542F442734
:10101000840F951FA61FB71F89839A83AB83BC8358
:101020008F2D90E08730910570F5FC01E65AFF4F57
:101030000C9443276091070470910804809109047F
:1010400090910A0424C060910B0470910C0480916B
:101050000D0490910E041BC0609111047091120454
:10106000809113049091140412C083E094E008C0AE
:1010700088EF93E005C08FEF93E002C082EF93E02A
:101080000E94C12004C060E070E080E090E0F801C0
:101090009283838374836583EE2009F44BC0F1E06F
:1010A000FF16D9F0FF1620F082E0F81659F142C081
:1010B000CE0101960E9480178823E1F189819A81EF
:1010C000AB81BC818093070490930804A09309042A
:1010D000B0930A0483E090E029C0CE0101960E94FB
:1010E0009217882339F189819A81AB81BC818093E1
:1010F0000B0490930C04A0930D04B0930E0484E0B1
:1011000090E014C0CE0101960E94A417882391F0AC
:1011100089819A81AB81BC818093110490931204E0
:10112000A0931304B093140485E090E09093160408
:10113000809315040F900F900F900F90DF91CF9137
:101140001F910F91FF90EF900895CF93DF9300D000
:10115000CDB7DEB7FC019181492F40789F7722817E
:1011600030E0322F22278381280F311D3A832983D3
:10117000913069F038F0923079F480912D0420910B
:101180002E040CC080912F042091300407C0809160
:1011900033042091340402C080E020E02283838362
:1011A000442309F44BC09130D1F018F0923089F10A
:1011B00045C0CE0101960E94BD1B882349F089815C
:1011C0009A819093300480932F0482E090E015C0C0
:1011D000CE0101960E94DE1B8111F1CF2FC0CE01FE
:1011E00001960E94C81B882369F089819A81909397
:1011F00034048093330483E090E09093320480932E
:1012000031041CC0CE0101960E94E91B8111EDCF73
:1012100015C0CE0101960E94D31B882349F0898115
:101220009A8190932E0480932D0484E090E0E5CF82
:10123000CE0101960E94F41B8111F1CF0F900F9007
:10124000DF91CF910895CF93DF9300D0CDB7DEB774
:10125000FC019181492F40789F77228130E0322F25
:1012600022278381280F311D3A832983992339F05E
:10127000913051F48091C1032091C20307C0809145
:10128000BD032091BE0302C080E020E0228383835F
:101290004423A1F1992319F09130B9F02FC0CE0168
:1012A00001960E947710882349F089819A81909352
:1012B000BE038093BD0382E090E015C0CE0101968D
:1012C0000E948D108111F1CF19C0CE0101960E94AC
:1012D0008210882369F089819A819093C203809358
:1012E000C10383E090E09093C0038093BF0306C0E6
:1012F000CE0101960E9498108111EDCF0F900F90B2
:10130000DF91CF910895EF92FF920F931F93CF93A8
:10131000DF9300D000D0CDB7DEB78C01FC01818116
:10132000F82FF078EF2E8F77F82EF801828190E079
:10133000A0E0B0E0782F6627552744279381892FB6
:1013400090E0A0E0B0E0DC0199278827840F951F8A
:10135000A61FB71F2581820F911DA11DB11D4481BC
:1013600050E060E070E0762F652F542F4427840F03
:10137000951FA61FB71F89839A83AB83BC838F2DCC
:1013800090E08930910508F046C0FC01EF59FF4F0D
:101390000C9443276091C3037091C4038091C503EB
:1013A0009091C6033CC06091B9037091BA038091DB
:1013B000BB039091BC0333C08EED93E002C087EC79
:1013C00093E00E94C1202BC087EE93E0FACF60919A
:1013D000D0037091D1038091D2039091D3031FC0A9
:1013E0006091D7037091D8038091D9039091DA036B
:1013F00016C06091E2037091E3038091E403909141
:10140000E5030DC06091CC037091CD038091CE03B4
:101410009091CF0304C060E070E080E090E0F801BC
:101420009283838374836583EE2099F1FF2021F0FA
:10143000F1E0FF16B1F02DC0CE0101960E94B4106C
:10144000882339F189819A81AB81BC818093C30360
:101450009093C403A093C503B093C60384E090E0C7
:1014600014C0CE0101960E94A310882391F08981B7
:101470009A81AB81BC818093B9039093BA03A09306
:10148000BB03B093BC0385E090E09093C0038093CE
:10149000BF030F900F900F900F90DF91CF911F918E
:1014A0000F91FF90EF900895CF93DF93EC01898126
:1014B00090E0982F88272A81820F911D8430910512
:1014C00050F4880F991FFC01E55AFE4F80819181ED
:1014D0000E94D41F02C080E090E099838A83DF914C
:1014E000CF9108951F93CF93DF93FC019181292F12
:1014F0002F77243008F044C09093350484E0289F6F
:10150000E0011124C95CDB4F588169813A814B812C
:10151000828142834381338334816483158155837F
:1015200097FF35C090E0A0E0B0E0B82FAA27992738
:10153000882750E060E070E0BA0155274427840F07
:10154000951FA61FB71F810F911DA11DB11D432F10
:1015500050E060E070E0762F652F542F4427840F11
:10156000951FA61FB71F88839983AA83BB8380E139
:1015700090E001C0880F2A95EAF78093360407C0EF
:101580008FE781838FEF8283838384838583DF91D9
:10159000CF911F910895AF92BF92CF92DF92EF92B9
:1015A000FF920F931F93CF93DF93FC01809115035C
:1015B000882309F454C0A9B0B9B0C6B0D9B039B1C4
:1015C00099B189B126B1A3FAEE24E0F8F12CF69492
:1015D000FE2CEE24F794E794B2FA002700F910E00D
:1015E00056E0000F111F5A95E1F70E2923FB222721
:1015F00020F9022BC2FACC24C0F8CC2D20E0D22F47
:1016000065E0CC0FDD1F6A95E1F7C02BD5FAAA275C
:10161000A0F9B0E074E0AA0FBB1F7A95E1F7AC2BFC
:1016200036FB662760F970E0B3E0660F771FBA9566
:10163000E1F76A2B292F990F330B2227330F221F33
:101640003327220F331F220F331F262B84FB4427FF
:1016500040F950E0440F551F242B218301C0118213
:10166000DF91CF911F910F91FF90EF90DF90CF907E
:10167000BF90AF900895CF93FC01918180911103A9
:10168000818380ED890F8B3430F49093110381E0D6
:10169000809308039DC0C1E0C093090380910403B7
:1016A0008823B1F10E9448206093190370931A03B4
:1016B00080931B0390931C03109216032091160332
:1016C000909116034091160330E0209530952A70D2
:1016D000332764E0220F331F6A95E1F7892F90E0EA
:1016E000809590958075992774E0959587957A9562
:1016F000E1F7822B932B9F938F931F924F9386E159
:1017000091E09F938F930E949B27C093140339C04D
:10171000809102038823E1F10E944820609319031D
:1017200070931A0380931B0390931C03109216036B
:1017300020911603909116034091160330E02095F6
:1017400030952A70332784E0220F331F8A95E1F702
:10175000892F90E0809590958075992754E0959514
:1017600087955A95E1F7822B932B9F938F931F9226
:101770004F9386E191E09F938F930E949B27109255
:1017800014030F900F900F900F900F900F9020C0A8
:101790000E944820DC01CB01805C944DA140B1093E
:1017A0008093FC029093FD02A093FE02B093FF028F
:1017B0000E944820DC01CB018853914CA140B10923
:1017C0008093F8029093F902A093FA02B093FB027F
:1017D000CF910895CF93FC01C181C13009F048C079
:1017E00080910003811142C08091150381113EC098
:1017F0000E9448206093190370931A0380931B037F
:1018000090931C03C0931603209116039091160326
:101810004091160330E0209530952A70332784E0FC
:10182000220F331F8A95E1F7892F90E080959095DC
:101830008075992754E0959587955A95E1F7822B05
:10184000932B9F938F931F924F9386E191E09F93E9
:101850008F930E949B27C0931403C09300030F90A3
:101860000F900F900F900F900F9004C082E001C076
:1018700083E08183CF9108951F93CF93DF93EC0191
:101880001981113009F06BC080910003811167C08C
:1018900080911503882309F462C08FB7F894599A90
:1018A0008FBF8FB7F89451988FBF42E060E970ED19
:1018B00083E090E00E94CD1E90935E0480935D04CF
:1018C0009093600480935F048FB7F8945F9A8FBF02
:1018D0008FB7F8945E988FBF0E94482060931903D9
:1018E00070931A0380931B0390931C038EEF8093D5
:1018F000160320911603809116039091160330E091
:10190000209530952A703327A90124E0440F551FF4
:101910002A95E1F7282F30E0209530952075332760
:1019200064E0359527956A95E1F7242B352B3F9395
:101930002F931F929F9386E191E09F938F930E9434
:101940009B2710931403109300038091070389834E
:101950000F900F900F900F900F900F9001C0198271
:10196000DF91CF911F9108950F931F93CF93DF9332
:10197000FC0180911503882309F476C08181881FBA
:101980008827881F9FB7F894882311F05B9A01C0BD
:101990005B989FBF818186FBAA27A0F9B0E08FB733
:1019A000F894AB2B11F05A9A01C05A988FBF8181DD
:1019B00085FB662760F970E08FB7F894672B11F00C
:1019C000429A01C042988FBF818184FB442740F92D
:1019D00050E08FB7F894452B11F05D9A01C05D98E7
:1019E0008FBF818183FB222720F930E08FB7F894E5
:1019F000232B11F05E9A01C05E98EF018FBF8181A9
:101A000082FF1AC040E060E070E0CB010E94CD1E72
:101A100090935E0480935D049093600480935F04D0
:101A20008FB7F894519A8FBF8FB7F89459988FBF9A
:101A30008FB7F8945F9A8FBF898181FB002700F9E7
:101A400010E08FB7F894012B11F05C9A01C05C98FC
:101A50008FBF898181709FB7F894882311F0439AD2
:101A600001C043989FBF01C01182DF91CF911F91A8
:101A70000F910895282FA1E2B3E0FC018E2F821B65
:101A8000861718F481918D93F9CF603228F4E62FF0
:101A9000F0E0EF5DFC4F11826093A401623010F41E
:101AA0008FEF0DC080912103E82FE295EF70E430B5
:101AB00010F08EEF04C08F70883020F08DEF80938F
:101AC0002103089598E0E99FF0011124E80FF11D2A
:101AD000EE0FFF1FE55EFE4F0190F081E02D81E2E9
:101AE00093E009946091A40181E293E00E94BA24FA
:101AF000882329F080910303826080930303089573
:101B0000FC01918180911103818380ED890F8B34D9
:101B100028F49093110381E0809308030895D9017C
:101B2000ED91FC913297F9F491E090934B038093FF
:101B30004C0382E08093490360934E0340934F032C
:101B40001092500380934D03109241031092420370
:101B5000109243038FB7F8942D988FBF83E090E0E5
:101B6000F901918380830895EF92FF920F93CF93B1
:101B7000DF93EC0188819981039718F17E01009130
:101B80004D0321E433E0409149036EE473E080911A
:101B90004C030E945C242881398121303105A9F44D
:101BA000982F907E29F082958695877080934A03BE
:101BB0008FB7F8942D9A8FBF1982188210924B0319
:101BC00002C01982188280E001C081E0DF91CF91CC
:101BD0000F91FF90EF900895909377038093760391
:101BE00070E07093790360937803089520917803EF
:101BF000309179032115310509F467C010927903FA
:101C000010927803E0917603F0917703213031054B
:101C100011F040E01FC0908180915603981355C089
:101C20008091A701A6E5B3E0EAE7F3E090E098171A
:101C300021F02D9121939F5FFACF803228F4E82F75
:101C4000F0E0E658FC4F11828093A60181E080937A
:101C5000A5010895842F90E08217930754F4DF01C3
:101C6000A80FB91F5C91DC01AA5ABC4F5C934F5F6F
:101C7000F1CF403220F4FC01EA5AFC4F118220934C
:101C8000A701211102C08FEF0DC080915603E82FEC
:101C9000E295EF70E43010F08EEF04C08F70883062
:101CA00020F08DEF80935603089598E0E99FF001AE
:101CB0001124E80FF11DEE0FFF1FED59FE4F0190AB
:101CC000F081E02D86E593E0099408956091A601E6
:101CD0008AE793E00E94DF261092A5010895CF9332
:101CE00080910803882321F1F99922C09FEF980F72
:101CF0009A3090F490E0FC01E55FFE4FC4916C2FA8
:101D000087960E94562AC11102C08BE003C08091C1
:101D100008038F5F80930803809108038B3041F4A0
:101D20006091110382E390E00E94562A109208030A
:101D3000CF9108951F93CF93DF93C8E2D0E0FE01C7
:101D4000EC51FF4F1491CE010E94422A181306C095
:101D5000112331F02196C233D10589F780E001C00B
:101D600081E0DF91CF911F9108958F929F92AF9262
:101D7000BF92CF92DF92EF92FF920F931F938BEA65
:101D800093E00E94C1206B3071058105910508F434
:101D9000E4C080919A03882349F18091A303909134
:101DA000A403A091A503B091A6030196A11DB11DA6
:101DB0008093A3039093A403A093A503B093A603D9
:101DC0008091A7039091A803A091A903B091AA03C1
:101DD0000196A11DB11D8093A7039093A803A09322
:101DE000A903B093AA0310929A0303C081E08093E1
:101DF0009A03EFB7F8948091A3039091A403A09164
:101E0000A503B091A603C0909B03D0909C03E090E3
:101E10009D03F0909E034091A7035091A803609109
:101E2000A9037091AA0380909F039090A003A090B3
:101E3000A103B090A20300914B0410914C04012E19
:101E4000000C220B330B800F911FA21FB31F813494
:101E500022E492072FE0A207B10548F08054924493
:101E6000AF40B109FFEFCF1ADF0AEF0AFF0A009176
:101E7000570410915804012E000C220B330B400F15
:101E8000511F621F731F950184010F5F1F4F2F4F5A
:101E90003F4F4134F2E45F07FFE06F077105C0F583
:101EA0008093A3039093A403A093A503B093A603E8
:101EB000C0929B03D0929C03E0929D03F0929E03FC
:101EC00080929F039092A003A092A103B092A203DC
:101ED0004093A7035093A8036093A9037093AA03A8
:101EE000EFBF80E00E94BF1F8091AB039091AC03D5
:101EF000A091AD03B091AE030A96A11DB11D8093D0
:101F0000AB039093AC03A093AD03B093AE0325C095
:101F1000405452446F4071098093A3039093A403EB
:101F2000A093A503B093A603C0929B03D0929C03F9
:101F3000E0929D03F0929E034093A7035093A80361
:101F40006093A9037093AA0300939F031093A003C7
:101F50002093A1033093A203C3CF1F910F91FF9051
:101F6000EF90DF90CF90BF90AF909F908F900895AB
:101F700083309105A8F4880F991F880F991FFC01E1
:101F8000EF54FC4F4081518162817381415051096E
:101F90006109710981E04E3F5F4F6F4F7F4F08F03D
:101FA00080E00895CF938091B00387FF17C0C09160
:101FB000B003F99913C0CF7724E0C29FC001112468
:101FC000FC01EF54FC4F40815181628173814E9638
:101FD0000E94682AC093B00381E001C080E0CF91E5
:101FE00008950F931F93CF93DF938230910508F0EC
:101FF00044C0EC018C01000F111F000F111FC8011C
:102000004E960E944A2AF801EF54FC4F6083718378
:1020100082839383CE010E94B80F811112C0CD2B11
:10202000D9F480E090E0A0EAB0E48093B10390930B
:10203000B203A093B303B093B4038091AF038F5F57
:102040001AC02091AF0381E090E001C0880FCA95CB
:10205000EAF7809582230FC081E79DE3AAE8BFE3FA
:102060008093B5039093B603A093B703B093B803DE
:102070008091AF038E5F8093AF03DF91CF911F916B
:102080000F9108950F931F93CF938091AF038073A7
:1020900051F18091B00387FF26C0C091B003CF7784
:1020A0000C2F10E0C8010E94B80F8823B1F00E94E5
:1020B000D20F8823C1F08091AF038F708093AF035C
:1020C0002091AF0381E090E001C0880FCA95EAF744
:1020D000809582238093AF0306C0C801CF911F91E2
:1020E0000F910C94F10FCF911F910F910895FC0166
:1020F000208131812B53310981E02539310508F0E8
:1021000080E00895FC01208131812951310981E06D
:102110002035310508F080E00895FC0120813181EF
:102120002657310981E02932314008F080E00895D6
:10213000FC01208131812253310981E02E393105A2
:1021400008F080E00895FC01408151816281738133
:1021500040545F416109710981E041345F4C66433D
:10216000710508F080E008950C94A31086E490E0D7
:102170000E94502AF9990CC06091BD037091BE0372
:102180008617970739F086E490E00E94742A02C00F
:1021900080E0089581E0089588E490E00E94502A4C
:1021A000F9990CC06091C1037091C203861797071B
:1021B00039F088E490E00E94742A02C080E008951B
:1021C00081E008958AE490E00E944A2ADC01CB0174
:1021D000F99912C04091C3035091C4036091C503A3
:1021E0007091C60384179507A607B70739F08AE4EC
:1021F00090E00E94682A02C080E0089581E008957E
:102200008EE490E00E944A2ADC01CB01F99912C0C9
:102210004091B9035091BA036091BB037091BC0324
:1022200084179507A607B70739F08EE490E00E945F
:10223000682A02C080E0089581E00895CF92DF927D
:10224000EF92FF921F93CF93DF93CDB7DEB72C971A
:102250000FB6F894DEBF0FBECDBF86E490E00E94BB
:10226000502A7C019C878B87CE010B960E947710A9
:10227000811106C0CE010B960E948D10882331F08B
:10228000F092BE03E092BD0310E001C011E088E4CB
:1022900090E00E94502A7C019A878987CE01099696
:1022A0000E948210811106C0CE0109960E949810EA
:1022B000882329F0F092C203E092C10301C011E02B
:1022C0008AE490E00E944A2A6B017C016D837E8340
:1022D0008F839887CE0105960E94A310882349F02A
:1022E000C092C303D092C403E092C503F092C60328
:1022F00001C011E08EE490E00E944A2A6B017C014B
:1023000069837A838B839C83CE0101960E94A310FC
:10231000811128C080E590E09093BE038093BD03B7
:1023200088E290E09093C2038093C10380E89FE429
:10233000A2E1B0E08093C3039093C403A093C503CC
:10234000B093C6038093B9039093BA03A093BB03E1
:10235000B093BC0381E090E09093C0038093BF03EF
:1023600080E00FC0C092B903D092BA03E092BB03E1
:10237000F092BC031111CECF1092C0031092BF0394
:1023800081E02C960FB6F894DEBF0FBECDBFDF9173
:10239000CF911F91FF90EF90DF90CF9008958091A3
:1023A000BF039091C0038230910508F44FC002979B
:1023B000A9F48DEB93E00E947710811106C08DEB9C
:1023C00093E00E948D10882349F00E94B610882364
:1023D00029F01092C0031092BF0308958091BF03AB
:1023E0009091C003039781F481EC93E00E948210E6
:1023F000811106C081EC93E00E949810882321F09F
:102400000E94CC108111E5CF8091BF039091C00351
:10241000049751F483EC93E00E94A310882321F0E9
:102420000E94E2108111D5CF8091BF039091C0032B
:10243000059751F489EB93E00E94A310882321F0C3
:102440000E9400118111C5CF0C941E110895CF92E6
:10245000DF92EF92FF92CF93DF938BED93E00E9498
:10246000B40D81115AC280914B03811156C28091E3
:10247000BF039091C003029708F04FC28091DD0323
:10248000882341F18091EB038823B1F06091D6035A
:10249000662391F02091DB033091DC03232B31F490
:1024A00022E030E03093DC032093DB032BED33E0BC
:1024B0004091D4030E948F0D1092DD038091D403CC
:1024C0009091D503079709F028C21092D503109276
:1024D000D40321C281E090E00E94D41FEC018EED74
:1024E00093E00E94C1206B017C01E091D403F09144
:1024F000D503E830F10508F008C2E659FF4F0C9407
:10250000432789EFC8168AE2D806E104F10408F4EB
:1025100004C22091C1033091C2038091EB032C17B8
:102520003D073CF421E030E03093D5032093D40301
:102530003DC124E030E03093D5032093D40354C14F
:102540008091C1039091C203C817D9073CF522E0DE
:1025500030E03093D5032093D4038091EB0388239C
:1025600099F06091D603662379F04091DB03509196
:10257000DC03452B21F43093DC032093DB032BEDAC
:1025800033E042E00E948F0D0E9448206093DE03FA
:102590007093DF038093E0039093E10381E0C8161A
:1025A00082EAD8068AE4E80684E0F80608F4B5C1B1
:1025B00087E090E09093D5038093D4038091EB0360
:1025C0008823A9F06091D603662389F02091DB036C
:1025D0003091DC03232B31F422E030E03093DC0334
:1025E0002093DB032BED33E047E00E948F0D109228
:1025F000E60311C18091C1039091C203C817D907A6
:102600008CF48091B9039091BA03A091BB03B0916F
:10261000BC038C159D05AE05BF0508F07EC183E0A7
:1026200090E0DCC081E090E0BBC084E090E090935B
:10263000D5038093D4038091EB038823A9F06091A4
:10264000EC03662389F02091DB033091DC03232B1C
:1026500031F422E030E03093DC032093DB032BEDF8
:1026600033E043E00E948F0D80919B0390919C0387
:10267000A0919D03B0919E038093D0039093D103CA
:10268000A093D203B093D30380919F039091A003B2
:10269000A091A103B091A2038093D7039093D80394
:1026A000A093D903B093DA030E9448206093C70334
:1026B0007093C8038093C9039093CA032EC180917D
:1026C000BD039091BE038C179D074CF585E090E00B
:1026D0009093D5038093D4038091EB038823A9F0D2
:1026E0006091D603662389F02091DB033091DC03EF
:1026F000232B31F422E030E03093DC032093DB0322
:102700002BED33E045E00E948F0D0E94482060933E
:10271000DE037093DF038093E0039093E10381E095
:10272000C81682EAD8068AE4E80684E0F80608F4C7
:10273000F4C087E090E09093D5038093D403809118
:10274000EB03882309F467C06091D603662309F47C
:1027500062C02091DB033091DC03232B31F422E0B3
:1027600030E03093DC032093DB032BED33E047E0D4
:1027700050C08091BD039091BE038C179D0764F5F6
:102780008091C3039091C403A091C503B091C60387
:102790008C159D05AE05BF0508F0BFC086E090E032
:1027A0009093D5038093D4038091EB03882399F110
:1027B0006091D603662379F12091DB033091DC032D
:1027C000232B31F422E030E03093DC032093DB0351
:1027D0002BED33E041E01DC084E090E09093D50301
:1027E0008093D4038091EB038823A9F06091D603F2
:1027F000662389F02091DB033091DC03232B31F435
:1028000022E030E03093DC032093DB032BED33E058
:1028100044E00E948F0D0E9448206093DE03709375
:10282000DF038093E0039093E10377C081E090E0C1
:102830009093D5038093D4038091EB038823A9F070
:102840006091CB03662389F02091DB033091DC0398
:10285000232B31F422E030E03093DC032093DB03C0
:102860002BED33E046E00E948F0D1092270410926A
:1028700028041092290410922A0480919B039091BD
:102880009C03A0919D03B0919E038093E2039093DB
:10289000E303A093E403B093E50380919F03909139
:1028A000A003A091A103B091A2038093CC039093C5
:1028B000CD03A093CE03B093CF030E944820609332
:1028C000E7037093E8038093E9039093EA0325C03C
:1028D0008091EB038823A9F06091D603662389F0E9
:1028E0002091DB033091DC03232B31F422E030E034
:1028F0003093DC032093DB032BED33E047E00E94B1
:102900008F0D81E08093E60308C087E090E090930C
:10291000D5038093D4031092E603DF91CF91FF900B
:10292000EF90DF90CF9008950F931F93CF93DF9395
:102930008BED93E00E94B40D8111A2C280914B03F4
:1029400081119EC28091150490911604029708F09F
:1029500097C28091FC038823E9F08091EF038823DC
:10296000B1F06091F003662391F02091DB03309188
:10297000DC03232B31F422E030E03093DC0320939E
:10298000DB032BED33E04091F6030E948F0D109294
:10299000FC0376C28091F1038A3079F41092F1033E
:1029A0008091F6039091F703099739F48AE090E05B
:1029B0009093F7038093F6032DC28091F103813049
:1029C00041F51092F1038091F6039091F703892B62
:1029D00001F581E090E09093F7038093F6038091F6
:1029E000EF03882309F44CC26091F003662309F4D5
:1029F00047C22091DB033091DC03232B31F422E02A
:102A000030E03093DC032093DB032BED33E041E037
:102A100021C286E090E00E94D41FEC0183E094E0A4
:102A20000E94C120E091F603F091F703ED30F1052B
:102A300008F026C2EE58FF4F0C944327189993C113
:102A4000613D77408105910508F41AC28FB7F8946B
:102A5000209A8FBF8FB7F89428988FBF0E94482084
:102A60006093030470930404809305049093060418
:102A700022E030E03093F7032093F6038091EF03D8
:102A8000882309F4FDC16091F003662309F4F8C1BD
:102A90004091DB035091DC03452B21F43093DC03A0
:102AA0002093DB032BED33E042E0D4C1693C710598
:102AB0008105910508F4E4C1809126048093EE031A
:102AC000109226040E9448206093F8037093F90343
:102AD0008093FA039093FB030E94482060930304C1
:102AE00070930404809305049093060483E090E0BF
:102AF0009093F7038093F6038091EF03882309F402
:102B0000BFC16091F003662309F4BAC12091DB03D1
:102B10003091DC03232B31F422E030E03093DC03EE
:102B20002093DB032BED33E043E094C120910F04AD
:102B300030911004C217D30754F50E9448206093C7
:102B4000FF0370930004809301049093020485E0D6
:102B500090E09093F7038093F6038091EF0388232E
:102B600009F48EC16091F003662309F489C12091B4
:102B7000DB033091DC03232B31F422E030E030938F
:102B8000DC032093DB032BED33E045E063C10091D0
:102B90000704109108042091090430910A040617D3
:102BA00017072807390708F06BC184E090E090937D
:102BB000F7038093F6038091EF03882309F460C143
:102BC0006091F003662309F45BC12091DB0330912F
:102BD000DC03232B31F422E030E03093DC0320933C
:102BE000DB032BED33E044E035C18CE090E09093C3
:102BF000F7038093F6038091EF03882309F440C123
:102C00006091F003662309F43BC12091DB0330910E
:102C1000DC03232B31F422E030E03093DC032093FB
:102C2000DB032BED33E04CE015C10E94482060939C
:102C3000030470930404809305049093060486E0D3
:102C400090E09093F7038093F6038091EF0388233D
:102C500009F416C16091F003662309F411C12091B3
:102C6000DB033091DC03232B31F422E030E030939E
:102C7000DC032093DB032BED33E046E0EBC0009157
:102C80000B0410910C0420910D0430910E040617D2
:102C900017072807390708F0F3C087E090E0909302
:102CA000F7038093F6038091EF03882309F4E8C0CB
:102CB0006091F003662309F4E3C02091DB033091B7
:102CC000DC03232B31F422E030E03093DC0320934B
:102CD000DB032BED33E047E0BDC02091FD033091D5
:102CE000FE03A90141505109C417D507C4F12F5F54
:102CF0003F4F2C173D079CF10091110410911204D5
:102D00002091130430911404061717072807390778
:102D100008F0B6C089E090E09093F7038093F60343
:102D20008FB7F89429988FBF8FB7F894219A8FBFE7
:102D30008FB7F89420988FBF8FB7F894289A8FBFD9
:102D40000E9448206093F2037093F3038093F4038E
:102D50009093F5038091EE038093260463C0D09393
:102D6000FE03C093FD030E94482060930304709308
:102D70000404809305049093060482C01899F3CF4D
:102D8000613D77408105910508F47AC08AE090E0C2
:102D90009093F7038093F6038091EF03882309F45F
:102DA0006FC06091F003662309F46AC02091DB03D1
:102DB0003091DC03232B31F422E030E03093DC034C
:102DC0002093DB032BED33E04AE044C0189BCBCFCC
:102DD000613D77408105910508F452C08BE090E099
:102DE0009093F7038093F6038FB7F89421988FBFE1
:102DF0008FB7F894299A8FBF8FB7F894209A0DC097
:102E000061367A4E8105910508F43AC01092F703B5
:102E10001092F6038FB7F89420988FBF8FB7F8946D
:102E2000289A8FBF8091EF03882351F16091F003BE
:102E3000662331F12091DB033091DC03232B31F445
:102E400022E030E03093DC032093DB032BED33E012
:102E50004091F603DF91CF911F910F910C948F0D4C
:102E60008FB7F89429988FBF8FB7F894219A8FBFA6
:102E70008FB7F894209A8FBF8FB7F89428988FBF98
:102E8000DF91CF911F910F910895FC012081318135
:102E90002753310981E02C34314008F080E0089557
:102EA000FC0140815181628173814B50510961095C
:102EB000710981E0453352446F40710508F080E0AC
:102EC0000895FC0140815181628173814B50510909
:102ED0006109710981E045375E4E6643710508F06E
:102EE00080E00895F9990AC060910F047091100470
:102EF00082E890E00E94742A81E0089580E00895BD
:102F0000F9990EC04091070450910804609109049A
:102F100070910A0484E890E00E94682A81E0089594
:102F200080E00895F9990EC040910B0450910C0473
:102F300060910D0470910E0488E890E00E94682A68
:102F400081E0089580E00895F9990EC04091110440
:102F50005091120460911304709114048CE890E075
:102F60000E94682A81E0089580E008952F923F92A0
:102F70004F925F926F927F928F929F92AF92BF9289
:102F8000CF92DF92EF92FF920F931F93CF93DF9335
:102F9000CDB7DEB72E970FB6F894DEBF0FBECDBF0C
:102FA00082E890E00E94502A8C019E878D8784E8F9
:102FB00090E00E944A2A2B013C0169877A878B871F
:102FC0009C8788E890E00E944A2A4B015C016D834F
:102FD0007E838F8398878CE890E00E944A2A6B0159
:102FE0007C0169837A838B839C83CE010D960E943A
:102FF0004517282ECE0109960E945017332433948A
:10300000882311F02110312CCE0105960E94611702
:10301000811102C033243394CE0101960E946117BE
:10302000882321F1311022C01093100400930F0463
:1030300040920704509208046092090470920A04B6
:1030400080920B0490920C04A0920D04B0920E0496
:10305000C0921104D0921204E0921304F09214046E
:10306000109216041092150481E031C08FE390E0B5
:103070009093100480930F0480E69AEEA0E0B0E0F5
:103080008093070490930804A0930904B0930A0462
:1030900080E197E2A0E0B0E080930B0490930C04F1
:1030A000A0930D04B0930E0484E690E0A0E0B0E09D
:1030B0008093110490931204A0931304B09314040A
:1030C00081E090E0909316048093150480E02E96A2
:1030D0000FB6F894DEBF0FBECDBFDF91CF911F9129
:1030E0000F91FF90EF90DF90CF90BF90AF909F90A7
:1030F0008F907F906F905F904F903F902F900895AA
:10310000809115049091160483309105C9F018F44C
:10311000029739F030C084309105D9F0059711F14C
:103120002AC08FE094E00E944517882351F10E9445
:103130007217882301F110921604109215041BC017
:1031400087E094E00E9450178823D9F00E948017EE
:10315000F0CF8BE094E00E946117882391F00E94E9
:103160009217E7CF81E194E00E946117882349F02C
:103170000E94A417DECF8091150490911604029747
:1031800010F00C94B61708958F929F92AF92BF9251
:10319000CF92DF92EF92FF92CF93DF938BED93E08C
:1031A0000E94B40D8111DEC280914B038111DAC2FD
:1031B0008091310490913204029708F0D3C280913B
:1031C000F6039091F703892BB1F487E090E00E9419
:1031D000D41F20912D0430912E04821793075CF4A4
:1031E00081E090E09093F7038093F60380910303CE
:1031F0008061809303038091D4039091D50301975C
:1032000009F079C280912C04882341F18091170440
:103210008823B1F060912B04662391F02091DB03A9
:103220003091DC03232B31F422E030E03093DC03D7
:103230002093DB032BED33E0409120040E948F0D9F
:1032400010922C048091200490912104069709F09B
:1032500089C2109221041092200484C28091260415
:10326000882309F448C287E090E00E94D41FEC0153
:103270008CE194E00E94C120E0912004F0912104AF
:10328000E730F10508F06EC2E158FF4F0C94432778
:103290008FB7F8942B988FBF0E94482060931C042E
:1032A00070931D0480931E0490931F0410922204B7
:1032B00010922304109224041092250410921804F2
:1032C0001092190410921A0410921B0451C06B3F03
:1032D00071058105910508F445C28FB7F8942B9AC2
:1032E0008FBF22E030E030932104209320048091AE
:1032F0001704882309F436C260912B04662309F46D
:1033000031C24091DB035091DC03452B21F4309313
:10331000DC032093DB032BED33E042E012C220916B
:103320003304309134042C173D075CF58FB7F894C3
:103330002B9A8FBF0E94482060931C0470931D0439
:1033400080931E0490931F0488E097E0A0E0B0E013
:103350008093220490932304A0932404B093250423
:103360008093180490931904A0931A04B0931B043B
:1033700083E090E0909321048093200480911704CF
:1033800037C1613177428105910508F4EBC18FB7F0
:10339000F8942B988FBF81E090E090932104809364
:1033A000200480911C0490911D04A0911E04B091F2
:1033B0001F04805F984DAF4FBF4F80931C049093C4
:1033C0001D04A0931E04B0931F044DC11B9B04C099
:1033D0002FB7F8942B982FBF20912F0430913004F1
:1033E000C217D30704F185E090E090932104809305
:1033F000200480911704882309F4B4C160912B0440
:10340000662309F4AFC12091DB033091DC03232B49
:1034100031F422E030E03093DC032093DB032BED2A
:1034200033E045E08EC18090220490902304A09068
:103430002404B090250481149104A104B10409F47A
:1034400059C040EDC42E47E0D42EE12CF12CC81811
:10345000D908EA08FB08C616D706E806F90608F0F8
:1034600081C184E090E0909321048093200480ED5A
:1034700097E0289FA001299F500D389F500D1124DF
:1034800060E378EFC69FC001C79F900DD69F900D57
:103490001124840F951F4091330450913404B901D5
:1034A000641B750B0E940D27CB01770FAA0BBB0B7A
:1034B0008093180490931904A0931A04B0931B04EA
:1034C00080911704882309F44DC160912B04662371
:1034D00009F448C12091DB033091DC03232B31F444
:1034E00022E030E03093DC032093DB032BED33E06C
:1034F00044E027C18091180490911904A0911A0406
:10350000B0911B04AC01BD01485C5109610971090E
:10351000413456406105710550F0883C9105A10584
:10352000B10508F01AC188EC90E0A0E0B0E080930B
:10353000220490932304A0932404B09325048FB70E
:10354000F8942B9A8FBF0EC11B9904C02FB7F89423
:103550002B9A2FBF613D77408105910508F402C188
:103560002091330430913404809117042C173D07C7
:103570000CF056C0C0902704D0902804E090290495
:10358000F0902A0440912204509123046091240475
:10359000709125044C0D5D1D6E1D7F1D4093270409
:1035A000509328046093290470932A0440911C04CA
:1035B00050911D0460911E0470911F044053584F98
:1035C0006F4F7F4F40931C0450931D0460931E0463
:1035D00070931F041092220410922304109224046A
:1035E0001092250423E030E030932104209320043E
:1035F000882309F4B7C060912B04662309F4B2C094
:103600002091DB033091DC03232B31F422E030E006
:103610003093DC032093DB032BED33E043E091C0D8
:1036200021E030E030932104209320041EC08091DB
:103630003304909134048C179D070CF493C08FB71A
:10364000F8942B988FBF0E94482060931C047093BD
:103650001D0480931E0490931F0481E090E09093DA
:1036600021048093200480911704882309F47AC0F0
:1036700060912B04662309F475C02091DB0330911F
:10368000DC03232B31F422E030E03093DC03209381
:10369000DB032BED33E041E054C08091ED03882340
:1036A00041F0813009F05EC0109226041092ED03C3
:1036B00059C08FB7F8942B988FBF80911704882337
:1036C000B1F060912B04662391F02091DB033091DF
:1036D000DC03232B31F422E030E03093DC03209331
:1036E000DB032BED33E0409120040E948F0D81E03D
:1036F0008093ED0337C080912004909121040197BD
:10370000059780F58FB7F8942B988FBF10922104FE
:103710001092200480911704882321F160912B04DA
:10372000662301F12091DB033091DC03232B31F47C
:1037300022E030E03093DC032093DB032BED33E019
:1037400040E0DF91CF91FF90EF90DF90CF90BF905E
:10375000AF909F908F900C948F0D88E097E0A0E041
:10376000B0E0E5CEDF91CF91FF90EF90DF90CF906A
:10377000BF90AF909F908F900895FC012081318180
:103780002B54314081E02738310508F080E008955E
:10379000FC01208131812E53314081E026363105F4
:1037A00008F080E00895FC01208131812B503140E8
:1037B00081E02937310508F080E00895FC0120817F
:1037C00031812559324081E02F30314008F080E0CE
:1037D0000895FC01208131812C57324081E02B3C3F
:1037E000310508F080E00895FC01208131812651E7
:1037F000324081E0223F310508F080E00895F999D8
:103800000AC060912F047091300486E990E00E9414
:10381000742A81E0089580E00895F9990AC06091C2
:1038200033047091340488E990E00E94742A81E0A6
:10383000089580E00895F9990AC060912D0470916F
:103840002E048AE990E00E94742A81E0089580E0C5
:103850000895AF92BF92CF92DF92EF92FF921F93A3
:10386000CF93DF9300D000D000D0CDB7DEB786E98C
:1038700090E00E94502A5C019E838D8388E990E04D
:103880000E94502A6C019C838B838AE990E00E94FD
:10389000502A7C019A838983CE0105960E94BD1B24
:1038A000811106C0CE0105960E94DE1B11E0811138
:1038B00010E0CE0103960E94C81B811107C0CE0103
:1038C00003960E94E91B811101C011E0CE0101960F
:1038D0000E94D31B811106C0CE0101960E94F41BE9
:1038E0008823A1F0111112C0B0923004A0922F04CD
:1038F000D0923404C0923304F0922E04E0922D044E
:10390000109232041092310481E03AC0809159043F
:1039100090915A049C012C5732402832314078F45F
:103920008AE193E09093300480932F0485ED91E039
:10393000909334048093330487E692E013C08E534F
:10394000914084399105A8F48DE891E0909330047A
:1039500080932F0486E791E090933404809333049E
:1039600083E391E090932E0480932D0481E090E016
:1039700002C085E090E0909332048093310480E0AF
:1039800026960FB6F894DEBF0FBECDBFDF91CF9164
:103990001F91FF90EF90DF90CF90BF90AF90089570
:1039A00080913104909132048230910508F445C031
:1039B0000297A9F48FE294E00E94BD1B811106C01A
:1039C0008FE294E00E94DE1B882349F00E94FF1BD7
:1039D000882329F0109232041092310408958091C6
:1039E000310490913204039781F483E394E00E94C0
:1039F000C81B811106C083E394E00E94E91B882361
:103A000021F00E940D1C8111E5CF8091310490912D
:103A10003204049781F48DE294E00E94D31B81115B
:103A200006C08DE294E00E94F41B882321F00E94DE
:103A30001B1C8111CFCF0C94291C08958530910552
:103A4000A8F4880F991F880F991FFC01E95CFB4FB0
:103A5000408151816281738141505109610971092D
:103A600081E04E3F5F4F6F4F7F4F08F080E0089539
:103A7000809135048F77843018F490E00C941E1DEB
:103A800080E00895CF938091350487FF18C0C091DE
:103A90003504F99914C0CF7724E0C29FC0011124E6
:103AA000FC01E95CFB4F40815181628173818E5A38
:103AB0009F4F0E94682AC093350481E001C080E0D6
:103AC000CF9108950F931F93CF93DF938430910587
:103AD00008F06AC0EC018C01000F111F000F111FCC
:103AE000C8018E5A9F4F0E944A2AF801E95CFB4F99
:103AF0006083718382839383CE010E941E1D811196
:103B000047C0209781F484EE98E3AEE8BAE380934F
:103B1000370490933804A0933904B0933A04809109
:103B200036048F5F3FC0C130D10581F480E090E062
:103B3000A0E3BCE380933B0490933C04A0933D043A
:103B4000B0933E04809136048E5F2CC0229781F49E
:103B500086E996E9A6E9B9E380933F04909340048F
:103B6000A0934104B0934204809136048C5F1AC044
:103B70008AE198E8AAEEBBE380934304909344045F
:103B8000A0934504B093460480913604885F0AC030
:103B90002091360481E090E001C0880FCA95EAF7D1
:103BA0008095822380933604DF91CF911F910F91EE
:103BB00008950F931F93CF93DF9380913604807FF6
:103BC00099F18091350487FF2FC0809135048F775C
:103BD000082F10E0C1E0D0E002C0CC0FDD1F8A95B5
:103BE000E2F78091360482958F7090E0C817D9076C
:103BF000D9F40E94381D882381F00E94421D882339
:103C000099F0809136048F70809336048091360449
:103C1000C095C823C093360407C0C801DF91CF9177
:103C20001F910F910C94621DDF91CF911F910F9105
:103C300008952091AC0130E02F5F3F4F2F71332763
:103C40004091AB0150E024173507D1F39091A801C2
:103C5000F901E353FE4F90FF03C08A3009F48DE071
:103C600080832093AC018091C10080628093C10069
:103C700080E090E008951F920F920FB60F921124EA
:103C80002F933F934F935F938F939F93EF93FF9364
:103C90002091C00028713091C6008091AA0190E067
:103CA00001968F7199274091A90150E084179507DB
:103CB00011F42E5F06C08093AA01FC01E355FE4F6C
:103CC000308320934704FF91EF919F918F915F91F3
:103CD0004F913F912F910F900FBE0F901F9018950D
:103CE0001F920F920FB60F9211248F939F93EF9311
:103CF000FF939091AC018091AB01981779F080917E
:103D0000AB0190E001968F7199278093AB01FC0184
:103D1000E353FE4F80818093C60005C08091C100AF
:103D20008F7D8093C100FF91EF919F918F910F90B4
:103D30000FBE0F901F9018958091AA012091A901A4
:103D400090E08096821B91098F71992708950E94B7
:103D50009C1E892BE1F39091AA018091A9019813EF
:103D600007C0809147048F5F8093470480E00CC0B8
:103D70008091A90190E001968F7199278093A90104
:103D8000FC01E355FE4F80819091A80191FF03C093
:103D90008D3009F48AE090E00895CF92DF92EF929F
:103DA000FF920F931F93CF938B019C01C42F6B0144
:103DB0007C0180E6C80E83EED81E86E1E81EF11C69
:103DC000C701B60143E0660F771F881F991F4A9508
:103DD000D1F7A9019801E4E0220F331F441F551FBA
:103DE000EA95D1F70E942127215031091092AC01A8
:103DF0001092AB011092AA011092A9012115310570
:103E000031F48091C100877F8093C10010C037FFDB
:103E100004C082E08093C0003F7788E98093C100AE
:103E200086E08093C2003093C5002093C400C09305
:103E3000A80180E091E0CF911F910F91FF90EF904A
:103E4000DF90CF9008951F920F920FB60F9211241A
:103E50002F933F938F939F93EF93FF938091480409
:103E600090914904019711F41B990EC0E091480408
:103E7000F09149048091780090917900EE0FFF1F36
:103E8000E55BFB4F918380838091480490914904C6
:103E9000019690934904809348048091480490913E
:103EA00049048630910540F48230910550F4009722
:103EB000B1F0019721F00CC0089750F410C01B9B83
:103EC0000EC086E090E0909349048093480407C0B8
:103ED00010924904109248048FE780935C0480910B
:103EE0007C00807F80937C0030917C0020914A048C
:103EF0008091480490914904932F9F71922B890FD0
:103F000080937C008091480490914904892B31F082
:103F100080917A00806480937A000BC08091ED01DB
:103F2000882339F080917A00806480937A0010921F
:103F30005C04FF91EF919F918F913F912F910F9092
:103F40000FBE0F901F90189580934A041092ED01B8
:103F5000ECE7F0E090819073892B8083EAE7F0E052
:103F600080818460808380818260808380818160A1
:103F7000808380818068808310925B040895109212
:103F800049041092480410925C048093ED01EAE722
:103F9000F0E0808187758868808380818064808379
:103FA00081E080935B0408958830910558F42FB721
:103FB000F894880F991FFC01E55BFB4F808191818C
:103FC0002FBF089580E090E008951F920F920FB6E2
:103FD0000F9211248F939F93AF93BF938091F80119
:103FE0009091F901A091FA01B091FB010196A11DF8
:103FF000B11D8093F8019093F901A093FA01B09359
:10400000FB01BF91AF919F918F910F900FBE0F90C9
:104010001F90189584B5847F836084BD85B5887FA3
:10402000836085BDEEE6F0E0808181608083E0E81A
:10403000F0E01082808181608083E1E8F0E010820E
:10404000808183608083E0EBF0E01082808181607A
:104050008083E1EBF0E01082808184608083E0E97E
:10406000F0E01082808181608083E1E9F0E01082DD
:10407000808183608083E0EAF0E01082808181604B
:104080008083E1EAF0E0108280818360808308957C
:104090008F929F92AF92BF92CF92DF92EF92FF9258
:1040A0008FB7F8948090F8019090F901A090FA01F0
:1040B000B090FB018FBF8091F4019091F501A09128
:1040C000F601B091F701A5019401281B390B4A0BA9
:1040D0005B0BDA01C9012B3F31054105510518F48D
:1040E0002223F1F101C08AEFC090EE01D090EF01E0
:1040F000E090F001F090F101E091F201F091F30114
:10410000B701A6014F5F5F4F6F4F7F4F81509F01F7
:1041100023593E4F293E93E0390740F0285E334053
:10412000B701A6014E5F5F4F6F4F7F4F882321F08D
:10413000F9016A017B01E4CF4093EE015093EF0156
:104140006093F0017093F1013093F3012093F20139
:104150008092F4019092F501A092F601B092F701DD
:104160006091EE017091EF018091F0019091F10169
:10417000FF90EF90DF90CF90BF90AF909F908F9087
:1041800008950F931F93CF93DF93EC010E94482073
:10419000088119812A813B81601B710B820B930B73
:1041A000DF91CF911F910F9108950895089585EDA6
:1041B0008093BC008091BC0084FDFCCF109268020B
:1041C00010926702089585EC8093BC0010926802FB
:1041D0001092670208951F920F920FB60F9211244A
:1041E0002F933F934F935F936F937F938F939F93FF
:1041F000AF93BF93EF93FF938091B900887F803690
:1042000009F4C5C0B8F5883209F46AC0A0F4803159
:1042100009F463C038F4882309F45AC0883009F4DB
:104220005CC024C1883109F45BC0803209F01EC132
:1042300080E290E06BC0803409F47BC078F4803376
:1042400009F462C0883309F011C188E390E09093CB
:104250006402809363020E94E32008C1803509F460
:104260005CC0883509F46AC0883409F0FFC088E46E
:1042700090E04CC0883909F4EEC0A8F4883709F4FE
:1042800086C038F4883609F482C0803709F47FC0CC
:10429000EDC0883809F4DFC0803909F481C0803866
:1042A00009F0E4C07DC0803B09F4A9C038F4803A2D
:1042B00009F48BC0883A09F4A2C0D8C0803C09F444
:1042C000CEC0883C09F4CBC0883B09F4B0C0CEC056
:1042D00010926402109263021DC08091690211C0A5
:1042E0009091420280914102981708F03FC0E091FE
:1042F000420281E08E0F80934202F0E0ED5BFD4FC1
:1043000080818093BB00A5C080E390E0909364021D
:10431000809363020E94D720A9C0E091420281E00D
:104320008E0F809342028091BB00F0E0ED5BFD4F69
:104330008083909142028091410289C0E0914202C3
:1043400081E08E0F809342028091BB00F0E0ED5B34
:10435000FD4F80839091420280914102981730F482
:1043600088E590E0909364028093630280916502F7
:104370009091660280FDCECF809165029091660299
:104380008260909366028093650284EA69C083E04C
:1043900090E090936802809367021092FC0159C0EC
:1043A0008091FC01803208F056C0E091FD01F0914F
:1043B000FE018091FC0191E0980F9093FC01909197
:1043C000BB00E80FF11D908344C00E94E3202091C0
:1043D000FC018091FD019091FE01203230F420918A
:1043E000FC01FC01E20FF11D10826091FC01E091E3
:1043F0000E01F0910F0109951092FC0137C084E085
:1044000090E09093680280936702109220021092CD
:104410001F02E0911001F0911101099580911F0296
:10442000811105C081E080931F0210922102E0916A
:10443000200281E08E0F80932002F0E0EF5DFD4FBF
:1044400080818093BB009091200280911F02981779
:1044500010F485EC01C085E88093BC0007C085ECB2
:104460008093BC001092680210926702FF91EF9156
:10447000BF91AF919F918F917F916F915F914F917C
:104480003F912F910F900FBE0F901F9018950F9393
:104490001F938B019C01672B682B692B71F4809112
:1044A000BC008A7B8093BC008FB7F89445988FBF7F
:1044B0008FB7F89444988FBF43C08FEF91E09093EB
:1044C000FE018093FD01109268021092670281E064
:1044D00090E090936602809365028FB7F8943D98C0
:1044E0008FBF8FB7F8943C988FBF4130510541F48E
:1044F0008FB7F894459A8FBF8FB7F894449A8FBFBF
:104500008091B9008E7F8093B9008091B9008D7F32
:104510008093B90060E07BE187EB90E0A90198010E
:104520000E942127DA01C9014097A109B109B69576
:10453000A795979587958093B80085E48093BC00F4
:104540001F910F910895413208F05BC0E09167021E
:10455000F0916802EF2B09F057C0E2E0F0E0F09331
:104560006802E09367022130310531F42091650241
:1045700030916602216005C020916502309166028B
:104580002E7F30936602209365022FEF30E0309348
:104590006402209363021092420240934102262F4C
:1045A000A3E4B2E0FB019E2F921B941718F49191A3
:1045B0009D93F9CF880F809369028091690280935F
:1045C0006902809165029091660281FF14C080911A
:1045D0006502909166028D7F90E0909366028093D1
:1045E0006502809169028093BB008091BC0083FDCD
:1045F000F8CF85EC01C085EE8093BC0080E090E0B0
:10460000089581E090E0089582E090E0089580911F
:104610006702909168020297E1F0809163029091A5
:1046200064028F3F9105C1F0809163029091640212
:104630008097A9F08091630290916402C09791F0F5
:104640008091630290916402892B79F085E090E07B
:10465000089581E090E0089580E090E0089582E080
:1046600090E0089583E090E0089584E090E008955C
:104670000F931F93CF93DF93E801E881F981E43032
:10468000F105C9F030F4E230F105F9F0339721F08B
:1046900020C03797F0F419C00E94A3228130910501
:1046A00029F49983888381E090E015C0029789F00E
:1046B00084E090E00CC00E9407238130910559F0FE
:1046C00021E030E03983288306C081E090E09983BF
:1046D000888380E090E0DF91CF911F910F91089542
:1046E000613208F04EC02091670230916802232B9E
:1046F00009F04AC021E030E030936802209367025D
:1047000020916502309166024130510511F421601B
:1047100001C02E7F30936602209365022FEF30E0B8
:1047200030936402209363021092420261506093BE
:104730004102880F80936902809169028F5F8093A4
:104740006902809165029091660281FF14C0809198
:104750006502909166028D7F90E09093660280934F
:104760006502809169028093BB008091BC0083FD4B
:10477000F8CF85EC01C085EE8093BC0080E090E02E
:10478000089581E090E0089582E090E0089580919E
:104790006702909168020197F1F080916302909115
:1047A00064028F3F9105D1F0809163029091640281
:1047B00088349105B1F0809163029091640288354C
:1047C000910591F08091630290916402892B79F0B8
:1047D00085E090E0089581E090E0089580E090E029
:1047E000089582E090E0089583E090E0089584E0E9
:1047F00090E00895209167023091680221303105E0
:1048000039F420916302309164022F3F3105B1F4F5
:10481000209141022F5F30914202321710F4209113
:104820004202A3E4B2E0382FFC018E2F831B8217D3
:1048300018F48D918193F9CF822F089580E0089527
:10484000EF92FF920F931F93CF93DF937B01642F1F
:10485000E801E881F981E530F10539F018F4329783
:10486000F8F422C0369761F01FC0A9010E9470239E
:1048700081309105A9F00297B9F086E090E012C06E
:104880000E94C7238130910579F00297039740F089
:10489000C7010E94FA2321E030E03983288305C054
:1048A00081E090E09983888380E0DF91CF911F9130
:1048B0000F91FF90EF900895AF92BF92CF92DF9249
:1048C000EF92FF920F931F93CF93DF93B82E69015E
:1048D000A02EE701888199810397029788F48701C8
:1048E00022E030E08B2D0E9438232881398121304D
:1048F0003105B9F4811115C085E090E09983888372
:104900008E0121E030E04A2DB6018B2D0E9420243B
:10491000288139812130310541F4811107C00E947D
:10492000C7238295880F807E01C080E0DF91CF9100
:104930001F910F91FF90EF90DF90CF90BF90AF90BD
:10494000089598EF980F903728F4982F990F909327
:10495000BA0008951092BA0085ED90E2909311018B
:104960008093100186ED90E290930F0180930E01E9
:1049700080E008956132B0F42091670230916802BE
:104980002430310589F460931F02282FA1E2B2E0A0
:10499000FC018E2F821B861718F481918D93F9CF1D
:1049A00080E0089581E0089582E00895009711F471
:1049B00086ED90E290930F0180930E010895009789
:1049C00011F485ED90E29093110180931001089508
:1049D0000895089585ED8093DC008091DC0084FDCE
:1049E000FCCF1092F6021092F502089585EC8093A8
:1049F000DC001092F6021092F50208951F920F92B9
:104A00000FB60F9211242F933F934F935F936F93A1
:104A10007F938F939F93AF93BF93EF93FF93809177
:104A2000D900887F803609F4C5C0B8F5883209F40A
:104A30006AC0A0F4803109F463C038F4882309F413
:104A40005AC0883009F45CC034C1883109F45BC0B5
:104A5000803209F02EC180E290E06BC0803409F40E
:104A60007BC078F4803309F462C0883309F021C137
:104A700088E390E09093F2028093F1020E94F62482
:104A800018C1803509F45CC0883509F46AC08834DF
:104A900009F00FC188E490E04CC0883909F4FEC0E9
:104AA000A8F4883709F486C038F4883609F482C03F
:104AB000803709F47FC0FDC0883809F4EFC0803921
:104AC00009F481C0803809F0F4C07DC0803B09F44E
:104AD000B9C038F4803A09F48BC0883A09F4B2C0FE
:104AE000E8C0803C09F4DEC0883C09F4DBC0883BA8
:104AF00009F4C0C0DEC01092F2021092F1021DC093
:104B00008091F70211C09091D0028091CF02981746
:104B100008F03FC0E091D00281E08E0F8093D00278
:104B2000F0E0EF52FD4F80818093DB00B5C080E361
:104B300090E09093F2028093F1020E94EA24B9C0BF
:104B4000E091D00281E08E0F8093D0028091DB0053
:104B5000F0E0EF52FD4F80839091D0028091CF0220
:104B600099C0E091D00281E08E0F8093D0028091B5
:104B7000DB00F0E0EF52FD4F80839091D0028091F6
:104B8000CF02981730F488E590E09093F20280937A
:104B9000F1028091F3029091F40280FDCECF8091DA
:104BA000F3029091F40282609093F4028093F302F6
:104BB00084EA79C083E090E09093F6028093F50256
:104BC00010926A0269C080916A02803208F066C061
:104BD000E0916B02F0916C0280916A0291E0980F73
:104BE00090936A029091DB00E80FF11D908354C00E
:104BF0000E94F62420916A0280916B0290916C02CF
:104C0000203230F420916A02FC01E20FF11D108283
:104C100060916A02E0911201F0911301099580916F
:104C20006B0290916C028D58924019F48DE692E0DF
:104C300002C08DE892E090936C0280936B02109218
:104C40006A0237C084E090E09093F6028093F50208
:104C50001092AE021092AD02E0911401F091150194
:104C600009958091AD02811105C081E08093AD026C
:104C70001092AF02E091AE0281E08E0F8093AE02FF
:104C8000F0E0E155FD4F80818093DB009091AE0212
:104C90008091AD02981710F485EC01C085E88093EF
:104CA000DC0007C085EC8093DC001092F6021092C5
:104CB000F502FF91EF91BF91AF919F918F917F91FD
:104CC0006F915F914F913F912F910F900FBE0F9079
:104CD0001F9018950F931F938B019C01672B682BD6
:104CE000692B71F48091DC008A7B8093DC008FB7A4
:104CF000F89471988FBF8FB7F89470988FBF43C0A6
:104D00008DE892E090936C0280936B021092F60211
:104D10001092F50281E090E09093F4028093F30208
:104D20008FB7F89469988FBF8FB7F89468988FBF42
:104D30004130510541F48FB7F894719A8FBF8FB706
:104D4000F894709A8FBF8091D9008E7F8093D9009C
:104D50008091D9008D7F8093D90060E07BE187EB63
:104D600090E0A90198010E942127DA01C90140972A
:104D7000A109B109B695A795979587958093D80015
:104D800085E48093DC001F910F91089598EF980FB0
:104D9000903728F4982F990F9093DA000895109285
:104DA000DA0088EE94E2909315018093140189EE65
:104DB00094E2909313018093120180E00895613290
:104DC000B0F42091F5023091F6022430310589F4D7
:104DD0006093AD02282FAFEAB2E0FC018E2F821B58
:104DE000861718F481918D93F9CF80E0089581E0C2
:104DF000089582E00895009711F489EE94E290936B
:104E00001301809312010895009711F488EE94E243
:104E10009093150180931401089597FB072E16F4C3
:104E2000009407D077FD09D00E94492707FC05D0E0
:104E30003EF4909581959F4F0895709561957F4FB1
:104E40000895A1E21A2EAA1BBB1BFD010DC0AA1FCB
:104E5000BB1FEE1FFF1FA217B307E407F50720F0E3
:104E6000A21BB30BE40BF50B661F771F881F991F5E
:104E70001A9469F760957095809590959B01AC01A7
:104E8000BD01CF010895EE0FFF1F0590F491E02DB5
:104E90000994AA1BBB1B51E107C0AA1FBB1FA61781
:104EA000B70710F0A61BB70B881F991F5A95A9F7D3
:104EB00080959095BC01CD010895CF93DF93EC01CF
:104EC0002B8120FF33C026FF0AC02F7B2B838E81CE
:104ED0009F8101969F838E838A8190E029C022FF63
:104EE0000FC0E881F9818081082E000C990B009792
:104EF00019F420622B831AC03196F983E8830EC01F
:104F0000EA85FB85099597FF09C02B81019611F071
:104F100080E201C080E1822B8B8308C02E813F811B
:104F20002F5F3F4F3F832E83992702C08FEF9FEF64
:104F3000DF91CF910895A0E0B0E0E1EAF7E20C94B0
:104F40009A2AAE014B5F5F4FFA0161917191AF01F7
:104F500080915F04909160040E94B127E2E00C947C
:104F6000B62AABE0B0E0E7EBF7E20C948A2A6C01DA
:104F70007B018A01FC0117821682838181FFCCC1EB
:104F8000CE0101963C01F6019381F70193FD8591D5
:104F900093FF81917F01882309F4BAC1853239F4E6
:104FA00093FD859193FF81917F01853229F4B601AC
:104FB00090E00E94A829E7CF912C212C312CFFE111
:104FC000F315D8F08B3279F038F4803279F08332EF
:104FD000A1F4232D20611DC08D3261F0803369F46E
:104FE000232D216016C0832D8260382EE32DE460CE
:104FF0003E2E2AC0F32DF8601DC037FC2DC020EDD9
:10500000280F2A3040F08E32B9F436FC81C1232DAE
:105010002064322E19C036FE06C08AE0989E200D0C
:105020001124922E11C0EAE02E9E200D1124222E72
:10503000F32DF0623F2E08C08C3621F4832D80685A
:10504000382E02C0883641F4F70193FD859193FF15
:1050500081917F018111B3CF982F9F7D955493301B
:1050600028F40C5F1F4F9FE399830DC0833631F006
:10507000833771F0833509F059C021C0F801808170
:1050800089830E5F1F4F88248394912C530113C092
:105090002801F2E04F0E511CF801A080B18036FECD
:1050A00003C0692D70E002C06FEF7FEFC5010E9461
:1050B0009D294C018201F32DFF773F2E16C0280158
:1050C00022E0420E511CF801A080B18036FE03C0E0
:1050D000692D70E002C06FEF7FEFC5010E94922939
:1050E0004C01F32DF0683F2E820133FC1BC0822D52
:1050F00090E088169906B0F4B60180E290E00E9434
:10510000A8292A94F4CFF50137FC859137FE8191C7
:105110005F01B60190E00E94A82921102A9421E0A5
:10512000821A91088114910471F7E8C0843611F055
:10513000893641F5F80137FE07C0608171818281AF
:1051400093810C5F1F4F08C060817181072E000C96
:10515000880B990B0E5F1F4FF32DFF763F2E97FFA5
:1051600009C090958095709561957F4F8F4F9F4FA7
:10517000F0683F2E2AE030E0A3010E94E429882E47
:10518000861845C0853731F4232D2F7EB22E2AE0B4
:1051900030E025C0932D997FB92E8F36C1F018F4D9
:1051A000883579F0B5C0803719F0883721F0B0C064
:1051B000E92FE061BE2EB4FE0DC0FB2DF460BF2EC2
:1051C00009C034FE0AC0292F2660B22E06C028E08E
:1051D00030E005C020E130E002C020E132E0F8011B
:1051E000B7FE07C060817181828193810C5F1F4F80
:1051F00006C06081718180E090E00E5F1F4FA301C7
:105200000E94E429882E8618FB2DFF773F2E36FE5C
:105210000DC0232D2E7FA22E891458F434FE0BC00E
:1052200032FC09C0832D8E7EA82E05C0B82CA32C7D
:1052300003C0B82C01C0B92CA4FE0FC0FE01E80DBC
:10524000F11D8081803321F49A2D997EA92E09C009
:10525000A2FE06C0B394B39404C08A2D867809F0E8
:10526000B394A3FC11C0A0FE06C0B21488F4280CAD
:10527000922C9B180EC0B21460F4B60180E290E04C
:105280000E94A829B394F7CFB21418F42B1802C0C7
:10529000982C212CA4FE10C0B60180E390E00E945F
:1052A000A829A2FE17C0A1FC03C088E790E002C0B5
:1052B00088E590E0B6010CC08A2D867859F0A1FEF1
:1052C00002C08BE201C080E2A7FC8DE2B60190E053
:1052D0000E94A829891438F4B60180E390E00E9466
:1052E000A8299A94F7CF8A94F301E80DF11D8081E3
:1052F000B60190E00E94A8298110F5CF222009F480
:1053000042CEB60180E290E00E94A8292A94F6CF0E
:10531000F6018681978102C08FEF9FEF2B96E2E125
:105320000C94A62AFC010590615070400110D8F73A
:10533000809590958E0F9F1F0895FC0161507040DD
:1053400001900110D8F7809590958E0F9F1F0895BA
:105350000F931F93CF93DF93FB01238121FD03C0A4
:105360008FEF9FEF2CC022FF16C04681578124810A
:1053700035814217530744F4A081B1819D012F5F0D
:105380003F4F318320838C93268137812F5F3F4F9E
:105390003783268314C08B01EC01FB010084F18567
:1053A000E02D0995892BE1F6D80116968D919C91F7
:1053B0001797019617969C938E931697CE01DF91BF
:1053C000CF911F910F910895FA01AA27283051F12A
:1053D000203181F1E8946F936E7F6E5F7F4F8F4F26
:1053E0009F4FAF4FB1E03ED0B4E03CD0670F781F85
:1053F000891F9A1FA11D680F791F8A1F911DA11D6A
:105400006A0F711D811D911DA11D20D009F46894A2
:105410003F912AE0269F11243019305D3193DEF64A
:10542000CF010895462F4770405D4193B3E00FD000
:10543000C9F7F6CF462F4F70405D4A3318F0495DEB
:1054400031FD4052419302D0A9F7EACFB4E0A695CE
:105450009795879577956795BA95C9F700976105F0
:10546000710508959B01AC010A2E06945795479546
:1054700037952795BA95C9F7620F731F841F951F3B
:10548000A01D0895F999FECF92BD81BDF89A992784
:1054900080B50895A6E1B0E044E050E00C947C2A89
:1054A000A8E1B0E042E050E00C947C2A262FF99964
:1054B000FECF92BD81BDF89A019700B4021639F073
:1054C0001FBA20BD0FB6F894FA9AF99A0FBE089544
:1054D0000396272F0E94572A0E94562A252F0E94A2
:1054E000572A242F0C94572A0196272F0E94572AB7
:1054F0000C94562ADC01CB01FC01F999FECF06C0C1
:10550000F2BDE1BDF89A319600B40D924150504081
:10551000B8F708952F923F924F925F926F927F92C9
:105520008F929F92AF92BF92CF92DF92EF92FF92B3
:105530000F931F93CF93DF93CDB7DEB7CA1BDB0B5F
:105540000FB6F894DEBF0FBECDBF09942A88398804
:1055500048885F846E847D848C849B84AA84B9840B
:10556000C884DF80EE80FD800C811B81AA81B98117
:10557000CE0FD11D0FB6F894DEBF0FBECDBFED012B
:065580000895F894FFCF2E
:105586000000000300000000191EA71E0000D62020
:10559600D520E924E82425632563003B0B2B06353B
:1055A60006430742069607D40742075706A5086C26
:1055B6000687062309830942074207540A720A42EC
:1055C60007420798064207E9064207EA0B3C0CCB5E
:1055D6000AB40C42074207420742070000010006D0
:1055E600000700800D2B063506430742069607D4B2
:1055F6000742075706A5086C068706230983094252
:10560600074207540A720A4207420798064207E908
:10561600064207EA0B3C0CCB0AB40C42074207428F
:045626000742070030
:00000001FF
