:100000000C945D000C947A000C947A000C947A00A5
:100010000C947A000C947A000C947A000C947A0078
:100020000C947A000C947A000C947A000C947A0068
:100030000C947A000C947A000C947A000C947A0058
:100040000C9434130C947A000C947D110C94B2111E
:100050000C947A000C9462120C947A000C947A003E
:100060000C9431140C947A000C947A000C947A005D
:100070000C947A000C947A000C947A000C947A0018
:100080000C947A000C947A000C947A000C947A0008
:100090000C947A000C947A000C947A000C947A00F8
:1000A0000C94C7150C947A000C947A000C947A0086
:1000B0000C947A0052505569640011241FBECFEF92
:1000C000D8E0DEBFCDBF11E0A0E0B1E0E8EDF9E39C
:1000D00002C005900D92A43AB107D9F723E0A4EA33
:1000E000B1E001C01D92A23EB207E1F70E94FB17EA
:1000F0000C94EA1C0C9400008091FF028823C1F04C
:100100008FB7F89443988FBF8FB7F8945C988FBFE0
:100110008091FE02882321F08FB7F8945D9A03C086
:100120008FB7F8945D988FBF8FB7F894429A17C035
:100130008FB7F894439A8FBF8FB7F8945C988FBFAE
:100140008091FE02882321F08FB7F8945D9A03C056
:100150008FB7F8945D988FBF8FB7F89442988FBF90
:1001600008958091FF02882381F08FB7F894439817
:100170008FBF8FB7F8945C988FBF8FB7F8945D9A54
:100180008FBF8FB7F894429A0FC08FB7F894439AF5
:100190008FBF8FB7F8945C988FBF8FB7F8945D9A34
:1001A0008FBF8FB7F89442988FBF08958091FF0258
:1001B000882381F08FB7F89443988FBF8FB7F89456
:1001C0005C9A8FBF8FB7F8945D988FBF8FB7F89404
:1001D000429A0FC08FB7F894439A8FBF8FB7F894A5
:1001E0005C9A8FBF8FB7F8945D988FBF8FB7F894E4
:1001F00042988FBF08950F931F938091FB02811146
:10020000A6C00E947E13009100031091010320916B
:10021000020330910303DC01CB01801B910BA20B85
:10022000B30B2091F802277F09F06DC02091FF02E7
:10023000222321F0B695A795979587952091F702EF
:100240002223E9F08C349105A105B105C0F0259B6E
:1002500009C093B18FB7F89495FD02C02D9A01C0E3
:100260002D988FBF8091000390910103A09102030C
:10027000B0910303855B9F4FAF4FBF4F60C020918C
:10028000F6022223F1F0813D27E09207A105B10596
:10029000C0F0259B09C093B18FB7F89495FD02C0BB
:1002A0002D9A01C02D988FBF80910003909101037A
:1002B000A0910203B09103038053984FAF4FBF4FFB
:1002C0003EC020910B03222309F441C0853F914099
:1002D000A105B105E0F1259B09C093B18FB7F89452
:1002E00095FD02C02D9A01C02D988FBF809100030B
:1002F00090910103A0910203B09103038C509E4F93
:10030000AF4FBF4F1CC0893C9105A105B105F8F066
:10031000259B09C093B18FB7F89495FD02C02D9A23
:1003200001C02D988FBF8091000390910103A0918F
:100330000203B091030388539F4FAF4FBF4F809389
:10034000000390930103A0930203B09303031F9152
:100350000F9108950F931F938091F702882301F165
:100360000E947E132091040321111AC00091ED0216
:100370001091EE022091EF023091F002DC01CB01EE
:10038000801B910BA20BB30B8933914CA140B1059B
:1003900038F00E947C0081E080930B031092F702FA
:1003A0001F910F9108950F931F930E947E13209128
:1003B000040321111EC02091F6022223D1F00091E6
:1003C000F1021091F2022091F3023091F402DC016B
:1003D000CB01801B910BA20BB30B813C944DA14030
:1003E000B10538F00E947C0081E080930B031092ED
:1003F000F6021F910F9108950F931F938091FA02B7
:10040000882319F10E947E130091050310910603C1
:100410002091070330910803DC01CB01801B910B75
:10042000A20BB30B893E9340A105B10598F18FB79C
:10043000F89420988FBF8FB7F894289A8FBF1092A6
:10044000FA0281E08093FB0225C08091FB028111BA
:1004500021C018991FC08FB7F894209A8FBF8FB70B
:10046000F89428988FBF8FB7F894259A8FBF8FB7CD
:10047000F8942D9A8FBF1092FB0281E08093FA02CC
:100480000E947E1360930503709306038093070315
:10049000909308031F910F9108958091FF0281119D
:1004A000B5C04B9956C08091F80283FDAFC04A9BFE
:1004B00005C08FB7F8945A988FBF08958091F702BE
:1004C0008111A4C08091F6028111A0C080910B031C
:1004D00081119CC080910D03811198C00E947E13F0
:1004E0006093120370931303809314039093150386
:1004F0008091090380930F0320910F0390910F03C4
:1005000040910F0330E0209530952A70332764E046
:10051000220F331F6A95E1F7892F90E0809590951F
:100520008075992774E0959587957A95E1F7822BE8
:10053000932B9F938F931F924F9386E191E09F930C
:100540008F930E94C41981E080930D038093F90278
:1005500057C080910B03882309F458C08091F90299
:10056000882309F453C080910D0381114FC08091FD
:10057000F70281114BC08091F602811147C00E94A1
:100580007E1360931203709313038093140390936C
:1005900015038FEC80930F0320910F0390910F03AD
:1005A00040910F0330E0209530952A70332784E086
:1005B000220F331F8A95E1F7892F90E0809590955F
:1005C0008075992754E0959587955A95E1F7822B88
:1005D000932B9F938F931F924F9386E191E09F936C
:1005E0008F930E94C41981E080930D038FB7F89414
:1005F0002D9A8FBF1092F9028FB7F8945A9A8FBF35
:100600000F900F900F900F900F900F9008954F92B2
:100610005F926F927F928F929F92AF92BF92CF9292
:10062000DF92EF92FF920F931F93CF93DF930E947D
:100630007E1320910D032223D9F040901203509095
:1006400013036090140370901503DC01CB0184192F
:100650009509A609B709853F9140A105B10540F06C
:100660008091F80281708093F80210920D03F0C11E
:100670000E94DE11892B09F4EBC18091DC0390917B
:10068000DD030E94861960911003262F30E020952B
:100690003095A9014A70552774E0440F551F7A958B
:1006A000E1F720753327E4E035952795EA95E1F7E2
:1006B000242B352BAC0155272417350739F410921C
:1006C000100380910D03811104C00FC080931003AB
:1006D000BFC180910F03681729F08091F8028470E0
:1006E0008093F80210920D0304C08091F9028823D0
:1006F00019F01092FF0203C081E08093FF026111A4
:1007000027C00E947E13DC01CB01805C944DA14088
:10071000B1098093F1029093F202A093F302B09397
:10072000F4020E947E13DC01CB018853914CA1405E
:10073000B1098093ED029093EE02A093EF02B09383
:10074000F0028FB7F8942D988FBF1092040359C10F
:100750006F3F31F410920C0381E08093040378C161
:10076000613009F06FC0F9B1E9B156B149B139B1A1
:1007700089B129B176B190E0880F892F881F990B34
:10078000880F991F880F991F73FB992790F9892B60
:10079000F3FBAA24A0F8B12CB694BA2CAA24B794DF
:1007A000A794A82AE2FBCC24C0F8D12CD6E0CC0C2C
:1007B000DD1CDA95E1F7CA2852FBEE24E0F8F12CB3
:1007C00015E0EE0CFF1C1A95E1F7EC2845FB00271D
:1007D00000F910E084E0000F111F8A95E1F70E295F
:1007E00036FB332730F9C32F80E0D82F93E0CC0FAE
:1007F000DD1F9A95E1F7C02B24FB882480F8912C0B
:10080000880C991C8C2A8092FC028FB7F8942B9844
:100810008FBF8FB7F894429A8FBF8FB7F8945D98C7
:100820008FBF8FB7F8945F988FBF8FB7F8945C9A9B
:100830008FBF8FB7F89443988FBF1092F5026093E3
:100840000E0306C16E3F09F076C08091FC02881F3E
:100850008827881F9FB7F894882311F05B9A01C0FE
:100860005B989FBF8091FC0286FB882780F99FB729
:10087000F894882311F05A9A01C05A989FBF80912A
:10088000FC0285FB882780F99FB7F894882311F034
:10089000429A01C042989FBF8091FC02829581706C
:1008A0009FB7F894882311F05D9A01C05D989FBFAF
:1008B0008091FC0283FB882780F99FB7F8948823F6
:1008C00011F05E9A01C05E989FBF8FB7F894599A55
:1008D0008FBF8FB7F89451988FBF8091C100886106
:1008E0008093C1008091FC0282FB882780F99FB72A
:1008F000F894882311F05F9A01C05F989FBF8091A0
:10090000FC02869581709FB7F894882311F05C9A59
:1009100001C05C989FBF8091FC0281709FB7F894E2
:10092000882311F0439A01C043989FBF1092F502AB
:1009300010920E038DC080910A0368134DC0809100
:100940001103811114C00E94B1008FB7F8942A9846
:100950008FBF0E947E1360931603709317038093DA
:1009600018039093190381E08093110371C00E94D2
:100970007E130091160310911703209118033091F4
:100980001903DC01CB01801B910BA20BB30B449725
:10099000A105B10508F45CC08FB7F8942A9A8FBFFF
:1009A0001092110381E08093F7021092FE020E94E0
:1009B0007E1360930003709301038093020390936E
:1009C00003030E947E136093ED027093EE02809306
:1009D000EF029093F0023CC067FD1EC081E080935F
:1009E000F6021092F70210920B030E94D6000E94AA
:1009F0007E136093F1027093F2028093F30290935E
:100A0000F4020E947E1360930003709301038093AD
:100A10000203909303031CC01092FF021092F6028F
:100A200010920B031092F7028FB7F8942D9A8FBF94
:100A30008FB7F89443988FBF8FB7F8945C9A8FBFA5
:100A40008FB7F8945D988FBF8FB7F894429A8FBF95
:100A5000DF91CF911F910F91FF90EF90DF90CF909A
:100A6000BF90AF909F908F907F906F905F904F90CE
:100A7000089520910903FC0121830895FC018181DF
:100A80008093090308952091FB02FC0121831092B9
:100A9000FB020895FC018091F8028F7081831B9BFB
:100AA00002C0805F8183199B03C08181805E818346
:100AB0008091AE03873019F48181805C8183089531
:100AC000FC01818184FF0BC081E08093930310922D
:100AD00098031092990310929A0310929B038181BC
:100AE00085FF0CC08091FA02811108C08091FB0241
:100AF000811104C08FB7F894299A8FBF818186FD38
:100B00001092AE038F708093F80208952091040331
:100B1000FC0121830895FC0180919F039091A00323
:100B2000218130E0322F222791839281290F311DBC
:100B300082833093A00320939F0383E080939E03DE
:100B40000895FC0180919C0390919D03218130E0E8
:100B5000322F222791839281290F311D8283309376
:100B60009D0320939C0382E080939E030895FC01E3
:100B7000809198039091990320919A0330919B035F
:100B800031832283938384830895FC018091A5039C
:100B90009091A603218130E0322F22279183928108
:100BA000290F311D82833093A6032093A50382E091
:100BB0008093A7030895FC018091A8039091A90355
:100BC000218130E0322F222791839281290F311D1C
:100BD00082833093A9032093A80383E08093A70323
:100BE00008950F931F93FC01018110E020E030E095
:100BF000302F2227112700279281492F50E060E0F3
:100C000070E0BA0155274427400F511F621F731F20
:100C100084818A019B01080F111D211D311D438113
:100C200050E060E070E0762F652F542F4427400F8E
:100C3000511F621F731F411551056105710549F46C
:100C400080917E0390917F032091800330918103F6
:100C500012C0463051056105710549F48091820347
:100C600090918303209184033091850304C080E038
:100C700090E020E030E031832283938384831F91CE
:100C80000F9108950F931F93CF93DF93FC01C091B1
:100C90008B03D0918C0380918D0390918E034181C1
:100CA00050E060E070E0342F222711270027918365
:100CB000428150E060E070E0BA0155274427400FC0
:100CC000511F621F731F8283838190E0A0E0B0E018
:100CD000BA2FA92F982F8827D3832481420F511D23
:100CE000611D711DC483840F951FA61FB71F8093BC
:100CF0008B0390938C03A0938D03B0938E0382E0BB
:100D000080938A03DF91CF911F910F9108950F93E4
:100D10001F93CF93DF93FC01C0918F03D091900379
:100D20008091910390919203418150E060E070E0E6
:100D3000342F2227112700279183428150E060E061
:100D400070E0BA0155274427400F511F621F731FDF
:100D50008283838190E0A0E0B0E0BA2FA92F982F82
:100D60008827D3832481420F511D611D711DC483C7
:100D7000840F951FA61FB71F80938F039093900336
:100D8000A0939103B093920383E080938A03DF9151
:100D9000CF911F910F9108950F931F93CF93DF93DE
:100DA000FC01C091AA03D091AB038091AC03909158
:100DB000AD03418150E060E070E0342F222711271D
:100DC00000279183428150E060E070E0BA0155272E
:100DD0004427400F511F621F731F8283838190E05D
:100DE000A0E0B0E0BA2FA92F982F8827D3832481C1
:100DF000420F511D611D711DC483840F951FA61FD5
:100E0000B71F8093AA039093AB03A093AC03B09356
:100E1000AD0384E08093A703DF91CF911F910F91E1
:100E200008950F931F93CF93DF93FC01C091A1030B
:100E3000D091A2038091A3039091A403418150E03B
:100E400060E070E0342F2227112700279183428130
:100E500050E060E070E0BA0155274427400F511F71
:100E6000621F731F8283838190E0A0E0B0E0BA2FFD
:100E7000A92F982F8827D3832481420F511D611DEC
:100E8000711DC483840F951FA61FB71F8093A103F4
:100E90009093A203A093A303B093A40385E080934F
:100EA000A703DF91CF911F910F91089508950F939C
:100EB0001F93CF93DF93EC010E947E130091B00348
:100EC0001091B1032091B2033091B303DC01CB0147
:100ED000801B910BA20BB30BB983AA839B838C83DA
:100EE000DF91CF911F910F910895CF93DF93EC0184
:100EF000898190E0982F88272A81820F911D823066
:100F0000910530F09C01265031092230310518F44A
:100F10000E94081302C080E090E099838A83DF91E9
:100F2000CF910895FC01818184FD1092AF039091CF
:100F3000AE0385FF05C08091AF03890F81830895BB
:100F4000918308957F928F929F92AF92BF92CF929A
:100F5000DF92EF92FF920F931F93CF93DF93E09175
:100F60000E03EE2309F455C0E9B1B9B1F6B179B079
:100F7000A9B009B1B9B0C6B110E0000F012F001F30
:100F8000110B000F111F000F111FC3FBCC27C0F95D
:100F9000AC2FA02BE3FB882480F8912CE401D6959C
:100FA000DC2FCC27D795C795CA2BB2FBCC24C0F831
:100FB000D12CD60156E0AA0FBB1F5A95E1F7AC2BF6
:100FC000F2FBEE24E0F8F12CF70165E0EE0FFF1FD5
:100FD0006A95E1F7EA2B75FA662760F970E0F4E0AC
:100FE000660F771FFA95E1F76E2BA6FA442740F9B2
:100FF00050E0A3E0440F551FAA95E1F7462BB4FA41
:10100000222720F930E0220F331F242BFC012183FB
:1010100002C0FC011182DF91CF911F910F91FF90CF
:10102000EF90DF90CF90BF90AF909F908F907F9088
:101030000895CF93DF93FC0180910E03882309F478
:101040006EC08181881F8827881F9FB7F8948823E6
:1010500011F05B9A01C05B989FBF818186FB882756
:1010600080F9C82F80E0D82F8FB7F894CD2B11F0DE
:101070005A9A01C05A988FBF818185FBAA27A0F98F
:10108000B0E08FB7F894AB2B11F0429A01C04298B0
:101090008FBF818184FB662760F970E08FB7F89479
:1010A000672B11F05D9A01C05D988FBF818183FB32
:1010B000442740F950E08FB7F894452B11F05E9A21
:1010C00001C05E988FBF818182FF11C08091C100F5
:1010D000877E8093C1008FB7F894519A8FBF8FB7E6
:1010E000F89459988FBF8FB7F8945F9A8FBF81811A
:1010F00081FB222720F930E08FB7F894232B11F0E1
:101100005C9A01C05C988FBF818181709FB7F89411
:10111000882311F0439A01C043989FBF01C01182F8
:10112000DF91CF910895FC0181818130F1F49FB767
:10113000F894209A9FBF9FB7F89428989FBF9FB7B5
:10114000F894259A9FBF9FB7F8942D9A9FBF8093DC
:10115000FA021092FB020E947E13609305037093C3
:10116000060380930703909308030895CF93FC012F
:10117000918180910A03818380ED890F8B3430F453
:1011800090930A0381E08093FD029DC0C1E0C0936B
:10119000FE028091F9028823B1F10E947E136093D0
:1011A000120370931303809314039093150310920A
:1011B0000F0320910F0390910F0340910F0330E034
:1011C000209530952A70332764E0220F331F6A95EB
:1011D000E1F7892F90E0809590958075992774E0CC
:1011E000959587957A95E1F7822B932B9F938F9313
:1011F0001F924F9386E191E09F938F930E94C419B1
:10120000C0930D0339C08091F7028823E1F10E9459
:101210007E136093120370931303809314039093CF
:10122000150310920F0320910F0390910F0340912B
:101230000F0330E0209530952A70332784E0220F89
:10124000331F8A95E1F7892F90E0809590958075FE
:10125000992754E0959587955A95E1F7822B932B22
:101260009F938F931F924F9386E191E09F938F936B
:101270000E94C41910920D030F900F900F900F90C1
:101280000F900F9020C00E947E13DC01CB01805C88
:10129000944DA140B1098093F1029093F202A09382
:1012A000F302B093F4020E947E13DC01CB01885359
:1012B000914CA140B1098093ED029093EE02A0936E
:1012C000EF02B093F002CF910895CF93FC01C1815A
:1012D000C13009F045C020910C03211141C00E948A
:1012E0007E136093120370931303809314039093FF
:1012F00015038FEF80930F0320910F0390910F033D
:1013000040910F0330E0209530952A70332784E018
:10131000220F331F8A95E1F7892F90E080959095F1
:101320008075992754E0959587955A95E1F7822B1A
:10133000932B9F938F931F924F9386E191E09F93FE
:101340008F930E94C419C0930D03C0930C03109295
:1013500004030F900F900F900F900F900F9002C00A
:10136000FC011182CF910895CF93FC01C181C1305E
:1013700009F048C08091F502811142C080910E03AE
:1013800081113EC00E947E13609312037093130379
:101390008093140390931503C0930F0320910F03C0
:1013A00090910F0340910F0330E0209530952A7003
:1013B000332784E0220F331F8A95E1F7892F90E0CD
:1013C000809590958075992754E0959587955A95C5
:1013D000E1F7822B932B9F938F931F924F9386E17C
:1013E00091E09F938F930E94C419C0930D03C09303
:1013F000F5020F900F900F900F900F900F9004C078
:1014000082E001C083E08183CF9108951F93CF9341
:10141000DF93EC011981113009F061C08091F50270
:1014200081115DC080910E03882309F458C08FB7E5
:10143000F894599A8FBF8FB7F89451988FBF8091C5
:10144000C10088618093C1008FB7F8945F9A8FBF05
:101450008FB7F8945E988FBF0E947E13609312033B
:101460007093130380931403909315038EEF80936E
:101470000F0320910F0380910F0390910F0330E031
:10148000209530952A703327A90124E0440F551F79
:101490002A95E1F7282F30E02095309520753327E5
:1014A00064E0359527956A95E1F7242B352B3F931A
:1014B0002F931F929F9386E191E09F938F930E94B9
:1014C000C41910930D031093F5028091FC028983D7
:1014D0000F900F900F900F900F900F9001C01982F6
:1014E000DF91CF911F910895AC0190E0292F30E05A
:1014F0002617370754F4FA01E20FF31F8081F90130
:10150000E65EFC4F80839F5FF1CF903220F4F901BB
:10151000E65EFC4F11826093A401623010F48FEFFD
:101520000DC080911A03E82FE295EF70E43010F0BF
:101530008EEF04C08F70883020F08DEF80931A03F7
:10154000089598E0E99FF0011124E80FF11DEE0FD6
:10155000FF1FE55EFE4F0190F081E02D8AE193E0F0
:1015600009946091A4018AE193E00E94FE1388230C
:1015700029F08091F80282708093F8020895FC01AE
:10158000918180910A03818380ED890F8B3428F447
:1015900090930A0381E08093FD02089590935B038A
:1015A00080935A0370935D0360935C0308952091C8
:1015B0005C0330915D032115310509F46BC0109275
:1015C0005D0310925C03E0915A03F0915B032130BC
:1015D000310511F040E023C0908180913A039813C7
:1015E00059C08091A501811155C08091A701AAE33E
:1015F000B3E0EEE5F3E090E0981721F02D91219310
:101600009F5FFACF803228F4E82FF0E0E25AFC4FD7
:1016100011828093A60181E08093A5010895842F13
:1016200090E08217930754F4DF01A80FB91F5C9173
:10163000DC01A65CBC4F5C934F5FF1CF403220F4DD
:10164000FC01E65CFC4F11822093A701211102C02E
:101650008FEF0DC080913A03E82FE295EF70E430F0
:1016600010F08EEF04C08F70883020F08DEF8093E3
:101670003A03089598E0E99FF0011124E80FF11D65
:10168000EE0FFF1FE55AFE4F0190F081E02D8AE337
:1016900093E0099408956091A6018EE593E00E947D
:1016A00094151092A5010895CF938091FD0288238F
:1016B00021F1F99922C09FEF980F9A3090F490E0B1
:1016C000FC01ED54FF4FC4916C2F87960E947F1C44
:1016D000C11102C08BE003C08091FD028F5F809337
:1016E000FD028091FD028B3041F460910A0382E398
:1016F00090E00E947F1C1092FD02CF9108951F93ED
:10170000CF93DF93C8E2D0E0FE01E457FF4F14917E
:10171000CE010E946B1C181306C0112331F02196D4
:10172000C233D10589F780E001C081E0DF91CF911C
:101730001F9108950F931F930E947E1300918603BB
:10174000109187032091880330918903DC01CB013C
:10175000801B910BA20BB30B0B97A105B10508F4ED
:101760004CC080E00E940813092E000CAA0BBB0B92
:1017700040917E0350917F036091800370918103BB
:10178000840F951FA61FB71F80937E0390937F033E
:10179000A0938003B093810386E00E940813092E72
:1017A000000CAA0BBB0B4091820350918303609104
:1017B000840370918503840F951FA61FB71F809324
:1017C000820390938303A0938403B093850380E006
:1017D0000E94E2128091860390918703A091880372
:1017E000B09189030A96A11DB11D80938603909341
:1017F0008703A0938803B09389031F910F910895E5
:10180000CF92DF92EF92FF92C0908B03D0908C0327
:10181000E0908D03F0908E0320E030E040E950E44A
:10182000C701B6010E948119181664F420E030E067
:1018300040EB50E4C701B6010E945819881F882761
:10184000881F01C080E0FF90EF90DF90CF90089557
:10185000CF92DF92EF92FF92C0908F03D0909003CF
:10186000E0909103F090920326E636E646E65FE3C9
:10187000C701B6010E948119181664F426E636E6FF
:1018800046EA5FE3C701B6010E945819881F8827FE
:10189000881F01C080E0FF90EF90DF90CF90089507
:1018A0008EE190E00E94791CF9990AC08434914439
:1018B00049F064E471E48EE190E00E949D1C02C056
:1018C00080E0089581E0089580E290E00E94731C1A
:1018D000DC01CB01F99912C040918B0350918C032C
:1018E00060918D0370918E0384179507A607B70743
:1018F00039F080E290E00E94911C02C080E00895DF
:1019000081E0089584E290E00E94731CDC01CB0129
:10191000F99912C040918F03509190036091910307
:101920007091920384179507A607B70739F084E2F0
:1019300090E00E94911C02C080E0089581E008952B
:101940008EE190E00E94791C8434914481F580E21C
:1019500090E00E94731C60938B0370938C038093C0
:101960008D0390938E030E94000C882301F184E282
:1019700090E00E94731C60938F0370939003809398
:101980009103909392030E94280C81110CC081E76F
:101990009DE3AAE8BFE380938F0390939003A09305
:1019A0009103B093920310928A0381E0089580E03E
:1019B00090E0A0EAB0E480938B0390938C03A09313
:1019C0008D03B0938E0381E79DE3AAE8BFE3809384
:1019D0008F0390939003A0939103B093920381E0BF
:1019E00080938A0380E00895CF93C0918A03C23028
:1019F00038F10E94000C882301F10E94280C8823F2
:101A0000E1F08EE190E00E94791C8434914419F059
:101A1000CF910C94500CC33039F40E94820C88236F
:101A200019F010928A030CC080918A03823041F42D
:101A30000E94640C8111F5CF03C0CF910C94A00CCF
:101A4000CF910895AF92BF92CF92DF92EF92FF9223
:101A50000F931F93CF93DF9380919303882309F40F
:101A6000D1C087E00E9408137C01C0919C03D091F3
:101A70009D038C179D074CF01B9BC8C08FB7F89433
:101A80002B988FBF10929303C1C080919F039091B8
:101A9000A003C81BD90BD595C7950E947E13009152
:101AA00094031091950320919603309197035B0165
:101AB0006C01A01AB10AC20AD30A9601850180916D
:101AC0009F039091A0038C0F9D1FE816F9060CF060
:101AD0005BC01B9B39C080919C0390919D038E1924
:101AE0009F09BE010E940E1940ED57E0649FC0019E
:101AF000659F900D749F900D1124092E000CAA0B68
:101B0000BB0B8A0D9B1DAC1DBD1D813D9740A105E2
:101B1000B10508F47BC08FB7F8942B988FBF8091E4
:101B2000980390919903A0919A03B0919B03080F99
:101B3000191F2A1F3B1F00939803109399032093AA
:101B40009A0330939B0362C081EDA81687E0B80624
:101B5000C104D10408F45AC08FB7F8942B9A8FBFF0
:101B600041EAA4164FE0B406C104D10458F58091AF
:101B7000940390919503A0919603B091970380539D
:101B8000984FAF4FBF4F35C01B9B0AC006501F4F29
:101B90002F4F3F4F0131174221053105B8F132C0B7
:101BA00041E1A41647E2B406C104D10478F18FB72D
:101BB000F8942B9A8FBF81E2A8168EE4B806C10470
:101BC000D10458F00E947E136093940370939503A0
:101BD000809396039093970319C0809194039091FA
:101BE0009503A0919603B0919703805F984DAF4FF6
:101BF000BF4F8093940390939503A0939603B09363
:101C0000970304C08FB7F8942B988FBFDF91CF91C3
:101C10001F910F91FF90EF90DF90CF90BF90AF900A
:101C20000895FC01208131812B54314081E0273817
:101C3000310508F080E00895FC01208131812E53A8
:101C4000314081E02636310508F080E00895FC013E
:101C5000208131812559324081E02F30314008F018
:101C600080E00895FC01208131812C57324081E0D1
:101C70002B3C310508F080E008958CE390E00E9451
:101C8000791CF9990CC060919C0370919D03861793
:101C9000970739F08CE390E00E949D1C02C080E021
:101CA000089581E008958EE390E00E94791CF999EF
:101CB0000CC060919F037091A0038617970739F0BD
:101CC0008EE390E00E949D1C02C080E0089581E0B8
:101CD0000895EF92FF920F931F93CF93DF9300D05D
:101CE00000D0CDB7DEB78CE390E00E94791C7C0178
:101CF0009C838B838EE390E00E94791C8C019A83F5
:101D00008983CE0103960E94110E811106C0CE0177
:101D100003960E94270E8823C1F0CE0101960E94EF
:101D20001C0E811106C0CE0101960E94320E88233E
:101D300061F0F0929D03E0929C031093A003009346
:101D40009F0310929E0381E010C08DE891E0909374
:101D50009D0380939C0386E791E09093A00380937A
:101D60009F0381E080939E0380E00F900F900F907F
:101D70000F90DF91CF911F910F91FF90EF900895F9
:101D800080919E03823058F1823099F48CE993E07F
:101D90000E94110E811106C08CE993E00E94270E6B
:101DA000882339F00E943D0E882319F010929E037B
:101DB000089580919E03833081F48FE993E00E941F
:101DC0001C0E811106C08FE993E00E94320E882319
:101DD00021F00E94530E8111E9CF0C94690E0895F1
:101DE000FC01208131812B53310981E025393105F6
:101DF00008F080E00895FC012081318129513109EA
:101E000081E02035310508F080E00895FC01208153
:101E100031812657310981E02932314008F080E0D4
:101E20000895FC01208131812253310981E02E394E
:101E3000310508F080E00895FC0140815181628104
:101E4000738140545F416109710981E041345F4C05
:101E50006643710508F080E0089586E490E00E94F2
:101E6000791CF9990CC06091A5037091A60386179F
:101E7000970739F086E490E00E949D1C02C080E044
:101E8000089581E0089588E490E00E94791CF99912
:101E90000CC06091A8037091A9038617970739F0C9
:101EA00088E490E00E949D1C02C080E0089581E0DB
:101EB00008958AE490E00E94731CDC01CB01F9993B
:101EC00012C04091AA035091AB036091AC03709192
:101ED000AD0384179507A607B70739F08AE490E0A9
:101EE0000E94911C02C080E0089581E008958EE474
:101EF00090E00E94731CDC01CB01F99912C0409163
:101F0000A1035091A2036091A3037091A4038417CD
:101F10009507A607B70739F08EE490E00E94911C60
:101F200002C080E0089581E00895CF92DF92EF92A1
:101F3000FF921F93CF93DF93CDB7DEB72C970FB6E9
:101F4000F894DEBF0FBECDBF86E490E00E94791CFE
:101F50007C019C878B87CE010B960E94F00E81112D
:101F600006C0CE010B960E94060F882331F0F09236
:101F7000A603E092A50310E001C011E088E490E020
:101F80000E94791C7C019A878987CE0109960E945C
:101F9000FB0E811106C0CE0109960E94110F882305
:101FA00029F0F092A903E092A80301C011E08AE4AD
:101FB00090E00E94731C6B017C016D837E838F8394
:101FC0009887CE0105960E941C0F882349F0C09285
:101FD000AA03D092AB03E092AC03F092AD0301C030
:101FE00011E08EE490E00E94731C6B017C01698318
:101FF0007A838B839C83CE0101960E941C0F8111F2
:1020000025C080E590E09093A6038093A50388E225
:1020100090E09093A9038093A80380E89FE4A2E155
:10202000B0E08093AA039093AB03A093AC03B0936A
:10203000AD038093A1039093A203A093A303B09355
:10204000A40381E08093A70380E00DC0C092A103A8
:10205000D092A203E092A303F092A4031111D1CF76
:102060001092A70381E02C960FB6F894DEBF0FBE46
:10207000CDBFDF91CF911F91FF90EF90DF90CF9078
:1020800008958091A703823008F447C0823099F404
:1020900085EA93E00E94F00E811106C085EA93E084
:1020A0000E94060F882339F00E942D0F882319F013
:1020B0001092A70308958091A703833081F488EAE2
:1020C00093E00E94FB0E811106C088EA93E00E9413
:1020D000110F882321F00E94430F8111E9CF8091D5
:1020E000A703843051F48AEA93E00E941C0F8823EE
:1020F00021F00E94590F8111DBCF8091A703853019
:1021000051F481EA93E00E941C0F882321F00E9481
:10211000770F8111CDCF0C94950F0895CF92DF9258
:10212000EF92FF92CF93DF9381E00E940813EC01BE
:102130000E947E13C090B003D090B103E090B20330
:10214000F090B3039B01AC012C193D094E095F09C6
:1021500069017A018091AE0381111FC039EFC31666
:102160003AE2D306E104F10408F49EC08091A8038A
:102170009091A9038C179D0714F481E001C084E0BD
:102180008093AE030E947E136093B0037093B103FB
:102190008093B2039093B30387C08130F9F48091A8
:1021A000A8039091A903C817D9076CF482E0809323
:1021B000AE030E947E136093B0037093B1038093CB
:1021C000B2039093B30341E0C41642EAD4064AE452
:1021D000E40644E0F40608F467C03EC08230B9F477
:1021E0008091A8039091A903C817D90734F680916C
:1021F000A1039091A203A091A303B091A40382171D
:102200009307A407B50708F04FC083E0B9CF833028
:1022100021F480E88093AF0339C08430F9F48091D1
:10222000A5039091A6038C179D076CF485E080931D
:10223000AE030E947E136093B0037093B10380934A
:10224000B2039093B30351E0C51652EAD5065AE49F
:10225000E50654E0F50640F187E092CF8530C1F401
:102260008091A5039091A6038C179D077CF4809123
:10227000AA039091AB03A091AC03B091AD03821778
:102280009307A407B50780F486E00CC084E00AC079
:10229000863029F480E48093AF0381E003C0873067
:1022A00019F087E08093AE03DF91CF91FF90EF901C
:1022B000DF90CF9008952091AC0130E02F5F3F4F29
:1022C0002F7133274091AB0150E024173507D1F32C
:1022D0009091A801F901E353FE4F90FF03C08A30AB
:1022E00009F48DE080832093AC018091C10080626D
:1022F0008093C10080E090E008951F920F920FB686
:102300000F9211242F933F934F935F938F939F933B
:10231000EF93FF932091C00028713091C600809107
:10232000AA0190E001968F7199274091A90150E090
:102330008417950711F42E5F06C08093AA01FC0153
:10234000E355FE4F30832093B403FF91EF919F91AB
:102350008F915F914F913F912F910F900FBE0F90F2
:102360001F9018951F920F920FB60F9211248F9302
:102370009F93EF93FF939091AC018091AB019817DD
:1023800079F08091AB0190E001968F71992780934D
:10239000AB01FC01E353FE4F80818093C60005C072
:1023A0008091C1008F7D8093C100FF91EF919F913B
:1023B0008F910F900FBE0F901F9018958091AA01DA
:1023C0002091A90190E08096821B91098F71992735
:1023D00008950E94DE11892BE1F39091AA0180916A
:1023E000A901981307C08091B4038F5F8093B40351
:1023F00080E00CC08091A90190E001968F7199272F
:102400008093A901FC01E355FE4F80819091A801C2
:1024100091FF03C08D3009F48AE090E00895CF92D7
:10242000DF92EF92FF920F931F93CF938B019C014A
:10243000C42F6B017C0180E6C80E83EED81E86E1B6
:10244000E81EF11CC701B60143E0660F771F881F25
:10245000991F4A95D1F7A9019801E4E0220F331F93
:10246000441F551FEA95D1F70E94221921503109C6
:102470001092AC011092AB011092AA011092A90126
:1024800037FF04C082E08093C0003F7721153105FB
:1024900019F41092C1000AC088E98093C10086E057
:1024A0008093C2003093C5002093C400C093A8015C
:1024B00080E091E0CF911F910F91FF90EF90DF901E
:1024C000CF9008951F920F920FB60F9211242F9361
:1024D0008F939F93EF93FF93E091B503F0E080918A
:1024E000780090917900EE0FFF1FE954FC4F918323
:1024F00080838091B5038F5F8093B5038091B5038E
:10250000813029F41B9B03C086E08093B503809142
:10251000B503823019F486E08093B5038091B5034A
:10252000873029F41B9B03C088E08093B50380911A
:10253000B5038830B0F480917C00807F80937C006C
:1025400080917C002091B6039091B5038F71822B0E
:10255000890F80937C0080917A00806480937A0058
:102560000CC01092B5038FEF9FE79093C803809340
:10257000C7038091ED018111DECFFF91EF919F9113
:102580008F912F910F900FBE0F901F9018958093F1
:10259000B6031092ED01ECE7F0E090819073892B87
:1025A0008083EAE7F0E080818460808380818260BC
:1025B000808380818E7F8083808180688083109279
:1025C000C90308951092B5031092C8031092C7036F
:1025D0008093ED01ECE7F0E080819091B603807389
:1025E000892B8083EAE7F0E08081846080838081AA
:1025F0008260808380818E7F8083808187758868F8
:10260000808380818064808381E08093C903089502
:102610009091C903992361F02FB7F894E82FF0E067
:10262000EE0FFF1FE954FC4F808191812FBF089569
:1026300020917C0020739091B603E82FE770822FE1
:10264000892BE82BE0937C0080917A008064809352
:102650007A0080917A0086FDFCCF809178002091ED
:10266000790090E0922B08951F920F920FB60F926F
:1026700011242F933F938F939F93AF93BF93809198
:10268000EF019091F001A091F101B091F201309130
:10269000EE012DE2230F2D3720F40196A11DB11D6F
:1026A00005C020EB230F0296A11DB11D2093EE0162
:1026B0008093EF019093F001A093F101B093F201A8
:1026C0008091F3019091F401A091F501B091F60190
:1026D0000196A11DB11D8093F3019093F401A09385
:1026E000F501B093F601BF91AF919F918F913F910A
:1026F0002F910F900FBE0F901F9018952FB7F89441
:102700006091EF017091F0018091F1019091F201DF
:102710002FBF089584B5826084BD84B5816084BD77
:1027200085B5826085BD85B5816085BDEEE6F0E04A
:10273000808181608083E1E8F0E0108280818260A6
:102740008083808181608083E0E8F0E08081816027
:102750008083E1EBF0E0808184608083E0EBF0E057
:10276000808181608083E1E9F0E080818260808304
:10277000808181608083E0E9F0E0808181608083F6
:10278000E1EAF0E0808182608083808181608083E3
:10279000E0EAF0E0808181608083089508950895E3
:1027A0001092600291E090935E0210925D029FB7DA
:1027B000F8943D989FBF9FB7F8943C989FBF88239B
:1027C00041F08FB7F894459A8FBF8FB7F894449A29
:1027D0008FBF8091B9008E7F8093B9008091B9003E
:1027E0008D7F8093B90084E38093B80085E4809363
:1027F000BC000895880F8093BA000895613298F460
:1028000020916002243089F460931902282FABE1F3
:10281000B2E0FC018E2F821B861718F481918D93F4
:10282000F9CF80E0089581E0089582E008959093C3
:102830000F0180930E010895909311018093100170
:10284000089585ED8093BC008091BC0084FDFCCF91
:1028500010926002089585EC8093BC001092600293
:1028600008951F920F920FB60F9211242F933F934A
:102870004F935F936F937F938F939F93AF93BF9388
:10288000EF93FF938091B900887F803609F49EC052
:1028900078F5883209F45DC090F4803109F456C0AF
:1028A00038F4882309F4F5C0883009F44FC0F5C026
:1028B000883109F44EC0803209F45FC0EEC0803424
:1028C00009F46AC058F4803309F457C0883309F01A
:1028D000E4C08093F7010E942B14DFC0803509F417
:1028E0004FC0883509F45DC0883409F0D6C0D3C024
:1028F000883909F4C4C0A8F4883709F467C038F4EB
:10290000883609F463C0803709F460C0C6C08838CF
:1029100009F4B5C0803909F45FC0803809F0BDC042
:102920005BC0803B09F483C038F4803A09F466C088
:10293000883A09F47CC0B1C0803C09F4A4C0883C4A
:1029400009F4A1C0883B09F487C0A7C080915F0249
:1029500010C090913C0280913B02981770F5E09175
:102960003C0281E08E0F80933C02F0E0E35CFD4F7F
:1029700080818093BB0085EC83C08093F7018BC07E
:10298000E0913C0281E08E0F80933C028091BB007D
:10299000F0E0E35CFD4F808390913C0280913B022C
:1029A0006BC0E0913C0281E08E0F80933C028091ED
:1029B000BB00F0E0E35CFD4F808380915E028111FB
:1029C0006AC081E080935D0284EA5EC083E0809308
:1029D00060021092F801CFCF8091F801803208F0A8
:1029E0004EC0E091F80181E08E0F8093F801809154
:1029F000BB00F0E0E750FE4F8083BDCF0E942B1458
:102A00008091F801803230F4E091F801F0E0E75075
:102A1000FE4F10826091F80170E0E0910E01F0919C
:102A20000F0189EF91E009951092F80136C084E01A
:102A30008093600210921A0210921902E091100124
:102A4000F0911101099580911902811105C081E071
:102A50008093190210921B02E0911A0281E08E0FFE
:102A600080931A02F0E0E55EFD4F80818093BB0009
:102A700090911A0280911902981708F47CCF85E88A
:102A80008093BC000AC085EC8093BC001092600269
:102A900004C01092F7010E942114FF91EF91BF91A1
:102AA000AF919F918F917F916F915F914F913F91E6
:102AB0002F910F900FBE0F901F90189508950895B5
:102AC00025E832E030936402209363021092EC0216
:102AD00091E09093EA021092E9029FB7F894699806
:102AE0009FBF9FB7F89468989FBF882341F08FB726
:102AF000F894719A8FBF8FB7F894709A8FBF8091B6
:102B0000D9008E7F8093D9008091D9008D7F8093EA
:102B1000D90084E38093D80085E48093DC00089595
:102B2000880F8093DA000895613298F42091EC02C6
:102B3000243089F46093A502282FA7EAB2E0FC01B3
:102B40008E2F821B861718F481918D93F9CF80E028
:102B5000089581E0089582E0089590931301809391
:102B6000120108959093150180931401089585ED45
:102B70008093DC008091DC0084FDFCCF1092EC029D
:102B8000089585EC8093DC001092EC0208951F926A
:102B90000F920FB60F9211242F933F934F935F9391
:102BA0006F937F938F939F93AF93BF93EF93FF9315
:102BB0008091D900887F803609F49EC078F58832EC
:102BC00009F45DC090F4803109F456C038F48823CC
:102BD00009F40AC1883009F44FC00AC1883109F4E8
:102BE0004EC0803209F45FC003C1803409F46AC06A
:102BF00058F4803309F457C0883309F0F9C0809342
:102C000061020E94C115F4C0803509F44FC08835B7
:102C100009F45DC0883409F0EBC0E8C0883909F4D4
:102C2000D9C0A8F4883709F467C038F4883609F4A5
:102C300063C0803709F460C0DBC0883809F4CAC0BB
:102C4000803909F45FC0803809F0D2C05BC0803B96
:102C500009F498C038F4803A09F469C0883A09F454
:102C600091C0C6C0803C09F4B9C0883C09F4B6C024
:102C7000883B09F49CC0BCC08091EB0210C09091CD
:102C8000C8028091C702981770F5E091C80281E0F0
:102C90008E0F8093C802F0E0E753FD4F8081809350
:102CA000DB0085EC98C080936102A0C0E091C8026F
:102CB00081E08E0F8093C8028091DB00F0E0E75343
:102CC000FD4F80839091C8028091C70280C0E0913F
:102CD000C80281E08E0F8093C8028091DB00F0E093
:102CE000E753FD4F80838091EA0281117FC081E02C
:102CF0008093E90284EA73C083E08093EC0210922F
:102D00006202CFCF80916202803208F063C0E0910E
:102D10006302F09164028091620291E0980F9093B7
:102D200062029091DB00E80FF11D9083BACF0E9400
:102D3000C115209162028091630290916402203259
:102D400030F420916202FC01E20FF11D10826091CB
:102D5000620270E0E0911201F091130109958091F7
:102D60006302909164028558924019F485E692E0DE
:102D700002C085E892E0909364028093630210920F
:102D8000620236C084E08093EC021092A602109298
:102D9000A502E0911401F091150109958091A50219
:102DA000811105C081E08093A5021092A702E091F5
:102DB000A60281E08E0F8093A602F0E0E955FD4F58
:102DC00080818093DB009091A6028091A5029817E4
:102DD00008F467CF85E88093DC000AC085EC809317
:102DE000DC001092EC0204C0109261020E94B71540
:102DF000FF91EF91BF91AF919F918F917F916F91D3
:102E00005F914F913F912F910F900FBE0F901F90A8
:102E100018958FB7F894259A8FBF8FB7F8942D9A8D
:102E20008FBF8FB7F89453988FBF8FB7F8945B9A82
:102E30008FBF8FB7F894529A8FBF8FB7F8945A9A72
:102E40008FBF8FB7F8943B9A8FBF8FB7F894439A90
:102E50008FBF8FB7F894549A8FBF8FB7F8945C9850
:102E60008FBF8FB7F894559A8FBF8FB7F8945D9A3C
:102E70008FBF8FB7F8943A9A8FBF8FB7F894429864
:102E80008FBF8FB7F894579A8FBF8FB7F8945F981A
:102E90008FBF8FB7F894569A8FBF8FB7F8945E980C
:102EA0008FBF8FB7F894229A8FBF8FB7F8942A9A62
:102EB0008FBF8FB7F89420988FBF8FB7F894289A58
:102EC0008FBF80E38093090310920B031092F602E8
:102ED0001092F8021092FD021092FB021092FA0278
:102EE00010920C03109204031092F50210920E033C
:102EF0001092FC0210925D0310925C0310920F037B
:102F00000E948A1380E40E94C71280E00E94E212AD
:102F10000E947E13609386037093870380938803D7
:102F20009093890342E060E970ED83E090E00E94B5
:102F30000F129093DD038093DC039093DF03809363
:102F4000DE0389E20E94FA1381EB9AE00E941C14CE
:102F500084E79AE00E94171480E00E94D0138AE26E
:102F60000E9490158BE49BE00E94B2158EEC9AE0D3
:102F70000E94AD1580E00E94601578942FEB84EDDF
:102F800091E0215080409040E1F700C000008FB7F1
:102F9000F8945F9A8FBF0E94A00C0E947F0B882339
:102FA00029F082E390E00E946B1C01C081E38093D2
:102FB0000A030E94690E0E94950F0E947E1360937F
:102FC000B0037093B1038093B2039093B303109254
:102FD000CA0380E00E946E1881E00E946E1882E0B1
:102FE0000E946E1883E00E946E188091F80288603B
:102FF0008093F80208950E9409170E947E1360933F
:103000000003709301038093020390930303809164
:103010000E0381110AC00E94FB000E94AA010E94B7
:103020004D020E94D3010E94FC010E94540B0E9499
:1030300007030E949A0B0E94F40C0E94C00E0E948B
:10304000CE180E94220D0E9441100E948E100E94F4
:10305000D70ADDCF24E0829FC0011124FC01E55393
:10306000FC4F81E040815181628173814F3F5F4F0E
:103070006F4F7F4F09F480E00895E091DB03EF7715
:10308000E23020F08AEF8E0F823030F4F0E0E55627
:10309000FE4F80810C942A1880E008958091DB0314
:1030A00087FF1AC0E091DB03F99916C0EF77F0E0D3
:1030B000E556FE4F808124E0829FC0011124FC016F
:1030C000E553FC4F40815181628173818E5A9F4F3D
:1030D0000E94911C81E0089580E008951F93CF9392
:1030E000DF93182F84E0189FE0011124CE018E5A3F
:1030F0009F4F0E94731CC553DC4F688379838A837A
:103100009B83812F0E942A18811138C011110CC095
:1031100084EE98E3AEE8BAE388839983AA83BB83FD
:103120008091CA038F5F34C0113061F480E090E079
:10313000A0E3BCE388839983AA83BB838091CA03FD
:103140008E5F26C0123061F486E996E9A6E9B9E3FC
:1031500088839983AA83BB838091CA038C5F18C03C
:103160001330C1F48AE198E8AAEEBBE3888399831F
:10317000AA83BB838091CA03885F0AC02091CA03D7
:1031800081E090E001C0880F1A95EAF780958223CC
:103190008093CA03DF91CF911F9108951F93CF931E
:1031A000DF938091CA03807FA9F18091DB0387FFC1
:1031B00031C0E091DB03EF77F0E0E556FE4F108180
:1031C000C1E0D0E0012E02C0CC0FDD1F0A94E2F76F
:1031D0008091CA0382958F7090E0C817D907D1F407
:1031E0000E943D18882381F00E944E18882391F098
:1031F0008091CA038F708093CA038091CA03C095DF
:10320000C823C093CA0306C0812FDF91CF911F91BD
:103210000C946E18DF91CF911F91089597FB072EA4
:1032200016F4009407D077FD09D00E94441907FCDA
:1032300005D03EF4909581959F4F089570956195C6
:103240007F4F0895A1E21A2EAA1BBB1BFD010DC0E2
:10325000AA1FBB1FEE1FFF1FA217B307E407F50746
:1032600020F0A21BB30BE40BF50B661F771F881F22
:10327000991F1A9469F760957095809590959B01B8
:10328000AC01BD01CF010895AA1BBB1B51E107C0D2
:10329000AA1FBB1FA617B70710F0A61BB70B881FE6
:1032A000991F5A95A9F780959095BC01CD01089575
:1032B0000E945D1908F481E00895990F0008550FE8
:1032C000AA0BE0E8FEEF16161706E807F907C0F0AC
:1032D00012161306E407F50798F0621B730B840BB4
:1032E000950B39F40A2661F0232B242B252B21F48E
:1032F00008950A2609F4A140A6958FEF811D811D2E
:1033000008950E945D1908F48FEF0895CF93DF931D
:10331000EC012B8120FF33C026FF0AC02F7B2B83BB
:103320008E819F8101969F838E838A8190E029C040
:1033300022FF0FC0E881F9818081082E000C990BD3
:10334000009719F420622B831AC03196F983E88321
:103350000EC0EA85FB85099597FF09C02B81019670
:1033600011F080E201C080E1822B8B8308C02E81A6
:103370003F812F5F3F4F3F832E83992702C08FEFFE
:103380009FEFDF91CF910895A0E0B0E0EAECF9E182
:103390000C94C31CAE014B5F5F4FFA0161917191B8
:1033A000AF018091DE039091DF030E94DA19E2E021
:1033B0000C94DF1CABE0B0E0E0EEF9E10C94B31C40
:1033C0006C017B018A01FC0117821682838181FFD7
:1033D000CCC1CE0101963C01F6019381F70193FD2A
:1033E000859193FF81917F01882309F4BAC18532C9
:1033F00039F493FD859193FF81917F01853229F402
:10340000B60190E00E94D11BE7CF912C212C312CEA
:10341000FFE1F315D8F08B3279F038F4803279F08F
:103420008332A1F4232D20611DC08D3261F08033E1
:1034300069F4232D216016C0832D8260382EE32D80
:10344000E4603E2E2AC0F32DF8601DC037FC2DC06D
:1034500020ED280F2A3040F08E32B9F436FC81C1BD
:10346000232D2064322E19C036FE06C08AE0989EB5
:10347000200D1124922E11C0EAE02E9E200D112461
:10348000222EF32DF0623F2E08C08C3621F4832DBE
:103490008068382E02C0883641F4F70193FD85918B
:1034A00093FF81917F018111B3CF982F9F7D955418
:1034B000933028F40C5F1F4F9FE399830DC0833630
:1034C00031F0833771F0833509F059C021C0F8011C
:1034D000808189830E5F1F4F88248394912C530130
:1034E00013C02801F2E04F0E511CF801A080B180FA
:1034F00036FE03C0692D70E002C06FEF7FEFC5019B
:103500000E94C61B4C018201F32DFF773F2E16C08F
:10351000280122E0420E511CF801A080B18036FE45
:1035200003C0692D70E002C06FEF7FEFC5010E94FC
:10353000BB1B4C01F32DF0683F2E820133FC1BC0F6
:10354000822D90E088169906B0F4B60180E290E0F2
:103550000E94D11B2A94F4CFF50137FC859137FEE8
:1035600081915F01B60190E00E94D11B21102A9445
:1035700021E0821A91088114910471F7E8C0843621
:1035800011F0893641F5F80137FE07C0608171817D
:10359000828193810C5F1F4F08C060817181072E6B
:1035A000000C880B990B0E5F1F4FF32DFF763F2EFB
:1035B00097FF09C090958095709561957F4F8F4FCB
:1035C0009F4FF0683F2E2AE030E0A3010E940D1CBF
:1035D000882E861845C0853731F4232D2F7EB22ED4
:1035E0002AE030E025C0932D997FB92E8F36C1F0A7
:1035F00018F4883579F0B5C0803719F0883721F094
:10360000B0C0E92FE061BE2EB4FE0DC0FB2DF4600A
:10361000BF2E09C034FE0AC0292F2660B22E06C074
:1036200028E030E005C020E130E002C020E132E0D7
:10363000F801B7FE07C060817181828193810C5FC0
:103640001F4F06C06081718180E090E00E5F1F4FC8
:10365000A3010E940D1C882E8618FB2DFF773F2E9C
:1036600036FE0DC0232D2E7FA22E891458F434FE71
:103670000BC032FC09C0832D8E7EA82E05C0B82C4D
:10368000A32C03C0B82C01C0B92CA4FE0FC0FE01AE
:10369000E80DF11D8081803321F49A2D997EA92EA9
:1036A00009C0A2FE06C0B394B39404C08A2D8678E4
:1036B00009F0B394A3FC11C0A0FE06C0B21488F4B4
:1036C000280C922C9B180EC0B21460F4B60180E254
:1036D00090E00E94D11BB394F7CFB21418F42B18CA
:1036E00002C0982C212CA4FE10C0B60180E390E00B
:1036F0000E94D11BA2FE17C0A1FC03C088E790E086
:1037000002C088E590E0B6010CC08A2D867859F099
:10371000A1FE02C08BE201C080E2A7FC8DE2B601EF
:1037200090E00E94D11B891438F4B60180E390E048
:103730000E94D11B9A94F7CF8A94F301E80DF11DF2
:103740008081B60190E00E94D11B8110F5CF22202C
:1037500009F442CEB60180E290E00E94D11B2A9487
:10376000F6CFF6018681978102C08FEF9FEF2B96EF
:10377000E2E10C94CF1CFC010590615070400110F7
:10378000D8F7809590958E0F9F1F0895FC0161508A
:10379000704001900110D8F7809590958E0F9F1F73
:1037A00008950F931F93CF93DF93FB01238121FD96
:1037B00003C08FEF9FEF2CC022FF16C046815781B8
:1037C000248135814217530744F4A081B1819D01C2
:1037D0002F5F3F4F318320838C93268137812F5F6A
:1037E0003F4F3783268314C08B01EC01FB0100841B
:1037F000F185E02D0995892BE1F6D80116968D917A
:103800009C911797019617969C938E931697CE01CD
:10381000DF91CF911F910F910895FA01AA272830C7
:1038200051F1203181F1E8946F936E7F6E5F7F4F8D
:103830008F4F9F4FAF4FB1E03ED0B4E03CD0670F09
:10384000781F891F9A1FA11D680F791F8A1F911D5C
:10385000A11D6A0F711D811D911DA11D20D009F4AC
:1038600068943F912AE0269F11243019305D3193EE
:10387000DEF6CF010895462F4770405D4193B3E0D7
:103880000FD0C9F7F6CF462F4F70405D4A3318F07E
:10389000495D31FD4052419302D0A9F7EACFB4E02F
:1038A000A6959795879577956795BA95C9F70097E7
:1038B0006105710508959B01AC010A2E0694579588
:1038C000479537952795BA95C9F7620F731F841FDF
:1038D000951FA01D0895F999FECF92BD81BDF89A5C
:1038E000992780B50895A6E1B0E044E050E00C943B
:1038F000A51CA8E1B0E042E050E00C94A51C262FE6
:10390000F999FECF92BD81BDF89A019700B40216D5
:1039100039F01FBA20BD0FB6F894FA9AF99A0FBE83
:1039200008950396272F0E94801C0E947F1C252F3C
:103930000E94801C242F0C94801C0196272F0E942B
:10394000801C0C947F1CDC01CB01FC01F999FECF9B
:1039500006C0F2BDE1BDF89A319600B40D92415017
:103960005040B8F708952F923F924F925F926F9216
:103970007F928F929F92AF92BF92CF92DF92EF92FF
:10398000FF920F931F93CF93DF93CDB7DEB7CA1B80
:10399000DB0B0FB6F894DEBF0FBECDBF09942A88AB
:1039A000398848885F846E847D848C849B84AA8453
:1039B000B984C884DF80EE80FD800C811B81AA81E0
:1039C000B981CE0FD11D0FB6F894DEBF0FBECDBFAB
:0839D000ED010895F894FFCF0A
:1039D80000000003000000005B11E9110000CF1394
:1039E800CE135F155E152563256300B608560739A3
:1039F800053E05430593084A056005650986058B5C
:103A080005A105B705C505DB0592077507560756D5
:103A1800075607F105560742068706B409060AA2A3
:103A2800071908CC06110757075607BF0A56073962
:103A3800053E05430593084A056005650986058B1B
:103A480005A105B705C505DB059207750756075695
:103A5800075607F105560742068706B409060AA263
:103A6800071908CC06110757075607000100000080
:043A78000002030045
:00000001FF
