:100000000C945D000C947A000C947A000C947A00A5
:100010000C947A000C947A000C947A000C947A0078
:100020000C947A000C947A000C947A000C947A0068
:100030000C947A000C947A000C947A000C947A0058
:100040000C941F120C947A000C9494100C94C91008
:100050000C947A000C947C110C947A000C947A0025
:100060000C9425130C947A000C947A000C947A006A
:100070000C947A000C947A000C947A000C947A0018
:100080000C947A000C947A000C947A000C947A0008
:100090000C947A000C947A000C947A000C947A00F8
:1000A0000C943A150C947A000C947A000C947A0013
:1000B0000C947A0052505569640011241FBECFEF92
:1000C000D8E0DEBFCDBF11E0A0E0B1E0E6E6FAE3A4
:1000D00002C005900D92A43AB107D9F723E0A4EA33
:1000E000B1E001C01D92AD3EB207E1F70E94591880
:1000F0000C94311D0C94000080910A038823C1F0F8
:100100008FB7F89443988FBF8FB7F8945C988FBFE0
:1001100080910903882321F08FB7F8945D9A03C07A
:100120008FB7F8945D988FBF8FB7F894429A17C035
:100130008FB7F894439A8FBF8FB7F8945C988FBFAE
:1001400080910903882321F08FB7F8945D9A03C04A
:100150008FB7F8945D988FBF8FB7F89442988FBF90
:10016000089580910A03882381F08FB7F89443980B
:100170008FBF8FB7F8945C988FBF8FB7F8945D9A54
:100180008FBF8FB7F894429A0FC08FB7F894439AF5
:100190008FBF8FB7F8945C988FBF8FB7F8945D9A34
:1001A0008FBF8FB7F89442988FBF089580910A034C
:1001B000882381F08FB7F89443988FBF8FB7F89456
:1001C0005C9A8FBF8FB7F8945D988FBF8FB7F89404
:1001D000429A0FC08FB7F894439A8FBF8FB7F894A5
:1001E0005C9A8FBF8FB7F8945D988FBF8FB7F894E4
:1001F00042988FBF089580910603811192C08BE0D1
:1002000093E00E94FB1220910303277F09F067C04F
:1002100020910A03222321F096958795779567957B
:10022000209102032223D9F06C34710581059105D8
:10023000B0F093B18FB7F89495FD02C02D9A01C02C
:100240002D988FBF80910B0390910C03A0910D030B
:10025000B0910E03855B9F4FAF4FBF4F5AC02091A7
:1002600001032223E1F0613D27E07207810591053A
:10027000B0F093B18FB7F89495FD02C02D9A01C0EC
:100280002D988FBF80910B0390910C03A0910D03CB
:10029000B0910E038053984FAF4FBF4F3AC020919B
:1002A0001603222309F43DC0653F71408105910585
:1002B000C0F193B18FB7F89495FD02C02D9A01C09B
:1002C0002D988FBF80910B0390910C03A0910D038B
:1002D000B0910E038C509E4FAF4FBF4F1AC0693C78
:1002E000710581059105E8F093B18FB7F89495FDFC
:1002F00002C02D9A01C02D988FBF80910B03909161
:100300000C03A0910D03B0910E0388539F4FAF4F84
:10031000BF4F80930B0390930C03A0930D03B093F6
:100320000E030895809102038823A1F088EF92E0E4
:100330000E94FB1220910F0321110CC06933714CF4
:100340008140910538F00E947C0081E08093160383
:100350001092020308958CEF92E00E94FB1220910C
:100360000F03211110C020910103222361F0613C91
:10037000744D8140910538F00E947C0081E08093AB
:100380001603109201030895809105038823B9F0A4
:1003900080E193E00E94FB12693E73408105910564
:1003A00098F18FB7F89420988FBF8FB7F894289A58
:1003B0008FBF1092050381E080930603089580911A
:1003C0000603811121C018991FC08FB7F894209A95
:1003D0008FBF8FB7F89428988FBF8FB7F894259A5E
:1003E0008FBF8FB7F8942D9A8FBF1092060381E0CC
:1003F000809305030E94821260931003709311038F
:100400008093120390931303089580910A0381113E
:10041000B5C04B9956C08091030383FDAFC04A9B82
:1004200005C08FB7F8945A988FBF08958091020342
:100430008111A4C0809101038111A0C08091160395
:1004400081119CC080911803811198C00E94821272
:1004500060931D0370931E0380931F0390932003EA
:100460008091140380931A0320911A0390911A0328
:1004700040911A0330E0209530952A70332764E0CC
:10048000220F331F6A95E1F7892F90E080959095B0
:100490008075992774E0959587957A95E1F7822B79
:1004A000932B9F938F931F924F9386E191E09F939D
:1004B0008F930E940B1A81E08093180380930403AA
:1004C00057C080911603882309F458C08091040313
:1004D000882309F453C08091180381114FC0809183
:1004E000020381114BC080910103811147C00E941A
:1004F000821260931D0370931E0380931F039093D9
:1005000020038FEC80931A0320911A0390911A0311
:1005100040911A0330E0209530952A70332784E00B
:10052000220F331F8A95E1F7892F90E080959095EF
:100530008075992754E0959587955A95E1F7822B18
:10054000932B9F938F931F924F9386E191E09F93FC
:100550008F930E940B1A81E0809318038FB7F89451
:100560002D9A8FBF109204038FB7F8945A9A8FBFB9
:100570000F900F900F900F900F900F9008958F9203
:100580009F92AF92BF92CF92DF92EF92FF920F9322
:100590001F93CF93DF938DE193E00E94FB12209194
:1005A0001803222369F0653F71408105910540F0F1
:1005B0008091030381708093030310921803E7C1B5
:1005C0000E94F510892B09F4E2C18091E703909114
:1005D000E8030E94CD1960911B03262F30E020957F
:1005E0003095A9014A70552774E0440F551F7A953C
:1005F000E1F720753327E4E035952795EA95E1F793
:10060000242B352BAC0155272417350739F41092CC
:100610001B0380911803811104C00FC080931B033A
:10062000B6C180911A03681729F080910303847082
:10063000809303031092180304C08091040388235D
:1006400019F010920A0303C081E080930A0361113C
:1006500027C00E948212DC01CB01805C944DA14036
:10066000B1098093FC029093FD02A093FE02B09327
:10067000FF020E948212DC01CB018853914CA14001
:10068000B1098093F8029093F902A093FA02B09313
:10069000FB028FB7F8942D988FBF10920F0350C1B3
:1006A0006F3F31F41092170381E080930F036FC105
:1006B000613009F071C0E9B179B156B189B149B180
:1006C00099B129B136B1E3FBAA24A0F8B12CB694B4
:1006D000BA2CAA24B794A79472FBCC24C0F8D12CCE
:1006E000F6E0CC0CDD1CFA95E1F7CA2833FBAA240E
:1006F000A0F8CA2852FBEE24E0F8F12CA5E0EE0C9D
:10070000FF1CAA95E1F7EC2885FB002700F910E013
:10071000B4E0000F111FBA95E1F70E2946FB4427FC
:1007200040F9C42F80E0D82F13E0CC0FDD1F1A95BD
:10073000E1F7C02B892F990F990B8827990F881FF4
:100740009927880F991F880F991F8C2B24FB8824C9
:1007500080F8912C880C991C8829809307038FB707
:10076000F8942B988FBF8FB7F894429A8FBF8FB7AA
:10077000F8945D988FBF8FB7F8945F988FBF8FB74D
:10078000F8945C9A8FBF8FB7F89443988FBF1092FC
:10079000000360931903FBC06E3F09F076C080919F
:1007A0000703881F8827881F9FB7F894882311F0B4
:1007B0005B9A01C05B989FBF8091070386FB8827E7
:1007C00080F99FB7F894882311F05A9A01C05A987B
:1007D0009FBF8091070385FB882780F99FB7F89416
:1007E000882311F0429A01C042989FBF809107036D
:1007F000829581709FB7F894882311F05D9A01C0AB
:100800005D989FBF8091070383FB882780F99FB77E
:10081000F894882311F05E9A01C05E989FBF8FB74D
:10082000F894599A8FBF8FB7F89451988FBF8091E1
:10083000C10088618093C1008091070382FB8827F3
:1008400080F99FB7F894882311F05F9A01C05F98F0
:100850009FBF80910703869581709FB7F894882386
:1008600011F05C9A01C05C989FBF80910703817072
:100870009FB7F894882311F0439A01C043989FBF13
:10088000109200031092190382C08091150368131F
:1008900042C080911C03811114C00E94B1008FB727
:1008A000F8942A988FBF0E9482126093210370935C
:1008B0002203809323039093240381E080931C03FD
:1008C00066C081E293E00E94FB12643171058105EC
:1008D000910508F45CC08FB7F8942A9A8FBF1092E4
:1008E0001C0381E080930203109209030E9482128C
:1008F00060930B0370930C0380930D0390930E038E
:100900000E9482126093F8027093F9028093FA02B7
:100910009093FB023CC067FD1EC081E08093010301
:1009200010920203109216030E94D6000E948212B7
:100930006093FC027093FD028093FE029093FF028D
:100940000E94821260930B0370930C0380930D033B
:1009500090930E031CC010920A0310920103109290
:100960001603109202038FB7F8942D9A8FBF8FB79A
:10097000F89443988FBF8FB7F8945C9A8FBF8FB766
:10098000F8945D988FBF8FB7F894429A8FBFDF912C
:10099000CF911F910F91FF90EF90DF90CF90BF907C
:1009A000AF909F908F900895FC01218130ED320F20
:1009B0003B3410F42093140320911403FC01218391
:1009C000089520910603FC012183109206030895E7
:1009D000FC01809103038F7081831B9B02C0805FA9
:1009E0008183199B03C08181805E81838091BA03DA
:1009F000873019F48181805C81830895FC018181B5
:100A000084FF0BC081E080939F031092A403109297
:100A1000A5031092A6031092A703818185FF0CC045
:100A200080910503811108C080910603811104C0E3
:100A30008FB7F894299A8FBF818186FD1092BA03EF
:100A40008F7080930303089520910F03FC0121838D
:100A50000895FC018091AB039091AC03218130E0BB
:100A6000322F222791839281290F311D8283309367
:100A7000AC032093AB0383E08093AA030895FC01A9
:100A80008091A8039091A903218130E0322F222781
:100A900091839281290F311D82833093A903209382
:100AA000A80382E08093AA030895FC018091A40327
:100AB0009091A5032091A6033091A703318322834F
:100AC000938384830895FC018091B1039091B203D4
:100AD000218130E0322F222791839281290F311D0D
:100AE00082833093B2032093B10382E08093B303F7
:100AF0000895FC018091B4039091B503218130E009
:100B0000322F222791839281290F311D82833093C6
:100B1000B5032093B40383E08093B30308950F9348
:100B20001F93FC01018110E020E030E0302F2227EC
:100B3000112700279281492F50E060E070E0BA0150
:100B400055274427400F511F621F731F84818A015C
:100B50009B01080F111D211D311D438150E060E0F4
:100B600070E0762F652F542F4427400F511F621FCE
:100B7000731F411551056105710549F48091890381
:100B800090918A0320918B0330918C0312C04630E0
:100B900051056105710549F480918D0390918E0393
:100BA00020918F033091900304C080E090E020E01A
:100BB00030E031832283938384831F910F910895C2
:100BC0001F93CF93DF93FC019181292F2F77223040
:100BD00008F044C09093960384E0289FE00111241C
:100BE000C956DC4F588169813A814B8182814283A9
:100BF00043813383348164831581558397FF35C0E6
:100C000090E0A0E0B0E0B82FAA279927882750E00D
:100C100060E070E0BA0155274427840F951FA61F96
:100C2000B71F810F911DA11DB11D432F50E060E042
:100C300070E0762F652F542F4427840F951FA61F31
:100C4000B71F88839983AA83BB8380E190E001C0AA
:100C5000880F2A95EAF78093950307C08FE7818371
:100C60008FEF8283838384838583DF91CF911F916C
:100C700008950F931F93CF93DF93FC01C091B603A8
:100C8000D091B7038091B8039091B903418150E0AE
:100C900060E070E0342F22271127002791834281E2
:100CA00050E060E070E0BA0155274427400F511F23
:100CB000621F731F8283838190E0A0E0B0E0BA2FAF
:100CC000A92F982F8827D3832481420F511D611D9E
:100CD000711DC483840F951FA61FB71F8093B60391
:100CE0009093B703A093B803B093B90384E08093C3
:100CF000B303DF91CF911F910F9108950F931F932D
:100D0000CF93DF93FC01C091AD03D091AE038091EE
:100D1000AF039091B003418150E060E070E0342F68
:100D20002227112700279183428150E060E070E084
:100D3000BA0155274427400F511F621F731F82833A
:100D4000838190E0A0E0B0E0BA2FA92F982F8827E8
:100D5000D3832481420F511D611D711DC483840FF3
:100D6000951FA61FB71F8093AD039093AE03A0936A
:100D7000AF03B093B00385E08093B303DF91CF91CD
:100D80001F910F9108950895CF93DF93EC0189810E
:100D900090E0982F88272A81820F911D8430910539
:100DA00050F4880F991FFC01E55AFE4F8081918114
:100DB0000E940E1202C080E090E099838A83DF9146
:100DC000CF910895CF93DF93EC018CEB93E00E94D9
:100DD000FB1299838A837B836C83DF91CF91089583
:100DE000FC01818184FD1092BB039091BA0385FFC1
:100DF00005C08091BB03890F818308959183089575
:100E00001F93CF93DF93FC019181292F2F772430FB
:100E100008F044C09093D50384E0289FE00111249A
:100E2000C952DC4F588169813A814B81828142836A
:100E300043813383348164831581558397FF35C0A3
:100E400090E0A0E0B0E0B82FAA279927882750E0CB
:100E500060E070E0BA0155274427840F951FA61F54
:100E6000B71F810F911DA11DB11D432F50E060E000
:100E700070E0762F652F542F4427840F951FA61FEF
:100E8000B71F88839983AA83BB8380E190E001C068
:100E9000880F2A95EAF78093D60307C08FE78183EE
:100EA0008FEF8283838384838583DF91CF911F912A
:100EB0000895AF92BF92CF92DF92EF92FF920F937D
:100EC0001F93CF93DF93FC0180911903882309F4CA
:100ED00054C0A9B0B9B0C6B0D9B039B199B189B1CF
:100EE00026B1A3FAEE24E0F8F12CF694FE2CEE24C1
:100EF000F794E794B2FA002700F910E056E0000FEB
:100F0000111F5A95E1F70E2923FB222720F9022B06
:100F1000C2FACC24C0F8CC2D20E0D22F65E0CC0F53
:100F2000DD1F6A95E1F7C02BD5FAAA27A0F9B0E03A
:100F300074E0AA0FBB1F7A95E1F7AC2B36FB66274E
:100F400060F970E0B3E0660F771FBA95E1F76A2B9E
:100F5000292F990F330B2227330F221F3327220FFC
:100F6000331F220F331F262B84FB442740F950E008
:100F7000440F551F242B218301C01182DF91CF9193
:100F80001F910F91FF90EF90DF90CF90BF90AF90A7
:100F90000895FC0181818130F1F49FB7F894209A83
:100FA0009FBF9FB7F89428989FBF9FB7F894259A42
:100FB0009FBF9FB7F8942D9A9FBF8093050310920F
:100FC00006030E94821260931003709311038093B2
:100FD0001203909313030895CF93FC0191818091A4
:100FE0001503818380ED890F8B3430F490931503C2
:100FF00081E0809308039DC0C1E0C0930903809104
:1010000004038823B1F10E94821260931D03709340
:101010001E0380931F039093200310921A032091C4
:101020001A0390911A0340911A0330E020953095ED
:101030002A70332764E0220F331F6A95E1F7892F66
:1010400090E0809590958075992774E095958795A7
:101050007A95E1F7822B932B9F938F931F924F9357
:1010600086E191E09F938F930E940B1AC09318031F
:1010700039C0809102038823E1F10E9482126093BB
:101080001D0370931E0380931F03909320031092FF
:101090001A0320911A0390911A0340911A0330E029
:1010A000209530952A70332784E0220F331F8A95CC
:1010B000E1F7892F90E0809590958075992754E00D
:1010C000959587955A95E1F7822B932B9F938F9354
:1010D0001F924F9386E191E09F938F930E940B1A8A
:1010E000109218030F900F900F900F900F900F9089
:1010F00020C00E948212DC01CB01805C944DA14093
:10110000B1098093FC029093FD02A093FE02B0937C
:10111000FF020E948212DC01CB018853914CA14056
:10112000B1098093F8029093F902A093FA02B09368
:10113000FB02CF910895CF93FC01C181C13009F02A
:1011400045C020911703211141C00E948212609373
:101150001D0370931E0380931F03909320038FEF52
:1011600080931A0320911A0390911A0340911A0355
:1011700030E0209530952A70332784E0220F331F0A
:101180008A95E1F7892F90E0809590958075992751
:1011900054E0959587955A95E1F7822B932B9F9371
:1011A0008F931F924F9386E191E09F938F930E94BC
:1011B0000B1AC0931803C093170310920F030F90DC
:1011C0000F900F900F900F900F9002C0FC011182B2
:1011D000CF910895CF93FC01C181C13009F048C07F
:1011E00080910003811142C08091190381113EC09A
:1011F0000E94821260931D0370931E0380931F034D
:1012000090932003C0931A0320911A0390911A031C
:1012100040911A0330E0209530952A70332784E0FE
:10122000220F331F8A95E1F7892F90E080959095E2
:101230008075992754E0959587955A95E1F7822B0B
:10124000932B9F938F931F924F9386E191E09F93EF
:101250008F930E940B1AC0931803C09300030F9042
:101260000F900F900F900F900F9004C082E001C07C
:1012700083E08183CF9108951F93CF93DF93EC0197
:101280001981113009F06BC080910003811167C092
:1012900080911903882309F462C08FB7F894599A92
:1012A0008FBF8FB7F89451988FBF42E060E970ED1F
:1012B00083E090E00E9426119093E8038093E70377
:1012C0009093EA038093E9038FB7F8945F9A8FBFF6
:1012D0008FB7F8945E988FBF0E94821260931D03AF
:1012E00070931E0380931F03909320038EEF8093CF
:1012F0001A0320911A0380911A0390911A0330E087
:10130000209530952A703327A90124E0440F551FFA
:101310002A95E1F7282F30E0209530952075332766
:1013200064E0359527956A95E1F7242B352B3F939B
:101330002F931F929F9386E191E09F938F930E943A
:101340000B1A1093180310930003809107038983ED
:101350000F900F900F900F900F900F9001C0198277
:10136000DF91CF911F9108950F931F93CF93DF9338
:10137000FC0180911903882309F476C08181881FBC
:101380008827881F9FB7F894882311F05B9A01C0C3
:101390005B989FBF818186FBAA27A0F9B0E08FB739
:1013A000F894AB2B11F05A9A01C05A988FBF8181E3
:1013B00085FB662760F970E08FB7F894672B11F012
:1013C000429A01C042988FBF818184FB442740F933
:1013D00050E08FB7F894452B11F05D9A01C05D98ED
:1013E0008FBF818183FB222720F930E08FB7F894EB
:1013F000232B11F05E9A01C05E98EF018FBF8181AF
:1014000082FF1AC040E060E070E0CB010E9426112C
:101410009093E8038093E7039093EA038093E903B2
:101420008FB7F894519A8FBF8FB7F89459988FBFA0
:101430008FB7F8945F9A8FBF898181FB002700F9ED
:1014400010E08FB7F894012B11F05C9A01C05C9802
:101450008FBF898181709FB7F894882311F0439AD8
:1014600001C043989FBF01C01182DF91CF911F91AE
:101470000F910895282FA5E2B3E0FC018E2F821B67
:10148000861718F481918D93F9CF603228F4E62FF6
:10149000F0E0EB5DFC4F11826093A401623010F428
:1014A0008FEF0DC080912503E82FE295EF70E430B7
:1014B00010F08EEF04C08F70883020F08DEF809395
:1014C0002503089598E0E99FF0011124E80FF11D2C
:1014D000EE0FFF1FE55EFE4F0190F081E02D85E2EB
:1014E00093E009946091A40185E293E00E94F614D0
:1014F000882329F080910303827080930303089569
:10150000FC01918180911503818380ED890F8B34DB
:1015100028F49093150381E0809308030895909335
:1015200066038093650370E07093680360936703BC
:10153000089520916703309168032115310509F45E
:1015400067C01092680310926703E0916503F09101
:1015500066032130310511F040E01FC09081809179
:101560004503981355C08091A701A5E4B3E0E9E6CF
:10157000F3E090E0981721F02D9121939F5FFACF2F
:10158000803228F4E82FF0E0E759FC4F1182809375
:10159000A60181E08093A5010895842F90E0821731
:1015A000930754F4DF01A80FB91F5C91DC01AB5B1A
:1015B000BC4F5C934F5FF1CF403220F4FC01EB5BFA
:1015C000FC4F11822093A701211102C08FEF0DC0A3
:1015D00080914503E82FE295EF70E43010F08EEF34
:1015E00004C08F70883020F08DEF809345030895FC
:1015F00098E0E99FF0011124E80FF11DEE0FFF1FA5
:10160000ED59FE4F0190F081E02D85E493E00994BF
:1016100008956091A60189E693E00E941B1710923D
:10162000A5010895CF9380910803882321F1F999AA
:1016300022C09FEF980F9A3090F490E0FC01ED5497
:10164000FF4FC4916C2F87960E94C61CC11102C027
:101650008BE003C0809108038F5F80930803809123
:1016600008038B3041F46091150382E390E00E94FF
:10167000C61C10920803CF9108951F93CF93DF9358
:10168000C8E2D0E0FE01E457FF4F1491CE010E9462
:10169000B21C181306C0112331F02196C233D105B4
:1016A00089F780E001C081E0DF91CF911F9108951B
:1016B00081E993E00E94FB126B3071058105910571
:1016C00008F451C02FB7F8948091C3039091C403DC
:1016D000092E000CAA0BBB0B4091890350918A0381
:1016E00060918B0370918C03840F951FA61FB71F09
:1016F0008093890390938A03A0938B03B0938C0308
:101700008091CF039091D003092E000CAA0BBB0B44
:1017100040918D0350918E0360918F0370919003DF
:10172000840F951FA61FB71F80938D0390938E0380
:10173000A0938F03B09390032FBF80E00E94FB1112
:101740008091910390919203A0919303B09194039F
:101750000A96A11DB11D8093910390939203A093CB
:101760009303B0939403089583309105A8F4880FF0
:10177000991F880F991FFC01E956FC4F4081518148
:1017800062817381415051096109710981E04E3FC5
:101790005F4F6F4F7F4F08F080E00895CF938091A7
:1017A000960387FF17C0C0919603F99913C0CF77AE
:1017B00024E0C29FC0011124FC01E956FC4F408186
:1017C0005181628173814E960E94D81CC09396030A
:1017D00081E001C080E0CF9108950F931F93CF93D4
:1017E000DF938230910508F044C0EC018C01000FBA
:1017F000111F000F111FC8014E960E94BA1CF8015C
:10180000E956FC4F6083718382839383CE010E94EB
:10181000B40B811112C0CD2BD9F480E090E0A0EA86
:10182000B0E48093970390939803A0939903B093A7
:101830009A03809195038F5F1AC02091950381E0F0
:1018400090E001C0880FCA95EAF7809582230FC007
:1018500081E79DE3AAE8BFE380939B0390939C03F9
:10186000A0939D03B0939E03809195038E5F809318
:101870009503DF91CF911F910F9108950F931F93BF
:10188000CF9380919503807351F18091960387FFE8
:1018900026C0C0919603CF770C2F10E0C8010E949C
:1018A000B40B8823B1F00E94CE0B8823C1F0809145
:1018B00095038F70809395032091950381E090E0CC
:1018C00001C0880FCA95EAF780958223809395031B
:1018D00006C0C801CF911F910F910C94ED0BCF91D1
:1018E0001F910F910895EF92FF920F931F93CF9343
:1018F000DF9380919F03882309F4C0C087E090E0C4
:101900000E940E127C01C091A803D091A9038C17EC
:101910009D074CF01B9BB6C08FB7F8942B988FBFD8
:1019200010929F03AFC08091AB039091AC03C81B92
:10193000D90BD595C79580EA93E00E94FB128B01E5
:101940009C018091AB039091AC038C0F9D1FE81616
:10195000F9060CF058C01B9B39C08091A8039091E8
:10196000A9038E199F09BE010E94831940ED57E01B
:10197000649FC001659F900D749F900D1124092EE6
:10198000000CAA0BBB0B800F911FA21FB31F813D40
:101990009740A105B10508F475C08FB7F8942B984E
:1019A0008FBF8091A4039091A503A091A603B0914D
:1019B000A703080F191F2A1F3B1F0093A4031093AE
:1019C000A5032093A6033093A7035CC0013D87E0E5
:1019D00018072105310508F455C08FB7F8942B9AE4
:1019E0008FBF013A1F402105310540F58091A003CA
:1019F0009091A103A091A203B091A3038053984FAB
:101A0000AF4FBF4F32C01B9B0AC006501F4F2F4F16
:101A10003F4F0131174221053105A0F12FC001319F
:101A200047E214072105310568F18FB7F8942B9A26
:101A30008FBF01321E442105310558F00E948212E9
:101A40006093A0037093A1038093A2039093A303D8
:101A500019C08091A0039091A103A091A203B0911D
:101A6000A303805F984DAF4FBF4F8093A003909327
:101A7000A103A093A203B093A30304C08FB7F8946B
:101A80002B988FBFDF91CF911F910F91FF90EF9017
:101A90000895FC01208131812B54314081E02738A9
:101AA000310508F080E00895FC01208131812E533A
:101AB000314081E02636310508F080E00895FC01D0
:101AC000208131812559324081E02F30314008F0AA
:101AD00080E00895FC01208131812C57324081E063
:101AE0002B3C310508F080E008958CE390E00E94E3
:101AF000C01CF9990CC06091A8037091A9038617C6
:101B0000970739F08CE390E00E94E41C02C080E06B
:101B1000089581E008958EE390E00E94C01CF99939
:101B20000CC06091AB037091AC038617970739F036
:101B30008EE390E00E94E41C02C080E0089581E002
:101B40000895EF92FF920F931F93CF93DF9300D0EE
:101B500000D0CDB7DEB78CE390E00E94C01C7C01C2
:101B60009C838B838EE390E00E94C01C8C019A833F
:101B70008983CE0103960E94490D811106C0CE01D2
:101B800003960E945F0D8823C1F0CE0101960E944A
:101B9000540D811106C0CE0101960E946A0D882362
:101BA00061F0F092A903E092A8031093AC030093B4
:101BB000AB031092AA0381E010C08DE891E09093EE
:101BC000A9038093A80386E791E09093AC038093E8
:101BD000AB0381E08093AA0380E00F900F900F90F9
:101BE0000F90DF91CF911F910F91FF90EF9008958B
:101BF0008091AA03823058F1823099F488EA93E008
:101C00000E94490D811106C088EA93E00E945F0D91
:101C1000882339F00E94750D882319F01092AA03C9
:101C200008958091AA03833081F48BEA93E00E94A7
:101C3000540D811106C08BEA93E00E946A0D88233F
:101C400021F00E948B0D8111E9CF0C94A10D089514
:101C5000FC01208131812B53310981E02539310587
:101C600008F080E00895FC0120813181295131097B
:101C700081E02035310508F080E00895FC012081E5
:101C800031812657310981E02932314008F080E066
:101C90000895FC01208131812253310981E02E39E0
:101CA000310508F080E00895FC0140815181628196
:101CB000738140545F416109710981E041345F4C97
:101CC0006643710508F080E0089586E490E00E9484
:101CD000C01CF9990CC06091B1037091B2038617D2
:101CE000970739F086E490E00E94E41C02C080E08F
:101CF000089581E0089588E490E00E94C01CF9995D
:101D00000CC06091B4037091B5038617970739F042
:101D100088E490E00E94E41C02C080E0089581E025
:101D200008958AE490E00E94BA1CDC01CB01F99985
:101D300012C04091B6035091B7036091B8037091FF
:101D4000B90384179507A607B70739F08AE490E02E
:101D50000E94D81C02C080E0089581E008958EE4BE
:101D600090E00E94BA1CDC01CB01F99912C04091AD
:101D7000AD035091AE036091AF037091B00384172F
:101D80009507A607B70739F08EE490E00E94D81CAB
:101D900002C080E0089581E00895CF92DF92EF9233
:101DA000FF921F93CF93DF93CDB7DEB72C970FB67B
:101DB000F894DEBF0FBECDBF86E490E00E94C01C49
:101DC0007C019C878B87CE010B960E94280E811187
:101DD00006C0CE010B960E943E0E882331F0F09291
:101DE000B203E092B10310E001C011E088E490E09A
:101DF0000E94C01C7C019A878987CE0109960E94A7
:101E0000330E811106C0CE0109960E94490E882327
:101E100029F0F092B503E092B40301C011E08AE426
:101E200090E00E94BA1C6B017C016D837E838F83DE
:101E30009887CE0105960E94540E882349F0C092DF
:101E4000B603D092B703E092B803F092B90301C091
:101E500011E08EE490E00E94BA1C6B017C01698362
:101E60007A838B839C83CE0101960E94540E81114C
:101E700025C080E590E09093B2038093B10388E29F
:101E800090E09093B5038093B40380E89FE4A2E1CF
:101E9000B0E08093B6039093B703A093B803B093D8
:101EA000B9038093AD039093AE03A093AF03B093B7
:101EB000B00381E08093B30380E00DC0C092AD0316
:101EC000D092AE03E092AF03F092B0031111D1CFE4
:101ED0001092B30381E02C960FB6F894DEBF0FBECC
:101EE000CDBFDF91CF911F91FF90EF90DF90CF900A
:101EF00008958091B303823008F447C0823099F48A
:101F000081EB93E00E94280E811106C081EB93E0E3
:101F10000E943E0E882339F00E94650E882319F036
:101F20001092B30308958091B303833081F484EB5E
:101F300093E00E94330E811106C084EB93E00E946F
:101F4000490E882321F00E947B0E8111E9CF8091F8
:101F5000B303843051F486EB93E00E94540E88233F
:101F600021F00E94910E8111DBCF8091B303853067
:101F700051F48DEA93E00E94540E882321F00E94D0
:101F8000AF0E8111CDCF0C94CD0E0895CF92DF927C
:101F9000EF92FF92CF93DF9381E090E00E940E12C8
:101FA000EC018CEB93E00E94FB126B017C018091B1
:101FB000BA0381111FC089EFC8168AE2D806E1046E
:101FC000F10408F488C08091B4039091B5038C1794
:101FD0009D0714F481E001C084E08093BA030E945D
:101FE00082126093BC037093BD038093BE039093F1
:101FF000BF0371C0813049F48091B4039091B5035F
:10200000C817D907BCF582E029C08230B9F48091A5
:10201000B4039091B503C817D907E4F68091AD03D6
:102020009091AE03A091AF03B091B0038C159D05C4
:10203000AE05BF0508F04FC083E0CFCF833021F459
:1020400080E88093BB0339C08430F9F48091B103F8
:102050009091B2038C179D076CF485E08093BA03CE
:102060000E9482126093BC037093BD038093BE03F1
:102070009093BF0381E0C81682EAD8068AE4E80696
:1020800084E0F80640F187E0A8CF8530C1F4809164
:10209000B1039091B2038C179D077CF48091B60335
:1020A0009091B703A091B803B091B9038C159D0529
:1020B000AE05BF0580F486E00CC084E00AC086301F
:1020C00029F480E48093BB0381E003C0873019F0DA
:1020D00087E08093BA03DF91CF91FF90EF90DF907C
:1020E000CF9008952091AC0130E02F5F3F4F2F71CA
:1020F00033274091AB0150E024173507D1F390917D
:10210000A801F901E353FE4F90FF03C08A3009F4A0
:102110008DE080832093AC018091C1008062809328
:10212000C10080E090E008951F920F920FB60F92C9
:1021300011242F933F934F935F938F939F93EF932C
:10214000FF932091C00028713091C6008091AA01B0
:1021500090E001968F7199274091A90150E0841772
:10216000950711F42E5F06C08093AA01FC01E35588
:10217000FE4F30832093C003FF91EF919F918F9189
:102180005F914F913F912F910F900FBE0F901F9035
:1021900018951F920F920FB60F9211248F939F9351
:1021A000EF93FF939091AC018091AB01981779F078
:1021B0008091AB0190E001968F7199278093AB01DC
:1021C000FC01E353FE4F80818093C60005C08091DF
:1021D000C1008F7D8093C100FF91EF919F918F91FE
:1021E0000F900FBE0F901F9018958091AA0120911B
:1021F000A90190E08096821B91098F71992708951B
:102200000E94F510892BE1F39091AA018091A90118
:10221000981307C08091C0038F5F8093C00380E054
:102220000CC08091A90190E001968F71992780934D
:10223000A901FC01E355FE4F80819091A80191FF17
:1022400003C08D3009F48AE090E00895CF92DF92C8
:10225000EF92FF920F931F93CF938B019C01C42F9A
:102260006B017C0180E6C80E83EED81E86E1E81E75
:10227000F11CC701B60143E0660F771F881F991F45
:102280004A95D1F7A9019801E4E0220F331F441FBA
:10229000551FEA95D1F70E949719215031091092E4
:1022A000AC011092AB011092AA011092A901211564
:1022B000310531F48091C100877F8093C10010C047
:1022C00037FF04C082E08093C0003F7788E98093A5
:1022D000C10086E08093C2003093C5002093C40003
:1022E000C093A80180E091E0CF911F910F91FF90E2
:1022F000EF90DF90CF9008951F920F920FB60F923C
:1023000011242F938F939F93EF93FF93E091C10339
:10231000F0E08091780090917900EE0FFF1FED536F
:10232000FC4F918380838091C1038F5F8093C103B1
:102330008091C103813029F41B9B03C086E0809308
:10234000C1038091C103823019F486E08093C103F8
:102350008091C103883028F01092C1038FE78093E9
:10236000D40380917C00807F80937C0080917C00EE
:102370002091C2039091C1038F71822B890F8093AA
:102380007C008091C103882331F080917A008064C1
:1023900080937A000BC08091ED01882339F0809101
:1023A0007A00806480937A001092D403FF91EF91B9
:1023B0009F918F912F910F900FBE0F901F901895A6
:1023C0008093C2031092ED01ECE7F0E090819073EE
:1023D000892B8083EAE7F0E08081846080838081BC
:1023E0008260808380818160808380818068808337
:1023F0001092D30308951092C1031092D4038093D6
:10240000ED01EAE7F0E0808187758868808380814C
:102410008064808381E08093D303089588309105A0
:1024200058F42FB7F894880F991FFC01ED53FC4F17
:10243000808191812FBF089580E090E008951F92E0
:102440000F920FB60F9211248F939F93AF93BF9368
:102450008091F8019091F901A091FA01B091FB01EE
:102460000196A11DB11D8093F8019093F901A093ED
:10247000FA01B093FB01BF91AF919F918F910F90A3
:102480000FBE0F901F90189584B5847F836084BD24
:1024900085B5887F836085BDEEE6F0E08081816050
:1024A0008083E0E8F0E01082808181608083E1E851
:1024B000F0E01082808183608083E0EBF0E01082A6
:1024C000808181608083E1EBF0E010828081846014
:1024D0008083E0E9F0E01082808181608083E1E91F
:1024E000F0E01082808183608083E0EAF0E0108277
:1024F000808181608083E1EAF0E0108280818360E6
:10250000808308958F929F92AF92BF92CF92DF9275
:10251000EF92FF928FB7F8948090F8019090F901B4
:10252000A090FA01B090FB018FBF8091F4019091CF
:10253000F501A091F601B091F701A5019401281BC6
:10254000390B4A0B5B0BDA01C9012B3F3105410501
:10255000510518F42223F1F101C08AEFC090EE0179
:10256000D090EF01E090F001F090F101E091F201E4
:10257000F091F301B701A6014F5F5F4F6F4F7F4F9F
:1025800081509F0123593E4F293E93E0390740F087
:10259000285E3340B701A6014E5F5F4F6F4F7F4FFC
:1025A000882321F0F9016A017B01E4CF4093EE0119
:1025B0005093EF016093F0017093F1013093F301B8
:1025C0002093F2018092F4019092F501A092F6011D
:1025D000B092F7016091EE017091EF018091F001EE
:1025E0009091F101FF90EF90DF90CF90BF90AF906E
:1025F0009F908F9008950F931F93CF93DF93EC01DB
:102600000E948212088119812A813B81601B710B13
:10261000820B930BDF91CF911F910F910895089535
:10262000089585ED8093BC008091BC0084FDFCCFB3
:102630001092680210926702089585EC8093BC00A6
:10264000109268021092670208951F920F920FB6BF
:102650000F9211242F933F934F935F936F937F9328
:102660008F939F93AF93BF93EF93FF938091B900A4
:10267000887F803609F4C5C0B8F5883209F46AC08D
:10268000A0F4803109F463C038F4882309F45AC0F7
:10269000883009F45CC024C1883109F45BC0803201
:1026A00009F01EC180E290E06BC0803409F47BC069
:1026B00078F4803309F462C0883309F011C188E3EB
:1026C00090E090936402809363020E941D1308C1FE
:1026D000803509F45CC0883509F46AC0883409F093
:1026E000FFC088E490E04CC0883909F4EEC0A8F43B
:1026F000883709F486C038F4883609F482C08037F8
:1027000009F47FC0EDC0883809F4DFC0803909F4CE
:1027100081C0803809F0E4C07DC0803B09F4A9C0C5
:1027200038F4803A09F48BC0883A09F4A2C0D8C0C2
:10273000803C09F4CEC0883C09F4CBC0883B09F446
:10274000B0C0CEC010926402109263021DC080918E
:10275000690211C09091420280914102981708F0DD
:102760003FC0E091420281E08E0F80934202F0E090
:10277000ED5BFD4F80818093BB00A5C080E390E0BE
:1027800090936402809363020E941113A9C0E091A8
:10279000420281E08E0F809342028091BB00F0E004
:1027A000ED5BFD4F8083909142028091410289C090
:1027B000E091420281E08E0F809342028091BB0043
:1027C000F0E0ED5BFD4F80839091420280914102E9
:1027D000981730F488E590E0909364028093630248
:1027E000809165029091660280FDCECF8091650256
:1027F000909166028260909366028093650284EAFB
:1028000069C083E090E09093680280936702109221
:10281000FC0159C08091FC01803208F056C0E09163
:10282000FD01F091FE018091FC0191E0980F9093E1
:10283000FC019091BB00E80FF11D908344C00E9401
:102840001D132091FC018091FD019091FE01203229
:1028500030F42091FC01FC01E20FF11D1082609127
:10286000FC01E0910E01F0910F0109951092FC011D
:1028700037C084E090E090936802809367021092E2
:10288000200210921F02E0911001F09111010995B0
:1028900080911F02811105C081E080931F02109278
:1028A0002102E091200281E08E0F80932002F0E06F
:1028B000EF5DFD4F80818093BB009091200280915D
:1028C0001F02981710F485EC01C085E88093BC00C6
:1028D00007C085EC8093BC001092680210926702DA
:1028E000FF91EF91BF91AF919F918F917F916F91E8
:1028F0005F914F913F912F910F900FBE0F901F90BE
:1029000018950F931F938B019C01672B682B692BE4
:1029100071F48091BC008A7B8093BC008FB7F894DF
:1029200045988FBF8FB7F89444988FBF43C08FEFFF
:1029300091E09093FE018093FD0110926802109245
:10294000670281E090E090936602809365028FB702
:10295000F8943D988FBF8FB7F8943C988FBF413063
:10296000510541F48FB7F894459A8FBF8FB7F8940B
:10297000449A8FBF8091B9008E7F8093B900809177
:10298000B9008D7F8093B90060E07BE187EB90E038
:10299000A90198010E949719DA01C9014097A1097C
:1029A000B109B695A795979587958093B80085E46A
:1029B0008093BC001F910F91089598EF980F903766
:1029C00028F4982F990F9093BA0008951092BA00A6
:1029D0008FE093E1909311018093100180E193E1E6
:1029E00090930F0180930E0180E008956132B0F45E
:1029F00020916702309168022430310589F4609398
:102A00001F02282FA1E2B2E0FC018E2F821B861745
:102A100018F481918D93F9CF80E0089581E00895B5
:102A200082E00895009711F480E193E190930F0103
:102A300080930E010895009711F48FE093E1909335
:102A400011018093100108950895089585ED8093F4
:102A5000DC008091DC0084FDFCCF1092F602109225
:102A6000F502089585EC8093DC001092F602109236
:102A7000F50208951F920F920FB60F9211242F9313
:102A80003F934F935F936F937F938F939F93AF93F6
:102A9000BF93EF93FF938091D900887F803609F42C
:102AA000C5C0B8F5883209F46AC0A0F4803109F4D1
:102AB00063C038F4882309F45AC0883009F45CC034
:102AC00034C1883109F45BC0803209F02EC180E244
:102AD00090E06BC0803409F47BC078F4803309F453
:102AE00062C0883309F021C188E390E09093F2023C
:102AF0008093F1020E94321518C1803509F45CC040
:102B0000883509F46AC0883409F00FC188E490E080
:102B10004CC0883909F4FEC0A8F4883709F486C08F
:102B200038F4883609F482C0803709F47FC0FDC0CC
:102B3000883809F4EFC0803909F481C0803809F081
:102B4000F4C07DC0803B09F4B9C038F4803A09F480
:102B50008BC0883A09F4B2C0E8C0803C09F4DEC0FA
:102B6000883C09F4DBC0883B09F4C0C0DEC0109289
:102B7000F2021092F1021DC08091F70211C09091F3
:102B8000D0028091CF02981708F03FC0E091D002A8
:102B900081E08E0F8093D002F0E0EF52FD4F8081F4
:102BA0008093DB00B5C080E390E09093F2028093C5
:102BB000F1020E942615B9C0E091D00281E08E0F8B
:102BC0008093D0028091DB00F0E0EF52FD4F8083D4
:102BD0009091D0028091CF0299C0E091D00281E023
:102BE0008E0F8093D0028091DB00F0E0EF52FD4F1A
:102BF00080839091D0028091CF02981730F488E5BD
:102C000090E09093F2028093F1028091F302909110
:102C1000F40280FDCECF8091F3029091F4028260A5
:102C20009093F4028093F30284EA79C083E090E009
:102C30009093F6028093F50210926A0269C0809127
:102C40006A02803208F066C0E0916B02F0916C027B
:102C500080916A0291E0980F90936A029091DB0054
:102C6000E80FF11D908354C00E94321520916A0232
:102C700080916B0290916C02203230F420916A02B4
:102C8000FC01E20FF11D108260916A02E0911201D5
:102C9000F0911301099580916B0290916C028D580F
:102CA000924019F48DE692E002C08DE892E0909394
:102CB0006C0280936B0210926A0237C084E090E04D
:102CC0009093F6028093F5021092AE021092AD023C
:102CD000E0911401F091150109958091AD028111E7
:102CE00005C081E08093AD021092AF02E091AE0288
:102CF00081E08E0F8093AE02F0E0E155FD4F8081C0
:102D00008093DB009091AE028091AD02981710F491
:102D100085EC01C085E88093DC0007C085EC8093DA
:102D2000DC001092F6021092F502FF91EF91BF9134
:102D3000AF919F918F917F916F915F914F913F9153
:102D40002F910F900FBE0F901F9018950F931F9308
:102D50008B019C01672B682B692B71F48091DC003F
:102D60008A7B8093DC008FB7F89471988FBF8FB700
:102D7000F89470988FBF43C08DE892E090936C02F6
:102D800080936B021092F6021092F50281E090E0BF
:102D90009093F4028093F3028FB7F89469988FBFF1
:102DA0008FB7F89468988FBF4130510541F48FB7C1
:102DB000F894719A8FBF8FB7F894709A8FBF8091F3
:102DC000D9008E7F8093D9008091D9008D7F809328
:102DD000D90060E07BE187EB90E0A90198010E94B7
:102DE0009719DA01C9014097A109B109B695A795CC
:102DF000979587958093D80085E48093DC001F9198
:102E00000F91089598EF980F903728F4982F990F05
:102E10009093DA0008951092DA0084E295E190939D
:102E200015018093140185E295E19093130180933D
:102E3000120180E008956132B0F42091F5023091E2
:102E4000F6022430310589F46093AD02282FAFEAF1
:102E5000B2E0FC018E2F821B861718F481918D93AE
:102E6000F9CF80E0089581E0089582E00895009709
:102E700011F485E295E19093130180931201089576
:102E8000009711F484E295E1909315018093140169
:102E900008958FB7F894259A8FBF8FB7F8942D9A1D
:102EA0008FBF8FB7F89453988FBF8FB7F8945B9A02
:102EB0008FBF8FB7F894529A8FBF8FB7F8945A9AF2
:102EC0008FBF8FB7F8943B9A8FBF8FB7F894439A10
:102ED0008FBF8FB7F894549A8FBF8FB7F8945C98D0
:102EE0008FBF8FB7F894559A8FBF8FB7F8945D9ABC
:102EF0008FBF8FB7F8943A9A8FBF8FB7F8944298E4
:102F00008FBF8FB7F894579A8FBF8FB7F8945F9899
:102F10008FBF8FB7F894569A8FBF8FB7F8945E988B
:102F20008FBF8FB7F894229A8FBF8FB7F8942A9AE1
:102F30008FBF8FB7F89420988FBF8FB7F894289AD7
:102F40008FBF8FB7F894239A8FBF8FB7F8942B98C1
:102F50008FBF80E380931403109216031092010335
:102F600010920303109208031092060310920503B7
:102F70001092170310920F0310920003109219037E
:102F800010920703109268031092670310921A03BD
:102F90000E94441280E40E94E01180E00E94FB1134
:102FA0000E94821260939103709392038093930323
:102FB0009093940342E060E970ED83E090E00E941A
:102FC00026119093E8038093E7039093EA0380939C
:102FD000E90389E20E94DD1482E79AE00E941B1552
:102FE0008AE39AE00E94121540E050E060EA76E839
:102FF00081E090E00E9481148AE20E94021789E039
:103000009BE00E9440178FE89AE00E94371740E04B
:1030100050E060EA76E881E090E00E94A61678949D
:103020002FEB84ED91E0215080409040E1F700C00B
:1030300000008FB7F8945F9A8FBF1092950380E0DD
:1030400090E00E94ED0B81E090E00E94ED0B0E9469
:103050003D0B882329F082E390E00E94B21C01C05E
:1030600081E3809315030E94A10D0E94CD0E0E9462
:1030700082126093BC037093BD038093BE03909350
:10308000BF031092D60380E090E00E94CC1881E04C
:1030900090E00E94CC1882E090E00E94CC1883E07F
:1030A00090E00E94CC188091030388608093030312
:1030B00008950E9449170E94821260930B03709337
:1030C0000C0380930D0390930E03809119038111DB
:1030D0000AC00E94FB000E9492010E9405020E9409
:1030E000AB010E94C4010E94120B0E94BF020E9409
:1030F000580B0E943E0C0E94F80D0E9443190E943A
:10310000730C0E94790F0E94C60F0E94990ADDCFAE
:1031100085309105A8F4880F991F880F991FFC012D
:10312000E952FC4F408151816281738141505109C4
:103130006109710981E04E3F5F4F6F4F7F4F08F08B
:1031400080E008958091D5038F77843018F490E063
:103150000C94881880E00895CF938091D50387FF61
:1031600018C0C091D503F99914C0CF7724E0C29F4D
:10317000C0011124FC01E952FC4F40815181628160
:1031800073818E5A9F4F0E94D81CC093D50381E053
:1031900001C080E0CF9108950F931F93CF93DF93E9
:1031A0008430910508F06AC0EC018C01000F111FFA
:1031B000000F111FC8018E5A9F4F0E94BA1CF801C0
:1031C000E952FC4F6083718382839383CE010E9416
:1031D0008818811147C0209781F484EE98E3AEE807
:1031E000BAE38093D7039093D803A093D903B09305
:1031F000DA038091D6038F5F3FC0C130D10581F4DF
:1032000080E090E0A0E3BCE38093DB039093DC03D9
:10321000A093DD03B093DE038091D6038E5F2CC0B4
:10322000229781F486E996E9A6E9B9E38093DF0362
:103230009093E003A093E103B093E2038091D6035F
:103240008C5F1AC08AE198E8AAEEBBE38093E3039F
:103250009093E403A093E503B093E6038091D60333
:10326000885F0AC02091D60381E090E001C0880FFA
:10327000CA95EAF7809582238093D603DF91CF9198
:103280001F910F9108950F931F93CF93DF93809118
:10329000D603807F99F18091D50387FF2FC080915D
:1032A000D5038F77082F10E0C1E0D0E002C0CC0F2B
:1032B000DD1F8A95E2F78091D60382958F7090E0AA
:1032C000C817D907D9F40E94A218882381F00E9458
:1032D000AC18882399F08091D6038F708093D60321
:1032E0008091D603C095C823C093D60307C0C801F8
:1032F000DF91CF911F910F910C94CC18DF91CF915A
:103300001F910F91089597FB072E16F4009407D094
:1033100077FD09D00E94B91907FC05D03EF49095BD
:1033200081959F4F0895709561957F4F0895A1E213
:103330001A2EAA1BBB1BFD010DC0AA1FBB1FEE1F2F
:10334000FF1FA217B307E407F50720F0A21BB30B7A
:10335000E40BF50B661F771F881F991F1A9469F7F6
:1033600060957095809590959B01AC01BD01CF0152
:103370000895AA1BBB1B51E107C0AA1FBB1FA617BC
:10338000B70710F0A61BB70B881F991F5A95A9F70E
:1033900080959095BC01CD010895CF93DF93EC010A
:1033A0002B8120FF33C026FF0AC02F7B2B838E8109
:1033B0009F8101969F838E838A8190E029C022FF9E
:1033C0000FC0E881F9818081082E000C990B0097CD
:1033D00019F420622B831AC03196F983E8830EC05A
:1033E000EA85FB85099597FF09C02B81019611F0AD
:1033F00080E201C080E1822B8B8308C02E813F8157
:103400002F5F3F4F3F832E83992702C08FEF9FEF9F
:10341000DF91CF910895A0E0B0E0E1E1FAE10C94F2
:103420000A1DAE014B5F5F4FFA0161917191AF01CF
:103430008091E9039091EA030E94211AE2E00C9442
:10344000261DABE0B0E0E7E2FAE10C94FA1C6C0157
:103450007B018A01FC0117821682838181FFCCC126
:10346000CE0101963C01F6019381F70193FD859110
:1034700093FF81917F01882309F4BAC1853239F421
:1034800093FD859193FF81917F01853229F4B601E7
:1034900090E00E94181CE7CF912C212C312CFFE1E9
:1034A000F315D8F08B3279F038F4803279F083322A
:1034B000A1F4232D20611DC08D3261F0803369F4A9
:1034C000232D216016C0832D8260382EE32DE46009
:1034D0003E2E2AC0F32DF8601DC037FC2DC020ED14
:1034E000280F2A3040F08E32B9F436FC81C1232DEA
:1034F0002064322E19C036FE06C08AE0989E200D48
:103500001124922E11C0EAE02E9E200D1124222EAD
:10351000F32DF0623F2E08C08C3621F4832D806895
:10352000382E02C0883641F4F70193FD859193FF50
:1035300081917F018111B3CF982F9F7D9554933056
:1035400028F40C5F1F4F9FE399830DC0833631F041
:10355000833771F0833509F059C021C0F8018081AB
:1035600089830E5F1F4F88248394912C530113C0CD
:103570002801F2E04F0E511CF801A080B18036FE08
:1035800003C0692D70E002C06FEF7FEFC5010E949C
:103590000D1C4C018201F32DFF773F2E16C0280130
:1035A00022E0420E511CF801A080B18036FE03C01B
:1035B000692D70E002C06FEF7FEFC5010E94021C11
:1035C0004C01F32DF0683F2E820133FC1BC0822D8D
:1035D00090E088169906B0F4B60180E290E00E946F
:1035E000181C2A94F4CFF50137FC859137FE8191A0
:1035F0005F01B60190E00E94181C21102A9421E07E
:10360000821A91088114910471F7E8C0843611F090
:10361000893641F5F80137FE07C0608171818281EA
:1036200093810C5F1F4F08C060817181072E000CD1
:10363000880B990B0E5F1F4FF32DFF763F2E97FFE0
:1036400009C090958095709561957F4F8F4F9F4FE2
:10365000F0683F2E2AE030E0A3010E94541C882E1F
:10366000861845C0853731F4232D2F7EB22E2AE0EF
:1036700030E025C0932D997FB92E8F36C1F018F414
:10368000883579F0B5C0803719F0883721F0B0C09F
:10369000E92FE061BE2EB4FE0DC0FB2DF460BF2EFD
:1036A00009C034FE0AC0292F2660B22E06C028E0C9
:1036B00030E005C020E130E002C020E132E0F80156
:1036C000B7FE07C060817181828193810C5F1F4FBB
:1036D00006C06081718180E090E00E5F1F4FA30102
:1036E0000E94541C882E8618FB2DFF773F2E36FE35
:1036F0000DC0232D2E7FA22E891458F434FE0BC04A
:1037000032FC09C0832D8E7EA82E05C0B82CA32CB8
:1037100003C0B82C01C0B92CA4FE0FC0FE01E80DF7
:10372000F11D8081803321F49A2D997EA92E09C044
:10373000A2FE06C0B394B39404C08A2D867809F023
:10374000B394A3FC11C0A0FE06C0B21488F4280CE8
:10375000922C9B180EC0B21460F4B60180E290E087
:103760000E94181CB394F7CFB21418F42B1802C09F
:10377000982C212CA4FE10C0B60180E390E00E949A
:10378000181CA2FE17C0A1FC03C088E790E002C08D
:1037900088E590E0B6010CC08A2D867859F0A1FE2C
:1037A00002C08BE201C080E2A7FC8DE2B60190E08E
:1037B0000E94181C891438F4B60180E390E00E943E
:1037C000181C9A94F7CF8A94F301E80DF11D8081BB
:1037D000B60190E00E94181C8110F5CF222009F458
:1037E00042CEB60180E290E00E94181C2A94F6CFE7
:1037F000F6018681978102C08FEF9FEF2B96E2E161
:103800000C94161DFC010590615070400110D8F712
:10381000809590958E0F9F1F0895FC016150704018
:1038200001900110D8F7809590958E0F9F1F0895F5
:103830000F931F93CF93DF93FB01238121FD03C0DF
:103840008FEF9FEF2CC022FF16C046815781248145
:1038500035814217530744F4A081B1819D012F5F48
:103860003F4F318320838C93268137812F5F3F4FD9
:103870003783268314C08B01EC01FB010084F185A2
:10388000E02D0995892BE1F6D80116968D919C9132
:103890001797019617969C938E931697CE01DF91FA
:1038A000CF911F910F910895FA01AA27283051F165
:1038B000203181F1E8946F936E7F6E5F7F4F8F4F61
:1038C0009F4FAF4FB1E03ED0B4E03CD0670F781FC0
:1038D000891F9A1FA11D680F791F8A1F911DA11DA5
:1038E0006A0F711D811D911DA11D20D009F46894DE
:1038F0003F912AE0269F11243019305D3193DEF686
:10390000CF010895462F4770405D4193B3E00FD03B
:10391000C9F7F6CF462F4F70405D4A3318F0495D26
:1039200031FD4052419302D0A9F7EACFB4E0A69509
:103930009795879577956795BA95C9F7009761052B
:10394000710508959B01AC010A2E06945795479581
:1039500037952795BA95C9F7620F731F841F951F76
:10396000A01D0895F999FECF92BD81BDF89A9927BF
:1039700080B50895A6E1B0E044E050E00C94EC1C62
:10398000A8E1B0E042E050E00C94EC1C262FF9993D
:10399000FECF92BD81BDF89A019700B4021639F0AE
:1039A0001FBA20BD0FB6F894FA9AF99A0FBE08957F
:1039B0000396272F0E94C71C0E94C61C252F0E9419
:1039C000C71C242F0C94C71C0196272F0E94C71CCC
:1039D0000C94C61CDC01CB01FC01F999FECF06C09A
:1039E000F2BDE1BDF89A319600B40D9241505040BD
:1039F000B8F708952F923F924F925F926F927F9205
:103A00008F929F92AF92BF92CF92DF92EF92FF92EE
:103A10000F931F93CF93DF93CDB7DEB7CA1BDB0B9A
:103A20000FB6F894DEBF0FBECDBF09942A8839883F
:103A300048885F846E847D848C849B84AA84B98446
:103A4000C884DF80EE80FD800C811B81AA81B98152
:103A5000CE0FD11D0FB6F894DEBF0FBECDBFED0166
:063A60000895F894FFCF69
:103A66000000000300000000721000110000101397
:103A76000F13251524152563256300EC07C306D40B
:103A860004C306E104C907E804FE049B08240529CB
:103A9600053F05550563057905F006C4060007C30D
:103AA60006C3068F05C306E005C306EA083C0959A6
:103AB60007B40939067E06E206C3060000010006C1
:103AC600000700800AC306D404C306E104C907E858
:103AD60004FE049B08240529053F05550563057961
:103AE60005F006C4060007C306C3068F05C306E035
:103AF60005C306EA083C095907B40939067E06E2F9
:043B060006C30600EC
:00000001FF
