:100000000C9471000C948E000C948E000C948E0055
:100010000C948E000C948E000C948E000C948E0028
:100020000C948E000C948E000C948E000C948E0018
:100030000C948E000C948E000C948E000C948E0008
:100040000C943C1E0C948E000C94921C0C94C71CB7
:100050000C948E000C947A1D0C948E000C948E00DF
:100060000C94421F0C948E000C948E000C948E0005
:100070000C948E000C948E000C948E000C948E00C8
:100080000C948E000C948E000C948E000C948E00B8
:100090000C948E000C948E000C948E000C948E00A8
:1000A0000C9455230C948E000C948E000C948E00AE
:1000B0000C948E00CD07D607DF07E807EB07EE07A5
:1000C000F107301438146814A814071527155115B2
:1000D0007F155216D015F815121642165250556952
:1000E000640011241FBECFEFD8E0DEBFCDBF11E00A
:1000F000A0E0B1E0E4E3F2E502C005900D92A43A7D
:10010000B107D9F724E0A4EAB1E001C01D92A235FD
:10011000B207E1F70E94B0010C9418290C9400007A
:100120008FB7F89429988FBF8FB7F894219A8FBF13
:100130008FB7F894259A8FBF8FB7F8942D9A8FBFF9
:100140008FB7F89453988FBF8FB7F8945B9A8FBF8F
:100150008FB7F894529A8FBF8FB7F8945A9A8FBF7F
:100160008FB7F8943B9A8FBF8FB7F894439A8FBF9D
:100170008FB7F894549A8FBF8FB7F8945C988FBF5D
:100180008FB7F894559A8FBF8FB7F8945D9A8FBF49
:100190008FB7F8943A9A8FBF8FB7F89442988FBF71
:1001A0008FB7F894579A8FBF8FB7F8945F988FBF27
:1001B0008FB7F894569A8FBF8FB7F8945E988FBF19
:1001C0008FB7F894229A8FBF8FB7F8942A9A8FBF6F
:1001D0008FB7F894239A8FBF8FB7F8942B988FBF5F
:1001E00080E3809310031092120310920103109287
:1001F0000303109208031092060310920503109255
:10020000130310920F031092000310921503109223
:1002100007031092790310927803109216030E943C
:10022000611E80E40E94FB1D80E00E94161E0E9459
:100230009F1E6093AB037093AC038093AD039093C8
:10024000AE0342E060E970ED83E090E00E94241D7F
:1002500090934D0480934C0490934F0480934E04EC
:1002600089E20E94F82280E49DE00E94362388E023
:100270009DE00E942D2340E050E060EA76E881E0B6
:1002800090E00E949E208AE20E941D2584E39EE069
:100290000E945B258AEB9DE00E94522540E050E0E1
:1002A00060EA76E881E090E00E94C12478942FEB28
:1002B00084ED91E0215080409040E1F700C00000C3
:1002C0008FB7F8945F9A8FBF1092AF0380E090E0F1
:1002D0000E94BF0F81E090E00E94BF0F0E94680E55
:1002E000882329F082E390E00E94992801C081E3ED
:1002F000809311030E94801A0E94C8160E94EC107D
:100300000E949F1E6093DA037093DB038093DC03EB
:100310009093DD031092250480E090E00E94B91BC9
:1003200081E090E00E94B91B82E090E00E94B91B3E
:1003300083E090E00E94B91B8FB7F89420988FBF9C
:100340008FB7F894289A8FBF89E090E09093EC03E0
:100350008093EB03809103038860809303030895E7
:100360000E9490000E949F1E60930B0370930C03E9
:1003700080930D0390930E0380911503811108C0A3
:100380000E9416020E94B5020E94E7020E94CE025D
:100390000E943D0E0E94EB030E94830E0E941010EB
:1003A0000E94301C0E94271B0E94D6170E949D119C
:1003B0000E94F5110E9492170E9406140E94C40D1B
:1003C000DBCF80910A038823C1F08FB7F89443985C
:1003D0008FBF8FB7F8945C988FBF809109038823F3
:1003E00021F08FB7F8945D9A03C08FB7F8945D98A9
:1003F0008FBF8FB7F894429A17C08FB7F894439A7B
:100400008FBF8FB7F8945C988FBF809109038823C2
:1004100021F08FB7F8945D9A03C08FB7F8945D9878
:100420008FBF8FB7F89442988FBF08958091EB03E8
:100430009091EC030197089728F48FB7F8942D9AC0
:100440008FBF08958BE093E00E94181F2091030353
:10045000277F09F067C020910A03222321F0969597
:10046000879577956795209102032223D9F06C3404
:10047000710581059105B0F093B18FB7F89495FDA2
:1004800002C02D9A01C02D988FBF80910B039091CF
:100490000C03A0910D03B0910E03855B9F4FAF4FEE
:1004A000BF4F5AC0209101032223E1F0613D27E0B4
:1004B000720781059105B0F093B18FB7F89495FD5F
:1004C00002C02D9A01C02D988FBF80910B0390918F
:1004D0000C03A0910D03B0910E038053984FAF4FC2
:1004E000BF4F3AC020911203222309F43DC0653F5B
:1004F000714081059105C0F193B18FB7F89495FDD6
:1005000002C02D9A01C02D988FBF80910B0390914E
:100510000C03A0910D03B0910E038C509E4FAF4F72
:10052000BF4F1AC0693C710581059105E8F093B190
:100530008FB7F89495FD02C02D9A01C02D988FBFFA
:1005400080910B0390910C03A0910D03B0910E03C9
:1005500088539F4FAF4FBF4F80930B0390930C0373
:10056000A0930D03B0930E03089580910203882396
:10057000A1F088EF92E00E94181F20910F03211133
:100580000CC06933714C8140910538F00E94E10143
:1005900081E0809312031092020308958CEF92E0A1
:1005A0000E94181F20910F03211110C020910103F8
:1005B000222361F0613C744D8140910538F00E9426
:1005C000E10181E08093120310920103089580916C
:1005D0000A038111B5C04B9956C08091030383FD76
:1005E000AFC04A9B05C08FB7F8945A988FBF089543
:1005F000809102038111A4C0809101038111A0C0E8
:100600008091120381119CC080911403811198C0C4
:100610000E949F1E6093190370931A0380931B031B
:1006200090931C038091100380931603209116036E
:10063000909116034091160330E0209530952A7072
:10064000332764E0220F331F6A95E1F7892F90E08A
:10065000809590958075992774E0959587957A9502
:10066000E1F7822B932B9F938F931F924F9386E1F9
:1006700091E09F938F930E94F22581E08093140371
:100680008093040357C080911203882309F458C053
:1006900080910403882309F453C0809114038111CD
:1006A0004FC08091020381114BC0809101038111E1
:1006B00047C00E949F1E6093190370931A03809392
:1006C0001B0390931C038FEC809316032091160359
:1006D000909116034091160330E0209530952A70D2
:1006E000332784E0220F331F8A95E1F7892F90E0AA
:1006F000809590958075992754E0959587955A95A2
:10070000E1F7822B932B9F938F931F924F9386E158
:1007100091E09F938F930E94F22581E080931403D0
:100720008FB7F8942D9A8FBF109204038FB7F89467
:100730005A9A8FBF0F900F900F900F900F900F90BD
:10074000089580910A03882381F08FB7F894439825
:100750008FBF8FB7F8945C988FBF8FB7F8945D9A6E
:100760008FBF8FB7F894429A0FC08FB7F894439A0F
:100770008FBF8FB7F8945C988FBF8FB7F8945D9A4E
:100780008FBF8FB7F89442988FBF089580910A0366
:10079000882381F08FB7F89443988FBF8FB7F89470
:1007A0005C9A8FBF8FB7F8945D988FBF8FB7F8941E
:1007B000429A0FC08FB7F894439A8FBF8FB7F894BF
:1007C0005C9A8FBF8FB7F8945D988FBF8FB7F894FE
:1007D00042988FBF08958F929F92AF92BF92CF920F
:1007E000DF92EF92FF920F931F93CF93DF9389E1F4
:1007F00093E00E94181F20911403222369F0653FA3
:1008000071408105910540F08091030381708093D0
:10081000030310921403E9C10E94F31C892B09F40D
:10082000E4C180914C0490914D040E94B4256091E4
:100830001703262F30E020953095A9014A705527DF
:1008400074E0440F551F7A95E1F720753327E4E0F3
:1008500035952795EA95E1F7242B352BAC015527E3
:100860002417350739F4109217038091140381116E
:1008700004C00FC080931703B8C180911603681796
:1008800029F0809103038470809303031092140372
:1008900004C080910403882319F010920A0303C056
:1008A00081E080930A03611127C00E949F1EDC0132
:1008B000CB01805C944DA140B1098093FC029093E0
:1008C000FD02A093FE02B093FF020E949F1EDC0176
:1008D000CB018853914CA140B1098093F8029093C9
:1008E000F902A093FA02B093FB028FB7F8942D9807
:1008F0008FBF10920F0352C16F3F31F41092130358
:1009000081E080930F0371C1613009F06DC0E9B1DE
:1009100079B156B189B149B199B129B136B1E3FB89
:10092000AA24A0F8B12CB694BA2CAA24B794A79400
:1009300072FBCC24C0F8D12CF6E0CC0CDD1CFA956F
:10094000E1F7CA2833FBAA24A0F8CA2852FBEE24F8
:10095000E0F8F12CA5E0EE0CFF1CAA95E1F7EC28DD
:1009600085FB002700F910E0B4E0000F111FBA95D5
:10097000E1F70E2946FB442740F9C42F80E0D82F29
:1009800013E0CC0FDD1F1A95E1F7C02B892F990FCB
:10099000990B8827990F881F9927880F991F880F0F
:1009A000991F8C2B24FB882480F8912C880C991C8F
:1009B0008829809307038FB7F894429A8FBF8FB727
:1009C000F8945D988FBF8FB7F8945F988FBF8FB7FB
:1009D000F8945C9A8FBF8FB7F89443988FBF1092AA
:1009E00000036093150301C16E3F09F076C080914A
:1009F0000703881F8827881F9FB7F894882311F062
:100A00005B9A01C05B989FBF8091070386FB882794
:100A100080F99FB7F894882311F05A9A01C05A9828
:100A20009FBF8091070385FB882780F99FB7F894C3
:100A3000882311F0429A01C042989FBF809107031A
:100A4000829581709FB7F894882311F05D9A01C058
:100A50005D989FBF8091070383FB882780F99FB72C
:100A6000F894882311F05E9A01C05E989FBF8FB7FB
:100A7000F894599A8FBF8FB7F89451988FBF80918F
:100A8000C10088618093C1008091070382FB8827A1
:100A900080F99FB7F894882311F05F9A01C05F989E
:100AA0009FBF80910703869581709FB7F894882334
:100AB00011F05C9A01C05C989FBF80910703817020
:100AC0009FB7F894882311F0439A01C043989FBFC1
:100AD000109200031092150388C0809111036813CF
:100AE00048C08091180381111AC00E94A1038FB7DA
:100AF000F8942A988FBF10921B041092F103109261
:100B0000E2030E949F1E60931D0370931E03809357
:100B10001F039093200381E08093180366C08DE14A
:100B200093E00E94181F643171058105910508F456
:100B30005CC08FB7F8942A9A8FBF1092180381E097
:100B400080930203109209030E949F1E60930B037F
:100B500070930C0380930D0390930E030E949F1ECD
:100B60006093F8027093F9028093FA029093FB026B
:100B70003CC067FD1EC081E0809301031092020318
:100B8000109212030E94C6030E949F1E6093FC02F3
:100B90007093FD028093FE029093FF020E949F1EBD
:100BA00060930B0370930C0380930D0390930E03DB
:100BB0001CC010920A0310920103109212031092AB
:100BC00002038FB7F8942D9A8FBF8FB7F89443988C
:100BD0008FBF8FB7F8945C9A8FBF8FB7F8945D98EA
:100BE0008FBF8FB7F894429A8FBFDF91CF911F913B
:100BF0000F91FF90EF90DF90CF90BF90AF909F90BC
:100C00008F900895FC018181909103039F709183DF
:100C100087FD909303030895FC01218130ED320F8D
:100C20003B3410F42093100320911003FC01218326
:100C30000895FC01218120930C04828180931B0480
:100C40000895FC01809117049091180420911904D3
:100C500030911A0431832283938384830895FC01A5
:100C600081818093E20382818093CC03838180938E
:100C7000C70384818093E30308950F931F93FC01BE
:100C8000018110E020E030E0302F222711270027DB
:100C90009281492F50E060E070E0BA015527442767
:100CA000400F511F621F731F84818A019B01080F2F
:100CB000111D211D311D438150E060E070E0762F51
:100CC000652F542F4427400F511F621F731F41157A
:100CD00051056105710549F480919B0390919C0336
:100CE00020919D0330919E0312C042305105610551
:100CF000710549F480919F039091A0032091A10375
:100D00003091A20304C080E090E020E030E0318325
:100D10002283938384831F910F9108951F93CF9310
:100D2000DF93FC019181292F2F77223008F044C0F6
:100D30009093B00384E0289FE0011124CF54DC4F4E
:100D4000588169813A814B81828142834381338317
:100D5000348164831581558397FF35C090E0A0E00E
:100D6000B0E0B82FAA279927882750E060E070E00C
:100D7000BA0155274427840F951FA61FB71F810F5F
:100D8000911DA11DB11D432F50E060E070E0762F52
:100D9000652F542F4427840F951FA61FB71F8883E4
:100DA0009983AA83BB8380E190E001C0880F2A95D4
:100DB000EAF78093AF0307C08FE781838FEF8283C9
:100DC000838384838583DF91CF911F910895089554
:100DD0001F93CF93DF93EC011981113009F044C0C8
:100DE00080911303811140C00E949F1E60931903DC
:100DF00070931A0380931B0390931C038FEF8093CF
:100E0000160320911603909116034091160330E0CB
:100E1000209530952A70332784E0220F331F8A955E
:100E2000E1F7892F90E0809590958075992754E09F
:100E3000959587955A95E1F7822B932B9F938F93E6
:100E40001F924F9386E191E09F938F930E94F2252A
:100E5000109314031093130310920F030F900F902D
:100E60000F900F900F900F9080910F038983DF9167
:100E7000CF911F910895CF93DF9300D0CDB7DEB708
:100E8000FC019181492F40789F77228130E0322FF9
:100E900022278381280F311D3A832983992329F042
:100EA000913041F080E020E007C08091040420915F
:100EB000050402C08FEF23E0228383834423A1F043
:100EC000911112C0CE0101960E945716882361F03D
:100ED00089819A81909305048093040482E090E0D4
:100EE00090930B0480930A040F900F90DF91CF91A1
:100EF0000895CF93DF93EC018AED93E00E94181FD1
:100F000099838A837B836C83DF91CF910895EF92DD
:100F1000FF920F931F93CF93DF9300D000D0CDB7F4
:100F2000DEB78C01FC018181F82FF078EF2E8F77EE
:100F3000F82EF801828190E0A0E0B0E0782F6627DB
:100F4000552744279381892F90E0A0E0B0E0DC0191
:100F500099278827840F951FA61FB71F2581820F09
:100F6000911DA11DB11D448150E060E070E0762F1D
:100F7000652F542F4427840F951FA61FB71F898301
:100F80009A83AB83BC838F2D90E08730910570F5F9
:100F9000FC01E65AFF4F0C949A256091FC03709176
:100FA000FD038091FE039091FF0324C06091000433
:100FB0007091010480910204909103041BC0609120
:100FC000060470910704809108049091090412C0EE
:100FD00088EF93E008C08DEE93E005C084EF93E0C6
:100FE00002C087EE93E00E94181F04C060E070E02A
:100FF00080E090E0F8019283838374836583EE2020
:1010000009F44BC0F1E0FF16D9F0FF1620F082E0A2
:10101000F81659F142C0CE0101960E94921688231B
:10102000E1F189819A81AB81BC818093FC0390932B
:10103000FD03A093FE03B093FF0383E090E029C07B
:10104000CE0101960E94A416882339F189819A81E4
:10105000AB81BC818093000490930104A0930204AF
:10106000B093030484E090E014C0CE0101960E9486
:10107000B616882391F089819A81AB81BC818093D7
:10108000060490930704A0930804B093090485E034
:1010900090E090930B0480930A040F900F900F90B0
:1010A0000F90DF91CF911F910F91FF90EF900895D6
:1010B000CF93DF9300D0CDB7DEB7FC019181492FEC
:1010C00040789F77228130E0322F22278381280FBA
:1010D000311D3A832983913069F038F0923079F4E8
:1010E00080911C0420911D040CC080911E0420914D
:1010F0001F0407C0809122042091230402C080E0D5
:1011000020E022838383442309F44BC09130D1F043
:1011100018F0923089F145C0CE0101960E94141A50
:10112000882349F089819A8190931F0480931E043B
:1011300082E090E015C0CE0101960E94351A81111F
:10114000F1CF2FC0CE0101960E941F1A882369F0AB
:1011500089819A81909323048093220483E090E014
:1011600090932104809320041CC0CE0101960E941C
:10117000401A8111EDCF15C0CE0101960E942A1AA6
:10118000882349F089819A8190931D0480931C04DF
:1011900084E090E0E5CFCE0101960E944B1A8111C8
:1011A000F1CF0F900F90DF91CF910895CF93DF9300
:1011B00000D0CDB7DEB7FC01218130E0322F2227ED
:1011C0008281280F311D3A8329838091BE03818358
:1011D0008091BD038283CE0101960E944510882331
:1011E00069F089819A819093BE038093BD0382E068
:1011F00090E09093C0038093BF0306C0CE01019698
:101200000E945B108111EDCF0F900F90DF91CF9175
:101210000895CF93DF9300D0CDB7DEB7FC012181D5
:1012200030E0322F22278281280F311D3A83298313
:101230008091C20381838091C1038283CE01019694
:101240000E945010882369F089819A819093C2038B
:101250008093C10383E090E09093C0038093BF0329
:1012600006C0CE0101960E9466108111EDCF0F904D
:101270000F90DF91CF910895CF93DF93EC01898197
:1012800090E0982F88272A81820F911D8430910544
:1012900050F4880F991FFC01E55AFE4F808191811F
:1012A0000E942B1E02C080E090E099838A83DF9128
:1012B000CF9108950F931F93CF93DF9300D000D069
:1012C000CDB7DEB7FC01418150E060E070E0342F23
:1012D0002227112700278281482F50E060E070E02C
:1012E000BA0155274427400F511F621F731F848185
:1012F000480F511D611D711D838190E0A0E0B0E099
:10130000BA2FA92F982F8827480F591F6A1F7B1FB4
:1013100049835A836B837C838091C6038183809148
:10132000C50382838091C40383838091C303848334
:10133000CE0101960E948210882391F089819A81C2
:10134000AB81BC818093C3039093C403A093C50376
:10135000B093C60384E090E09093C0038093BF03F2
:101360000F900F900F900F90DF91CF911F910F91E1
:1013700008950F931F93CF93DF9300D000D0CDB784
:10138000DEB7FC01418150E060E070E0342F22279D
:10139000112700278281482F50E060E070E0BA01F9
:1013A00055274427400F511F621F731F8481480F28
:1013B000511D611D711D838190E0A0E0B0E0BA2F46
:1013C000A92F982F8827480F591F6A1F7B1F498311
:1013D0005A836B837C838091BC0381838091BB03A0
:1013E00082838091BA0383838091B9038483CE0181
:1013F00001960E947110882391F089819A81AB81B6
:10140000BC818093B9039093BA03A093BB03B093BC
:10141000BC0385E090E09093C0038093BF030F90DE
:101420000F900F900F90DF91CF911F910F91089522
:10143000FC0181818093E60382818093F103238103
:101440008091EB039091EC03222389F00997B9F482
:101450008AE090E09093EC038093EB038FB7F894CD
:1014600020988FBF8FB7F894289A8FBF0895892B43
:1014700031F481E090E09093EC038093EB030895C6
:101480001F93CF93DF93FC019181292F2F77243075
:1014900008F044C09093240484E0289FE0011124C4
:1014A000CA5DDB4F588169813A814B8182814283D9
:1014B00043813383348164831581558397FF35C01D
:1014C00090E0A0E0B0E0B82FAA279927882750E045
:1014D00060E070E0BA0155274427840F951FA61FCE
:1014E000B71F810F911DA11DB11D432F50E060E07A
:1014F00070E0762F652F542F4427840F951FA61F69
:10150000B71F88839983AA83BB8380E190E001C0E1
:10151000880F2A95EAF78093250407C08FE7818317
:101520008FEF8283838384838583DF91CF911F91A3
:101530000895AF92BF92CF92DF92EF92FF920F93F6
:101540001F93CF93DF93FC0180911503882309F447
:1015500054C0A9B0B9B0C6B0D9B039B199B189B148
:1015600026B1A3FAEE24E0F8F12CF694FE2CEE243A
:10157000F794E794B2FA002700F910E056E0000F64
:10158000111F5A95E1F70E2923FB222720F9022B80
:10159000C2FACC24C0F8CC2D20E0D22F65E0CC0FCD
:1015A000DD1F6A95E1F7C02BD5FAAA27A0F9B0E0B4
:1015B00074E0AA0FBB1F7A95E1F7AC2B36FB6627C8
:1015C00060F970E0B3E0660F771FBA95E1F76A2B18
:1015D000292F990F330B2227330F221F3327220F76
:1015E000331F220F331F262B84FB442740F950E082
:1015F000440F551F242B218301C01182DF91CF910D
:101600001F910F91FF90EF90DF90CF90BF90AF9020
:101610000895CF93FC01918180911103818380ED26
:10162000890F8B3430F49093110381E08093080389
:101630009DC0C1E0C0930903809104038823B1F1E8
:101640000E949F1E6093190370931A0380931B03DB
:1016500090931C0310921603209116039091160389
:101660004091160330E0209530952A70332764E0CE
:10167000220F331F6A95E1F7892F90E080959095AE
:101680008075992774E0959587957A95E1F7822B77
:10169000932B9F938F931F924F9386E191E09F939B
:1016A0008F930E94F225C093140339C080910203E6
:1016B0008823E1F10E949F1E6093190370931A031F
:1016C00080931B0390931C03109216032091160322
:1016D000909116034091160330E0209530952A70C2
:1016E000332784E0220F331F8A95E1F7892F90E09A
:1016F000809590958075992754E0959587955A9592
:10170000E1F7822B932B9F938F931F924F9386E148
:1017100091E09F938F930E94F225109214030F90F3
:101720000F900F900F900F900F9020C00E949F1E5F
:10173000DC01CB01805C944DA140B1098093FC0297
:101740009093FD02A093FE02B093FF020E949F1EA1
:10175000DC01CB018853914CA140B1098093F80280
:101760009093F902A093FA02B093FB02CF910895EF
:10177000CF93FC01C181C13009F048C080910003C2
:10178000811142C08091150381113EC00E949F1EAD
:101790006093190370931A0380931B0390931C03A7
:1017A000C0931603209116039091160340911603DF
:1017B00030E0209530952A70332784E0220F331FC4
:1017C0008A95E1F7892F90E080959095807599270B
:1017D00054E0959587955A95E1F7822B932B9F932B
:1017E0008F931F924F9386E191E09F938F930E9476
:1017F000F225C0931403C09300030F900F900F9035
:101800000F900F900F9004C082E001C083E08183AD
:10181000CF9108951F93CF93DF93EC01198111307D
:1018200009F06BC080910003811167C0809115039E
:10183000882309F462C08FB7F894599A8FBF8FB785
:10184000F89451988FBF42E060E970ED83E090E03A
:101850000E94241D90934D0480934C0490934F0458
:1018600080934E048FB7F8945F9A8FBF8FB7F89428
:101870005E988FBF0E949F1E6093190370931A0396
:1018800080931B0390931C038EEF8093160320918B
:101890001603809116039091160330E02095309541
:1018A0002A703327A90124E0440F551F2A95E1F738
:1018B000282F30E0209530952075332764E035954A
:1018C00027956A95E1F7242B352B3F932F931F9291
:1018D0009F9386E191E09F938F930E94F22510934E
:1018E0001403109300038091070389830F900F90D6
:1018F0000F900F900F900F9001C01982DF91CF9140
:101900001F9108950F931F93CF93DF93FC01809154
:101910001503882309F476C08181881F8827881FD2
:101920009FB7F894882311F05B9A01C05B989FBF22
:10193000818186FBAA27A0F9B0E08FB7F894AB2B82
:1019400011F05A9A01C05A988FBF818185FB662792
:1019500060F970E08FB7F894672B11F0429A01C0DC
:1019600042988FBF818184FB442740F950E08FB7B4
:10197000F894452B11F05D9A01C05D988FBF81816D
:1019800083FB222720F930E08FB7F894232B11F046
:101990005E9A01C05E98EF018FBF818182FF1AC0FD
:1019A00040E060E070E0CB010E94241D90934D0464
:1019B00080934C0490934F0480934E048FB7F89417
:1019C000519A8FBF8FB7F89459988FBF8FB7F894FB
:1019D0005F9A8FBF898181FB002700F910E08FB7E4
:1019E000F894012B11F05C9A01C05C988FBF89813B
:1019F00081709FB7F894882311F0439A01C04398EF
:101A00009FBF01C01182DF91CF911F910F91089567
:101A1000282FA1E2B3E0FC018E2F821B861718F459
:101A200081918D93F9CF603228F4E62FF0E0EF5DDD
:101A3000FC4F11826093A401623010F48FEF0DC04F
:101A400080912103E82FE295EF70E43010F08EEFE3
:101A500004C08F70883020F08DEF809321030895AB
:101A600098E0E99FF0011124E80FF11DEE0FFF1F30
:101A7000E55EFE4F0190F081E02D81E293E0099454
:101A80006091A40181E293E00E941123882329F050
:101A9000809103038270809303030895FC01918178
:101AA00080911103818380ED890F8B3428F490930A
:101AB000110381E0809308030895D901ED91FC9111
:101AC0003297F9F491E090934B0380934C0382E0BA
:101AD0008093490360934E0340934F031092500349
:101AE00080934D03109241031092420310924303DE
:101AF0008FB7F8942D988FBF83E090E0F901918320
:101B000080830895EF92FF920F93CF93DF93EC01C0
:101B100088819981039718F17E0100914D0321E49A
:101B200033E0409149036EE473E080914C030E94DE
:101B3000B3222881398121303105A9F4982F907E74
:101B400029F082958695877080934A038FB7F89421
:101B50002D9A8FBF1982188210924B0302C01982EE
:101B6000188280E001C081E0DF91CF910F91FF905A
:101B7000EF900895909377038093760370E07093CD
:101B80007903609378030895209178033091790365
:101B90002115310509F467C010927903109278037A
:101BA000E0917603F09177032130310511F040E0A8
:101BB0001FC0908180915603981355C08091A70152
:101BC000A6E5B3E0EAE7F3E090E0981721F02D9165
:101BD00021939F5FFACF803228F4E82FF0E0E65897
:101BE000FC4F11828093A60181E08093A5010895A6
:101BF000842F90E08217930754F4DF01A80FB91FD8
:101C00005C91DC01AA5ABC4F5C934F5FF1CF40322C
:101C100020F4FC01EA5AFC4F11822093A701211104
:101C200002C08FEF0DC080915603E82FE295EF7050
:101C3000E43010F08EEF04C08F70883020F08DEF0C
:101C400080935603089598E0E99FF0011124E80F6E
:101C5000F11DEE0FFF1FED59FE4F0190F081E02DB9
:101C600086E593E0099408956091A6018AE793E0E0
:101C70000E9436251092A5010895CF938091080304
:101C8000882321F1F99922C09FEF980F9A3090F4A0
:101C900090E0FC01E552FF4FC4916C2F87960E94A3
:101CA000AD28C11102C08BE003C0809108038F5F93
:101CB00080930803809108038B3041F460911103F5
:101CC00082E390E00E94AD2810920803CF9108951E
:101CD0001F93CF93DF93C8E2D0E0FE01EC54FF4F97
:101CE0001491CE010E949928181306C0112331F0D7
:101CF0002196C233D10589F780E001C081E0DF91F0
:101D0000CF911F9108958F929F92AF92BF92CF92E1
:101D1000DF92EF92FF920F931F938BEA93E00E9462
:101D2000181F6B3071058105910508F4E4C080919E
:101D30009A03882349F18091A3039091A403A09171
:101D4000A503B091A6030196A11DB11D8093A30325
:101D50009093A403A093A503B093A6038091A70337
:101D60009091A803A091A903B091AA030196A11D87
:101D7000B11D8093A7039093A803A093A903B093E8
:101D8000AA0310929A0303C081E080939A03EFB7ED
:101D9000F8948091A3039091A403A091A503B0911E
:101DA000A603C0909B03D0909C03E0909D03F0900D
:101DB0009E034091A7035091A8036091A9037091DD
:101DC000AA0380909F039090A003A090A103B090DD
:101DD000A20300913A0410913B04012E000C220B47
:101DE000330B800F911FA21FB31F813422E492078F
:101DF0002FE0A207B10548F080549244AF40B109EA
:101E0000FFEFCF1ADF0AEF0AFF0A00914604109194
:101E10004704012E000C220B330B400F511F621F91
:101E2000731F950184010F5F1F4F2F4F3F4F4134A8
:101E3000F2E45F07FFE06F077105C0F58093A3032D
:101E40009093A403A093A503B093A603C0929B0311
:101E5000D0929C03E0929D03F0929E0380929F0398
:101E60009092A003A092A103B092A2034093A70373
:101E70005093A8036093A9037093AA03EFBF80E077
:101E80000E94161E8091AB039091AC03A091AD030C
:101E9000B091AE030A96A11DB11D8093AB03909340
:101EA000AC03A093AD03B093AE0325C0405452449D
:101EB0006F4071098093A3039093A403A093A5039B
:101EC000B093A603C0929B03D0929C03E0929D0323
:101ED000F0929E034093A7035093A8036093A90335
:101EE0007093AA0300939F031093A0032093A10370
:101EF0003093A203C3CF1F910F91FF90EF90DF901B
:101F0000CF90BF90AF909F908F90089583309105B0
:101F1000A8F4880F991F880F991FFC01EF54FC4FFC
:101F20004081518162817381415051096109710978
:101F300081E04E3F5F4F6F4F7F4F08F080E0089584
:101F4000CF938091B00387FF17C0C091B003F99978
:101F500013C0CF7724E0C29FC0011124FC01EF54CD
:101F6000FC4F40815181628173814E960E94BF284F
:101F7000C093B00381E001C080E0CF9108950F933A
:101F80001F93CF93DF938230910508F044C0EC019A
:101F90008C01000F111F000F111FC8014E960E94E7
:101FA000A128F801EF54FC4F6083718382839383EF
:101FB000CE010E94860F811112C0CD2BD9F480E092
:101FC00090E0A0EAB0E48093B1039093B203A093B1
:101FD000B303B093B4038091AF038F5F1AC0209115
:101FE000AF0381E090E001C0880FCA95EAF78095C1
:101FF00082230FC081E79DE3AAE8BFE38093B50386
:102000009093B603A093B703B093B8038091AF0346
:102010008E5F8093AF03DF91CF911F910F91089551
:102020000F931F93CF938091AF03807351F18091F1
:10203000B00387FF26C0C091B003CF770C2F10E00C
:10204000C8010E94860F8823B1F00E94A00F882348
:10205000C1F08091AF038F708093AF032091AF03E5
:1020600081E090E001C0880FCA95EAF7809582234D
:102070008093AF0306C0C801CF911F910F910C94BC
:10208000BF0FCF911F910F910895FC0120813181E5
:102090002B53310981E02539310508F080E008959E
:1020A000FC01208131812951310981E02035310540
:1020B00008F080E00895FC01208131812657310924
:1020C00081E02932314008F080E00895FC01208150
:1020D00031812253310981E02E39310508F080E049
:1020E0000895FC01408151816281738140545F41B8
:1020F0006109710981E041345F4C6643710508F064
:1021000080E008950C94711086E490E00E94A72866
:10211000F9990CC06091BD037091BE0386179707B3
:1021200039F086E490E00E94CB2802C080E0089558
:1021300081E0089588E490E00E94A728F9990CC0F6
:102140006091C1037091C2038617970739F088E444
:1021500090E00E94CB2802C080E0089581E00895BD
:102160008AE490E00E94A128DC01CB01F99912C019
:102170004091C3035091C4036091C5037091C6039D
:1021800084179507A607B70739F08AE490E00E9404
:10219000BF2802C080E0089581E008958EE490E0B9
:1021A0000E94A128DC01CB01F99912C04091B9032A
:1021B0005091BA036091BB037091BC0384179507DB
:1021C000A607B70739F08EE490E00E94BF2802C04E
:1021D00080E0089581E00895CF92DF92EF92FF9220
:1021E0001F93CF93DF93CDB7DEB72C970FB6F8943C
:1021F000DEBF0FBECDBF86E490E00E94A7287C0121
:102200009C878B87CE010B960E944510811106C0DA
:10221000CE010B960E945B10882331F0F092BE0332
:10222000E092BD0310E001C011E088E490E00E945C
:10223000A7287C019A878987CE0109960E945010B1
:10224000811106C0CE0109960E946610882329F0EC
:10225000F092C203E092C10301C011E08AE490E071
:102260000E94A1286B017C016D837E838F839887F8
:10227000CE0105960E947110882349F0C092C303D5
:10228000D092C403E092C503F092C60301C011E0EE
:102290008EE490E00E94A1286B017C0169837A831F
:1022A0008B839C83CE0101960E947110811128C0FE
:1022B00080E590E09093BE038093BD0388E290E0B8
:1022C0009093C2038093C10380E89FE4A2E1B0E051
:1022D0008093C3039093C403A093C503B093C60334
:1022E0008093B9039093BA03A093BB03B093BC034C
:1022F00081E090E09093C0038093BF0380E00FC023
:10230000C092B903D092BA03E092BB03F092BC032F
:102310001111CECF1092C0031092BF0381E02C9612
:102320000FB6F894DEBF0FBECDBFDF91CF911F91E6
:10233000FF90EF90DF90CF9008958091BF03909130
:10234000C0038230910508F44FC00297A9F48DEBC9
:1023500093E00E944510811106C08DEB93E00E942E
:102360005B10882349F00E948410882329F0109282
:10237000C0031092BF0308958091BF039091C003E2
:10238000039781F481EC93E00E945010811106C004
:1023900081EC93E00E946610882321F00E949A103D
:1023A0008111E5CF8091BF039091C003049751F450
:1023B00083EC93E00E947110882321F00E94B010FA
:1023C0008111D5CF8091BF039091C003059751F43F
:1023D00089EB93E00E947110882321F00E94CE10B7
:1023E0008111C5CF0C94EC100895CF92DF92EF923B
:1023F000FF92CF93DF9388ED93E00E94820D8111CD
:10240000FEC180914B038111FAC18091BF0390916D
:10241000C003029708F0F3C181E090E00E942B1EF8
:10242000EC018AED93E00E94181F6B017C01809102
:10243000D1039091D2030097F9F489EFC8168AE28C
:10244000D806E104F10408F4DAC12091C103309107
:10245000C2038091E2032C173D073CF421E030E0F9
:102460003093D2032093D10314C124E030E03093A1
:10247000D2032093D1032BC18130910531F5809196
:10248000C1039091C203C817D9070CF0B7C022E06E
:1024900030E03093D2032093D1038091E20388236C
:1024A00009F4A2C06091CC03662309F49DC0409159
:1024B000D8035091D903452B21F43093D9032093AD
:1024C000D80328ED33E042E08DC082309105D9F485
:1024D0008091C1039091C203C817D9078CF48091F1
:1024E000B9039091BA03A091BB03B091BC038C15C2
:1024F0009D05AE05BF0508F082C183E090E0E1C014
:1025000081E090E0C0C08330910509F043C080E8CD
:102510008093D30384E090E09093D2038093D1031F
:102520008091E2038823A9F06091E303662389F098
:102530002091D8033091D903232B31F422E030E0ED
:102540003093D9032093D80328ED33E043E00E9471
:102550005D0D80919B0390919C03A0919D03B09190
:102560009E038093CD039093CE03A093CF03B093AB
:10257000D00380919F039091A003A091A103B091FB
:10258000A2038093D4039093D503A093D603B09372
:10259000D70335C18430910509F05AC08091BD033D
:1025A0009091BE038C179D074CF585E090E09093C9
:1025B000D2038093D1038091E2038823A9F0609134
:1025C000CC03662389F02091D8033091D903232BC3
:1025D00031F422E030E03093D9032093D80328ED82
:1025E00033E045E00E945D0D0E949F1E6093DA0378
:1025F0007093DB038093DC039093DD0381E0C816C6
:1026000082EAD8068AE4E80684E0F80608F4F7C00F
:1026100087E090E09093D2038093D1038091E2030E
:10262000882309F46BC06091CC03662309F466C06B
:102630002091D8033091D903232B31F422E030E0EC
:102640003093D9032093D80328ED33E047E054C0FA
:102650008530910509F05DC08091BD039091BE0366
:102660008C179D0764F58091C3039091C403A091DA
:10267000C503B091C6038C159D05AE05BF0508F0D6
:10268000BEC086E090E09093D2038093D103809106
:10269000E203882399F16091CC03662379F12091BC
:1026A000D8033091D903232B31F422E030E030936A
:1026B000D9032093D80328ED33E041E01DC084E026
:1026C00090E09093D2038093D1038091E20388231A
:1026D000A9F06091CC03662389F02091D803309152
:1026E000D903232B31F422E030E03093D903209337
:1026F000D80328ED33E044E00E945D0D0E949F1E48
:102700006093DA037093DB038093DC039093DD0323
:1027100076C08630910509F04BC080E48093D303E6
:1027200081E090E09093D2038093D1038091E20303
:102730008823A9F06091C703662389F02091D8030C
:102740003091D903232B31F422E030E03093D903C8
:102750002093D80328ED33E046E00E945D0D1092EF
:102760001704109218041092190410921A04809100
:102770009B0390919C03A0919D03B0919E03809335
:10278000DE039093DF03A093E003B093E103809115
:102790009F039091A003A091A103B091A203809305
:1027A000C8039093C903A093CA03B093CB0327C077
:1027B000079729F187E090E09093D2038093D103AB
:1027C0008091E2038823D9F06091CC036623B9F0AD
:1027D0002091D8033091D903232B31F422E030E04B
:1027E0003093D9032093D80328ED33E047E0DF91FD
:1027F000CF91FF90EF90DF90CF900C945D0DDF9123
:10280000CF91FF90EF90DF90CF9008950F931F939B
:10281000CF93DF9388ED93E00E94820D811142C235
:1028200080914B0381113EC280910A0490910B0468
:10283000029708F037C286E090E00E942B1EEC0160
:1028400088EF93E00E94181FE091EB03F091EC03F6
:10285000ED30F10508F026C2EF59FF4F0C949A2590
:10286000189993C1613D77408105910508F41AC21A
:102870008FB7F894209A8FBF8FB7F89428988FBF9E
:102880000E949F1E6093F8037093F9038093FA03EC
:102890009093FB0322E030E03093EC032093EB03B2
:1028A0008091E603882309F4FDC16091F10366235A
:1028B00009F4F8C14091D8035091D903452B21F474
:1028C0003093D9032093D80328ED33E042E0D4C1FC
:1028D000693C71058105910508F4E4C180910C04FF
:1028E0008093E50310920C040E949F1E6093ED03F9
:1028F0007093EE038093EF039093F0030E949F1E6A
:102900006093F8037093F9038093FA039093FB03A9
:1029100083E090E09093EC038093EB038091E603D7
:10292000882309F4BFC16091F103662309F4BAC199
:102930002091D8033091D903232B31F422E030E0E9
:102940003093D9032093D80328ED33E043E094C1BA
:102950002091040430910504C217D30754F50E9456
:102960009F1E6093F4037093F5038093F603909396
:10297000F70385E090E09093EC038093EB03809164
:10298000E603882309F48EC16091F103662309F4FC
:1029900089C12091D8033091D903232B31F422E04F
:1029A00030E03093D9032093D80328ED33E045E09D
:1029B00063C10091FC031091FD032091FE0330914F
:1029C000FF03061717072807390708F06BC184E0D3
:1029D00090E09093EC038093EB038091E6038823CF
:1029E00009F460C16091F103662309F45BC1209191
:1029F000D8033091D903232B31F422E030E0309317
:102A0000D9032093D80328ED33E044E035C18CE0AE
:102A100090E09093EC038093EB038091E60388238E
:102A200009F440C16091F103662309F43BC1209190
:102A3000D8033091D903232B31F422E030E03093D6
:102A4000D9032093D80328ED33E04CE015C10E9450
:102A50009F1E6093F8037093F9038093FA03909399
:102A6000FB0386E090E09093EC038093EB0380916E
:102A7000E603882309F416C16091F103662309F483
:102A800011C12091D8033091D903232B31F422E0D6
:102A900030E03093D9032093D80328ED33E046E0AB
:102AA000EBC00091000410910104209102043091C8
:102AB0000304061717072807390708F0F3C087E053
:102AC00090E09093EC038093EB038091E6038823DE
:102AD00009F4E8C06091F103662309F4E3C0209192
:102AE000D8033091D903232B31F422E030E0309326
:102AF000D9032093D80328ED33E047E0BDC02091EF
:102B0000F2033091F303A90141505109C417D507CD
:102B1000C4F12F5F3F4F2C173D079CF10091060435
:102B20001091070420910804309109040617170733
:102B30002807390708F0B6C089E090E09093EC03CD
:102B40008093EB038FB7F89429988FBF8FB7F894D1
:102B5000219A8FBF8FB7F89420988FBF8FB7F894C2
:102B6000289A8FBF0E949F1E6093E7037093E8032B
:102B70008093E9039093EA038091E50380930C042A
:102B800063C0D093F303C093F2030E949F1E60932F
:102B9000F8037093F9038093FA039093FB0382C0C8
:102BA0001899F3CF613D77408105910508F47AC00B
:102BB0008AE090E09093EC038093EB038091E6032E
:102BC000882309F46FC06091F103662309F46AC099
:102BD0002091D8033091D903232B31F422E030E047
:102BE0003093D9032093D80328ED33E04AE044C062
:102BF000189BCBCF613D77408105910508F452C009
:102C00008BE090E09093EC038093EB038FB7F89404
:102C100021988FBF8FB7F894299A8FBF8FB7F894F8
:102C2000209A0DC061367A4E8105910508F43AC0AC
:102C30001092EC031092EB038FB7F89420988FBF9B
:102C40008FB7F894289A8FBF8091E603882351F1BB
:102C50006091F103662331F12091D8033091D903BB
:102C6000232B31F422E030E03093D9032093D803B2
:102C700028ED33E04091EB03DF91CF911F910F914D
:102C80000C945D0D8FB7F89429988FBF8FB7F89487
:102C9000219A8FBF8FB7F894209A8FBF8FB7F8947F
:102CA00028988FBFDF91CF911F910F910895FC015C
:102CB000208131812753310981E02C34314008F0E3
:102CC00080E00895FC0140815181628173814B5005
:102CD00051096109710981E0453352446F40710522
:102CE00008F080E00895FC01408151816281738188
:102CF0004B5051096109710981E045375E4E6643C9
:102D0000710508F080E00895F9990AC06091040403
:102D10007091050482E890E00E94CB2881E008953C
:102D200080E00895F9990EC04091FC035091FD0395
:102D30006091FE037091FF0384E890E00E94BF2839
:102D400081E0089580E00895F9990EC04091000453
:102D500050910104609102047091030488E890E0AE
:102D60000E94BF2881E0089580E00895F9990EC07F
:102D70004091060450910704609108047091090481
:102D80008CE890E00E94BF2881E0089580E00895DB
:102D90002F923F924F925F926F927F928F929F926B
:102DA000AF92BF92CF92DF92EF92FF920F931F9359
:102DB000CF93DF93CDB7DEB72E970FB6F894DEBF73
:102DC0000FBECDBF82E890E00E94A7288C019E87AD
:102DD0008D8784E890E00E94A1282B013C0169873F
:102DE0007A878B879C8788E890E00E94A1284B0116
:102DF0005C016D837E838F8398878CE890E00E94CE
:102E0000A1286B017C0169837A838B839C83CE012B
:102E10000D960E945716282ECE0109960E94621622
:102E200033243394882311F02110312CCE010596E0
:102E30000E947316811102C033243394CE0101968F
:102E40000E947316882321F1311022C010930504CB
:102E5000009304044092FC035092FD036092FE0331
:102E60007092FF038092000490920104A0920204E9
:102E7000B0920304C0920604D0920704E0920804C2
:102E8000F092090410920B0410920A0481E031C000
:102E90008FE390E0909305048093040480E69AEE1B
:102EA000A0E0B0E08093FC039093FD03A093FE03A9
:102EB000B093FF0380E197E2A0E0B0E080930004CC
:102EC00090930104A0930204B093030484E690E07D
:102ED000A0E0B0E08093060490930704A093080458
:102EE000B093090481E090E090930B0480930A046E
:102EF00080E02E960FB6F894DEBF0FBECDBFDF91F7
:102F0000CF911F910F91FF90EF90DF90CF90BF90E6
:102F1000AF909F908F907F906F905F904F903F9079
:102F20002F90089580910A0490910B0483309105AD
:102F3000C9F018F4029739F030C084309105D9F007
:102F4000059711F12AC084E094E00E945716882367
:102F500051F10E948416882301F110920B04109203
:102F60000A041BC08CEF93E00E9462168823D9F0FC
:102F70000E949216F0CF80E094E00E94731688239E
:102F800091F00E94A416E7CF86E094E00E947316A9
:102F9000882349F00E94B616DECF80910A049091F2
:102FA0000B04029710F00C94C81608958F929F920C
:102FB000AF92BF92CF92DF92EF92FF920F931F9347
:102FC000CF93DF9388ED93E00E94820D81111FC2A1
:102FD00080914B0381111BC28091200490912104A8
:102FE000029708F014C280910C04882309F4DAC116
:102FF000C090D103D090D20321E0C216D10409F0D1
:10300000D1C187E090E00E942B1E7C01C0911E047C
:10301000D0911F048091220490912304C81BD90BE6
:10302000D595C7958DE094E00E94181F009111047A
:103030001091120402301105C9F140F40115110577
:1030400009F451C10130110561F0E1C104301105ED
:1030500009F43FC108F483C00530110509F474C1B7
:10306000D6C16B3F71058105910508F4D0C18FB7BA
:10307000F8942B9A8FBF82E090E090931204809393
:10308000110460911B04662309F4C1C12091D80387
:103090003091D903232B21F49093D9038093D80343
:1030A00028ED33E042E080910C04A3C1209122047A
:1030B00030912304C20FD31FCE15DF056CF58FB7F7
:1030C000F8942B9A8FBF0E949F1E60930D047093FB
:1030D0000E0480930F049093100410921304109226
:1030E0001404109215041092160483E090E090935B
:1030F00012048093110460911B04662309F487C1B4
:103100008091D8039091D903892B09F019C11093AC
:10311000D9030093D80314C1613177428105910529
:1031200008F475C18FB7F8942B988FBFD092120412
:10313000C092110480910D0490910E04A0910F048F
:10314000B0911004805F984DAF4FBF4F80930D0436
:1031500090930E04A0930F04B093100485C02091A7
:103160001E0430911F04E216F306FCF08FB7F894AA
:103170002B988FBF84E090E0909312048093110409
:1031800060911B04662309F442C18091D803909199
:10319000D903892B31F482E090E09093D903809396
:1031A000D80328ED33E044E07ECF80901304909064
:1031B0001404A0901504B090160481149104A10485
:1031C000B10409F466C01B9B1DC086169706A806AD
:1031D000B906C0F42FB7F8942B982FBF00911704AD
:1031E000109118042091190430911A04060F171F2A
:1031F000281F391F009317041093180420931904F3
:1032000030931A04613D77408105910508F4FFC0B1
:103210008091220490912304C80FD91FCE15DF0599
:10322000ECF480910D0490910E04A0910F04B091E4
:1032300010048053984FAF4FBF4F80930D0490936D
:103240000E04A0930F04B093100410921304109274
:1032500014041092150410921604D9C081E090E075
:10326000909312048093110460911B04662309F467
:10327000CEC08091D8039091D903892B31F482E09C
:1032800090E09093D9038093D80328ED33E041E098
:103290000ACFC9018E199F09BE010E94642520ED45
:1032A00037E0629FC001639F900D729F900D1124C3
:1032B000092E000CAA0BBB0B8093130490931404EB
:1032C000A0931504B09316048FB7F8942B9A8FBF70
:1032D0009EC08091220490912304C80FD91FCE155F
:1032E000DF050CF494C08FB7F8942B988FBF0E9421
:1032F0009F1E60930D0470930E0480930F049093AF
:1033000010041092130410921404109215041092D9
:10331000160483E090E0909312048093110460916E
:103320001B04662309F473C08091D8039091D903DC
:10333000892B31F482E090E09093D9038093D803F5
:1033400028ED33E043E0AFCE8091E403882351F0D1
:10335000813009F05CC010921B0410920C04109292
:10336000E40355C08FB7F8942B988FBF60911B046E
:103370006623A1F08091D8039091D903892B31F471
:1033800082E090E09093D9038093D80328ED33E056
:103390004091110480910C040E945D0D81E08093A6
:1033A000E40335C08091110490911204049778F5DC
:1033B0008FB7F8942B988FBF84E090E0909312041D
:1033C0008093110480910C04882309F160911B04FF
:1033D0006623E9F02091D8033091D903232B31F4EF
:1033E00022E030E03093D9032093D80328ED33E076
:1033F00044E0DF91CF911F910F91FF90EF90DF900C
:10340000CF90BF90AF909F908F900C945D0DDF9107
:10341000CF911F910F91FF90EF90DF90CF90BF90D1
:10342000AF909F908F900895FC01208131812B54A3
:10343000314081E02738310508F080E00895FC0133
:10344000208131812E53314081E02636310508F04C
:1034500080E00895FC01208131812B50314081E0D2
:103460002937310508F080E00895FC012081318181
:103470002559324081E02F30314008F080E0089536
:10348000FC01208131812C57324081E02B3C3105F9
:1034900008F080E00895FC012081318126513240FE
:1034A00081E0223F310508F080E00895F9990AC0D3
:1034B00060911E0470911F0486E990E00E94CB2861
:1034C00081E0089580E00895F9990AC0609122048E
:1034D0007091230488E990E00E94CB2881E0089550
:1034E00080E00895F9990AC060911C0470911D0450
:1034F0008AE990E00E94CB2881E0089580E0089559
:10350000AF92BF92CF92DF92EF92FF921F93CF9331
:10351000DF9300D000D000D0CDB7DEB786E990E0D1
:103520000E94A7285C019E838D8388E990E00E9419
:10353000A7286C019C838B838AE990E00E94A728CE
:103540007C019A838983CE0105960E94141A811109
:1035500006C0CE0105960E94351A11E0811110E0D7
:10356000CE0103960E941F1A811107C0CE01039657
:103570000E94401A811101C011E0CE0101960E9403
:103580002A1A811106C0CE0101960E944B1A882387
:10359000A1F0111112C0B0921F04A0921E04D0928B
:1035A0002304C0922204F0921D04E0921C041092A5
:1035B00021041092200481E03AC080914804909147
:1035C00049049C012C5732402832314078F48AE17A
:1035D00093E090931F0480931E0485ED91E09093F7
:1035E00023048093220487E692E013C08E53914017
:1035F00084399105A8F48DE891E090931F0480939D
:103600001E0486E791E0909323048093220483E3D1
:1036100091E090931D0480931C0481E090E002C02F
:1036200085E090E0909321048093200480E026962A
:103630000FB6F894DEBF0FBECDBFDF91CF911F91C3
:10364000FF90EF90DF90CF90BF90AF900895809162
:103650002004909121048230910508F445C002971E
:10366000A9F48EE194E00E94141A811106C08EE143
:1036700094E00E94351A882349F00E94561A882344
:1036800029F01092210410922004089580912004C2
:1036900090912104039781F482E294E00E941F1A22
:1036A000811106C082E294E00E94401A882321F032
:1036B0000E94641A8111E5CF809120049091210429
:1036C000049781F48CE194E00E942A1A811106C0CB
:1036D0008CE194E00E944B1A882321F00E94721A18
:1036E0008111CFCF0C94801A089585309105A8F4EC
:1036F000880F991F880F991FFC01EA5DFB4F4081DD
:10370000518162817381415051096109710981E0E0
:103710004E3F5F4F6F4F7F4F08F080E008958091DC
:1037200024048F77843018F490E00C94751B80E0AB
:103730000895CF938091240487FF18C0C09124047A
:10374000F99914C0CF7724E0C29FC0011124FC0175
:10375000EA5DFB4F40815181628173818E5A9F4F98
:103760000E94BF28C093240481E001C080E0CF9173
:1037700008950F931F93CF93DF938430910508F042
:103780006AC0EC018C01000F111F000F111FC8014E
:103790008E5A9F4F0E94A128F801EA5DFB4F60837B
:1037A000718382839383CE010E94751B811147C070
:1037B000209781F484EE98E3AEE8BAE38093260480
:1037C00090932704A0932804B093290480912504A2
:1037D0008F5F3FC0C130D10581F480E090E0A0E36D
:1037E000BCE380932A0490932B04A0932C04B09301
:1037F0002D04809125048E5F2CC0229781F486E9E8
:1038000096E9A6E9B9E380932E0490932F04A09340
:103810003004B0933104809125048C5F1AC08AE192
:1038200098E8AAEEBBE38093320490933304A0930C
:103830003404B093350480912504885F0AC0209138
:10384000250481E090E001C0880FCA95EAF78095D1
:10385000822380932504DF91CF911F910F910895CA
:103860000F931F93CF93DF9380912504807F99F16D
:103870008091240487FF2FC0809124048F77082F24
:1038800010E0C1E0D0E002C0CC0FDD1F8A95E2F766
:103890008091250482958F7090E0C817D907D9F4DC
:1038A0000E948F1B882381F00E94991B882399F026
:1038B000809125048F708093250480912504C09504
:1038C000C823C093250407C0C801DF91CF911F9181
:1038D0000F910C94B91BDF91CF911F910F91089517
:1038E0002091AC0130E02F5F3F4F2F713327409183
:1038F000AB0150E024173507D1F39091A801F901ED
:10390000E353FE4F90FF03C08A3009F48DE08083BB
:103910002093AC018091C10080628093C10080E05F
:1039200090E008951F920F920FB60F9211242F93DB
:103930003F934F935F938F939F93EF93FF932091C8
:10394000C00028713091C6008091AA0190E00196D4
:103950008F7199274091A90150E08417950711F4C0
:103960002E5F06C08093AA01FC01E355FE4F308311
:1039700020933604FF91EF919F918F915F914F912A
:103980003F912F910F900FBE0F901F9018951F928F
:103990000F920FB60F9211248F939F93EF93FF9383
:1039A0009091AC018091AB01981779F08091AB01B7
:1039B00090E001968F7199278093AB01FC01E3534E
:1039C000FE4F80818093C60005C08091C1008F7D2D
:1039D0008093C100FF91EF919F918F910F900FBE47
:1039E0000F901F9018958091AA012091A90190E055
:1039F0008096821B91098F71992708950E94F31C6C
:103A0000892BE1F39091AA018091A901981307C035
:103A1000809136048F5F8093360480E00CC08091E3
:103A2000A90190E001968F7199278093A901FC016B
:103A3000E355FE4F80819091A80191FF03C08D3026
:103A400009F48AE090E00895CF92DF92EF92FF921E
:103A50000F931F93CF938B019C01C42F6B017C01AB
:103A600080E6C80E83EED81E86E1E81EF11CC70171
:103A7000B60143E0660F771F881F991F4A95D1F75B
:103A8000A9019801E4E0220F331F441F551FEA9556
:103A9000D1F70E947825215031091092AC01109283
:103AA000AB011092AA011092A9012115310531F440
:103AB0008091C100877F8093C10010C037FF04C090
:103AC00082E08093C0003F7788E98093C10086E060
:103AD0008093C2003093C5002093C400C093A80116
:103AE00080E091E0CF911F910F91FF90EF90DF90D8
:103AF000CF9008951F920F920FB60F9211242F931B
:103B00003F938F939F93EF93FF938091370490910E
:103B10003804019711F41B990EC0E0913704F0911D
:103B200038048091780090917900EE0FFF1FE65CD9
:103B3000FB4F9183808380913704909138040196E4
:103B4000909338048093370480913704909138041F
:103B50008630910540F48230910550F40097B1F021
:103B6000019721F00CC0089750F410C01B9B0EC0A9
:103B700086E090E0909338048093370407C0109259
:103B80003804109237048FE780934B0480917C00B7
:103B9000807F80937C0030917C002091390480915B
:103BA000370490913804932F9F71922B890F809343
:103BB0007C008091370490913804892B31F08091FA
:103BC0007A00806480937A000BC08091ED01882395
:103BD00039F080917A00806480937A0010924B04CF
:103BE000FF91EF919F918F913F912F910F900FBE79
:103BF0000F901F901895809339041092ED01ECE717
:103C0000F0E090819073892B8083EAE7F0E0808177
:103C100084608083808182608083808181608083F2
:103C200080818068808310924A040895109238043D
:103C30001092370410924B048093ED01EAE7F0E014
:103C4000808187758868808380818064808381E03B
:103C500080934A0408958830910558F42FB7F8945A
:103C6000880F991FFC01E65CFB4F808191812FBF7B
:103C7000089580E090E008951F920F920FB60F9282
:103C800011248F939F93AF93BF938091F8019091EC
:103C9000F901A091FA01B091FB010196A11DB11D9E
:103CA0008093F8019093F901A093FA01B093FB017E
:103CB000BF91AF919F918F910F900FBE0F901F906A
:103CC000189584B5847F836084BD85B5887F8360C3
:103CD00085BDEEE6F0E0808181608083E0E8F0E081
:103CE0001082808181608083E1E8F0E01082808131
:103CF00083608083E0EBF0E01082808181608083CC
:103D0000E1EBF0E01082808184608083E0E9F0E004
:103D10001082808181608083E1E9F0E010828081FF
:103D200083608083E0EAF0E010828081816080839C
:103D3000E1EAF0E0108280818360808308958F92B1
:103D40009F92AF92BF92CF92DF92EF92FF928FB786
:103D5000F8948090F8019090F901A090FA01B09049
:103D6000FB018FBF8091F4019091F501A091F601C4
:103D7000B091F701A5019401281B390B4A0B5B0B8D
:103D8000DA01C9012B3F31054105510518F4222301
:103D9000F1F101C08AEFC090EE01D090EF01E09008
:103DA000F001F090F101E091F201F091F301B7011F
:103DB000A6014F5F5F4F6F4F7F4F81509F01235987
:103DC0003E4F293E93E0390740F0285E3340B7016B
:103DD000A6014E5F5F4F6F4F7F4F882321F0F9019F
:103DE0006A017B01E4CF4093EE015093EF016093B1
:103DF000F0017093F1013093F3012093F20180926E
:103E0000F4019092F501A092F601B092F701609151
:103E1000EE017091EF018091F0019091F101FF901E
:103E2000EF90DF90CF90BF90AF909F908F900895CC
:103E30000F931F93CF93DF93EC010E949F1E088185
:103E400019812A813B81601B710B820B930BDF91DF
:103E5000CF911F910F9108950895089585ED809356
:103E6000BC008091BC0084FDFCCF109268021092CF
:103E70006702089585EC8093BC001092680210924E
:103E8000670208951F920F920FB60F9211242F937D
:103E90003F934F935F936F937F938F939F93AF93D2
:103EA000BF93EF93FF938091B900887F803609F428
:103EB000C5C0B8F5883209F46AC0A0F4803109F4AD
:103EC00063C038F4882309F45AC0883009F45CC010
:103ED00024C1883109F45BC0803209F01EC180E240
:103EE00090E06BC0803409F47BC078F4803309F42F
:103EF00062C0883309F011C188E390E090936402B6
:103F0000809363020E943A1F08C1803509F45CC0A7
:103F1000883509F46AC0883409F0FFC088E490E06D
:103F20004CC0883909F4EEC0A8F4883709F486C07B
:103F300038F4883609F482C0803709F47FC0EDC0B8
:103F4000883809F4DFC0803909F481C0803809F06D
:103F5000E4C07DC0803B09F4A9C038F4803A09F47C
:103F60008BC0883A09F4A2C0D8C0803C09F4CEC006
:103F7000883C09F4CBC0883B09F4B0C0CEC0109295
:103F80006402109263021DC08091690211C0909179
:103F9000420280914102981708F03FC0E09142022E
:103FA00081E08E0F80934202F0E0ED5BFD4F808157
:103FB0008093BB00A5C080E390E09093640280935F
:103FC00063020E942E1FA9C0E091420281E08E0F81
:103FD000809342028091BB00F0E0ED5BFD4F808357
:103FE000909142028091410289C0E091420281E0B9
:103FF0008E0F809342028091BB00F0E0ED5BFD4F9D
:1040000080839091420280914102981730F488E5B4
:1040100090E0909364028093630280916502909196
:10402000660280FDCECF809165029091660282602B
:10403000909366028093650284EA69C083E090E011
:1040400090936802809367021092FC0159C080919E
:10405000FC01803208F056C0E091FD01F091FE01B4
:104060008091FC0191E0980F9093FC019091BB002E
:10407000E80FF11D908344C00E943A1F2091FC017B
:104080008091FD019091FE01203230F42091FC01DD
:10409000FC01E20FF11D10826091FC01E0910E0124
:1040A000F0910F0109951092FC0137C084E090E077
:1040B00090936802809367021092200210921F0270
:1040C000E0911001F0911101099580911F02811179
:1040D00005C081E080931F0210922102E09120022E
:1040E00081E08E0F80932002F0E0EF5DFD4F808134
:1040F0008093BB009091200280911F02981710F4CA
:1041000085EC01C085E88093BC0007C085EC8093F6
:10411000BC001092680210926702FF91EF91BF916C
:10412000AF919F918F917F916F915F914F913F914F
:104130002F910F900FBE0F901F9018950F931F9304
:104140008B019C01672B682B692B71F48091BC005B
:104150008A7B8093BC008FB7F89445988FBF8FB748
:10416000F89444988FBF43C08FEF91E09093FE0185
:104170008093FD01109268021092670281E090E046
:1041800090936602809365028FB7F8943D988FBF35
:104190008FB7F8943C988FBF4130510541F48FB7E9
:1041A000F894459A8FBF8FB7F894449A8FBF809147
:1041B000B9008E7F8093B9008091B9008D7F809384
:1041C000B90060E07BE187EB90E0A90198010E94D3
:1041D0007825DA01C9014097A109B109B695A795DB
:1041E000979587958093B80085E48093BC001F91D4
:1041F0000F910895413208F05BC0E0916702F091A1
:104200006802EF2B09F057C0E2E0F0E0F09368029B
:10421000E09367022130310531F42091650230913D
:104220006602216005C020916502309166022E7FF2
:1042300030936602209365022FEF30E030936402E2
:10424000209363021092420240934102262FA3E47E
:10425000B2E0FB019E2F921B941718F491919D934D
:10426000F9CF880F80936902809169028093690277
:10427000809165029091660281FF14C08091650271
:10428000909166028D7F90E0909366028093650224
:10429000809169028093BB008091BC0083FDF8CFC0
:1042A00085EC01C085EE8093BC0080E090E008952D
:1042B00081E090E0089582E090E0089580916702A7
:1042C000909168020297E1F08091630290916402FC
:1042D0008F3F9105C1F080916302909164028097B5
:1042E000A9F08091630290916402C09791F080914F
:1042F000630290916402892B79F085E090E0089543
:1043000081E090E0089580E090E0089582E090E000
:10431000089583E090E0089584E090E008950F937D
:104320001F93CF93DF93E801E881F981E430F10531
:10433000C9F030F4E230F105F9F0339721F020C0F4
:104340003797F0F419C00E94FA208130910529F4C2
:104350009983888381E090E015C0029789F084E01A
:1043600090E00CC00E945E218130910559F021E05F
:1043700030E03983288306C081E090E09983888308
:1043800080E090E0DF91CF911F910F91089561320D
:1043900008F04EC02091670230916802232B09F08B
:1043A0004AC021E030E030936802209367022091F8
:1043B0006502309166024130510511F4216001C05F
:1043C0002E7F30936602209365022FEF30E030930A
:1043D0006402209363021092420261506093410292
:1043E000880F80936902809169028F5F80936902D0
:1043F000809165029091660281FF14C080916502F0
:10440000909166028D7F90E09093660280936502A2
:10441000809169028093BB008091BC0083FDF8CF3E
:1044200085EC01C085EE8093BC0080E090E00895AB
:1044300081E090E0089582E090E008958091670225
:10444000909168020197F1F080916302909164026B
:104450008F3F9105D1F0809163029091640288347E
:104460009105B1F0809163029091640288359105C5
:1044700091F08091630290916402892B79F085E03C
:1044800090E0089581E090E0089580E090E0089544
:1044900082E090E0089583E090E0089584E090E069
:1044A000089520916702309168022130310539F476
:1044B00020916302309164022F3F3105B1F42091C5
:1044C00041022F5F30914202321710F420914202D4
:1044D000A3E4B2E0382FFC018E2F831B821718F45F
:1044E0008D918193F9CF822F089580E00895EF9206
:1044F000FF920F931F93CF93DF937B01642FE8010B
:10450000E881F981E530F10539F018F43297F8F4D3
:1045100022C0369761F01FC0A9010E94C7218130D7
:104520009105A9F00297B9F086E090E012C00E94D0
:104530001E228130910579F00297039740F0C70160
:104540000E94512221E030E03983288305C081E0B8
:1045500090E09983888380E0DF91CF911F910F9144
:10456000FF90EF900895AF92BF92CF92DF92EF92BB
:10457000FF920F931F93CF93DF93B82E6901A02E64
:10458000E701888199810397029788F4870122E0E7
:1045900030E08B2D0E948F21288139812130310517
:1045A000B9F4811115C085E090E0998388838E016C
:1045B00021E030E04A2DB6018B2D0E947722288120
:1045C00039812130310541F4811107C00E941E223A
:1045D0008295880F807E01C080E0DF91CF911F918E
:1045E0000F91FF90EF90DF90CF90BF90AF90089524
:1045F00098EF980F903728F4982F990F9093BA005E
:1046000008951092BA008CE29FE19093110180937B
:1046100010018DE29FE190930F0180930E0180E0E5
:1046200008956132B0F4209167023091680224301D
:10463000310589F460931F02282FA1E2B2E0FC014A
:104640008E2F821B861718F481918D93F9CF80E00D
:10465000089581E0089582E00895009711F48DE2B5
:104660009FE190930F0180930E010895009711F43C
:104670008CE29FE1909311018093100108950895B9
:10468000089585ED8093DC008091DC0084FDFCCFF3
:104690001092F6021092F502089585EC8093DC00EA
:1046A0001092F6021092F50208951F920F920FB623
:1046B0000F9211242F933F934F935F936F937F93A8
:1046C0008F939F93AF93BF93EF93FF938091D90004
:1046D000887F803609F4C5C0B8F5883209F46AC00D
:1046E000A0F4803109F463C038F4882309F45AC077
:1046F000883009F45CC034C1883109F45BC0803271
:1047000009F02EC180E290E06BC0803409F47BC0D8
:1047100078F4803309F462C0883309F021C188E35A
:1047200090E09093F2028093F1020E944D2318C111
:10473000803509F45CC0883509F46AC0883409F012
:104740000FC188E490E04CC0883909F4FEC0A8F499
:10475000883709F486C038F4883609F482C0803777
:1047600009F47FC0FDC0883809F4EFC0803909F42E
:1047700081C0803809F0F4C07DC0803B09F4B9C025
:1047800038F4803A09F48BC0883A09F4B2C0E8C022
:10479000803C09F4DEC0883C09F4DBC0883B09F4A6
:1047A000C0C0DEC01092F2021092F1021DC08091D2
:1047B000F70211C09091D0028091CF02981708F0B3
:1047C0003FC0E091D00281E08E0F8093D002F0E0F4
:1047D000EF52FD4F80818093DB00B5C080E390E015
:1047E0009093F2028093F1020E944123B9C0E091BC
:1047F000D00281E08E0F8093D0028091DB00F0E048
:10480000EF52FD4F80839091D0028091CF0299C0EA
:10481000E091D00281E08E0F8093D0028091DB0086
:10482000F0E0EF52FD4F80839091D0028091CF0253
:10483000981730F488E590E09093F2028093F102AB
:104840008091F3029091F40280FDCECF8091F3022B
:104850009091F40282609093F4028093F30284EAD0
:1048600079C083E090E09093F6028093F502109275
:104870006A0269C080916A02803208F066C0E091E5
:104880006B02F0916C0280916A0291E0980F909314
:104890006A029091DB00E80FF11D908354C00E94E2
:1048A0004D2320916A0280916B0290916C0220321C
:1048B00030F420916A02FC01E20FF11D1082609138
:1048C0006A02E0911201F0911301099580916B0247
:1048D00090916C028D58924019F48DE692E002C0DE
:1048E0008DE892E090936C0280936B0210926A02C2
:1048F00037C084E090E09093F6028093F502109226
:10490000AE021092AD02E0911401F09115010995EB
:104910008091AD02811105C081E08093AD021092BB
:10492000AF02E091AE0281E08E0F8093AE02F0E024
:10493000E155FD4F80818093DB009091AE02809124
:10494000AD02981710F485EC01C085E88093DC0077
:1049500007C085EC8093DC001092F6021092F502FD
:10496000FF91EF91BF91AF919F918F917F916F9147
:104970005F914F913F912F910F900FBE0F901F901D
:1049800018950F931F938B019C01672B682B692B44
:1049900071F48091DC008A7B8093DC008FB7F894FF
:1049A00071988FBF8FB7F89470988FBF43C08DE810
:1049B00092E090936C0280936B021092F602109238
:1049C000F50281E090E09093F4028093F3028FB7B8
:1049D000F89469988FBF8FB7F89468988FBF41306B
:1049E000510541F48FB7F894719A8FBF8FB7F8943F
:1049F000709A8FBF8091D9008E7F8093D90080916B
:104A0000D9008D7F8093D90060E07BE187EB90E057
:104A1000A90198010E947825DA01C9014097A109EE
:104A2000B109B695A795979587958093D80085E4A9
:104A30008093DC001F910F91089598EF980F9037A5
:104A400028F4982F990F9093DA0008951092DA00C5
:104A50008FE393E2909315018093140180E493E235
:104A6000909313018093120180E008956132B0F4B5
:104A70002091F5023091F6022430310589F46093DB
:104A8000AD02282FAFEAB2E0FC018E2F821B861701
:104A900018F481918D93F9CF80E0089581E0089515
:104AA00082E00895009711F480E493E2909313015B
:104AB000809312010895009711F48FE393E290938D
:104AC000150180931401089597FB072E16F40094A6
:104AD00007D077FD09D00E94A02507FC05D03EF441
:104AE000909581959F4F0895709561957F4F08959A
:104AF000A1E21A2EAA1BBB1BFD010DC0AA1FBB1FE2
:104B0000EE1FFF1FA217B307E407F50720F0A21B53
:104B1000B30BE40BF50B661F771F881F991F1A94C0
:104B200069F760957095809590959B01AC01BD01EA
:104B3000CF010895EE0FFF1F0590F491E02D099429
:104B4000AA1BBB1B51E107C0AA1FBB1FA617B707B3
:104B500010F0A61BB70B881F991F5A95A9F78095CF
:104B60009095BC01CD010895CF93DF93EC012B818B
:104B700020FF33C026FF0AC02F7B2B838E819F81AD
:104B800001969F838E838A8190E029C022FF0FC007
:104B9000E881F9818081082E000C990B009719F4A7
:104BA00020622B831AC03196F983E8830EC0EA8510
:104BB000FB85099597FF09C02B81019611F080E2D2
:104BC00001C080E1822B8B8308C02E813F812F5F43
:104BD0003F4F3F832E83992702C08FEF9FEFDF91D6
:104BE000CF910895A0E0B0E0E8EFF5E20C94F12851
:104BF000AE014B5F5F4FFA0161917191AF018091FE
:104C00004E0490914F040E940826E2E00C940D2976
:104C1000ABE0B0E0EEE0F6E20C94E1286C017B0141
:104C20008A01FC0117821682838181FFCCC1CE01EB
:104C300001963C01F6019381F70193FD859193FF65
:104C400081917F01882309F4BAC1853239F493FD3B
:104C5000859193FF81917F01853229F4B60190E01F
:104C60000E94FF27E7CF912C212C312CFFE1F31577
:104C7000D8F08B3279F038F4803279F08332A1F4B5
:104C8000232D20611DC08D3261F0803369F4232D06
:104C9000216016C0832D8260382EE32DE4603E2E05
:104CA0002AC0F32DF8601DC037FC2DC020ED280F61
:104CB0002A3040F08E32B9F436FC81C1232D2064B5
:104CC000322E19C036FE06C08AE0989E200D1124AF
:104CD000922E11C0EAE02E9E200D1124222EF32DDB
:104CE000F0623F2E08C08C3621F4832D8068382E68
:104CF00002C0883641F4F70193FD859193FF8191BD
:104D00007F018111B3CF982F9F7D9554933028F464
:104D10000C5F1F4F9FE399830DC0833631F08337BB
:104D200071F0833509F059C021C0F8018081898371
:104D30000E5F1F4F88248394912C530113C02801C8
:104D4000F2E04F0E511CF801A080B18036FE03C086
:104D5000692D70E002C06FEF7FEFC5010E94F4275C
:104D60004C018201F32DFF773F2E16C0280122E06F
:104D7000420E511CF801A080B18036FE03C0692D9F
:104D800070E002C06FEF7FEFC5010E94E9274C0180
:104D9000F32DF0683F2E820133FC1BC0822D90E082
:104DA00088169906B0F4B60180E290E00E94FF27D1
:104DB0002A94F4CFF50137FC859137FE81915F018C
:104DC000B60190E00E94FF2721102A9421E0821A68
:104DD00091088114910471F7E8C0843611F0893686
:104DE00041F5F80137FE07C06081718182819381AE
:104DF0000C5F1F4F08C060817181072E000C880B6B
:104E0000990B0E5F1F4FF32DFF763F2E97FF09C0C2
:104E100090958095709561957F4F8F4F9F4FF0686B
:104E20003F2E2AE030E0A3010E943B28882E8618FE
:104E300045C0853731F4232D2F7EB22E2AE030E095
:104E400025C0932D997FB92E8F36C1F018F488357F
:104E500079F0B5C0803719F0883721F0B0C0E92F5C
:104E6000E061BE2EB4FE0DC0FB2DF460BF2E09C064
:104E700034FE0AC0292F2660B22E06C028E030E09A
:104E800005C020E130E002C020E132E0F801B7FEC9
:104E900007C060817181828193810C5F1F4F06C0C2
:104EA0006081718180E090E00E5F1F4FA3010E943E
:104EB0003B28882E8618FB2DFF773F2E36FE0DC02F
:104EC000232D2E7FA22E891458F434FE0BC032FC01
:104ED00009C0832D8E7EA82E05C0B82CA32C03C03C
:104EE000B82C01C0B92CA4FE0FC0FE01E80DF11DC5
:104EF0008081803321F49A2D997EA92E09C0A2FECB
:104F000006C0B394B39404C08A2D867809F0B39494
:104F1000A3FC11C0A0FE06C0B21488F4280C922C89
:104F20009B180EC0B21460F4B60180E290E00E94BB
:104F3000FF27B394F7CFB21418F42B1802C0982CA3
:104F4000212CA4FE10C0B60180E390E00E94FF2750
:104F5000A2FE17C0A1FC03C088E790E002C088E56C
:104F600090E0B6010CC08A2D867859F0A1FE02C0EF
:104F70008BE201C080E2A7FC8DE2B60190E00E94C6
:104F8000FF27891438F4B60180E390E00E94FF27E0
:104F90009A94F7CF8A94F301E80DF11D8081B60150
:104FA00090E00E94FF278110F5CF222009F442CE25
:104FB000B60180E290E00E94FF272A94F6CFF60126
:104FC0008681978102C08FEF9FEF2B96E2E10C94D0
:104FD000FD28FC010590615070400110D8F78095C4
:104FE00090958E0F9F1F0895FC01615070400190B5
:104FF0000110D8F7809590958E0F9F1F08950F93FD
:105000001F93CF93DF93FB01238121FD03C08FEF1B
:105010009FEF2CC022FF16C0468157812481358125
:105020004217530744F4A081B1819D012F5F3F4F88
:10503000318320838C93268137812F5F3F4F3783C5
:10504000268314C08B01EC01FB010084F185E02D67
:105050000995892BE1F6D80116968D919C911797A9
:10506000019617969C938E931697CE01DF91CF9160
:105070001F910F910895FA01AA27283051F120318C
:1050800081F1E8946F936E7F6E5F7F4F8F4F9F4FDC
:10509000AF4FB1E03ED0B4E03CD0670F781F891F1E
:1050A0009A1FA11D680F791F8A1F911DA11D6A0FEC
:1050B000711D811D911DA11D20D009F468943F919F
:1050C0002AE0269F11243019305D3193DEF6CF019E
:1050D0000895462F4770405D4193B3E00FD0C9F764
:1050E000F6CF462F4F70405D4A3318F0495D31FDD1
:1050F0004052419302D0A9F7EACFB4E0A695979524
:10510000879577956795BA95C9F7009761057105F9
:1051100008959B01AC010A2E069457954795379543
:105120002795BA95C9F7620F731F841F951FA01D9D
:105130000895F999FECF92BD81BDF89A992780B55F
:105140000895A6E1B0E044E050E00C94D328A8E133
:10515000B0E042E050E00C94D328262FF999FECF1E
:1051600092BD81BDF89A019700B4021639F01FBABA
:1051700020BD0FB6F894FA9AF99A0FBE08950396D7
:10518000272F0E94AE280E94AD28252F0E94AE280E
:10519000242F0C94AE280196272F0E94AE280C9441
:1051A000AD28DC01CB01FC01F999FECF06C0F2BDB0
:1051B000E1BDF89A319600B40D9241505040B8F7D5
:1051C00008952F923F924F925F926F927F928F92AB
:1051D0009F92AF92BF92CF92DF92EF92FF920F9386
:1051E0001F93CF93DF93CDB7DEB7CA1BDB0B0FB690
:1051F000F894DEBF0FBECDBF09942A88398848884D
:105200005F846E847D848C849B84AA84B984C884E2
:10521000DF80EE80FD800C811B81AA81B981CE0FD9
:10522000D11D0FB6F894DEBF0FBECDBFED010895BE
:04523000F894FFCF20
:105234000000000300000000701CFE1C00002D1F75
:105244002C1F40233F232563256300090B02060C12
:1052540006E806180A3B078707E70619065808E711
:1052640006E7062106D60809092F063C09400AE785
:1052740006E7063D06E7068E06E706B80B0A0C9914
:105284000A820C5A09B9097907E7060000010006E9
:105294000007004E0D02060C06E806180A3B0787B5
:1052A40007E70619065808E706E7062106D608099F
:1052B400092F063C09400AE706E7063D06E7068E85
:1052C40006E706B80B0A0C990A820C5A09B909793F
:0452D40007E70600E2
:00000001FF
